{
	"src/FinLock.sol": {
		"FinLock": {
			"abi": [
				{
					"inputs": [
						{
							"internalType": "uint256",
							"name": "_fee",
							"type": "uint256"
						}
					],
					"stateMutability": "nonpayable",
					"type": "constructor"
				},
				{
					"anonymous": false,
					"inputs": [
						{
							"indexed": true,
							"internalType": "uint256",
							"name": "id",
							"type": "uint256"
						},
						{
							"indexed": false,
							"internalType": "address",
							"name": "token",
							"type": "address"
						},
						{
							"indexed": false,
							"internalType": "address",
							"name": "owner",
							"type": "address"
						},
						{
							"indexed": false,
							"internalType": "uint256",
							"name": "amount",
							"type": "uint256"
						},
						{
							"indexed": false,
							"internalType": "uint256",
							"name": "unlockDate",
							"type": "uint256"
						}
					],
					"name": "LockAdded",
					"type": "event"
				},
				{
					"anonymous": false,
					"inputs": [
						{
							"indexed": false,
							"internalType": "uint256",
							"name": "lockId",
							"type": "uint256"
						},
						{
							"indexed": false,
							"internalType": "address",
							"name": "owner",
							"type": "address"
						},
						{
							"indexed": false,
							"internalType": "address",
							"name": "newOwner",
							"type": "address"
						}
					],
					"name": "LockOwnerChanged",
					"type": "event"
				},
				{
					"anonymous": false,
					"inputs": [
						{
							"indexed": true,
							"internalType": "uint256",
							"name": "id",
							"type": "uint256"
						},
						{
							"indexed": false,
							"internalType": "address",
							"name": "token",
							"type": "address"
						},
						{
							"indexed": false,
							"internalType": "address",
							"name": "owner",
							"type": "address"
						},
						{
							"indexed": false,
							"internalType": "uint256",
							"name": "amount",
							"type": "uint256"
						},
						{
							"indexed": false,
							"internalType": "uint256",
							"name": "unlockedAt",
							"type": "uint256"
						}
					],
					"name": "LockRemoved",
					"type": "event"
				},
				{
					"anonymous": false,
					"inputs": [
						{
							"indexed": true,
							"internalType": "uint256",
							"name": "id",
							"type": "uint256"
						},
						{
							"indexed": false,
							"internalType": "address",
							"name": "token",
							"type": "address"
						},
						{
							"indexed": false,
							"internalType": "address",
							"name": "owner",
							"type": "address"
						},
						{
							"indexed": false,
							"internalType": "uint256",
							"name": "newAmount",
							"type": "uint256"
						},
						{
							"indexed": false,
							"internalType": "uint256",
							"name": "newUnlockDate",
							"type": "uint256"
						}
					],
					"name": "LockUpdated",
					"type": "event"
				},
				{
					"anonymous": false,
					"inputs": [
						{
							"indexed": true,
							"internalType": "address",
							"name": "previousOwner",
							"type": "address"
						},
						{
							"indexed": true,
							"internalType": "address",
							"name": "newOwner",
							"type": "address"
						}
					],
					"name": "OwnershipTransferred",
					"type": "event"
				},
				{
					"inputs": [],
					"name": "allLocks",
					"outputs": [
						{
							"components": [
								{
									"internalType": "uint256",
									"name": "id",
									"type": "uint256"
								},
								{
									"internalType": "address",
									"name": "token",
									"type": "address"
								},
								{
									"internalType": "address",
									"name": "owner",
									"type": "address"
								},
								{
									"internalType": "uint256",
									"name": "amount",
									"type": "uint256"
								},
								{
									"internalType": "uint256",
									"name": "lockDate",
									"type": "uint256"
								},
								{
									"internalType": "uint256",
									"name": "unlockDate",
									"type": "uint256"
								}
							],
							"internalType": "struct FinLock.Lock[]",
							"name": "",
							"type": "tuple[]"
						}
					],
					"stateMutability": "view",
					"type": "function"
				},
				{
					"inputs": [],
					"name": "allLpTokenLockedCount",
					"outputs": [
						{
							"internalType": "uint256",
							"name": "",
							"type": "uint256"
						}
					],
					"stateMutability": "view",
					"type": "function"
				},
				{
					"inputs": [],
					"name": "allNormalTokenLockedCount",
					"outputs": [
						{
							"internalType": "uint256",
							"name": "",
							"type": "uint256"
						}
					],
					"stateMutability": "view",
					"type": "function"
				},
				{
					"inputs": [
						{
							"internalType": "address",
							"name": "",
							"type": "address"
						}
					],
					"name": "cumulativeLockInfo",
					"outputs": [
						{
							"internalType": "address",
							"name": "token",
							"type": "address"
						},
						{
							"internalType": "address",
							"name": "factory",
							"type": "address"
						},
						{
							"internalType": "uint256",
							"name": "amount",
							"type": "uint256"
						}
					],
					"stateMutability": "view",
					"type": "function"
				},
				{
					"inputs": [
						{
							"internalType": "uint256",
							"name": "lockId",
							"type": "uint256"
						},
						{
							"internalType": "uint256",
							"name": "newAmount",
							"type": "uint256"
						},
						{
							"internalType": "uint256",
							"name": "newUnlockDate",
							"type": "uint256"
						}
					],
					"name": "editLock",
					"outputs": [],
					"stateMutability": "payable",
					"type": "function"
				},
				{
					"inputs": [],
					"name": "fee",
					"outputs": [
						{
							"internalType": "uint256",
							"name": "",
							"type": "uint256"
						}
					],
					"stateMutability": "view",
					"type": "function"
				},
				{
					"inputs": [
						{
							"internalType": "uint256",
							"name": "start",
							"type": "uint256"
						},
						{
							"internalType": "uint256",
							"name": "end",
							"type": "uint256"
						}
					],
					"name": "getCumulativeLpTokenLockInfo",
					"outputs": [
						{
							"components": [
								{
									"internalType": "address",
									"name": "token",
									"type": "address"
								},
								{
									"internalType": "address",
									"name": "factory",
									"type": "address"
								},
								{
									"internalType": "uint256",
									"name": "amount",
									"type": "uint256"
								}
							],
							"internalType": "struct FinLock.CumulativeLockInfo[]",
							"name": "",
							"type": "tuple[]"
						}
					],
					"stateMutability": "view",
					"type": "function"
				},
				{
					"inputs": [
						{
							"internalType": "uint256",
							"name": "index",
							"type": "uint256"
						}
					],
					"name": "getCumulativeLpTokenLockInfoAt",
					"outputs": [
						{
							"components": [
								{
									"internalType": "address",
									"name": "token",
									"type": "address"
								},
								{
									"internalType": "address",
									"name": "factory",
									"type": "address"
								},
								{
									"internalType": "uint256",
									"name": "amount",
									"type": "uint256"
								}
							],
							"internalType": "struct FinLock.CumulativeLockInfo",
							"name": "",
							"type": "tuple"
						}
					],
					"stateMutability": "view",
					"type": "function"
				},
				{
					"inputs": [
						{
							"internalType": "uint256",
							"name": "start",
							"type": "uint256"
						},
						{
							"internalType": "uint256",
							"name": "end",
							"type": "uint256"
						}
					],
					"name": "getCumulativeNormalTokenLockInfo",
					"outputs": [
						{
							"components": [
								{
									"internalType": "address",
									"name": "token",
									"type": "address"
								},
								{
									"internalType": "address",
									"name": "factory",
									"type": "address"
								},
								{
									"internalType": "uint256",
									"name": "amount",
									"type": "uint256"
								}
							],
							"internalType": "struct FinLock.CumulativeLockInfo[]",
							"name": "",
							"type": "tuple[]"
						}
					],
					"stateMutability": "view",
					"type": "function"
				},
				{
					"inputs": [
						{
							"internalType": "uint256",
							"name": "index",
							"type": "uint256"
						}
					],
					"name": "getCumulativeNormalTokenLockInfoAt",
					"outputs": [
						{
							"components": [
								{
									"internalType": "address",
									"name": "token",
									"type": "address"
								},
								{
									"internalType": "address",
									"name": "factory",
									"type": "address"
								},
								{
									"internalType": "uint256",
									"name": "amount",
									"type": "uint256"
								}
							],
							"internalType": "struct FinLock.CumulativeLockInfo",
							"name": "",
							"type": "tuple"
						}
					],
					"stateMutability": "view",
					"type": "function"
				},
				{
					"inputs": [
						{
							"internalType": "uint256",
							"name": "index",
							"type": "uint256"
						}
					],
					"name": "getLockAt",
					"outputs": [
						{
							"components": [
								{
									"internalType": "uint256",
									"name": "id",
									"type": "uint256"
								},
								{
									"internalType": "address",
									"name": "token",
									"type": "address"
								},
								{
									"internalType": "address",
									"name": "owner",
									"type": "address"
								},
								{
									"internalType": "uint256",
									"name": "amount",
									"type": "uint256"
								},
								{
									"internalType": "uint256",
									"name": "lockDate",
									"type": "uint256"
								},
								{
									"internalType": "uint256",
									"name": "unlockDate",
									"type": "uint256"
								}
							],
							"internalType": "struct FinLock.Lock",
							"name": "",
							"type": "tuple"
						}
					],
					"stateMutability": "view",
					"type": "function"
				},
				{
					"inputs": [
						{
							"internalType": "address",
							"name": "token",
							"type": "address"
						},
						{
							"internalType": "uint256",
							"name": "start",
							"type": "uint256"
						},
						{
							"internalType": "uint256",
							"name": "end",
							"type": "uint256"
						}
					],
					"name": "getLocksForToken",
					"outputs": [
						{
							"components": [
								{
									"internalType": "uint256",
									"name": "id",
									"type": "uint256"
								},
								{
									"internalType": "address",
									"name": "token",
									"type": "address"
								},
								{
									"internalType": "address",
									"name": "owner",
									"type": "address"
								},
								{
									"internalType": "uint256",
									"name": "amount",
									"type": "uint256"
								},
								{
									"internalType": "uint256",
									"name": "lockDate",
									"type": "uint256"
								},
								{
									"internalType": "uint256",
									"name": "unlockDate",
									"type": "uint256"
								}
							],
							"internalType": "struct FinLock.Lock[]",
							"name": "",
							"type": "tuple[]"
						}
					],
					"stateMutability": "view",
					"type": "function"
				},
				{
					"inputs": [],
					"name": "getTotalLockCount",
					"outputs": [
						{
							"internalType": "uint256",
							"name": "",
							"type": "uint256"
						}
					],
					"stateMutability": "view",
					"type": "function"
				},
				{
					"inputs": [
						{
							"internalType": "address",
							"name": "owner",
							"type": "address"
						},
						{
							"internalType": "address",
							"name": "token",
							"type": "address"
						},
						{
							"internalType": "bool",
							"name": "isLpToken",
							"type": "bool"
						},
						{
							"internalType": "uint256",
							"name": "amount",
							"type": "uint256"
						},
						{
							"internalType": "uint256",
							"name": "unlockDate",
							"type": "uint256"
						}
					],
					"name": "lock",
					"outputs": [
						{
							"internalType": "uint256",
							"name": "id",
							"type": "uint256"
						}
					],
					"stateMutability": "payable",
					"type": "function"
				},
				{
					"inputs": [
						{
							"internalType": "address",
							"name": "user",
							"type": "address"
						}
					],
					"name": "lpLockCountForUser",
					"outputs": [
						{
							"internalType": "uint256",
							"name": "",
							"type": "uint256"
						}
					],
					"stateMutability": "view",
					"type": "function"
				},
				{
					"inputs": [
						{
							"internalType": "address",
							"name": "user",
							"type": "address"
						},
						{
							"internalType": "uint256",
							"name": "index",
							"type": "uint256"
						}
					],
					"name": "lpLockForUserAtIndex",
					"outputs": [
						{
							"components": [
								{
									"internalType": "uint256",
									"name": "id",
									"type": "uint256"
								},
								{
									"internalType": "address",
									"name": "token",
									"type": "address"
								},
								{
									"internalType": "address",
									"name": "owner",
									"type": "address"
								},
								{
									"internalType": "uint256",
									"name": "amount",
									"type": "uint256"
								},
								{
									"internalType": "uint256",
									"name": "lockDate",
									"type": "uint256"
								},
								{
									"internalType": "uint256",
									"name": "unlockDate",
									"type": "uint256"
								}
							],
							"internalType": "struct FinLock.Lock",
							"name": "",
							"type": "tuple"
						}
					],
					"stateMutability": "view",
					"type": "function"
				},
				{
					"inputs": [
						{
							"internalType": "address",
							"name": "user",
							"type": "address"
						}
					],
					"name": "lpLocksForUser",
					"outputs": [
						{
							"components": [
								{
									"internalType": "uint256",
									"name": "id",
									"type": "uint256"
								},
								{
									"internalType": "address",
									"name": "token",
									"type": "address"
								},
								{
									"internalType": "address",
									"name": "owner",
									"type": "address"
								},
								{
									"internalType": "uint256",
									"name": "amount",
									"type": "uint256"
								},
								{
									"internalType": "uint256",
									"name": "lockDate",
									"type": "uint256"
								},
								{
									"internalType": "uint256",
									"name": "unlockDate",
									"type": "uint256"
								}
							],
							"internalType": "struct FinLock.Lock[]",
							"name": "",
							"type": "tuple[]"
						}
					],
					"stateMutability": "view",
					"type": "function"
				},
				{
					"inputs": [
						{
							"internalType": "address",
							"name": "user",
							"type": "address"
						}
					],
					"name": "normalLockCountForUser",
					"outputs": [
						{
							"internalType": "uint256",
							"name": "",
							"type": "uint256"
						}
					],
					"stateMutability": "view",
					"type": "function"
				},
				{
					"inputs": [
						{
							"internalType": "address",
							"name": "user",
							"type": "address"
						},
						{
							"internalType": "uint256",
							"name": "index",
							"type": "uint256"
						}
					],
					"name": "normalLockForUserAtIndex",
					"outputs": [
						{
							"components": [
								{
									"internalType": "uint256",
									"name": "id",
									"type": "uint256"
								},
								{
									"internalType": "address",
									"name": "token",
									"type": "address"
								},
								{
									"internalType": "address",
									"name": "owner",
									"type": "address"
								},
								{
									"internalType": "uint256",
									"name": "amount",
									"type": "uint256"
								},
								{
									"internalType": "uint256",
									"name": "lockDate",
									"type": "uint256"
								},
								{
									"internalType": "uint256",
									"name": "unlockDate",
									"type": "uint256"
								}
							],
							"internalType": "struct FinLock.Lock",
							"name": "",
							"type": "tuple"
						}
					],
					"stateMutability": "view",
					"type": "function"
				},
				{
					"inputs": [
						{
							"internalType": "address",
							"name": "user",
							"type": "address"
						}
					],
					"name": "normalLocksForUser",
					"outputs": [
						{
							"components": [
								{
									"internalType": "uint256",
									"name": "id",
									"type": "uint256"
								},
								{
									"internalType": "address",
									"name": "token",
									"type": "address"
								},
								{
									"internalType": "address",
									"name": "owner",
									"type": "address"
								},
								{
									"internalType": "uint256",
									"name": "amount",
									"type": "uint256"
								},
								{
									"internalType": "uint256",
									"name": "lockDate",
									"type": "uint256"
								},
								{
									"internalType": "uint256",
									"name": "unlockDate",
									"type": "uint256"
								}
							],
							"internalType": "struct FinLock.Lock[]",
							"name": "",
							"type": "tuple[]"
						}
					],
					"stateMutability": "view",
					"type": "function"
				},
				{
					"inputs": [],
					"name": "owner",
					"outputs": [
						{
							"internalType": "address",
							"name": "",
							"type": "address"
						}
					],
					"stateMutability": "view",
					"type": "function"
				},
				{
					"inputs": [
						{
							"internalType": "uint256",
							"name": "lockId",
							"type": "uint256"
						}
					],
					"name": "renounceLockOwnership",
					"outputs": [],
					"stateMutability": "nonpayable",
					"type": "function"
				},
				{
					"inputs": [],
					"name": "renounceOwnership",
					"outputs": [],
					"stateMutability": "nonpayable",
					"type": "function"
				},
				{
					"inputs": [
						{
							"internalType": "uint256",
							"name": "newFee",
							"type": "uint256"
						}
					],
					"name": "setFee",
					"outputs": [],
					"stateMutability": "nonpayable",
					"type": "function"
				},
				{
					"inputs": [
						{
							"internalType": "address",
							"name": "token",
							"type": "address"
						}
					],
					"name": "totalLockCountForToken",
					"outputs": [
						{
							"internalType": "uint256",
							"name": "",
							"type": "uint256"
						}
					],
					"stateMutability": "view",
					"type": "function"
				},
				{
					"inputs": [
						{
							"internalType": "address",
							"name": "user",
							"type": "address"
						}
					],
					"name": "totalLockCountForUser",
					"outputs": [
						{
							"internalType": "uint256",
							"name": "",
							"type": "uint256"
						}
					],
					"stateMutability": "view",
					"type": "function"
				},
				{
					"inputs": [],
					"name": "totalTokenLockedCount",
					"outputs": [
						{
							"internalType": "uint256",
							"name": "",
							"type": "uint256"
						}
					],
					"stateMutability": "view",
					"type": "function"
				},
				{
					"inputs": [
						{
							"internalType": "address",
							"name": "newOwner",
							"type": "address"
						}
					],
					"name": "transferOwnership",
					"outputs": [],
					"stateMutability": "nonpayable",
					"type": "function"
				},
				{
					"inputs": [
						{
							"internalType": "uint256",
							"name": "lockId",
							"type": "uint256"
						}
					],
					"name": "unlock",
					"outputs": [],
					"stateMutability": "nonpayable",
					"type": "function"
				},
				{
					"inputs": [],
					"name": "withdrawFee",
					"outputs": [],
					"stateMutability": "nonpayable",
					"type": "function"
				}
			],
			"devdoc": {
				"kind": "dev",
				"methods": {
					"owner()": {
						"details": "Returns the address of the current owner."
					},
					"renounceOwnership()": {
						"details": "Leaves the contract without owner. It will not be possible to call `onlyOwner` functions. Can only be called by the current owner. NOTE: Renouncing ownership will leave the contract without an owner, thereby disabling any functionality that is only available to the owner."
					},
					"transferOwnership(address)": {
						"details": "Transfers ownership of the contract to a new account (`newOwner`). Can only be called by the current owner."
					}
				},
				"version": 1
			},
			"evm": {
				"assembly": "    /* \"src/FinLock.sol\":564:15608  contract FinLock is IPinkLock, Ownable {... */\n  mstore(0x40, 0x80)\n    /* \"src/FinLock.sol\":2301:2354  constructor(uint256 _fee) {... */\n  callvalue\n  dup1\n  iszero\n  tag_1\n  jumpi\n  0x00\n  dup1\n  revert\ntag_1:\n  pop\n  mload(0x40)\n  sub(codesize, bytecodeSize)\n  dup1\n  bytecodeSize\n  dup4\n  codecopy\n  dup2\n  add\n  0x40\n  dup2\n  swap1\n  mstore\n  tag_2\n  swap2\n  tag_3\n  jump\t// in\ntag_2:\n    /* \"@openzeppelin/contracts/access/Ownable.sol\":936:968  _transferOwnership(_msgSender()) */\n  tag_7\n    /* \"@openzeppelin/contracts/utils/Context.sol\":719:729  msg.sender */\n  caller\n    /* \"@openzeppelin/contracts/access/Ownable.sol\":936:954  _transferOwnership */\n  tag_10\n    /* \"@openzeppelin/contracts/access/Ownable.sol\":936:968  _transferOwnership(_msgSender()) */\n  jump\t// in\ntag_7:\n    /* \"src/FinLock.sol\":2337:2340  fee */\n  0x01\n    /* \"src/FinLock.sol\":2337:2347  fee = _fee */\n  sstore\n    /* \"src/FinLock.sol\":564:15608  contract FinLock is IPinkLock, Ownable {... */\n  jump(tag_15)\n    /* \"@openzeppelin/contracts/access/Ownable.sol\":2426:2613  function _transferOwnership(address newOwner) internal virtual {... */\ntag_10:\n    /* \"@openzeppelin/contracts/access/Ownable.sol\":2499:2515  address oldOwner */\n  0x00\n    /* \"@openzeppelin/contracts/access/Ownable.sol\":2518:2524  _owner */\n  dup1\n  sload\n  sub(shl(0xa0, 0x01), 0x01)\n    /* \"@openzeppelin/contracts/access/Ownable.sol\":2534:2551  _owner = newOwner */\n  dup4\n  dup2\n  and\n  not(sub(shl(0xa0, 0x01), 0x01))\n  dup4\n  and\n  dup2\n  or\n  dup5\n  sstore\n    /* \"@openzeppelin/contracts/access/Ownable.sol\":2566:2606  OwnershipTransferred(oldOwner, newOwner) */\n  mload(0x40)\n    /* \"@openzeppelin/contracts/access/Ownable.sol\":2518:2524  _owner */\n  swap2\n  swap1\n  swap3\n  and\n  swap3\n  dup4\n  swap2\n    /* \"@openzeppelin/contracts/access/Ownable.sol\":2566:2606  OwnershipTransferred(oldOwner, newOwner) */\n  0x8be0079c531659141344cd1fd0a4f28419497f9722a3daafe3b4186f6b6457e0\n  swap2\n    /* \"@openzeppelin/contracts/access/Ownable.sol\":2499:2515  address oldOwner */\n  swap1\n    /* \"@openzeppelin/contracts/access/Ownable.sol\":2566:2606  OwnershipTransferred(oldOwner, newOwner) */\n  log3\n    /* \"@openzeppelin/contracts/access/Ownable.sol\":2489:2613  {... */\n  pop\n    /* \"@openzeppelin/contracts/access/Ownable.sol\":2426:2613  function _transferOwnership(address newOwner) internal virtual {... */\n  pop\n  jump\t// out\n    /* \"#utility.yul\":14:198   */\ntag_3:\n    /* \"#utility.yul\":84:90   */\n  0x00\n    /* \"#utility.yul\":137:139   */\n  0x20\n    /* \"#utility.yul\":125:134   */\n  dup3\n    /* \"#utility.yul\":116:123   */\n  dup5\n    /* \"#utility.yul\":112:135   */\n  sub\n    /* \"#utility.yul\":108:140   */\n  slt\n    /* \"#utility.yul\":105:157   */\n  iszero\n  tag_17\n  jumpi\n    /* \"#utility.yul\":153:154   */\n  0x00\n    /* \"#utility.yul\":150:151   */\n  dup1\n    /* \"#utility.yul\":143:155   */\n  revert\n    /* \"#utility.yul\":105:157   */\ntag_17:\n  pop\n    /* \"#utility.yul\":176:192   */\n  mload\n  swap2\n    /* \"#utility.yul\":14:198   */\n  swap1\n  pop\n  jump\t// out\ntag_15:\n    /* \"src/FinLock.sol\":564:15608  contract FinLock is IPinkLock, Ownable {... */\n  dataSize(sub_0)\n  dup1\n  dataOffset(sub_0)\n  0x00\n  codecopy\n  0x00\n  return\nstop\n\nsub_0: assembly {\n        /* \"src/FinLock.sol\":564:15608  contract FinLock is IPinkLock, Ownable {... */\n      mstore(0x40, 0x80)\n      jumpi(tag_1, lt(calldatasize, 0x04))\n      shr(0xe0, calldataload(0x00))\n      dup1\n      0xa57e3141\n      gt\n      tag_32\n      jumpi\n      dup1\n      0xddca3f43\n      gt\n      tag_33\n      jumpi\n      dup1\n      0xeb80bdae\n      gt\n      tag_34\n      jumpi\n      dup1\n      0xeb80bdae\n      eq\n      tag_28\n      jumpi\n      dup1\n      0xeeacf786\n      eq\n      tag_29\n      jumpi\n      dup1\n      0xf2fde38b\n      eq\n      tag_30\n      jumpi\n      dup1\n      0xfd981c66\n      eq\n      tag_31\n      jumpi\n      0x00\n      dup1\n      revert\n    tag_34:\n      dup1\n      0xddca3f43\n      eq\n      tag_24\n      jumpi\n      dup1\n      0xe1444fd6\n      eq\n      tag_25\n      jumpi\n      dup1\n      0xe3676f88\n      eq\n      tag_26\n      jumpi\n      dup1\n      0xe941fa78\n      eq\n      tag_27\n      jumpi\n      0x00\n      dup1\n      revert\n    tag_33:\n      dup1\n      0xb3b9aa48\n      gt\n      tag_35\n      jumpi\n      dup1\n      0xb3b9aa48\n      eq\n      tag_20\n      jumpi\n      dup1\n      0xb982922e\n      eq\n      tag_21\n      jumpi\n      dup1\n      0xcd83eadc\n      eq\n      tag_22\n      jumpi\n      dup1\n      0xda1d8cff\n      eq\n      tag_23\n      jumpi\n      0x00\n      dup1\n      revert\n    tag_35:\n      dup1\n      0xa57e3141\n      eq\n      tag_17\n      jumpi\n      dup1\n      0xaec640c6\n      eq\n      tag_18\n      jumpi\n      dup1\n      0xaef0e540\n      eq\n      tag_19\n      jumpi\n      0x00\n      dup1\n      revert\n    tag_32:\n      dup1\n      0x6198e339\n      gt\n      tag_36\n      jumpi\n      dup1\n      0x76c12822\n      gt\n      tag_37\n      jumpi\n      dup1\n      0x76c12822\n      eq\n      tag_13\n      jumpi\n      dup1\n      0x7e6706d3\n      eq\n      tag_14\n      jumpi\n      dup1\n      0x8da5cb5b\n      eq\n      tag_15\n      jumpi\n      dup1\n      0xa20b8c18\n      eq\n      tag_16\n      jumpi\n      0x00\n      dup1\n      revert\n    tag_37:\n      dup1\n      0x6198e339\n      eq\n      tag_9\n      jumpi\n      dup1\n      0x64be5b39\n      eq\n      tag_10\n      jumpi\n      dup1\n      0x69fe0e2d\n      eq\n      tag_11\n      jumpi\n      dup1\n      0x715018a6\n      eq\n      tag_12\n      jumpi\n      0x00\n      dup1\n      revert\n    tag_36:\n      dup1\n      0x332f26d7\n      gt\n      tag_38\n      jumpi\n      dup1\n      0x332f26d7\n      eq\n      tag_5\n      jumpi\n      dup1\n      0x475831c8\n      eq\n      tag_6\n      jumpi\n      dup1\n      0x5fbdf739\n      eq\n      tag_7\n      jumpi\n      dup1\n      0x618df7a3\n      eq\n      tag_8\n      jumpi\n      0x00\n      dup1\n      revert\n    tag_38:\n      dup1\n      0x07873ef1\n      eq\n      tag_2\n      jumpi\n      dup1\n      0x0d4f581a\n      eq\n      tag_3\n      jumpi\n      dup1\n      0x1982242c\n      eq\n      tag_4\n      jumpi\n    tag_1:\n      0x00\n      dup1\n      revert\n        /* \"src/FinLock.sol\":12816:12941  function lpLockCountForUser(address user) public view returns (uint256) {... */\n    tag_2:\n      callvalue\n      dup1\n      iszero\n      tag_39\n      jumpi\n      0x00\n      dup1\n      revert\n    tag_39:\n      pop\n      tag_40\n      tag_41\n      calldatasize\n      0x04\n      tag_42\n      jump\t// in\n    tag_41:\n      tag_43\n      jump\t// in\n    tag_40:\n      mload(0x40)\n        /* \"#utility.yul\":548:573   */\n      swap1\n      dup2\n      mstore\n        /* \"#utility.yul\":536:538   */\n      0x20\n        /* \"#utility.yul\":521:539   */\n      add\n        /* \"src/FinLock.sol\":12816:12941  function lpLockCountForUser(address user) public view returns (uint256) {... */\n    tag_44:\n      mload(0x40)\n      dup1\n      swap2\n      sub\n      swap1\n      return\n        /* \"src/FinLock.sol\":10629:10734  function getLockAt(uint256 index) public view returns (Lock memory) {... */\n    tag_3:\n      callvalue\n      dup1\n      iszero\n      tag_46\n      jumpi\n      0x00\n      dup1\n      revert\n    tag_46:\n      pop\n      tag_47\n      tag_48\n      calldatasize\n      0x04\n      tag_49\n      jump\t// in\n    tag_48:\n      tag_50\n      jump\t// in\n    tag_47:\n      mload(0x40)\n      tag_44\n      swap2\n      swap1\n      tag_52\n      jump\t// in\n        /* \"src/FinLock.sol\":12670:12810  function totalTokenLockedCount() public view returns (uint256) {... */\n    tag_4:\n      callvalue\n      dup1\n      iszero\n      tag_53\n      jumpi\n      0x00\n      dup1\n      revert\n    tag_53:\n      pop\n      tag_40\n      tag_55\n      jump\t// in\n        /* \"src/FinLock.sol\":14692:15260  function getLocksForToken(... */\n    tag_5:\n      callvalue\n      dup1\n      iszero\n      tag_57\n      jumpi\n      0x00\n      dup1\n      revert\n    tag_57:\n      pop\n      tag_58\n      tag_59\n      calldatasize\n      0x04\n      tag_60\n      jump\t// in\n    tag_59:\n      tag_61\n      jump\t// in\n    tag_58:\n      mload(0x40)\n      tag_44\n      swap2\n      swap1\n      tag_63\n      jump\t// in\n        /* \"src/FinLock.sol\":10857:10976  function allNormalTokenLockedCount() public view returns (uint256) {... */\n    tag_6:\n      callvalue\n      dup1\n      iszero\n      tag_64\n      jumpi\n      0x00\n      dup1\n      revert\n    tag_64:\n      pop\n      tag_40\n      tag_66\n      jump\t// in\n        /* \"src/FinLock.sol\":10435:10521  function allLocks() public view returns (Lock[] memory) {... */\n    tag_7:\n      callvalue\n      dup1\n      iszero\n      tag_68\n      jumpi\n      0x00\n      dup1\n      revert\n    tag_68:\n      pop\n      tag_58\n      tag_70\n      jump\t// in\n        /* \"src/FinLock.sol\":14097:14360  function normalLockForUserAtIndex(address user, uint256 index)... */\n    tag_8:\n      callvalue\n      dup1\n      iszero\n      tag_72\n      jumpi\n      0x00\n      dup1\n      revert\n    tag_72:\n      pop\n      tag_47\n      tag_74\n      calldatasize\n      0x04\n      tag_75\n      jump\t// in\n    tag_74:\n      tag_76\n      jump\t// in\n        /* \"src/FinLock.sol\":5650:7184  function unlock(uint256 lockId) external override validLock(lockId) {... */\n    tag_9:\n      callvalue\n      dup1\n      iszero\n      tag_78\n      jumpi\n      0x00\n      dup1\n      revert\n    tag_78:\n      pop\n      tag_79\n      tag_80\n      calldatasize\n      0x04\n      tag_49\n      jump\t// in\n    tag_80:\n      tag_81\n      jump\t// in\n    tag_79:\n      stop\n        /* \"src/FinLock.sol\":2560:3953  function lock(... */\n    tag_10:\n      tag_40\n      tag_83\n      calldatasize\n      0x04\n      tag_84\n      jump\t// in\n    tag_83:\n      tag_85\n      jump\t// in\n        /* \"src/FinLock.sol\":2360:2440  function setFee(uint256 newFee) external onlyOwner {... */\n    tag_11:\n      callvalue\n      dup1\n      iszero\n      tag_87\n      jumpi\n      0x00\n      dup1\n      revert\n    tag_87:\n      pop\n      tag_79\n      tag_89\n      calldatasize\n      0x04\n      tag_49\n      jump\t// in\n    tag_89:\n      tag_90\n      jump\t// in\n        /* \"@openzeppelin/contracts/access/Ownable.sol\":1824:1925  function renounceOwnership() public virtual onlyOwner {... */\n    tag_12:\n      callvalue\n      dup1\n      iszero\n      tag_91\n      jumpi\n      0x00\n      dup1\n      revert\n    tag_91:\n      pop\n      tag_79\n      tag_93\n      jump\t// in\n        /* \"src/FinLock.sol\":12013:12664  function getCumulativeNormalTokenLockInfo(uint256 start, uint256 end)... */\n    tag_13:\n      callvalue\n      dup1\n      iszero\n      tag_94\n      jumpi\n      0x00\n      dup1\n      revert\n    tag_94:\n      pop\n      tag_95\n      tag_96\n      calldatasize\n      0x04\n      tag_97\n      jump\t// in\n    tag_96:\n      tag_98\n      jump\t// in\n    tag_95:\n      mload(0x40)\n      tag_44\n      swap2\n      swap1\n      tag_100\n      jump\t// in\n        /* \"src/FinLock.sol\":11188:11396  function getCumulativeNormalTokenLockInfoAt(uint256 index)... */\n    tag_14:\n      callvalue\n      dup1\n      iszero\n      tag_101\n      jumpi\n      0x00\n      dup1\n      revert\n    tag_101:\n      pop\n      tag_102\n      tag_103\n      calldatasize\n      0x04\n      tag_49\n      jump\t// in\n    tag_103:\n      tag_104\n      jump\t// in\n    tag_102:\n      mload(0x40)\n      tag_44\n      swap2\n      swap1\n      tag_106\n      jump\t// in\n        /* \"@openzeppelin/contracts/access/Ownable.sol\":1201:1286  function owner() public view virtual returns (address) {... */\n    tag_15:\n      callvalue\n      dup1\n      iszero\n      tag_107\n      jumpi\n      0x00\n      dup1\n      revert\n    tag_107:\n      pop\n        /* \"@openzeppelin/contracts/access/Ownable.sol\":1247:1254  address */\n      0x00\n        /* \"@openzeppelin/contracts/access/Ownable.sol\":1273:1279  _owner */\n      sload\n        /* \"@openzeppelin/contracts/access/Ownable.sol\":1201:1286  function owner() public view virtual returns (address) {... */\n      mload(0x40)\n      sub(shl(0xa0, 0x01), 0x01)\n        /* \"@openzeppelin/contracts/access/Ownable.sol\":1273:1279  _owner */\n      swap1\n      swap2\n      and\n        /* \"#utility.yul\":5379:5430   */\n      dup2\n      mstore\n        /* \"#utility.yul\":5367:5369   */\n      0x20\n        /* \"#utility.yul\":5352:5370   */\n      add\n        /* \"@openzeppelin/contracts/access/Ownable.sol\":1201:1286  function owner() public view virtual returns (address) {... */\n      tag_44\n        /* \"#utility.yul\":5233:5436   */\n      jump\n        /* \"src/FinLock.sol\":10982:11182  function getCumulativeLpTokenLockInfoAt(uint256 index)... */\n    tag_16:\n      callvalue\n      dup1\n      iszero\n      tag_112\n      jumpi\n      0x00\n      dup1\n      revert\n    tag_112:\n      pop\n      tag_102\n      tag_114\n      calldatasize\n      0x04\n      tag_49\n      jump\t// in\n    tag_114:\n      tag_115\n      jump\t// in\n        /* \"src/FinLock.sol\":9793:9905  function renounceLockOwnership(uint256 lockId) external {... */\n    tag_17:\n      callvalue\n      dup1\n      iszero\n      tag_117\n      jumpi\n      0x00\n      dup1\n      revert\n    tag_117:\n      pop\n      tag_79\n      tag_119\n      calldatasize\n      0x04\n      tag_49\n      jump\t// in\n    tag_119:\n      tag_120\n      jump\t// in\n        /* \"src/FinLock.sol\":11402:12007  function getCumulativeLpTokenLockInfo(uint256 start, uint256 end)... */\n    tag_18:\n      callvalue\n      dup1\n      iszero\n      tag_121\n      jumpi\n      0x00\n      dup1\n      revert\n    tag_121:\n      pop\n      tag_95\n      tag_123\n      calldatasize\n      0x04\n      tag_97\n      jump\t// in\n    tag_123:\n      tag_124\n      jump\t// in\n        /* \"src/FinLock.sol\":12947:13284  function lpLocksForUser(address user) public view returns (Lock[] memory) {... */\n    tag_19:\n      callvalue\n      dup1\n      iszero\n      tag_126\n      jumpi\n      0x00\n      dup1\n      revert\n    tag_126:\n      pop\n      tag_58\n      tag_128\n      calldatasize\n      0x04\n      tag_42\n      jump\t// in\n    tag_128:\n      tag_129\n      jump\t// in\n        /* \"src/FinLock.sol\":7190:8810  function editLock(... */\n    tag_20:\n      tag_79\n      tag_132\n      calldatasize\n      0x04\n      tag_133\n      jump\t// in\n    tag_132:\n      tag_134\n      jump\t// in\n        /* \"src/FinLock.sol\":10740:10851  function allLpTokenLockedCount() public view returns (uint256) {... */\n    tag_21:\n      callvalue\n      dup1\n      iszero\n      tag_135\n      jumpi\n      0x00\n      dup1\n      revert\n    tag_135:\n      pop\n      tag_40\n      tag_137\n      jump\t// in\n        /* \"src/FinLock.sol\":14366:14520  function totalLockCountForUser(address user) public view returns (uint256) {... */\n    tag_22:\n      callvalue\n      dup1\n      iszero\n      tag_139\n      jumpi\n      0x00\n      dup1\n      revert\n    tag_139:\n      pop\n      tag_40\n      tag_141\n      calldatasize\n      0x04\n      tag_42\n      jump\t// in\n    tag_141:\n      tag_142\n      jump\t// in\n        /* \"src/FinLock.sol\":13714:14091  function normalLocksForUser(address user)... */\n    tag_23:\n      callvalue\n      dup1\n      iszero\n      tag_144\n      jumpi\n      0x00\n      dup1\n      revert\n    tag_144:\n      pop\n      tag_58\n      tag_146\n      calldatasize\n      0x04\n      tag_42\n      jump\t// in\n    tag_146:\n      tag_147\n      jump\t// in\n        /* \"src/FinLock.sol\":1066:1084  uint256 public fee */\n    tag_24:\n      callvalue\n      dup1\n      iszero\n      tag_149\n      jumpi\n      0x00\n      dup1\n      revert\n    tag_149:\n      pop\n      tag_40\n      sload(0x01)\n      dup2\n      jump\n        /* \"src/FinLock.sol\":1375:1439  mapping(address => CumulativeLockInfo) public cumulativeLockInfo */\n    tag_25:\n      callvalue\n      dup1\n      iszero\n      tag_153\n      jumpi\n      0x00\n      dup1\n      revert\n    tag_153:\n      pop\n      tag_154\n      tag_155\n      calldatasize\n      0x04\n      tag_42\n      jump\t// in\n    tag_155:\n      mstore(0x20, 0x09)\n      0x00\n      swap1\n      dup2\n      mstore\n      0x40\n      swap1\n      keccak256\n      dup1\n      sload\n      0x01\n      dup3\n      add\n      sload\n      0x02\n      swap1\n      swap3\n      add\n      sload\n      sub(shl(0xa0, 0x01), 0x01)\n      swap2\n      dup3\n      and\n      swap3\n      swap1\n      swap2\n      and\n      swap1\n      dup4\n      jump\n    tag_154:\n      0x40\n      dup1\n      mload\n      sub(shl(0xa0, 0x01), 0x01)\n        /* \"#utility.yul\":6020:6035   */\n      swap5\n      dup6\n      and\n        /* \"#utility.yul\":6002:6036   */\n      dup2\n      mstore\n        /* \"#utility.yul\":6072:6087   */\n      swap4\n      swap1\n      swap3\n      and\n        /* \"#utility.yul\":6067:6069   */\n      0x20\n        /* \"#utility.yul\":6052:6070   */\n      dup5\n      add\n        /* \"#utility.yul\":6045:6088   */\n      mstore\n        /* \"#utility.yul\":6104:6122   */\n      swap1\n      dup3\n      add\n        /* \"#utility.yul\":6097:6131   */\n      mstore\n        /* \"#utility.yul\":5952:5954   */\n      0x60\n        /* \"#utility.yul\":5937:5955   */\n      add\n        /* \"src/FinLock.sol\":1375:1439  mapping(address => CumulativeLockInfo) public cumulativeLockInfo */\n      tag_44\n        /* \"#utility.yul\":5762:6137   */\n      jump\n        /* \"src/FinLock.sol\":14526:14686  function totalLockCountForToken(address token)... */\n    tag_26:\n      callvalue\n      dup1\n      iszero\n      tag_159\n      jumpi\n      0x00\n      dup1\n      revert\n    tag_159:\n      pop\n      tag_40\n      tag_161\n      calldatasize\n      0x04\n      tag_42\n      jump\t// in\n    tag_161:\n      tag_162\n      jump\t// in\n        /* \"src/FinLock.sol\":2446:2554  function withdrawFee() external onlyOwner {... */\n    tag_27:\n      callvalue\n      dup1\n      iszero\n      tag_164\n      jumpi\n      0x00\n      dup1\n      revert\n    tag_164:\n      pop\n      tag_79\n      tag_166\n      jump\t// in\n        /* \"src/FinLock.sol\":13547:13708  function normalLockCountForUser(address user)... */\n    tag_28:\n      callvalue\n      dup1\n      iszero\n      tag_167\n      jumpi\n      0x00\n      dup1\n      revert\n    tag_167:\n      pop\n      tag_40\n      tag_169\n      calldatasize\n      0x04\n      tag_42\n      jump\t// in\n    tag_169:\n      tag_170\n      jump\t// in\n        /* \"src/FinLock.sol\":13290:13541  function lpLockForUserAtIndex(address user, uint256 index)... */\n    tag_29:\n      callvalue\n      dup1\n      iszero\n      tag_172\n      jumpi\n      0x00\n      dup1\n      revert\n    tag_172:\n      pop\n      tag_47\n      tag_174\n      calldatasize\n      0x04\n      tag_75\n      jump\t// in\n    tag_174:\n      tag_175\n      jump\t// in\n        /* \"@openzeppelin/contracts/access/Ownable.sol\":2074:2272  function transferOwnership(address newOwner) public virtual onlyOwner {... */\n    tag_30:\n      callvalue\n      dup1\n      iszero\n      tag_177\n      jumpi\n      0x00\n      dup1\n      revert\n    tag_177:\n      pop\n      tag_79\n      tag_179\n      calldatasize\n      0x04\n      tag_42\n      jump\t// in\n    tag_179:\n      tag_180\n      jump\t// in\n        /* \"src/FinLock.sol\":10527:10623  function getTotalLockCount() public view returns (uint256) {... */\n    tag_31:\n      callvalue\n      dup1\n      iszero\n      tag_181\n      jumpi\n      0x00\n      dup1\n      revert\n    tag_181:\n      pop\n        /* \"src/FinLock.sol\":10603:10609  _locks */\n      0x02\n        /* \"src/FinLock.sol\":10603:10616  _locks.length */\n      sload\n        /* \"src/FinLock.sol\":10527:10623  function getTotalLockCount() public view returns (uint256) {... */\n      jump(tag_40)\n        /* \"src/FinLock.sol\":12816:12941  function lpLockCountForUser(address user) public view returns (uint256) {... */\n    tag_43:\n      sub(shl(0xa0, 0x01), 0x01)\n        /* \"src/FinLock.sol\":12905:12925  _userLpLockIds[user] */\n      dup2\n      and\n        /* \"src/FinLock.sol\":12879:12886  uint256 */\n      0x00\n        /* \"src/FinLock.sol\":12905:12925  _userLpLockIds[user] */\n      swap1\n      dup2\n      mstore\n        /* \"src/FinLock.sol\":12905:12919  _userLpLockIds */\n      0x03\n        /* \"src/FinLock.sol\":12905:12925  _userLpLockIds[user] */\n      0x20\n      mstore\n      0x40\n      dup2\n      keccak256\n        /* \"src/FinLock.sol\":12905:12934  _userLpLockIds[user].length() */\n      tag_186\n      swap1\n        /* \"src/FinLock.sol\":12905:12932  _userLpLockIds[user].length */\n      tag_187\n        /* \"src/FinLock.sol\":12905:12934  _userLpLockIds[user].length() */\n      jump\t// in\n    tag_186:\n        /* \"src/FinLock.sol\":12898:12934  return _userLpLockIds[user].length() */\n      swap3\n        /* \"src/FinLock.sol\":12816:12941  function lpLockCountForUser(address user) public view returns (uint256) {... */\n      swap2\n      pop\n      pop\n      jump\t// out\n        /* \"src/FinLock.sol\":10629:10734  function getLockAt(uint256 index) public view returns (Lock memory) {... */\n    tag_50:\n        /* \"src/FinLock.sol\":10684:10695  Lock memory */\n      tag_188\n      tag_189\n      jump\t// in\n    tag_188:\n        /* \"src/FinLock.sol\":10714:10720  _locks */\n      0x02\n        /* \"src/FinLock.sol\":10721:10726  index */\n      dup3\n        /* \"src/FinLock.sol\":10714:10727  _locks[index] */\n      dup2\n      sload\n      dup2\n      lt\n      tag_192\n      jumpi\n      tag_192\n      tag_193\n      jump\t// in\n    tag_192:\n      0x00\n      swap2\n      dup3\n      mstore\n      0x20\n      swap2\n      dup3\n      swap1\n      keccak256\n        /* \"src/FinLock.sol\":10707:10727  return _locks[index] */\n      0x40\n      dup1\n      mload\n      0xc0\n      dup2\n      add\n      dup3\n      mstore\n        /* \"src/FinLock.sol\":10714:10727  _locks[index] */\n      0x06\n      swap1\n      swap4\n      mul\n      swap1\n      swap2\n      add\n        /* \"src/FinLock.sol\":10707:10727  return _locks[index] */\n      dup1\n      sload\n      dup4\n      mstore\n      0x01\n      dup2\n      add\n      sload\n      sub(shl(0xa0, 0x01), 0x01)\n      swap1\n      dup2\n      and\n      swap5\n      dup5\n      add\n      swap5\n      swap1\n      swap5\n      mstore\n      0x02\n      dup2\n      add\n      sload\n      swap1\n      swap4\n      and\n      swap1\n      dup3\n      add\n      mstore\n      0x03\n      dup3\n      add\n      sload\n      0x60\n      dup3\n      add\n      mstore\n      0x04\n      dup3\n      add\n      sload\n      0x80\n      dup3\n      add\n      mstore\n      0x05\n      swap1\n      swap2\n      add\n      sload\n      0xa0\n      dup3\n      add\n      mstore\n      swap3\n        /* \"src/FinLock.sol\":10629:10734  function getLockAt(uint256 index) public view returns (Lock memory) {... */\n      swap2\n      pop\n      pop\n      jump\t// out\n        /* \"src/FinLock.sol\":12670:12810  function totalTokenLockedCount() public view returns (uint256) {... */\n    tag_55:\n        /* \"src/FinLock.sol\":12724:12731  uint256 */\n      0x00\n        /* \"src/FinLock.sol\":12776:12803  allNormalTokenLockedCount() */\n      tag_196\n        /* \"src/FinLock.sol\":12776:12801  allNormalTokenLockedCount */\n      tag_66\n        /* \"src/FinLock.sol\":12776:12803  allNormalTokenLockedCount() */\n      jump\t// in\n    tag_196:\n        /* \"src/FinLock.sol\":12750:12773  allLpTokenLockedCount() */\n      tag_197\n        /* \"src/FinLock.sol\":12750:12771  allLpTokenLockedCount */\n      tag_137\n        /* \"src/FinLock.sol\":12750:12773  allLpTokenLockedCount() */\n      jump\t// in\n    tag_197:\n        /* \"src/FinLock.sol\":12750:12803  allLpTokenLockedCount() + allNormalTokenLockedCount() */\n      tag_198\n      swap2\n      swap1\n      tag_199\n      jump\t// in\n    tag_198:\n        /* \"src/FinLock.sol\":12743:12803  return allLpTokenLockedCount() + allNormalTokenLockedCount() */\n      swap1\n      pop\n        /* \"src/FinLock.sol\":12670:12810  function totalTokenLockedCount() public view returns (uint256) {... */\n      swap1\n      jump\t// out\n        /* \"src/FinLock.sol\":14692:15260  function getLocksForToken(... */\n    tag_61:\n      sub(shl(0xa0, 0x01), 0x01)\n        /* \"src/FinLock.sol\":14848:14870  _tokenToLockIds[token] */\n      dup4\n      and\n      0x00\n      swap1\n      dup2\n      mstore\n        /* \"src/FinLock.sol\":14848:14863  _tokenToLockIds */\n      0x0a\n        /* \"src/FinLock.sol\":14848:14870  _tokenToLockIds[token] */\n      0x20\n      mstore\n      0x40\n      swap1\n      keccak256\n        /* \"src/FinLock.sol\":14812:14825  Lock[] memory */\n      0x60\n      swap1\n        /* \"src/FinLock.sol\":14848:14879  _tokenToLockIds[token].length() */\n      tag_201\n      swap1\n        /* \"src/FinLock.sol\":14848:14877  _tokenToLockIds[token].length */\n      tag_187\n        /* \"src/FinLock.sol\":14848:14879  _tokenToLockIds[token].length() */\n      jump\t// in\n    tag_201:\n        /* \"src/FinLock.sol\":14841:14844  end */\n      dup3\n        /* \"src/FinLock.sol\":14841:14879  end >= _tokenToLockIds[token].length() */\n      lt\n        /* \"src/FinLock.sol\":14837:14947  if (end >= _tokenToLockIds[token].length()) {... */\n      tag_202\n      jumpi\n      sub(shl(0xa0, 0x01), 0x01)\n        /* \"src/FinLock.sol\":14901:14923  _tokenToLockIds[token] */\n      dup5\n      and\n      0x00\n      swap1\n      dup2\n      mstore\n        /* \"src/FinLock.sol\":14901:14916  _tokenToLockIds */\n      0x0a\n        /* \"src/FinLock.sol\":14901:14923  _tokenToLockIds[token] */\n      0x20\n      mstore\n      0x40\n      swap1\n      keccak256\n        /* \"src/FinLock.sol\":14935:14936  1 */\n      0x01\n      swap1\n        /* \"src/FinLock.sol\":14901:14932  _tokenToLockIds[token].length() */\n      tag_203\n      swap1\n        /* \"src/FinLock.sol\":14901:14930  _tokenToLockIds[token].length */\n      tag_187\n        /* \"src/FinLock.sol\":14901:14932  _tokenToLockIds[token].length() */\n      jump\t// in\n    tag_203:\n        /* \"src/FinLock.sol\":14901:14936  _tokenToLockIds[token].length() - 1 */\n      tag_204\n      swap2\n      swap1\n      tag_205\n      jump\t// in\n    tag_204:\n        /* \"src/FinLock.sol\":14895:14936  end = _tokenToLockIds[token].length() - 1 */\n      swap2\n      pop\n        /* \"src/FinLock.sol\":14837:14947  if (end >= _tokenToLockIds[token].length()) {... */\n    tag_202:\n        /* \"src/FinLock.sol\":14956:14970  uint256 length */\n      0x00\n        /* \"src/FinLock.sol\":14973:14984  end - start */\n      tag_206\n        /* \"src/FinLock.sol\":14979:14984  start */\n      dup5\n        /* \"src/FinLock.sol\":14973:14976  end */\n      dup5\n        /* \"src/FinLock.sol\":14973:14984  end - start */\n      tag_205\n      jump\t// in\n    tag_206:\n        /* \"src/FinLock.sol\":14973:14988  end - start + 1 */\n      tag_207\n      swap1\n        /* \"src/FinLock.sol\":14987:14988  1 */\n      0x01\n        /* \"src/FinLock.sol\":14973:14988  end - start + 1 */\n      tag_199\n      jump\t// in\n    tag_207:\n        /* \"src/FinLock.sol\":14956:14988  uint256 length = end - start + 1 */\n      swap1\n      pop\n        /* \"src/FinLock.sol\":14998:15017  Lock[] memory locks */\n      0x00\n        /* \"src/FinLock.sol\":15031:15037  length */\n      dup2\n        /* \"src/FinLock.sol\":15020:15038  new Lock[](length) */\n      0xffffffffffffffff\n      dup2\n      gt\n      iszero\n      tag_209\n      jumpi\n      tag_209\n      tag_210\n      jump\t// in\n    tag_209:\n      mload(0x40)\n      swap1\n      dup1\n      dup3\n      mstore\n      dup1\n      0x20\n      mul\n      0x20\n      add\n      dup3\n      add\n      0x40\n      mstore\n      dup1\n      iszero\n      tag_211\n      jumpi\n      dup2\n      0x20\n      add\n    tag_212:\n      tag_213\n      tag_189\n      jump\t// in\n    tag_213:\n      dup2\n      mstore\n      0x20\n      add\n      swap1\n      0x01\n      swap1\n      sub\n      swap1\n      dup2\n      tag_212\n      jumpi\n      swap1\n      pop\n    tag_211:\n      pop\n        /* \"src/FinLock.sol\":14998:15038  Lock[] memory locks = new Lock[](length) */\n      swap1\n      pop\n        /* \"src/FinLock.sol\":15048:15068  uint256 currentIndex */\n      0x00\n        /* \"src/FinLock.sol\":15099:15104  start */\n      dup6\n        /* \"src/FinLock.sol\":15082:15232  for (uint256 i = start; i <= end; i++) {... */\n    tag_214:\n        /* \"src/FinLock.sol\":15111:15114  end */\n      dup6\n        /* \"src/FinLock.sol\":15106:15107  i */\n      dup2\n        /* \"src/FinLock.sol\":15106:15114  i <= end */\n      gt\n        /* \"src/FinLock.sol\":15082:15232  for (uint256 i = start; i <= end; i++) {... */\n      tag_215\n      jumpi\n      sub(shl(0xa0, 0x01), 0x01)\n        /* \"src/FinLock.sol\":15164:15186  _tokenToLockIds[token] */\n      dup9\n      and\n      0x00\n      swap1\n      dup2\n      mstore\n        /* \"src/FinLock.sol\":15164:15179  _tokenToLockIds */\n      0x0a\n        /* \"src/FinLock.sol\":15164:15186  _tokenToLockIds[token] */\n      0x20\n      mstore\n      0x40\n      swap1\n      keccak256\n        /* \"src/FinLock.sol\":15157:15163  _locks */\n      0x02\n      swap1\n        /* \"src/FinLock.sol\":15164:15192  _tokenToLockIds[token].at(i) */\n      tag_217\n      swap1\n        /* \"src/FinLock.sol\":15190:15191  i */\n      dup4\n        /* \"src/FinLock.sol\":15164:15189  _tokenToLockIds[token].at */\n      tag_218\n        /* \"src/FinLock.sol\":15164:15192  _tokenToLockIds[token].at(i) */\n      jump\t// in\n    tag_217:\n        /* \"src/FinLock.sol\":15157:15193  _locks[_tokenToLockIds[token].at(i)] */\n      dup2\n      sload\n      dup2\n      lt\n      tag_220\n      jumpi\n      tag_220\n      tag_193\n      jump\t// in\n    tag_220:\n      0x00\n      swap2\n      dup3\n      mstore\n      0x20\n      swap2\n      dup3\n      swap1\n      keccak256\n        /* \"src/FinLock.sol\":15135:15193  locks[currentIndex] = _locks[_tokenToLockIds[token].at(i)] */\n      0x40\n      dup1\n      mload\n      0xc0\n      dup2\n      add\n      dup3\n      mstore\n        /* \"src/FinLock.sol\":15157:15193  _locks[_tokenToLockIds[token].at(i)] */\n      0x06\n      swap1\n      swap4\n      mul\n      swap1\n      swap2\n      add\n        /* \"src/FinLock.sol\":15135:15193  locks[currentIndex] = _locks[_tokenToLockIds[token].at(i)] */\n      dup1\n      sload\n      dup4\n      mstore\n      0x01\n      dup2\n      add\n      sload\n      sub(shl(0xa0, 0x01), 0x01)\n      swap1\n      dup2\n      and\n      swap5\n      dup5\n      add\n      swap5\n      swap1\n      swap5\n      mstore\n      0x02\n      dup2\n      add\n      sload\n      swap1\n      swap4\n      and\n      swap1\n      dup3\n      add\n      mstore\n      0x03\n      dup3\n      add\n      sload\n      0x60\n      dup3\n      add\n      mstore\n      0x04\n      dup3\n      add\n      sload\n      0x80\n      dup3\n      add\n      mstore\n      0x05\n      swap1\n      swap2\n      add\n      sload\n      0xa0\n      dup3\n      add\n      mstore\n        /* \"src/FinLock.sol\":15135:15154  locks[currentIndex] */\n      dup4\n      mload\n        /* \"src/FinLock.sol\":15135:15140  locks */\n      dup5\n      swap1\n        /* \"src/FinLock.sol\":15141:15153  currentIndex */\n      dup5\n      swap1\n        /* \"src/FinLock.sol\":15135:15154  locks[currentIndex] */\n      dup2\n      lt\n      tag_223\n      jumpi\n      tag_223\n      tag_193\n      jump\t// in\n    tag_223:\n      0x20\n      mul\n      0x20\n      add\n      add\n        /* \"src/FinLock.sol\":15135:15193  locks[currentIndex] = _locks[_tokenToLockIds[token].at(i)] */\n      dup2\n      swap1\n      mstore\n      pop\n        /* \"src/FinLock.sol\":15207:15221  currentIndex++ */\n      dup2\n      dup1\n      tag_224\n      swap1\n      tag_225\n      jump\t// in\n    tag_224:\n      swap3\n      pop\n      pop\n        /* \"src/FinLock.sol\":15116:15119  i++ */\n      dup1\n      dup1\n      tag_226\n      swap1\n      tag_225\n      jump\t// in\n    tag_226:\n      swap2\n      pop\n      pop\n        /* \"src/FinLock.sol\":15082:15232  for (uint256 i = start; i <= end; i++) {... */\n      jump(tag_214)\n    tag_215:\n      pop\n        /* \"src/FinLock.sol\":15248:15253  locks */\n      swap1\n      swap7\n        /* \"src/FinLock.sol\":14692:15260  function getLocksForToken(... */\n      swap6\n      pop\n      pop\n      pop\n      pop\n      pop\n      pop\n      jump\t// out\n        /* \"src/FinLock.sol\":10857:10976  function allNormalTokenLockedCount() public view returns (uint256) {... */\n    tag_66:\n        /* \"src/FinLock.sol\":10915:10922  uint256 */\n      0x00\n        /* \"src/FinLock.sol\":10941:10969  _normalLockedTokens.length() */\n      tag_198\n        /* \"src/FinLock.sol\":10941:10960  _normalLockedTokens */\n      0x07\n        /* \"src/FinLock.sol\":10941:10967  _normalLockedTokens.length */\n      tag_187\n        /* \"src/FinLock.sol\":10941:10969  _normalLockedTokens.length() */\n      jump\t// in\n        /* \"src/FinLock.sol\":10435:10521  function allLocks() public view returns (Lock[] memory) {... */\n    tag_70:\n        /* \"src/FinLock.sol\":10476:10489  Lock[] memory */\n      0x60\n        /* \"src/FinLock.sol\":10508:10514  _locks */\n      0x02\n        /* \"src/FinLock.sol\":10501:10514  return _locks */\n      dup1\n      sload\n      dup1\n      0x20\n      mul\n      0x20\n      add\n      mload(0x40)\n      swap1\n      dup2\n      add\n      0x40\n      mstore\n      dup1\n      swap3\n      swap2\n      swap1\n      dup2\n      dup2\n      mstore\n      0x20\n      add\n      0x00\n      swap1\n    tag_231:\n      dup3\n      dup3\n      lt\n      iszero\n      tag_232\n      jumpi\n      0x00\n      dup5\n      dup2\n      mstore\n      0x20\n      swap1\n      dup2\n      swap1\n      keccak256\n      0x40\n      dup1\n      mload\n      0xc0\n      dup2\n      add\n      dup3\n      mstore\n      0x06\n      dup7\n      mul\n      swap1\n      swap3\n      add\n      dup1\n      sload\n      dup4\n      mstore\n      0x01\n      dup1\n      dup3\n      add\n      sload\n      sub(shl(0xa0, 0x01), 0x01)\n      swap1\n      dup2\n      and\n      dup6\n      dup8\n      add\n      mstore\n      0x02\n      dup4\n      add\n      sload\n      and\n      swap3\n      dup5\n      add\n      swap3\n      swap1\n      swap3\n      mstore\n      0x03\n      dup2\n      add\n      sload\n      0x60\n      dup5\n      add\n      mstore\n      0x04\n      dup2\n      add\n      sload\n      0x80\n      dup5\n      add\n      mstore\n      0x05\n      add\n      sload\n      0xa0\n      dup4\n      add\n      mstore\n      swap1\n      dup4\n      mstore\n      swap1\n      swap3\n      add\n      swap2\n      add\n      jump(tag_231)\n    tag_232:\n      pop\n      pop\n      pop\n      pop\n      swap1\n      pop\n        /* \"src/FinLock.sol\":10435:10521  function allLocks() public view returns (Lock[] memory) {... */\n      swap1\n      jump\t// out\n        /* \"src/FinLock.sol\":14097:14360  function normalLockForUserAtIndex(address user, uint256 index)... */\n    tag_76:\n        /* \"src/FinLock.sol\":14205:14216  Lock memory */\n      tag_234\n      tag_189\n      jump\t// in\n    tag_234:\n        /* \"src/FinLock.sol\":14271:14276  index */\n      dup2\n        /* \"src/FinLock.sol\":14240:14268  normalLockCountForUser(user) */\n      tag_236\n        /* \"src/FinLock.sol\":14263:14267  user */\n      dup5\n        /* \"src/FinLock.sol\":14240:14262  normalLockCountForUser */\n      tag_170\n        /* \"src/FinLock.sol\":14240:14268  normalLockCountForUser(user) */\n      jump\t// in\n    tag_236:\n        /* \"src/FinLock.sol\":14240:14276  normalLockCountForUser(user) > index */\n      gt\n        /* \"src/FinLock.sol\":14232:14294  require(normalLockCountForUser(user) > index, \"Invalid index\") */\n      tag_237\n      jumpi\n      mload(0x40)\n      shl(0xe5, 0x461bcd)\n      dup2\n      mstore\n        /* \"#utility.yul\":7143:7145   */\n      0x20\n        /* \"src/FinLock.sol\":14232:14294  require(normalLockCountForUser(user) > index, \"Invalid index\") */\n      0x04\n      dup3\n      add\n        /* \"#utility.yul\":7125:7146   */\n      mstore\n        /* \"#utility.yul\":7182:7184   */\n      0x0d\n        /* \"#utility.yul\":7162:7180   */\n      0x24\n      dup3\n      add\n        /* \"#utility.yul\":7155:7185   */\n      mstore\n      shl(0x9b, 0x092dcecc2d8d2c840d2dcc8caf)\n        /* \"#utility.yul\":7201:7219   */\n      0x44\n      dup3\n      add\n        /* \"#utility.yul\":7194:7237   */\n      mstore\n        /* \"#utility.yul\":7254:7272   */\n      0x64\n      add\n        /* \"src/FinLock.sol\":14232:14294  require(normalLockCountForUser(user) > index, \"Invalid index\") */\n    tag_238:\n      mload(0x40)\n      dup1\n      swap2\n      sub\n      swap1\n      revert\n    tag_237:\n      sub(shl(0xa0, 0x01), 0x01)\n        /* \"src/FinLock.sol\":14318:14342  _userNormalLockIds[user] */\n      dup4\n      and\n      0x00\n      swap1\n      dup2\n      mstore\n        /* \"src/FinLock.sol\":14318:14336  _userNormalLockIds */\n      0x04\n        /* \"src/FinLock.sol\":14318:14342  _userNormalLockIds[user] */\n      0x20\n      mstore\n      0x40\n      swap1\n      keccak256\n        /* \"src/FinLock.sol\":14311:14317  _locks */\n      0x02\n      swap1\n        /* \"src/FinLock.sol\":14318:14352  _userNormalLockIds[user].at(index) */\n      tag_240\n      swap1\n        /* \"src/FinLock.sol\":14346:14351  index */\n      dup5\n        /* \"src/FinLock.sol\":14318:14345  _userNormalLockIds[user].at */\n      tag_218\n        /* \"src/FinLock.sol\":14318:14352  _userNormalLockIds[user].at(index) */\n      jump\t// in\n    tag_240:\n        /* \"src/FinLock.sol\":14311:14353  _locks[_userNormalLockIds[user].at(index)] */\n      dup2\n      sload\n      dup2\n      lt\n      tag_242\n      jumpi\n      tag_242\n      tag_193\n      jump\t// in\n    tag_242:\n      0x00\n      swap2\n      dup3\n      mstore\n      0x20\n      swap2\n      dup3\n      swap1\n      keccak256\n        /* \"src/FinLock.sol\":14304:14353  return _locks[_userNormalLockIds[user].at(index)] */\n      0x40\n      dup1\n      mload\n      0xc0\n      dup2\n      add\n      dup3\n      mstore\n        /* \"src/FinLock.sol\":14311:14353  _locks[_userNormalLockIds[user].at(index)] */\n      0x06\n      swap1\n      swap4\n      mul\n      swap1\n      swap2\n      add\n        /* \"src/FinLock.sol\":14304:14353  return _locks[_userNormalLockIds[user].at(index)] */\n      dup1\n      sload\n      dup4\n      mstore\n      0x01\n      dup2\n      add\n      sload\n      sub(shl(0xa0, 0x01), 0x01)\n      swap1\n      dup2\n      and\n      swap5\n      dup5\n      add\n      swap5\n      swap1\n      swap5\n      mstore\n      0x02\n      dup2\n      add\n      sload\n      swap1\n      swap4\n      and\n      swap1\n      dup3\n      add\n      mstore\n      0x03\n      dup3\n      add\n      sload\n      0x60\n      dup3\n      add\n      mstore\n      0x04\n      dup3\n      add\n      sload\n      0x80\n      dup3\n      add\n      mstore\n      0x05\n      swap1\n      swap2\n      add\n      sload\n      0xa0\n      dup3\n      add\n      mstore\n      swap1\n      pop\n        /* \"src/FinLock.sol\":14097:14360  function normalLockForUserAtIndex(address user, uint256 index)... */\n      swap3\n      swap2\n      pop\n      pop\n      jump\t// out\n        /* \"src/FinLock.sol\":5650:7184  function unlock(uint256 lockId) external override validLock(lockId) {... */\n    tag_81:\n        /* \"src/FinLock.sol\":2244:2250  _locks */\n      0x02\n        /* \"src/FinLock.sol\":2244:2257  _locks.length */\n      sload\n        /* \"src/FinLock.sol\":5710:5716  lockId */\n      dup2\n      swap1\n        /* \"src/FinLock.sol\":2235:2257  lockId < _locks.length */\n      dup2\n      lt\n        /* \"src/FinLock.sol\":2227:2277  require(lockId < _locks.length, \"Invalid lock id\") */\n      tag_245\n      jumpi\n      mload(0x40)\n      shl(0xe5, 0x461bcd)\n      dup2\n      mstore\n      0x04\n      add\n      tag_238\n      swap1\n      tag_247\n      jump\t// in\n    tag_245:\n        /* \"src/FinLock.sol\":5728:5749  Lock storage userLock */\n      0x00\n        /* \"src/FinLock.sol\":5752:5758  _locks */\n      0x02\n        /* \"src/FinLock.sol\":5759:5765  lockId */\n      dup4\n        /* \"src/FinLock.sol\":5752:5766  _locks[lockId] */\n      dup2\n      sload\n      dup2\n      lt\n      tag_250\n      jumpi\n      tag_250\n      tag_193\n      jump\t// in\n    tag_250:\n      0x00\n      swap2\n      dup3\n      mstore\n      0x20\n      swap1\n      swap2\n      keccak256\n        /* \"src/FinLock.sol\":5797:5811  userLock.owner */\n      0x02\n        /* \"src/FinLock.sol\":5752:5766  _locks[lockId] */\n      0x06\n      swap1\n      swap3\n      mul\n      add\n        /* \"src/FinLock.sol\":5797:5811  userLock.owner */\n      swap1\n      dup2\n      add\n      sload\n        /* \"src/FinLock.sol\":5752:5766  _locks[lockId] */\n      swap1\n      swap2\n      pop\n      sub(shl(0xa0, 0x01), 0x01)\n        /* \"src/FinLock.sol\":5797:5811  userLock.owner */\n      and\n        /* \"src/FinLock.sol\":5815:5825  msg.sender */\n      caller\n        /* \"src/FinLock.sol\":5797:5825  userLock.owner == msg.sender */\n      eq\n        /* \"src/FinLock.sol\":5776:5885  require(... */\n      tag_252\n      jumpi\n      mload(0x40)\n      shl(0xe5, 0x461bcd)\n      dup2\n      mstore\n      0x04\n      add\n      tag_238\n      swap1\n      tag_254\n      jump\t// in\n    tag_252:\n        /* \"src/FinLock.sol\":5935:5943  userLock */\n      dup1\n        /* \"src/FinLock.sol\":5935:5954  userLock.unlockDate */\n      0x05\n      add\n      sload\n        /* \"src/FinLock.sol\":5916:5931  block.timestamp */\n      timestamp\n        /* \"src/FinLock.sol\":5916:5954  block.timestamp >= userLock.unlockDate */\n      lt\n      iszero\n        /* \"src/FinLock.sol\":5895:6004  require(... */\n      tag_255\n      jumpi\n      mload(0x40)\n      shl(0xe5, 0x461bcd)\n      dup2\n      mstore\n        /* \"#utility.yul\":8232:8234   */\n      0x20\n        /* \"src/FinLock.sol\":5895:6004  require(... */\n      0x04\n      dup3\n      add\n        /* \"#utility.yul\":8214:8235   */\n      mstore\n        /* \"#utility.yul\":8271:8273   */\n      0x18\n        /* \"#utility.yul\":8251:8269   */\n      0x24\n      dup3\n      add\n        /* \"#utility.yul\":8244:8274   */\n      mstore\n        /* \"#utility.yul\":8310:8336   */\n      0x4974206973206e6f742074696d6520746f20756e6c6f636b0000000000000000\n        /* \"#utility.yul\":8290:8308   */\n      0x44\n      dup3\n      add\n        /* \"#utility.yul\":8283:8337   */\n      mstore\n        /* \"#utility.yul\":8354:8372   */\n      0x64\n      add\n        /* \"src/FinLock.sol\":5895:6004  require(... */\n      tag_238\n        /* \"#utility.yul\":8030:8378   */\n      jump\n        /* \"src/FinLock.sol\":5895:6004  require(... */\n    tag_255:\n        /* \"src/FinLock.sol\":6040:6041  0 */\n      0x00\n        /* \"src/FinLock.sol\":6022:6030  userLock */\n      dup2\n        /* \"src/FinLock.sol\":6022:6037  userLock.amount */\n      0x03\n      add\n      sload\n        /* \"src/FinLock.sol\":6022:6041  userLock.amount > 0 */\n      gt\n        /* \"src/FinLock.sol\":6014:6063  require(userLock.amount > 0, \"Nothing to unlock\") */\n      tag_258\n      jumpi\n      mload(0x40)\n      shl(0xe5, 0x461bcd)\n      dup2\n      mstore\n        /* \"#utility.yul\":8585:8587   */\n      0x20\n        /* \"src/FinLock.sol\":6014:6063  require(userLock.amount > 0, \"Nothing to unlock\") */\n      0x04\n      dup3\n      add\n        /* \"#utility.yul\":8567:8588   */\n      mstore\n        /* \"#utility.yul\":8624:8626   */\n      0x11\n        /* \"#utility.yul\":8604:8622   */\n      0x24\n      dup3\n      add\n        /* \"#utility.yul\":8597:8627   */\n      mstore\n      shl(0x78, 0x4e6f7468696e6720746f20756e6c6f636b)\n        /* \"#utility.yul\":8643:8661   */\n      0x44\n      dup3\n      add\n        /* \"#utility.yul\":8636:8683   */\n      mstore\n        /* \"#utility.yul\":8700:8718   */\n      0x64\n      add\n        /* \"src/FinLock.sol\":6014:6063  require(userLock.amount > 0, \"Nothing to unlock\") */\n      tag_238\n        /* \"#utility.yul\":8383:8724   */\n      jump\n        /* \"src/FinLock.sol\":6014:6063  require(userLock.amount > 0, \"Nothing to unlock\") */\n    tag_258:\n        /* \"src/FinLock.sol\":6145:6159  userLock.token */\n      0x01\n      dup1\n      dup3\n      add\n      sload\n      sub(shl(0xa0, 0x01), 0x01)\n      swap1\n      dup2\n      and\n        /* \"src/FinLock.sol\":6074:6110  CumulativeLockInfo storage tokenInfo */\n      0x00\n        /* \"src/FinLock.sol\":6113:6169  cumulativeLockInfo[... */\n      swap1\n      dup2\n      mstore\n        /* \"src/FinLock.sol\":6113:6131  cumulativeLockInfo */\n      0x09\n        /* \"src/FinLock.sol\":6113:6169  cumulativeLockInfo[... */\n      0x20\n      mstore\n      0x40\n      swap1\n      keccak256\n        /* \"src/FinLock.sol\":6196:6213  tokenInfo.factory */\n      swap2\n      dup3\n      add\n      sload\n      and\n        /* \"src/FinLock.sol\":6196:6227  tokenInfo.factory != address(0) */\n      iszero\n      dup1\n      iszero\n      swap1\n        /* \"src/FinLock.sol\":6238:6395  if (isLpToken) {... */\n      tag_261\n      jumpi\n        /* \"src/FinLock.sol\":6282:6292  msg.sender */\n      caller\n        /* \"src/FinLock.sol\":6267:6293  _userLpLockIds[msg.sender] */\n      0x00\n      swap1\n      dup2\n      mstore\n        /* \"src/FinLock.sol\":6267:6281  _userLpLockIds */\n      0x03\n        /* \"src/FinLock.sol\":6267:6293  _userLpLockIds[msg.sender] */\n      0x20\n      mstore\n      0x40\n      swap1\n      keccak256\n        /* \"src/FinLock.sol\":6267:6308  _userLpLockIds[msg.sender].remove(lockId) */\n      tag_262\n      swap1\n        /* \"src/FinLock.sol\":6301:6307  lockId */\n      dup7\n        /* \"src/FinLock.sol\":6267:6300  _userLpLockIds[msg.sender].remove */\n      tag_263\n        /* \"src/FinLock.sol\":6267:6308  _userLpLockIds[msg.sender].remove(lockId) */\n      jump\t// in\n    tag_262:\n      pop\n        /* \"src/FinLock.sol\":6238:6395  if (isLpToken) {... */\n      jump(tag_264)\n    tag_261:\n        /* \"src/FinLock.sol\":6358:6368  msg.sender */\n      caller\n        /* \"src/FinLock.sol\":6339:6369  _userNormalLockIds[msg.sender] */\n      0x00\n      swap1\n      dup2\n      mstore\n        /* \"src/FinLock.sol\":6339:6357  _userNormalLockIds */\n      0x04\n        /* \"src/FinLock.sol\":6339:6369  _userNormalLockIds[msg.sender] */\n      0x20\n      mstore\n      0x40\n      swap1\n      keccak256\n        /* \"src/FinLock.sol\":6339:6384  _userNormalLockIds[msg.sender].remove(lockId) */\n      tag_265\n      swap1\n        /* \"src/FinLock.sol\":6377:6383  lockId */\n      dup7\n        /* \"src/FinLock.sol\":6339:6376  _userNormalLockIds[msg.sender].remove */\n      tag_263\n        /* \"src/FinLock.sol\":6339:6384  _userNormalLockIds[msg.sender].remove(lockId) */\n      jump\t// in\n    tag_265:\n      pop\n        /* \"src/FinLock.sol\":6238:6395  if (isLpToken) {... */\n    tag_264:\n        /* \"src/FinLock.sol\":6428:6443  userLock.amount */\n      0x03\n      dup4\n      add\n      sload\n        /* \"src/FinLock.sol\":6458:6474  tokenInfo.amount */\n      0x02\n      dup4\n      add\n      sload\n        /* \"src/FinLock.sol\":6458:6490  tokenInfo.amount <= unlockAmount */\n      dup2\n      lt\n        /* \"src/FinLock.sol\":6454:6618  if (tokenInfo.amount <= unlockAmount) {... */\n      tag_266\n      jumpi\n        /* \"src/FinLock.sol\":6525:6526  0 */\n      0x00\n        /* \"src/FinLock.sol\":6506:6522  tokenInfo.amount */\n      0x02\n      dup5\n      add\n        /* \"src/FinLock.sol\":6506:6526  tokenInfo.amount = 0 */\n      sstore\n        /* \"src/FinLock.sol\":6454:6618  if (tokenInfo.amount <= unlockAmount) {... */\n      jump(tag_267)\n    tag_266:\n        /* \"src/FinLock.sol\":6595:6607  unlockAmount */\n      dup1\n        /* \"src/FinLock.sol\":6576:6585  tokenInfo */\n      dup4\n        /* \"src/FinLock.sol\":6576:6592  tokenInfo.amount */\n      0x02\n      add\n      sload\n        /* \"src/FinLock.sol\":6576:6607  tokenInfo.amount - unlockAmount */\n      tag_268\n      swap2\n      swap1\n      tag_205\n      jump\t// in\n    tag_268:\n        /* \"src/FinLock.sol\":6557:6573  tokenInfo.amount */\n      0x02\n      dup5\n      add\n        /* \"src/FinLock.sol\":6557:6607  tokenInfo.amount = tokenInfo.amount - unlockAmount */\n      sstore\n        /* \"src/FinLock.sol\":6454:6618  if (tokenInfo.amount <= unlockAmount) {... */\n    tag_267:\n        /* \"src/FinLock.sol\":6632:6641  tokenInfo */\n      dup3\n        /* \"src/FinLock.sol\":6632:6648  tokenInfo.amount */\n      0x02\n      add\n      sload\n        /* \"src/FinLock.sol\":6652:6653  0 */\n      0x00\n        /* \"src/FinLock.sol\":6632:6653  tokenInfo.amount == 0 */\n      sub\n        /* \"src/FinLock.sol\":6628:6846  if (tokenInfo.amount == 0) {... */\n      tag_273\n      jumpi\n        /* \"src/FinLock.sol\":6673:6682  isLpToken */\n      dup2\n        /* \"src/FinLock.sol\":6669:6836  if (isLpToken) {... */\n      iszero\n      tag_270\n      jumpi\n        /* \"src/FinLock.sol\":6725:6739  userLock.token */\n      0x01\n      dup5\n      add\n      sload\n        /* \"src/FinLock.sol\":6702:6740  _lpLockedTokens.remove(userLock.token) */\n      tag_271\n      swap1\n        /* \"src/FinLock.sol\":6702:6717  _lpLockedTokens */\n      0x05\n      swap1\n      sub(shl(0xa0, 0x01), 0x01)\n        /* \"src/FinLock.sol\":6725:6739  userLock.token */\n      and\n        /* \"src/FinLock.sol\":6702:6724  _lpLockedTokens.remove */\n      tag_272\n        /* \"src/FinLock.sol\":6702:6740  _lpLockedTokens.remove(userLock.token) */\n      jump\t// in\n    tag_271:\n      pop\n        /* \"src/FinLock.sol\":6669:6836  if (isLpToken) {... */\n      jump(tag_273)\n    tag_270:\n        /* \"src/FinLock.sol\":6806:6820  userLock.token */\n      0x01\n      dup5\n      add\n      sload\n        /* \"src/FinLock.sol\":6779:6821  _normalLockedTokens.remove(userLock.token) */\n      tag_274\n      swap1\n        /* \"src/FinLock.sol\":6779:6798  _normalLockedTokens */\n      0x07\n      swap1\n      sub(shl(0xa0, 0x01), 0x01)\n        /* \"src/FinLock.sol\":6806:6820  userLock.token */\n      and\n        /* \"src/FinLock.sol\":6779:6805  _normalLockedTokens.remove */\n      tag_272\n        /* \"src/FinLock.sol\":6779:6821  _normalLockedTokens.remove(userLock.token) */\n      jump\t// in\n    tag_274:\n      pop\n        /* \"src/FinLock.sol\":6669:6836  if (isLpToken) {... */\n    tag_273:\n        /* \"src/FinLock.sol\":6873:6874  0 */\n      0x00\n        /* \"src/FinLock.sol\":6855:6870  userLock.amount */\n      0x03\n      dup6\n      add\n        /* \"src/FinLock.sol\":6855:6874  userLock.amount = 0 */\n      dup2\n      swap1\n      sstore\n        /* \"src/FinLock.sol\":6924:6935  userLock.id */\n      dup5\n      sload\n        /* \"src/FinLock.sol\":6901:6915  userLock.token */\n      0x01\n      dup7\n      add\n      sload\n      sub(shl(0xa0, 0x01), 0x01)\n      and\n        /* \"src/FinLock.sol\":6885:6916  _tokenToLockIds[userLock.token] */\n      dup3\n      mstore\n        /* \"src/FinLock.sol\":6885:6900  _tokenToLockIds */\n      0x0a\n        /* \"src/FinLock.sol\":6885:6916  _tokenToLockIds[userLock.token] */\n      0x20\n      mstore\n      0x40\n      swap1\n      swap2\n      keccak256\n        /* \"src/FinLock.sol\":6885:6936  _tokenToLockIds[userLock.token].remove(userLock.id) */\n      tag_275\n      swap2\n        /* \"src/FinLock.sol\":6885:6923  _tokenToLockIds[userLock.token].remove */\n      tag_263\n        /* \"src/FinLock.sol\":6885:6936  _tokenToLockIds[userLock.token].remove(userLock.id) */\n      jump\t// in\n    tag_275:\n      pop\n        /* \"src/FinLock.sol\":6954:6968  userLock.token */\n      0x01\n      dup5\n      add\n      sload\n        /* \"src/FinLock.sol\":6947:7008  IERC20(userLock.token).safeTransfer(msg.sender, unlockAmount) */\n      tag_276\n      swap1\n      sub(shl(0xa0, 0x01), 0x01)\n        /* \"src/FinLock.sol\":6954:6968  userLock.token */\n      and\n        /* \"src/FinLock.sol\":6983:6993  msg.sender */\n      caller\n        /* \"src/FinLock.sol\":6995:7007  unlockAmount */\n      dup4\n        /* \"src/FinLock.sol\":6947:6982  IERC20(userLock.token).safeTransfer */\n      tag_277\n        /* \"src/FinLock.sol\":6947:7008  IERC20(userLock.token).safeTransfer(msg.sender, unlockAmount) */\n      jump\t// in\n    tag_276:\n        /* \"src/FinLock.sol\":7049:7060  userLock.id */\n      dup4\n      sload\n        /* \"src/FinLock.sol\":7074:7088  userLock.token */\n      0x01\n      dup6\n      add\n      sload\n        /* \"src/FinLock.sol\":7024:7177  LockRemoved(... */\n      mload(0x40)\n      0xc6532367992b32e42a62dd89fc3574876d97d081a263aa6e030f34b79b7e6e8b\n      swap2\n      tag_278\n      swap2\n      sub(shl(0xa0, 0x01), 0x01)\n        /* \"src/FinLock.sol\":7074:7088  userLock.token */\n      swap1\n      swap2\n      and\n      swap1\n        /* \"src/FinLock.sol\":7102:7112  msg.sender */\n      caller\n      swap1\n        /* \"src/FinLock.sol\":7126:7138  unlockAmount */\n      dup7\n      swap1\n        /* \"src/FinLock.sol\":7152:7167  block.timestamp */\n      timestamp\n      swap1\n        /* \"src/FinLock.sol\":7024:7177  LockRemoved(... */\n      tag_279\n      jump\t// in\n    tag_278:\n      mload(0x40)\n      dup1\n      swap2\n      sub\n      swap1\n      log2\n        /* \"src/FinLock.sol\":5718:7184  {... */\n      pop\n      pop\n      pop\n      pop\n        /* \"src/FinLock.sol\":5650:7184  function unlock(uint256 lockId) external override validLock(lockId) {... */\n      pop\n      pop\n      jump\t// out\n        /* \"src/FinLock.sol\":2560:3953  function lock(... */\n    tag_85:\n        /* \"src/FinLock.sol\":2745:2755  uint256 id */\n      0x00\n        /* \"src/FinLock.sol\":2147:2150  fee */\n      sload(0x01)\n        /* \"src/FinLock.sol\":2134:2143  msg.value */\n      callvalue\n        /* \"src/FinLock.sol\":2134:2150  msg.value == fee */\n      eq\n        /* \"src/FinLock.sol\":2126:2158  require(msg.value == fee, \"Fee\") */\n      tag_281\n      jumpi\n      mload(0x40)\n      shl(0xe5, 0x461bcd)\n      dup2\n      mstore\n        /* \"#utility.yul\":9383:9385   */\n      0x20\n        /* \"src/FinLock.sol\":2126:2158  require(msg.value == fee, \"Fee\") */\n      0x04\n      dup3\n      add\n        /* \"#utility.yul\":9365:9386   */\n      mstore\n        /* \"#utility.yul\":9422:9423   */\n      0x03\n        /* \"#utility.yul\":9402:9420   */\n      0x24\n      dup3\n      add\n        /* \"#utility.yul\":9395:9424   */\n      mstore\n      shl(0xe8, 0x466565)\n        /* \"#utility.yul\":9440:9458   */\n      0x44\n      dup3\n      add\n        /* \"#utility.yul\":9433:9466   */\n      mstore\n        /* \"#utility.yul\":9483:9501   */\n      0x64\n      add\n        /* \"src/FinLock.sol\":2126:2158  require(msg.value == fee, \"Fee\") */\n      tag_238\n        /* \"#utility.yul\":9181:9507   */\n      jump\n        /* \"src/FinLock.sol\":2126:2158  require(msg.value == fee, \"Fee\") */\n    tag_281:\n        /* \"src/FinLock.sol\":2801:2816  block.timestamp */\n      timestamp\n        /* \"src/FinLock.sol\":2788:2798  unlockDate */\n      dup3\n        /* \"src/FinLock.sol\":2788:2816  unlockDate > block.timestamp */\n      gt\n        /* \"src/FinLock.sol\":2767:2882  require(... */\n      tag_285\n      jumpi\n      mload(0x40)\n      shl(0xe5, 0x461bcd)\n      dup2\n      mstore\n        /* \"#utility.yul\":9714:9716   */\n      0x20\n        /* \"src/FinLock.sol\":2767:2882  require(... */\n      0x04\n      dup3\n      add\n        /* \"#utility.yul\":9696:9717   */\n      mstore\n        /* \"#utility.yul\":9753:9755   */\n      0x28\n        /* \"#utility.yul\":9733:9751   */\n      0x24\n      dup3\n      add\n        /* \"#utility.yul\":9726:9756   */\n      mstore\n        /* \"#utility.yul\":9792:9826   */\n      0x556e6c6f636b20646174652073686f756c642062652061667465722063757272\n        /* \"#utility.yul\":9772:9790   */\n      0x44\n      dup3\n      add\n        /* \"#utility.yul\":9765:9827   */\n      mstore\n      shl(0xc0, 0x656e742074696d65)\n        /* \"#utility.yul\":9843:9861   */\n      0x64\n      dup3\n      add\n        /* \"#utility.yul\":9836:9874   */\n      mstore\n        /* \"#utility.yul\":9891:9910   */\n      0x84\n      add\n        /* \"src/FinLock.sol\":2767:2882  require(... */\n      tag_238\n        /* \"#utility.yul\":9512:9916   */\n      jump\n        /* \"src/FinLock.sol\":2767:2882  require(... */\n    tag_285:\n        /* \"src/FinLock.sol\":2909:2910  0 */\n      0x00\n        /* \"src/FinLock.sol\":2900:2906  amount */\n      dup4\n        /* \"src/FinLock.sol\":2900:2910  amount > 0 */\n      gt\n        /* \"src/FinLock.sol\":2892:2946  require(amount > 0, \"Amount should be greater than 0\") */\n      tag_288\n      jumpi\n      mload(0x40)\n      shl(0xe5, 0x461bcd)\n      dup2\n      mstore\n        /* \"#utility.yul\":10123:10125   */\n      0x20\n        /* \"src/FinLock.sol\":2892:2946  require(amount > 0, \"Amount should be greater than 0\") */\n      0x04\n      dup3\n      add\n        /* \"#utility.yul\":10105:10126   */\n      mstore\n        /* \"#utility.yul\":10162:10164   */\n      0x1f\n        /* \"#utility.yul\":10142:10160   */\n      0x24\n      dup3\n      add\n        /* \"#utility.yul\":10135:10165   */\n      mstore\n        /* \"#utility.yul\":10201:10234   */\n      0x416d6f756e742073686f756c642062652067726561746572207468616e203000\n        /* \"#utility.yul\":10181:10199   */\n      0x44\n      dup3\n      add\n        /* \"#utility.yul\":10174:10235   */\n      mstore\n        /* \"#utility.yul\":10252:10270   */\n      0x64\n      add\n        /* \"src/FinLock.sol\":2892:2946  require(amount > 0, \"Amount should be greater than 0\") */\n      tag_238\n        /* \"#utility.yul\":9921:10276   */\n      jump\n        /* \"src/FinLock.sol\":2892:2946  require(amount > 0, \"Amount should be greater than 0\") */\n    tag_288:\n        /* \"src/FinLock.sol\":2960:2969  isLpToken */\n      dup4\n        /* \"src/FinLock.sol\":2956:3721  if (isLpToken) {... */\n      iszero\n      tag_291\n      jumpi\n        /* \"src/FinLock.sol\":2985:3015  address possibleFactoryAddress */\n      0x00\n        /* \"src/FinLock.sol\":3048:3053  token */\n      dup6\n      sub(shl(0xa0, 0x01), 0x01)\n        /* \"src/FinLock.sol\":3033:3062  IUniswapV2Pair(token).factory */\n      and\n      0xc45a0155\n        /* \"src/FinLock.sol\":3033:3064  IUniswapV2Pair(token).factory() */\n      mload(0x40)\n      dup2\n      0xffffffff\n      and\n      0xe0\n      shl\n      dup2\n      mstore\n      0x04\n      add\n      0x20\n      mload(0x40)\n      dup1\n      dup4\n      sub\n      dup2\n      dup7\n      gas\n      staticcall\n      swap3\n      pop\n      pop\n      pop\n      dup1\n      iszero\n      tag_292\n      jumpi\n      pop\n      0x40\n      dup1\n      mload\n      0x1f\n      returndatasize\n      swap1\n      dup2\n      add\n      not(0x1f)\n      and\n      dup3\n      add\n      swap1\n      swap3\n      mstore\n      tag_293\n      swap2\n      dup2\n      add\n      swap1\n      tag_294\n      jump\t// in\n    tag_293:\n      0x01\n    tag_292:\n        /* \"src/FinLock.sol\":3029:3234  try IUniswapV2Pair(token).factory() returns (address factory) {... */\n      tag_295\n      jumpi\n        /* \"src/FinLock.sol\":3181:3219  revert(\"This token is not a LP token\") */\n      mload(0x40)\n      shl(0xe5, 0x461bcd)\n      dup2\n      mstore\n        /* \"#utility.yul\":10739:10741   */\n      0x20\n        /* \"src/FinLock.sol\":3181:3219  revert(\"This token is not a LP token\") */\n      0x04\n      dup3\n      add\n        /* \"#utility.yul\":10721:10742   */\n      mstore\n        /* \"#utility.yul\":10778:10780   */\n      0x1c\n        /* \"#utility.yul\":10758:10776   */\n      0x24\n      dup3\n      add\n        /* \"#utility.yul\":10751:10781   */\n      mstore\n        /* \"#utility.yul\":10817:10847   */\n      0x5468697320746f6b656e206973206e6f742061204c5020746f6b656e00000000\n        /* \"#utility.yul\":10797:10815   */\n      0x44\n      dup3\n      add\n        /* \"#utility.yul\":10790:10848   */\n      mstore\n        /* \"#utility.yul\":10865:10883   */\n      0x64\n      add\n        /* \"src/FinLock.sol\":3181:3219  revert(\"This token is not a LP token\") */\n      tag_238\n        /* \"#utility.yul\":10537:10889   */\n      jump\n        /* \"src/FinLock.sol\":3029:3234  try IUniswapV2Pair(token).factory() returns (address factory) {... */\n    tag_295:\n        /* \"src/FinLock.sol\":3134:3141  factory */\n      swap1\n      pop\n      sub(shl(0xa0, 0x01), 0x01)\n        /* \"src/FinLock.sol\":3272:3308  possibleFactoryAddress != address(0) */\n      dup2\n      and\n      iszero\n      dup1\n      iszero\n      swap1\n        /* \"src/FinLock.sol\":3272:3378  possibleFactoryAddress != address(0) &&... */\n      tag_303\n      jumpi\n      pop\n        /* \"src/FinLock.sol\":3332:3378  _isValidLpToken(token, possibleFactoryAddress) */\n      tag_303\n        /* \"src/FinLock.sol\":3348:3353  token */\n      dup7\n        /* \"src/FinLock.sol\":3355:3377  possibleFactoryAddress */\n      dup3\n        /* \"src/FinLock.sol\":3332:3347  _isValidLpToken */\n      tag_304\n        /* \"src/FinLock.sol\":3332:3378  _isValidLpToken(token, possibleFactoryAddress) */\n      jump\t// in\n    tag_303:\n        /* \"src/FinLock.sol\":3247:3441  require(... */\n      tag_305\n      jumpi\n      mload(0x40)\n      shl(0xe5, 0x461bcd)\n      dup2\n      mstore\n        /* \"#utility.yul\":11096:11098   */\n      0x20\n        /* \"src/FinLock.sol\":3247:3441  require(... */\n      0x04\n      dup3\n      add\n        /* \"#utility.yul\":11078:11099   */\n      mstore\n        /* \"#utility.yul\":11135:11137   */\n      0x1d\n        /* \"#utility.yul\":11115:11133   */\n      0x24\n      dup3\n      add\n        /* \"#utility.yul\":11108:11138   */\n      mstore\n        /* \"#utility.yul\":11174:11205   */\n      0x5468697320746f6b656e206973206e6f742061204c5020746f6b656e2e000000\n        /* \"#utility.yul\":11154:11172   */\n      0x44\n      dup3\n      add\n        /* \"#utility.yul\":11147:11206   */\n      mstore\n        /* \"#utility.yul\":11223:11241   */\n      0x64\n      add\n        /* \"src/FinLock.sol\":3247:3441  require(... */\n      tag_238\n        /* \"#utility.yul\":10894:11247   */\n      jump\n        /* \"src/FinLock.sol\":3247:3441  require(... */\n    tag_305:\n        /* \"src/FinLock.sol\":3460:3624  _lockLpToken(... */\n      tag_308\n        /* \"src/FinLock.sol\":3490:3495  owner */\n      dup8\n        /* \"src/FinLock.sol\":3513:3518  token */\n      dup8\n        /* \"src/FinLock.sol\":3536:3558  possibleFactoryAddress */\n      dup4\n        /* \"src/FinLock.sol\":3576:3582  amount */\n      dup8\n        /* \"src/FinLock.sol\":3600:3610  unlockDate */\n      dup8\n        /* \"src/FinLock.sol\":3460:3472  _lockLpToken */\n      tag_309\n        /* \"src/FinLock.sol\":3460:3624  _lockLpToken(... */\n      jump\t// in\n    tag_308:\n        /* \"src/FinLock.sol\":3455:3624  id = _lockLpToken(... */\n      swap2\n      pop\n        /* \"src/FinLock.sol\":2971:3635  {... */\n      pop\n        /* \"src/FinLock.sol\":2956:3721  if (isLpToken) {... */\n      jump(tag_310)\n    tag_291:\n        /* \"src/FinLock.sol\":3660:3710  _lockNormalToken(owner, token, amount, unlockDate) */\n      tag_311\n        /* \"src/FinLock.sol\":3677:3682  owner */\n      dup7\n        /* \"src/FinLock.sol\":3684:3689  token */\n      dup7\n        /* \"src/FinLock.sol\":3691:3697  amount */\n      dup6\n        /* \"src/FinLock.sol\":3699:3709  unlockDate */\n      dup6\n        /* \"src/FinLock.sol\":3660:3676  _lockNormalToken */\n      tag_312\n        /* \"src/FinLock.sol\":3660:3710  _lockNormalToken(owner, token, amount, unlockDate) */\n      jump\t// in\n    tag_311:\n        /* \"src/FinLock.sol\":3655:3710  id = _lockNormalToken(owner, token, amount, unlockDate) */\n      swap1\n      pop\n        /* \"src/FinLock.sol\":2956:3721  if (isLpToken) {... */\n    tag_310:\n        /* \"src/FinLock.sol\":3730:3864  _safeTransferFromEnsureExactAmount(... */\n      tag_313\n        /* \"src/FinLock.sol\":3778:3783  token */\n      dup6\n        /* \"src/FinLock.sol\":3797:3807  msg.sender */\n      caller\n        /* \"src/FinLock.sol\":3829:3833  this */\n      address\n        /* \"src/FinLock.sol\":3848:3854  amount */\n      dup7\n        /* \"src/FinLock.sol\":3730:3764  _safeTransferFromEnsureExactAmount */\n      tag_314\n        /* \"src/FinLock.sol\":3730:3864  _safeTransferFromEnsureExactAmount(... */\n      jump\t// in\n    tag_313:\n        /* \"src/FinLock.sol\":3890:3892  id */\n      dup1\n        /* \"src/FinLock.sol\":3880:3927  LockAdded(id, token, owner, amount, unlockDate) */\n      0x694af1cc8727cdd0afbdd53d9b87b69248bd490224e9dd090e788546506e076f\n        /* \"src/FinLock.sol\":3894:3899  token */\n      dup7\n        /* \"src/FinLock.sol\":3901:3906  owner */\n      dup9\n        /* \"src/FinLock.sol\":3908:3914  amount */\n      dup7\n        /* \"src/FinLock.sol\":3916:3926  unlockDate */\n      dup7\n        /* \"src/FinLock.sol\":3880:3927  LockAdded(id, token, owner, amount, unlockDate) */\n      mload(0x40)\n      tag_315\n      swap5\n      swap4\n      swap3\n      swap2\n      swap1\n      tag_279\n      jump\t// in\n    tag_315:\n      mload(0x40)\n      dup1\n      swap2\n      sub\n      swap1\n      log2\n        /* \"src/FinLock.sol\":2560:3953  function lock(... */\n      swap6\n      swap5\n      pop\n      pop\n      pop\n      pop\n      pop\n      jump\t// out\n        /* \"src/FinLock.sol\":2360:2440  function setFee(uint256 newFee) external onlyOwner {... */\n    tag_90:\n        /* \"@openzeppelin/contracts/access/Ownable.sol\":1094:1107  _checkOwner() */\n      tag_317\n        /* \"@openzeppelin/contracts/access/Ownable.sol\":1094:1105  _checkOwner */\n      tag_318\n        /* \"@openzeppelin/contracts/access/Ownable.sol\":1094:1107  _checkOwner() */\n      jump\t// in\n    tag_317:\n        /* \"src/FinLock.sol\":2421:2424  fee */\n      0x01\n        /* \"src/FinLock.sol\":2421:2433  fee = newFee */\n      sstore\n        /* \"src/FinLock.sol\":2360:2440  function setFee(uint256 newFee) external onlyOwner {... */\n      jump\t// out\n        /* \"@openzeppelin/contracts/access/Ownable.sol\":1824:1925  function renounceOwnership() public virtual onlyOwner {... */\n    tag_93:\n        /* \"@openzeppelin/contracts/access/Ownable.sol\":1094:1107  _checkOwner() */\n      tag_321\n        /* \"@openzeppelin/contracts/access/Ownable.sol\":1094:1105  _checkOwner */\n      tag_318\n        /* \"@openzeppelin/contracts/access/Ownable.sol\":1094:1107  _checkOwner() */\n      jump\t// in\n    tag_321:\n        /* \"@openzeppelin/contracts/access/Ownable.sol\":1888:1918  _transferOwnership(address(0)) */\n      tag_323\n        /* \"@openzeppelin/contracts/access/Ownable.sol\":1915:1916  0 */\n      0x00\n        /* \"@openzeppelin/contracts/access/Ownable.sol\":1888:1906  _transferOwnership */\n      tag_324\n        /* \"@openzeppelin/contracts/access/Ownable.sol\":1888:1918  _transferOwnership(address(0)) */\n      jump\t// in\n    tag_323:\n        /* \"@openzeppelin/contracts/access/Ownable.sol\":1824:1925  function renounceOwnership() public virtual onlyOwner {... */\n      jump\t// out\n        /* \"src/FinLock.sol\":12013:12664  function getCumulativeNormalTokenLockInfo(uint256 start, uint256 end)... */\n    tag_98:\n        /* \"src/FinLock.sol\":12128:12155  CumulativeLockInfo[] memory */\n      0x60\n        /* \"src/FinLock.sol\":12182:12210  _normalLockedTokens.length() */\n      tag_326\n        /* \"src/FinLock.sol\":12182:12201  _normalLockedTokens */\n      0x07\n        /* \"src/FinLock.sol\":12182:12208  _normalLockedTokens.length */\n      tag_187\n        /* \"src/FinLock.sol\":12182:12210  _normalLockedTokens.length() */\n      jump\t// in\n    tag_326:\n        /* \"src/FinLock.sol\":12175:12178  end */\n      dup3\n        /* \"src/FinLock.sol\":12175:12210  end >= _normalLockedTokens.length() */\n      lt\n        /* \"src/FinLock.sol\":12171:12275  if (end >= _normalLockedTokens.length()) {... */\n      tag_327\n      jumpi\n        /* \"src/FinLock.sol\":12263:12264  1 */\n      0x01\n        /* \"src/FinLock.sol\":12232:12260  _normalLockedTokens.length() */\n      tag_328\n        /* \"src/FinLock.sol\":12232:12251  _normalLockedTokens */\n      0x07\n        /* \"src/FinLock.sol\":12232:12258  _normalLockedTokens.length */\n      tag_187\n        /* \"src/FinLock.sol\":12232:12260  _normalLockedTokens.length() */\n      jump\t// in\n    tag_328:\n        /* \"src/FinLock.sol\":12232:12264  _normalLockedTokens.length() - 1 */\n      tag_329\n      swap2\n      swap1\n      tag_205\n      jump\t// in\n    tag_329:\n        /* \"src/FinLock.sol\":12226:12264  end = _normalLockedTokens.length() - 1 */\n      swap2\n      pop\n        /* \"src/FinLock.sol\":12171:12275  if (end >= _normalLockedTokens.length()) {... */\n    tag_327:\n        /* \"src/FinLock.sol\":12284:12298  uint256 length */\n      0x00\n        /* \"src/FinLock.sol\":12301:12312  end - start */\n      tag_330\n        /* \"src/FinLock.sol\":12307:12312  start */\n      dup5\n        /* \"src/FinLock.sol\":12301:12304  end */\n      dup5\n        /* \"src/FinLock.sol\":12301:12312  end - start */\n      tag_205\n      jump\t// in\n    tag_330:\n        /* \"src/FinLock.sol\":12301:12316  end - start + 1 */\n      tag_331\n      swap1\n        /* \"src/FinLock.sol\":12315:12316  1 */\n      0x01\n        /* \"src/FinLock.sol\":12301:12316  end - start + 1 */\n      tag_199\n      jump\t// in\n    tag_331:\n        /* \"src/FinLock.sol\":12284:12316  uint256 length = end - start + 1 */\n      swap1\n      pop\n        /* \"src/FinLock.sol\":12326:12362  CumulativeLockInfo[] memory lockInfo */\n      0x00\n        /* \"src/FinLock.sol\":12390:12396  length */\n      dup2\n        /* \"src/FinLock.sol\":12365:12397  new CumulativeLockInfo[](length) */\n      0xffffffffffffffff\n      dup2\n      gt\n      iszero\n      tag_333\n      jumpi\n      tag_333\n      tag_210\n      jump\t// in\n    tag_333:\n      mload(0x40)\n      swap1\n      dup1\n      dup3\n      mstore\n      dup1\n      0x20\n      mul\n      0x20\n      add\n      dup3\n      add\n      0x40\n      mstore\n      dup1\n      iszero\n      tag_334\n      jumpi\n      dup2\n      0x20\n      add\n    tag_335:\n      0x40\n      dup1\n      mload\n      0x60\n      dup2\n      add\n      dup3\n      mstore\n      0x00\n      dup1\n      dup3\n      mstore\n      0x20\n      dup1\n      dup4\n      add\n      dup3\n      swap1\n      mstore\n      swap3\n      dup3\n      add\n      mstore\n      dup3\n      mstore\n      not(0x00)\n      swap1\n      swap3\n      add\n      swap2\n      add\n      dup2\n      tag_335\n      jumpi\n      swap1\n      pop\n    tag_334:\n      pop\n        /* \"src/FinLock.sol\":12326:12397  CumulativeLockInfo[] memory lockInfo = new CumulativeLockInfo[](length) */\n      swap1\n      pop\n        /* \"src/FinLock.sol\":12407:12427  uint256 currentIndex */\n      0x00\n        /* \"src/FinLock.sol\":12458:12463  start */\n      dup6\n        /* \"src/FinLock.sol\":12441:12633  for (uint256 i = start; i <= end; i++) {... */\n    tag_338:\n        /* \"src/FinLock.sol\":12470:12473  end */\n      dup6\n        /* \"src/FinLock.sol\":12465:12466  i */\n      dup2\n        /* \"src/FinLock.sol\":12465:12473  i <= end */\n      gt\n        /* \"src/FinLock.sol\":12441:12633  for (uint256 i = start; i <= end; i++) {... */\n      tag_339\n      jumpi\n        /* \"src/FinLock.sol\":12519:12537  cumulativeLockInfo */\n      0x09\n        /* \"src/FinLock.sol\":12519:12594  cumulativeLockInfo[... */\n      0x00\n        /* \"src/FinLock.sol\":12555:12580  _normalLockedTokens.at(i) */\n      tag_341\n        /* \"src/FinLock.sol\":12555:12574  _normalLockedTokens */\n      0x07\n        /* \"src/FinLock.sol\":12578:12579  i */\n      dup5\n        /* \"src/FinLock.sol\":12555:12577  _normalLockedTokens.at */\n      tag_218\n        /* \"src/FinLock.sol\":12555:12580  _normalLockedTokens.at(i) */\n      jump\t// in\n    tag_341:\n      sub(shl(0xa0, 0x01), 0x01)\n        /* \"src/FinLock.sol\":12519:12594  cumulativeLockInfo[... */\n      swap1\n      dup2\n      and\n      dup3\n      mstore\n      0x20\n      dup1\n      dup4\n      add\n      swap4\n      swap1\n      swap4\n      mstore\n      0x40\n      swap2\n      dup3\n      add\n      0x00\n      keccak256\n        /* \"src/FinLock.sol\":12494:12594  lockInfo[currentIndex] = cumulativeLockInfo[... */\n      dup3\n      mload\n      0x60\n      dup2\n      add\n      dup5\n      mstore\n      dup2\n      sload\n      dup4\n      and\n      dup2\n      mstore\n      0x01\n      dup3\n      add\n      sload\n      swap1\n      swap3\n      and\n      swap4\n      dup3\n      add\n      swap4\n      swap1\n      swap4\n      mstore\n      0x02\n      swap1\n      swap3\n      add\n      sload\n      swap1\n      dup3\n      add\n      mstore\n        /* \"src/FinLock.sol\":12494:12516  lockInfo[currentIndex] */\n      dup4\n      mload\n        /* \"src/FinLock.sol\":12494:12502  lockInfo */\n      dup5\n      swap1\n        /* \"src/FinLock.sol\":12503:12515  currentIndex */\n      dup5\n      swap1\n        /* \"src/FinLock.sol\":12494:12516  lockInfo[currentIndex] */\n      dup2\n      lt\n      tag_344\n      jumpi\n      tag_344\n      tag_193\n      jump\t// in\n    tag_344:\n      0x20\n      mul\n      0x20\n      add\n      add\n        /* \"src/FinLock.sol\":12494:12594  lockInfo[currentIndex] = cumulativeLockInfo[... */\n      dup2\n      swap1\n      mstore\n      pop\n        /* \"src/FinLock.sol\":12608:12622  currentIndex++ */\n      dup2\n      dup1\n      tag_345\n      swap1\n      tag_225\n      jump\t// in\n    tag_345:\n      swap3\n      pop\n      pop\n        /* \"src/FinLock.sol\":12475:12478  i++ */\n      dup1\n      dup1\n      tag_346\n      swap1\n      tag_225\n      jump\t// in\n    tag_346:\n      swap2\n      pop\n      pop\n        /* \"src/FinLock.sol\":12441:12633  for (uint256 i = start; i <= end; i++) {... */\n      jump(tag_338)\n    tag_339:\n      pop\n        /* \"src/FinLock.sol\":12649:12657  lockInfo */\n      swap1\n      swap6\n        /* \"src/FinLock.sol\":12013:12664  function getCumulativeNormalTokenLockInfo(uint256 start, uint256 end)... */\n      swap5\n      pop\n      pop\n      pop\n      pop\n      pop\n      jump\t// out\n        /* \"src/FinLock.sol\":11188:11396  function getCumulativeNormalTokenLockInfoAt(uint256 index)... */\n    tag_104:\n      0x40\n      dup1\n      mload\n      0x60\n      dup2\n      add\n      dup3\n      mstore\n      0x00\n      dup1\n      dup3\n      mstore\n      0x20\n      dup3\n      add\n      dup2\n      swap1\n      mstore\n      swap2\n      dup2\n      add\n      swap2\n      swap1\n      swap2\n      mstore\n        /* \"src/FinLock.sol\":11340:11358  cumulativeLockInfo */\n      0x09\n        /* \"src/FinLock.sol\":11340:11389  cumulativeLockInfo[_normalLockedTokens.at(index)] */\n      0x00\n        /* \"src/FinLock.sol\":11359:11388  _normalLockedTokens.at(index) */\n      tag_349\n        /* \"src/FinLock.sol\":11359:11378  _normalLockedTokens */\n      0x07\n        /* \"src/FinLock.sol\":11382:11387  index */\n      dup6\n        /* \"src/FinLock.sol\":11359:11381  _normalLockedTokens.at */\n      tag_218\n        /* \"src/FinLock.sol\":11359:11388  _normalLockedTokens.at(index) */\n      jump\t// in\n    tag_349:\n      sub(shl(0xa0, 0x01), 0x01)\n        /* \"src/FinLock.sol\":11340:11389  cumulativeLockInfo[_normalLockedTokens.at(index)] */\n      swap1\n      dup2\n      and\n      dup3\n      mstore\n      0x20\n      dup1\n      dup4\n      add\n      swap4\n      swap1\n      swap4\n      mstore\n      0x40\n      swap2\n      dup3\n      add\n      0x00\n      keccak256\n        /* \"src/FinLock.sol\":11333:11389  return cumulativeLockInfo[_normalLockedTokens.at(index)] */\n      dup3\n      mload\n      0x60\n      dup2\n      add\n      dup5\n      mstore\n      dup2\n      sload\n      dup4\n      and\n      dup2\n      mstore\n      0x01\n      dup3\n      add\n      sload\n      swap1\n      swap3\n      and\n      swap4\n      dup3\n      add\n      swap4\n      swap1\n      swap4\n      mstore\n      0x02\n      swap1\n      swap3\n      add\n      sload\n      swap1\n      dup3\n      add\n      mstore\n      swap3\n        /* \"src/FinLock.sol\":11188:11396  function getCumulativeNormalTokenLockInfoAt(uint256 index)... */\n      swap2\n      pop\n      pop\n      jump\t// out\n        /* \"src/FinLock.sol\":10982:11182  function getCumulativeLpTokenLockInfoAt(uint256 index)... */\n    tag_115:\n      0x40\n      dup1\n      mload\n      0x60\n      dup2\n      add\n      dup3\n      mstore\n      0x00\n      dup1\n      dup3\n      mstore\n      0x20\n      dup3\n      add\n      dup2\n      swap1\n      mstore\n      swap2\n      dup2\n      add\n      swap2\n      swap1\n      swap2\n      mstore\n        /* \"src/FinLock.sol\":11130:11148  cumulativeLockInfo */\n      0x09\n        /* \"src/FinLock.sol\":11130:11175  cumulativeLockInfo[_lpLockedTokens.at(index)] */\n      0x00\n        /* \"src/FinLock.sol\":11149:11174  _lpLockedTokens.at(index) */\n      tag_349\n        /* \"src/FinLock.sol\":11149:11164  _lpLockedTokens */\n      0x05\n        /* \"src/FinLock.sol\":11168:11173  index */\n      dup6\n        /* \"src/FinLock.sol\":11149:11167  _lpLockedTokens.at */\n      tag_218\n        /* \"src/FinLock.sol\":11149:11174  _lpLockedTokens.at(index) */\n      jump\t// in\n        /* \"src/FinLock.sol\":9793:9905  function renounceLockOwnership(uint256 lockId) external {... */\n    tag_120:\n        /* \"src/FinLock.sol\":9859:9898  _transferLockOwnership(lockId, owner()) */\n      tag_355\n        /* \"src/FinLock.sol\":9882:9888  lockId */\n      dup2\n        /* \"src/FinLock.sol\":9890:9897  owner() */\n      tag_356\n        /* \"@openzeppelin/contracts/access/Ownable.sol\":1247:1254  address */\n      0x00\n        /* \"@openzeppelin/contracts/access/Ownable.sol\":1273:1279  _owner */\n      sload\n      sub(shl(0xa0, 0x01), 0x01)\n      and\n      swap1\n        /* \"@openzeppelin/contracts/access/Ownable.sol\":1201:1286  function owner() public view virtual returns (address) {... */\n      jump\n        /* \"src/FinLock.sol\":9890:9897  owner() */\n    tag_356:\n        /* \"src/FinLock.sol\":9859:9881  _transferLockOwnership */\n      tag_357\n        /* \"src/FinLock.sol\":9859:9898  _transferLockOwnership(lockId, owner()) */\n      jump\t// in\n    tag_355:\n        /* \"src/FinLock.sol\":9793:9905  function renounceLockOwnership(uint256 lockId) external {... */\n      pop\n      jump\t// out\n        /* \"src/FinLock.sol\":11402:12007  function getCumulativeLpTokenLockInfo(uint256 start, uint256 end)... */\n    tag_124:\n        /* \"src/FinLock.sol\":11513:11540  CumulativeLockInfo[] memory */\n      0x60\n        /* \"src/FinLock.sol\":11567:11591  _lpLockedTokens.length() */\n      tag_359\n        /* \"src/FinLock.sol\":11567:11582  _lpLockedTokens */\n      0x05\n        /* \"src/FinLock.sol\":11567:11589  _lpLockedTokens.length */\n      tag_187\n        /* \"src/FinLock.sol\":11567:11591  _lpLockedTokens.length() */\n      jump\t// in\n    tag_359:\n        /* \"src/FinLock.sol\":11560:11563  end */\n      dup3\n        /* \"src/FinLock.sol\":11560:11591  end >= _lpLockedTokens.length() */\n      lt\n        /* \"src/FinLock.sol\":11556:11652  if (end >= _lpLockedTokens.length()) {... */\n      tag_360\n      jumpi\n        /* \"src/FinLock.sol\":11640:11641  1 */\n      0x01\n        /* \"src/FinLock.sol\":11613:11637  _lpLockedTokens.length() */\n      tag_361\n        /* \"src/FinLock.sol\":11613:11628  _lpLockedTokens */\n      0x05\n        /* \"src/FinLock.sol\":11613:11635  _lpLockedTokens.length */\n      tag_187\n        /* \"src/FinLock.sol\":11613:11637  _lpLockedTokens.length() */\n      jump\t// in\n    tag_361:\n        /* \"src/FinLock.sol\":11613:11641  _lpLockedTokens.length() - 1 */\n      tag_362\n      swap2\n      swap1\n      tag_205\n      jump\t// in\n    tag_362:\n        /* \"src/FinLock.sol\":11607:11641  end = _lpLockedTokens.length() - 1 */\n      swap2\n      pop\n        /* \"src/FinLock.sol\":11556:11652  if (end >= _lpLockedTokens.length()) {... */\n    tag_360:\n        /* \"src/FinLock.sol\":11661:11675  uint256 length */\n      0x00\n        /* \"src/FinLock.sol\":11678:11689  end - start */\n      tag_363\n        /* \"src/FinLock.sol\":11684:11689  start */\n      dup5\n        /* \"src/FinLock.sol\":11678:11681  end */\n      dup5\n        /* \"src/FinLock.sol\":11678:11689  end - start */\n      tag_205\n      jump\t// in\n    tag_363:\n        /* \"src/FinLock.sol\":11678:11693  end - start + 1 */\n      tag_364\n      swap1\n        /* \"src/FinLock.sol\":11692:11693  1 */\n      0x01\n        /* \"src/FinLock.sol\":11678:11693  end - start + 1 */\n      tag_199\n      jump\t// in\n    tag_364:\n        /* \"src/FinLock.sol\":11661:11693  uint256 length = end - start + 1 */\n      swap1\n      pop\n        /* \"src/FinLock.sol\":11703:11739  CumulativeLockInfo[] memory lockInfo */\n      0x00\n        /* \"src/FinLock.sol\":11767:11773  length */\n      dup2\n        /* \"src/FinLock.sol\":11742:11774  new CumulativeLockInfo[](length) */\n      0xffffffffffffffff\n      dup2\n      gt\n      iszero\n      tag_366\n      jumpi\n      tag_366\n      tag_210\n      jump\t// in\n    tag_366:\n      mload(0x40)\n      swap1\n      dup1\n      dup3\n      mstore\n      dup1\n      0x20\n      mul\n      0x20\n      add\n      dup3\n      add\n      0x40\n      mstore\n      dup1\n      iszero\n      tag_367\n      jumpi\n      dup2\n      0x20\n      add\n    tag_368:\n      0x40\n      dup1\n      mload\n      0x60\n      dup2\n      add\n      dup3\n      mstore\n      0x00\n      dup1\n      dup3\n      mstore\n      0x20\n      dup1\n      dup4\n      add\n      dup3\n      swap1\n      mstore\n      swap3\n      dup3\n      add\n      mstore\n      dup3\n      mstore\n      not(0x00)\n      swap1\n      swap3\n      add\n      swap2\n      add\n      dup2\n      tag_368\n      jumpi\n      swap1\n      pop\n    tag_367:\n      pop\n        /* \"src/FinLock.sol\":11703:11774  CumulativeLockInfo[] memory lockInfo = new CumulativeLockInfo[](length) */\n      swap1\n      pop\n        /* \"src/FinLock.sol\":11784:11804  uint256 currentIndex */\n      0x00\n        /* \"src/FinLock.sol\":11835:11840  start */\n      dup6\n        /* \"src/FinLock.sol\":11818:11976  for (uint256 i = start; i <= end; i++) {... */\n    tag_370:\n        /* \"src/FinLock.sol\":11847:11850  end */\n      dup6\n        /* \"src/FinLock.sol\":11842:11843  i */\n      dup2\n        /* \"src/FinLock.sol\":11842:11850  i <= end */\n      gt\n        /* \"src/FinLock.sol\":11818:11976  for (uint256 i = start; i <= end; i++) {... */\n      tag_339\n      jumpi\n        /* \"src/FinLock.sol\":11896:11914  cumulativeLockInfo */\n      0x09\n        /* \"src/FinLock.sol\":11896:11937  cumulativeLockInfo[_lpLockedTokens.at(i)] */\n      0x00\n        /* \"src/FinLock.sol\":11915:11936  _lpLockedTokens.at(i) */\n      tag_373\n        /* \"src/FinLock.sol\":11915:11930  _lpLockedTokens */\n      0x05\n        /* \"src/FinLock.sol\":11934:11935  i */\n      dup5\n        /* \"src/FinLock.sol\":11915:11933  _lpLockedTokens.at */\n      tag_218\n        /* \"src/FinLock.sol\":11915:11936  _lpLockedTokens.at(i) */\n      jump\t// in\n    tag_373:\n      sub(shl(0xa0, 0x01), 0x01)\n        /* \"src/FinLock.sol\":11896:11937  cumulativeLockInfo[_lpLockedTokens.at(i)] */\n      swap1\n      dup2\n      and\n      dup3\n      mstore\n      0x20\n      dup1\n      dup4\n      add\n      swap4\n      swap1\n      swap4\n      mstore\n      0x40\n      swap2\n      dup3\n      add\n      0x00\n      keccak256\n        /* \"src/FinLock.sol\":11871:11937  lockInfo[currentIndex] = cumulativeLockInfo[_lpLockedTokens.at(i)] */\n      dup3\n      mload\n      0x60\n      dup2\n      add\n      dup5\n      mstore\n      dup2\n      sload\n      dup4\n      and\n      dup2\n      mstore\n      0x01\n      dup3\n      add\n      sload\n      swap1\n      swap3\n      and\n      swap4\n      dup3\n      add\n      swap4\n      swap1\n      swap4\n      mstore\n      0x02\n      swap1\n      swap3\n      add\n      sload\n      swap1\n      dup3\n      add\n      mstore\n        /* \"src/FinLock.sol\":11871:11893  lockInfo[currentIndex] */\n      dup4\n      mload\n        /* \"src/FinLock.sol\":11871:11879  lockInfo */\n      dup5\n      swap1\n        /* \"src/FinLock.sol\":11880:11892  currentIndex */\n      dup5\n      swap1\n        /* \"src/FinLock.sol\":11871:11893  lockInfo[currentIndex] */\n      dup2\n      lt\n      tag_375\n      jumpi\n      tag_375\n      tag_193\n      jump\t// in\n    tag_375:\n      0x20\n      mul\n      0x20\n      add\n      add\n        /* \"src/FinLock.sol\":11871:11937  lockInfo[currentIndex] = cumulativeLockInfo[_lpLockedTokens.at(i)] */\n      dup2\n      swap1\n      mstore\n      pop\n        /* \"src/FinLock.sol\":11951:11965  currentIndex++ */\n      dup2\n      dup1\n      tag_376\n      swap1\n      tag_225\n      jump\t// in\n    tag_376:\n      swap3\n      pop\n      pop\n        /* \"src/FinLock.sol\":11852:11855  i++ */\n      dup1\n      dup1\n      tag_377\n      swap1\n      tag_225\n      jump\t// in\n    tag_377:\n      swap2\n      pop\n      pop\n        /* \"src/FinLock.sol\":11818:11976  for (uint256 i = start; i <= end; i++) {... */\n      jump(tag_370)\n        /* \"src/FinLock.sol\":12947:13284  function lpLocksForUser(address user) public view returns (Lock[] memory) {... */\n    tag_129:\n      sub(shl(0xa0, 0x01), 0x01)\n        /* \"src/FinLock.sol\":13048:13068  _userLpLockIds[user] */\n      dup2\n      and\n        /* \"src/FinLock.sol\":13031:13045  uint256 length */\n      0x00\n        /* \"src/FinLock.sol\":13048:13068  _userLpLockIds[user] */\n      swap1\n      dup2\n      mstore\n        /* \"src/FinLock.sol\":13048:13062  _userLpLockIds */\n      0x03\n        /* \"src/FinLock.sol\":13048:13068  _userLpLockIds[user] */\n      0x20\n      mstore\n      0x40\n      dup2\n      keccak256\n        /* \"src/FinLock.sol\":13006:13019  Lock[] memory */\n      0x60\n      swap2\n        /* \"src/FinLock.sol\":13031:13045  uint256 length */\n      swap1\n        /* \"src/FinLock.sol\":13048:13077  _userLpLockIds[user].length() */\n      tag_379\n      swap1\n        /* \"src/FinLock.sol\":13048:13075  _userLpLockIds[user].length */\n      tag_187\n        /* \"src/FinLock.sol\":13048:13077  _userLpLockIds[user].length() */\n      jump\t// in\n    tag_379:\n        /* \"src/FinLock.sol\":13031:13077  uint256 length = _userLpLockIds[user].length() */\n      swap1\n      pop\n        /* \"src/FinLock.sol\":13087:13110  Lock[] memory userLocks */\n      0x00\n        /* \"src/FinLock.sol\":13124:13130  length */\n      dup2\n        /* \"src/FinLock.sol\":13113:13131  new Lock[](length) */\n      0xffffffffffffffff\n      dup2\n      gt\n      iszero\n      tag_381\n      jumpi\n      tag_381\n      tag_210\n      jump\t// in\n    tag_381:\n      mload(0x40)\n      swap1\n      dup1\n      dup3\n      mstore\n      dup1\n      0x20\n      mul\n      0x20\n      add\n      dup3\n      add\n      0x40\n      mstore\n      dup1\n      iszero\n      tag_382\n      jumpi\n      dup2\n      0x20\n      add\n    tag_383:\n      tag_384\n      tag_189\n      jump\t// in\n    tag_384:\n      dup2\n      mstore\n      0x20\n      add\n      swap1\n      0x01\n      swap1\n      sub\n      swap1\n      dup2\n      tag_383\n      jumpi\n      swap1\n      pop\n    tag_382:\n      pop\n        /* \"src/FinLock.sol\":13087:13131  Lock[] memory userLocks = new Lock[](length) */\n      swap1\n      pop\n        /* \"src/FinLock.sol\":13146:13155  uint256 i */\n      0x00\n        /* \"src/FinLock.sol\":13141:13252  for (uint256 i = 0; i < length; i++) {... */\n    tag_385:\n        /* \"src/FinLock.sol\":13165:13171  length */\n      dup3\n        /* \"src/FinLock.sol\":13161:13162  i */\n      dup2\n        /* \"src/FinLock.sol\":13161:13171  i < length */\n      lt\n        /* \"src/FinLock.sol\":13141:13252  for (uint256 i = 0; i < length; i++) {... */\n      iszero\n      tag_386\n      jumpi\n      sub(shl(0xa0, 0x01), 0x01)\n        /* \"src/FinLock.sol\":13214:13234  _userLpLockIds[user] */\n      dup6\n      and\n      0x00\n      swap1\n      dup2\n      mstore\n        /* \"src/FinLock.sol\":13214:13228  _userLpLockIds */\n      0x03\n        /* \"src/FinLock.sol\":13214:13234  _userLpLockIds[user] */\n      0x20\n      mstore\n      0x40\n      swap1\n      keccak256\n        /* \"src/FinLock.sol\":13207:13213  _locks */\n      0x02\n      swap1\n        /* \"src/FinLock.sol\":13214:13240  _userLpLockIds[user].at(i) */\n      tag_388\n      swap1\n        /* \"src/FinLock.sol\":13238:13239  i */\n      dup4\n        /* \"src/FinLock.sol\":13214:13237  _userLpLockIds[user].at */\n      tag_218\n        /* \"src/FinLock.sol\":13214:13240  _userLpLockIds[user].at(i) */\n      jump\t// in\n    tag_388:\n        /* \"src/FinLock.sol\":13207:13241  _locks[_userLpLockIds[user].at(i)] */\n      dup2\n      sload\n      dup2\n      lt\n      tag_390\n      jumpi\n      tag_390\n      tag_193\n      jump\t// in\n    tag_390:\n      0x00\n      swap2\n      dup3\n      mstore\n      0x20\n      swap2\n      dup3\n      swap1\n      keccak256\n        /* \"src/FinLock.sol\":13192:13241  userLocks[i] = _locks[_userLpLockIds[user].at(i)] */\n      0x40\n      dup1\n      mload\n      0xc0\n      dup2\n      add\n      dup3\n      mstore\n        /* \"src/FinLock.sol\":13207:13241  _locks[_userLpLockIds[user].at(i)] */\n      0x06\n      swap1\n      swap4\n      mul\n      swap1\n      swap2\n      add\n        /* \"src/FinLock.sol\":13192:13241  userLocks[i] = _locks[_userLpLockIds[user].at(i)] */\n      dup1\n      sload\n      dup4\n      mstore\n      0x01\n      dup2\n      add\n      sload\n      sub(shl(0xa0, 0x01), 0x01)\n      swap1\n      dup2\n      and\n      swap5\n      dup5\n      add\n      swap5\n      swap1\n      swap5\n      mstore\n      0x02\n      dup2\n      add\n      sload\n      swap1\n      swap4\n      and\n      swap1\n      dup3\n      add\n      mstore\n      0x03\n      dup3\n      add\n      sload\n      0x60\n      dup3\n      add\n      mstore\n      0x04\n      dup3\n      add\n      sload\n      0x80\n      dup3\n      add\n      mstore\n      0x05\n      swap1\n      swap2\n      add\n      sload\n      0xa0\n      dup3\n      add\n      mstore\n        /* \"src/FinLock.sol\":13192:13204  userLocks[i] */\n      dup3\n      mload\n        /* \"src/FinLock.sol\":13192:13201  userLocks */\n      dup4\n      swap1\n        /* \"src/FinLock.sol\":13202:13203  i */\n      dup4\n      swap1\n        /* \"src/FinLock.sol\":13192:13204  userLocks[i] */\n      dup2\n      lt\n      tag_393\n      jumpi\n      tag_393\n      tag_193\n      jump\t// in\n    tag_393:\n      0x20\n      mul\n      0x20\n      add\n      add\n        /* \"src/FinLock.sol\":13192:13241  userLocks[i] = _locks[_userLpLockIds[user].at(i)] */\n      dup2\n      swap1\n      mstore\n      pop\n        /* \"src/FinLock.sol\":13173:13176  i++ */\n      dup1\n      dup1\n      tag_394\n      swap1\n      tag_225\n      jump\t// in\n    tag_394:\n      swap2\n      pop\n      pop\n        /* \"src/FinLock.sol\":13141:13252  for (uint256 i = 0; i < length; i++) {... */\n      jump(tag_385)\n    tag_386:\n      pop\n        /* \"src/FinLock.sol\":13268:13277  userLocks */\n      swap4\n        /* \"src/FinLock.sol\":12947:13284  function lpLocksForUser(address user) public view returns (Lock[] memory) {... */\n      swap3\n      pop\n      pop\n      pop\n      jump\t// out\n        /* \"src/FinLock.sol\":7190:8810  function editLock(... */\n    tag_134:\n        /* \"src/FinLock.sol\":2147:2150  fee */\n      sload(0x01)\n        /* \"src/FinLock.sol\":2134:2143  msg.value */\n      callvalue\n        /* \"src/FinLock.sol\":2134:2150  msg.value == fee */\n      eq\n        /* \"src/FinLock.sol\":2126:2158  require(msg.value == fee, \"Fee\") */\n      tag_396\n      jumpi\n      mload(0x40)\n      shl(0xe5, 0x461bcd)\n      dup2\n      mstore\n        /* \"#utility.yul\":9383:9385   */\n      0x20\n        /* \"src/FinLock.sol\":2126:2158  require(msg.value == fee, \"Fee\") */\n      0x04\n      dup3\n      add\n        /* \"#utility.yul\":9365:9386   */\n      mstore\n        /* \"#utility.yul\":9422:9423   */\n      0x03\n        /* \"#utility.yul\":9402:9420   */\n      0x24\n      dup3\n      add\n        /* \"#utility.yul\":9395:9424   */\n      mstore\n      shl(0xe8, 0x466565)\n        /* \"#utility.yul\":9440:9458   */\n      0x44\n      dup3\n      add\n        /* \"#utility.yul\":9433:9466   */\n      mstore\n        /* \"#utility.yul\":9483:9501   */\n      0x64\n      add\n        /* \"src/FinLock.sol\":2126:2158  require(msg.value == fee, \"Fee\") */\n      tag_238\n        /* \"#utility.yul\":9181:9507   */\n      jump\n        /* \"src/FinLock.sol\":2126:2158  require(msg.value == fee, \"Fee\") */\n    tag_396:\n        /* \"src/FinLock.sol\":2244:2250  _locks */\n      0x02\n        /* \"src/FinLock.sol\":2244:2257  _locks.length */\n      sload\n        /* \"src/FinLock.sol\":7340:7346  lockId */\n      dup4\n      swap1\n        /* \"src/FinLock.sol\":2235:2257  lockId < _locks.length */\n      dup2\n      lt\n        /* \"src/FinLock.sol\":2227:2277  require(lockId < _locks.length, \"Invalid lock id\") */\n      tag_399\n      jumpi\n      mload(0x40)\n      shl(0xe5, 0x461bcd)\n      dup2\n      mstore\n      0x04\n      add\n      tag_238\n      swap1\n      tag_247\n      jump\t// in\n    tag_399:\n        /* \"src/FinLock.sol\":7358:7379  Lock storage userLock */\n      0x00\n        /* \"src/FinLock.sol\":7382:7388  _locks */\n      0x02\n        /* \"src/FinLock.sol\":7389:7395  lockId */\n      dup6\n        /* \"src/FinLock.sol\":7382:7396  _locks[lockId] */\n      dup2\n      sload\n      dup2\n      lt\n      tag_403\n      jumpi\n      tag_403\n      tag_193\n      jump\t// in\n    tag_403:\n      0x00\n      swap2\n      dup3\n      mstore\n      0x20\n      swap1\n      swap2\n      keccak256\n        /* \"src/FinLock.sol\":7427:7441  userLock.owner */\n      0x02\n        /* \"src/FinLock.sol\":7382:7396  _locks[lockId] */\n      0x06\n      swap1\n      swap3\n      mul\n      add\n        /* \"src/FinLock.sol\":7427:7441  userLock.owner */\n      swap1\n      dup2\n      add\n      sload\n        /* \"src/FinLock.sol\":7382:7396  _locks[lockId] */\n      swap1\n      swap2\n      pop\n      sub(shl(0xa0, 0x01), 0x01)\n        /* \"src/FinLock.sol\":7427:7441  userLock.owner */\n      and\n        /* \"src/FinLock.sol\":7445:7455  msg.sender */\n      caller\n        /* \"src/FinLock.sol\":7427:7455  userLock.owner == msg.sender */\n      eq\n        /* \"src/FinLock.sol\":7406:7515  require(... */\n      tag_405\n      jumpi\n      mload(0x40)\n      shl(0xe5, 0x461bcd)\n      dup2\n      mstore\n      0x04\n      add\n      tag_238\n      swap1\n      tag_254\n      jump\t// in\n    tag_405:\n        /* \"src/FinLock.sol\":7551:7552  0 */\n      0x00\n        /* \"src/FinLock.sol\":7533:7541  userLock */\n      dup2\n        /* \"src/FinLock.sol\":7533:7548  userLock.amount */\n      0x03\n      add\n      sload\n        /* \"src/FinLock.sol\":7533:7552  userLock.amount > 0 */\n      gt\n        /* \"src/FinLock.sol\":7525:7574  require(userLock.amount > 0, \"Lock was unlocked\") */\n      tag_407\n      jumpi\n      mload(0x40)\n      shl(0xe5, 0x461bcd)\n      dup2\n      mstore\n        /* \"#utility.yul\":11454:11456   */\n      0x20\n        /* \"src/FinLock.sol\":7525:7574  require(userLock.amount > 0, \"Lock was unlocked\") */\n      0x04\n      dup3\n      add\n        /* \"#utility.yul\":11436:11457   */\n      mstore\n        /* \"#utility.yul\":11493:11495   */\n      0x11\n        /* \"#utility.yul\":11473:11491   */\n      0x24\n      dup3\n      add\n        /* \"#utility.yul\":11466:11496   */\n      mstore\n      shl(0x7a, 0x131bd8dac81dd85cc81d5b9b1bd8dad959)\n        /* \"#utility.yul\":11512:11530   */\n      0x44\n      dup3\n      add\n        /* \"#utility.yul\":11505:11552   */\n      mstore\n        /* \"#utility.yul\":11569:11587   */\n      0x64\n      add\n        /* \"src/FinLock.sol\":7525:7574  require(userLock.amount > 0, \"Lock was unlocked\") */\n      tag_238\n        /* \"#utility.yul\":11252:11593   */\n      jump\n        /* \"src/FinLock.sol\":7525:7574  require(userLock.amount > 0, \"Lock was unlocked\") */\n    tag_407:\n        /* \"src/FinLock.sol\":7588:7605  newUnlockDate > 0 */\n      dup3\n      iszero\n        /* \"src/FinLock.sol\":7584:7899  if (newUnlockDate > 0) {... */\n      tag_410\n      jumpi\n        /* \"src/FinLock.sol\":7663:7671  userLock */\n      dup1\n        /* \"src/FinLock.sol\":7663:7682  userLock.unlockDate */\n      0x05\n      add\n      sload\n        /* \"src/FinLock.sol\":7646:7659  newUnlockDate */\n      dup4\n        /* \"src/FinLock.sol\":7646:7682  newUnlockDate >= userLock.unlockDate */\n      lt\n      iszero\n        /* \"src/FinLock.sol\":7646:7737  newUnlockDate >= userLock.unlockDate &&... */\n      dup1\n      iszero\n      tag_411\n      jumpi\n      pop\n        /* \"src/FinLock.sol\":7722:7737  block.timestamp */\n      timestamp\n        /* \"src/FinLock.sol\":7706:7719  newUnlockDate */\n      dup4\n        /* \"src/FinLock.sol\":7706:7737  newUnlockDate > block.timestamp */\n      gt\n        /* \"src/FinLock.sol\":7646:7737  newUnlockDate >= userLock.unlockDate &&... */\n    tag_411:\n        /* \"src/FinLock.sol\":7621:7839  require(... */\n      tag_412\n      jumpi\n      mload(0x40)\n      shl(0xe5, 0x461bcd)\n      dup2\n      mstore\n        /* \"#utility.yul\":11800:11802   */\n      0x20\n        /* \"src/FinLock.sol\":7621:7839  require(... */\n      0x04\n      dup3\n      add\n        /* \"#utility.yul\":11782:11803   */\n      mstore\n        /* \"#utility.yul\":11839:11841   */\n      0x44\n        /* \"#utility.yul\":11819:11837   */\n      0x24\n      dup3\n      add\n        /* \"#utility.yul\":11812:11842   */\n      dup2\n      swap1\n      mstore\n        /* \"#utility.yul\":11878:11912   */\n      0x4e657720756e6c6f636b2074696d652073686f756c64206e6f74206265206265\n        /* \"#utility.yul\":11858:11876   */\n      swap1\n      dup3\n      add\n        /* \"#utility.yul\":11851:11913   */\n      mstore\n        /* \"#utility.yul\":11949:11983   */\n      0x666f7265206f6c6420756e6c6f636b2074696d65206f722063757272656e7420\n        /* \"#utility.yul\":11929:11947   */\n      0x64\n      dup3\n      add\n        /* \"#utility.yul\":11922:11984   */\n      mstore\n      shl(0xe0, 0x74696d65)\n        /* \"#utility.yul\":12000:12019   */\n      0x84\n      dup3\n      add\n        /* \"#utility.yul\":11993:12028   */\n      mstore\n        /* \"#utility.yul\":12045:12064   */\n      0xa4\n      add\n        /* \"src/FinLock.sol\":7621:7839  require(... */\n      tag_238\n        /* \"#utility.yul\":11598:12070   */\n      jump\n        /* \"src/FinLock.sol\":7621:7839  require(... */\n    tag_412:\n        /* \"src/FinLock.sol\":7853:7872  userLock.unlockDate */\n      0x05\n      dup2\n      add\n        /* \"src/FinLock.sol\":7853:7888  userLock.unlockDate = newUnlockDate */\n      dup4\n      swap1\n      sstore\n        /* \"src/FinLock.sol\":7584:7899  if (newUnlockDate > 0) {... */\n    tag_410:\n        /* \"src/FinLock.sol\":7913:7926  newAmount > 0 */\n      dup4\n      iszero\n        /* \"src/FinLock.sol\":7909:8624  if (newAmount > 0) {... */\n      tag_415\n      jumpi\n        /* \"src/FinLock.sol\":7980:7988  userLock */\n      dup1\n        /* \"src/FinLock.sol\":7980:7995  userLock.amount */\n      0x03\n      add\n      sload\n        /* \"src/FinLock.sol\":7967:7976  newAmount */\n      dup5\n        /* \"src/FinLock.sol\":7967:7995  newAmount >= userLock.amount */\n      lt\n      iszero\n        /* \"src/FinLock.sol\":7942:8078  require(... */\n      tag_416\n      jumpi\n      mload(0x40)\n      shl(0xe5, 0x461bcd)\n      dup2\n      mstore\n        /* \"#utility.yul\":12277:12279   */\n      0x20\n        /* \"src/FinLock.sol\":7942:8078  require(... */\n      0x04\n      dup3\n      add\n        /* \"#utility.yul\":12259:12280   */\n      mstore\n        /* \"#utility.yul\":12316:12318   */\n      0x31\n        /* \"#utility.yul\":12296:12314   */\n      0x24\n      dup3\n      add\n        /* \"#utility.yul\":12289:12319   */\n      mstore\n        /* \"#utility.yul\":12355:12389   */\n      0x4e657720616d6f756e742073686f756c64206e6f74206265206c657373207468\n        /* \"#utility.yul\":12335:12353   */\n      0x44\n      dup3\n      add\n        /* \"#utility.yul\":12328:12390   */\n      mstore\n      shl(0x7a, 0x185b8818dd5c9c995b9d08185b5bdd5b9d)\n        /* \"#utility.yul\":12406:12424   */\n      0x64\n      dup3\n      add\n        /* \"#utility.yul\":12399:12446   */\n      mstore\n        /* \"#utility.yul\":12463:12482   */\n      0x84\n      add\n        /* \"src/FinLock.sol\":7942:8078  require(... */\n      tag_238\n        /* \"#utility.yul\":12075:12488   */\n      jump\n        /* \"src/FinLock.sol\":7942:8078  require(... */\n    tag_416:\n        /* \"src/FinLock.sol\":8093:8105  uint256 diff */\n      0x00\n        /* \"src/FinLock.sol\":8120:8128  userLock */\n      dup2\n        /* \"src/FinLock.sol\":8120:8135  userLock.amount */\n      0x03\n      add\n      sload\n        /* \"src/FinLock.sol\":8108:8117  newAmount */\n      dup6\n        /* \"src/FinLock.sol\":8108:8135  newAmount - userLock.amount */\n      tag_419\n      swap2\n      swap1\n      tag_205\n      jump\t// in\n    tag_419:\n        /* \"src/FinLock.sol\":8093:8135  uint256 diff = newAmount - userLock.amount */\n      swap1\n      pop\n        /* \"src/FinLock.sol\":8154:8162  diff > 0 */\n      dup1\n      iszero\n        /* \"src/FinLock.sol\":8150:8614  if (diff > 0) {... */\n      tag_420\n      jumpi\n        /* \"src/FinLock.sol\":8238:8252  userLock.token */\n      0x01\n      dup3\n      add\n      sload\n        /* \"src/FinLock.sol\":8182:8363  _safeTransferFromEnsureExactAmount(... */\n      tag_421\n      swap1\n      sub(shl(0xa0, 0x01), 0x01)\n        /* \"src/FinLock.sol\":8238:8252  userLock.token */\n      and\n        /* \"src/FinLock.sol\":8274:8284  msg.sender */\n      caller\n        /* \"src/FinLock.sol\":8314:8318  this */\n      address\n        /* \"src/FinLock.sol\":8341:8345  diff */\n      dup5\n        /* \"src/FinLock.sol\":8182:8216  _safeTransferFromEnsureExactAmount */\n      tag_314\n        /* \"src/FinLock.sol\":8182:8363  _safeTransferFromEnsureExactAmount(... */\n      jump\t// in\n    tag_421:\n        /* \"src/FinLock.sol\":8382:8397  userLock.amount */\n      0x03\n      dup3\n      add\n        /* \"src/FinLock.sol\":8382:8409  userLock.amount = newAmount */\n      dup6\n      swap1\n      sstore\n        /* \"src/FinLock.sol\":8507:8521  userLock.token */\n      0x01\n      dup3\n      add\n      sload\n      sub(shl(0xa0, 0x01), 0x01)\n      and\n        /* \"src/FinLock.sol\":8428:8464  CumulativeLockInfo storage tokenInfo */\n      0x00\n        /* \"src/FinLock.sol\":8467:8539  cumulativeLockInfo[... */\n      swap1\n      dup2\n      mstore\n        /* \"src/FinLock.sol\":8467:8485  cumulativeLockInfo */\n      0x09\n        /* \"src/FinLock.sol\":8467:8539  cumulativeLockInfo[... */\n      0x20\n      mstore\n      0x40\n      swap1\n      keccak256\n        /* \"src/FinLock.sol\":8576:8592  tokenInfo.amount */\n      0x02\n      dup2\n      add\n      sload\n        /* \"src/FinLock.sol\":8576:8599  tokenInfo.amount + diff */\n      tag_422\n      swap1\n        /* \"src/FinLock.sol\":8595:8599  diff */\n      dup4\n      swap1\n        /* \"src/FinLock.sol\":8576:8599  tokenInfo.amount + diff */\n      tag_199\n      jump\t// in\n    tag_422:\n        /* \"src/FinLock.sol\":8557:8573  tokenInfo.amount */\n      0x02\n      swap1\n      swap2\n      add\n        /* \"src/FinLock.sol\":8557:8599  tokenInfo.amount = tokenInfo.amount + diff */\n      sstore\n        /* \"src/FinLock.sol\":8150:8614  if (diff > 0) {... */\n    tag_420:\n        /* \"src/FinLock.sol\":7928:8624  {... */\n      pop\n        /* \"src/FinLock.sol\":7909:8624  if (newAmount > 0) {... */\n    tag_415:\n        /* \"src/FinLock.sol\":8664:8675  userLock.id */\n      dup1\n      sload\n        /* \"src/FinLock.sol\":8689:8703  userLock.token */\n      0x01\n      dup3\n      add\n      sload\n        /* \"src/FinLock.sol\":8717:8731  userLock.owner */\n      0x02\n      dup4\n      add\n      sload\n        /* \"src/FinLock.sol\":8745:8760  userLock.amount */\n      0x03\n      dup5\n      add\n      sload\n        /* \"src/FinLock.sol\":8774:8793  userLock.unlockDate */\n      0x05\n      dup6\n      add\n      sload\n        /* \"src/FinLock.sol\":8639:8803  LockUpdated(... */\n      mload(0x40)\n      0xa8b26360df8d5e154ffa5a8a7e894e85f781acfbbef0b744fb9551d8fd0fd36c\n      swap5\n      tag_423\n      swap5\n      sub(shl(0xa0, 0x01), 0x01)\n        /* \"src/FinLock.sol\":8689:8703  userLock.token */\n      swap2\n      dup3\n      and\n      swap5\n        /* \"src/FinLock.sol\":8717:8731  userLock.owner */\n      swap2\n      and\n      swap3\n        /* \"src/FinLock.sol\":8745:8760  userLock.amount */\n      swap1\n      swap2\n        /* \"src/FinLock.sol\":8639:8803  LockUpdated(... */\n      tag_279\n      jump\t// in\n    tag_423:\n      mload(0x40)\n      dup1\n      swap2\n      sub\n      swap1\n      log2\n        /* \"src/FinLock.sol\":7348:8810  {... */\n      pop\n        /* \"src/FinLock.sol\":2168:2169  _ */\n      pop\n        /* \"src/FinLock.sol\":7190:8810  function editLock(... */\n      pop\n      pop\n      pop\n      jump\t// out\n        /* \"src/FinLock.sol\":10740:10851  function allLpTokenLockedCount() public view returns (uint256) {... */\n    tag_137:\n        /* \"src/FinLock.sol\":10794:10801  uint256 */\n      0x00\n        /* \"src/FinLock.sol\":10820:10844  _lpLockedTokens.length() */\n      tag_198\n        /* \"src/FinLock.sol\":10820:10835  _lpLockedTokens */\n      0x05\n        /* \"src/FinLock.sol\":10820:10842  _lpLockedTokens.length */\n      tag_187\n        /* \"src/FinLock.sol\":10820:10844  _lpLockedTokens.length() */\n      jump\t// in\n        /* \"src/FinLock.sol\":14366:14520  function totalLockCountForUser(address user) public view returns (uint256) {... */\n    tag_142:\n        /* \"src/FinLock.sol\":14432:14439  uint256 */\n      0x00\n        /* \"src/FinLock.sol\":14489:14513  lpLockCountForUser(user) */\n      tag_427\n        /* \"src/FinLock.sol\":14508:14512  user */\n      dup3\n        /* \"src/FinLock.sol\":14489:14507  lpLockCountForUser */\n      tag_43\n        /* \"src/FinLock.sol\":14489:14513  lpLockCountForUser(user) */\n      jump\t// in\n    tag_427:\n        /* \"src/FinLock.sol\":14458:14486  normalLockCountForUser(user) */\n      tag_428\n        /* \"src/FinLock.sol\":14481:14485  user */\n      dup4\n        /* \"src/FinLock.sol\":14458:14480  normalLockCountForUser */\n      tag_170\n        /* \"src/FinLock.sol\":14458:14486  normalLockCountForUser(user) */\n      jump\t// in\n    tag_428:\n        /* \"src/FinLock.sol\":14458:14513  normalLockCountForUser(user) + lpLockCountForUser(user) */\n      tag_186\n      swap2\n      swap1\n      tag_199\n      jump\t// in\n        /* \"src/FinLock.sol\":13714:14091  function normalLocksForUser(address user)... */\n    tag_147:\n      sub(shl(0xa0, 0x01), 0x01)\n        /* \"src/FinLock.sol\":13847:13871  _userNormalLockIds[user] */\n      dup2\n      and\n        /* \"src/FinLock.sol\":13830:13844  uint256 length */\n      0x00\n        /* \"src/FinLock.sol\":13847:13871  _userNormalLockIds[user] */\n      swap1\n      dup2\n      mstore\n        /* \"src/FinLock.sol\":13847:13865  _userNormalLockIds */\n      0x04\n        /* \"src/FinLock.sol\":13847:13871  _userNormalLockIds[user] */\n      0x20\n      mstore\n      0x40\n      dup2\n      keccak256\n        /* \"src/FinLock.sol\":13801:13814  Lock[] memory */\n      0x60\n      swap2\n        /* \"src/FinLock.sol\":13830:13844  uint256 length */\n      swap1\n        /* \"src/FinLock.sol\":13847:13880  _userNormalLockIds[user].length() */\n      tag_431\n      swap1\n        /* \"src/FinLock.sol\":13847:13878  _userNormalLockIds[user].length */\n      tag_187\n        /* \"src/FinLock.sol\":13847:13880  _userNormalLockIds[user].length() */\n      jump\t// in\n    tag_431:\n        /* \"src/FinLock.sol\":13830:13880  uint256 length = _userNormalLockIds[user].length() */\n      swap1\n      pop\n        /* \"src/FinLock.sol\":13890:13913  Lock[] memory userLocks */\n      0x00\n        /* \"src/FinLock.sol\":13927:13933  length */\n      dup2\n        /* \"src/FinLock.sol\":13916:13934  new Lock[](length) */\n      0xffffffffffffffff\n      dup2\n      gt\n      iszero\n      tag_433\n      jumpi\n      tag_433\n      tag_210\n      jump\t// in\n    tag_433:\n      mload(0x40)\n      swap1\n      dup1\n      dup3\n      mstore\n      dup1\n      0x20\n      mul\n      0x20\n      add\n      dup3\n      add\n      0x40\n      mstore\n      dup1\n      iszero\n      tag_434\n      jumpi\n      dup2\n      0x20\n      add\n    tag_435:\n      tag_436\n      tag_189\n      jump\t// in\n    tag_436:\n      dup2\n      mstore\n      0x20\n      add\n      swap1\n      0x01\n      swap1\n      sub\n      swap1\n      dup2\n      tag_435\n      jumpi\n      swap1\n      pop\n    tag_434:\n      pop\n        /* \"src/FinLock.sol\":13890:13934  Lock[] memory userLocks = new Lock[](length) */\n      swap1\n      pop\n        /* \"src/FinLock.sol\":13949:13958  uint256 i */\n      0x00\n        /* \"src/FinLock.sol\":13944:14059  for (uint256 i = 0; i < length; i++) {... */\n    tag_437:\n        /* \"src/FinLock.sol\":13968:13974  length */\n      dup3\n        /* \"src/FinLock.sol\":13964:13965  i */\n      dup2\n        /* \"src/FinLock.sol\":13964:13974  i < length */\n      lt\n        /* \"src/FinLock.sol\":13944:14059  for (uint256 i = 0; i < length; i++) {... */\n      iszero\n      tag_386\n      jumpi\n      sub(shl(0xa0, 0x01), 0x01)\n        /* \"src/FinLock.sol\":14017:14041  _userNormalLockIds[user] */\n      dup6\n      and\n      0x00\n      swap1\n      dup2\n      mstore\n        /* \"src/FinLock.sol\":14017:14035  _userNormalLockIds */\n      0x04\n        /* \"src/FinLock.sol\":14017:14041  _userNormalLockIds[user] */\n      0x20\n      mstore\n      0x40\n      swap1\n      keccak256\n        /* \"src/FinLock.sol\":14010:14016  _locks */\n      0x02\n      swap1\n        /* \"src/FinLock.sol\":14017:14047  _userNormalLockIds[user].at(i) */\n      tag_440\n      swap1\n        /* \"src/FinLock.sol\":14045:14046  i */\n      dup4\n        /* \"src/FinLock.sol\":14017:14044  _userNormalLockIds[user].at */\n      tag_218\n        /* \"src/FinLock.sol\":14017:14047  _userNormalLockIds[user].at(i) */\n      jump\t// in\n    tag_440:\n        /* \"src/FinLock.sol\":14010:14048  _locks[_userNormalLockIds[user].at(i)] */\n      dup2\n      sload\n      dup2\n      lt\n      tag_442\n      jumpi\n      tag_442\n      tag_193\n      jump\t// in\n    tag_442:\n      0x00\n      swap2\n      dup3\n      mstore\n      0x20\n      swap2\n      dup3\n      swap1\n      keccak256\n        /* \"src/FinLock.sol\":13995:14048  userLocks[i] = _locks[_userNormalLockIds[user].at(i)] */\n      0x40\n      dup1\n      mload\n      0xc0\n      dup2\n      add\n      dup3\n      mstore\n        /* \"src/FinLock.sol\":14010:14048  _locks[_userNormalLockIds[user].at(i)] */\n      0x06\n      swap1\n      swap4\n      mul\n      swap1\n      swap2\n      add\n        /* \"src/FinLock.sol\":13995:14048  userLocks[i] = _locks[_userNormalLockIds[user].at(i)] */\n      dup1\n      sload\n      dup4\n      mstore\n      0x01\n      dup2\n      add\n      sload\n      sub(shl(0xa0, 0x01), 0x01)\n      swap1\n      dup2\n      and\n      swap5\n      dup5\n      add\n      swap5\n      swap1\n      swap5\n      mstore\n      0x02\n      dup2\n      add\n      sload\n      swap1\n      swap4\n      and\n      swap1\n      dup3\n      add\n      mstore\n      0x03\n      dup3\n      add\n      sload\n      0x60\n      dup3\n      add\n      mstore\n      0x04\n      dup3\n      add\n      sload\n      0x80\n      dup3\n      add\n      mstore\n      0x05\n      swap1\n      swap2\n      add\n      sload\n      0xa0\n      dup3\n      add\n      mstore\n        /* \"src/FinLock.sol\":13995:14007  userLocks[i] */\n      dup3\n      mload\n        /* \"src/FinLock.sol\":13995:14004  userLocks */\n      dup4\n      swap1\n        /* \"src/FinLock.sol\":14005:14006  i */\n      dup4\n      swap1\n        /* \"src/FinLock.sol\":13995:14007  userLocks[i] */\n      dup2\n      lt\n      tag_445\n      jumpi\n      tag_445\n      tag_193\n      jump\t// in\n    tag_445:\n      0x20\n      mul\n      0x20\n      add\n      add\n        /* \"src/FinLock.sol\":13995:14048  userLocks[i] = _locks[_userNormalLockIds[user].at(i)] */\n      dup2\n      swap1\n      mstore\n      pop\n        /* \"src/FinLock.sol\":13976:13979  i++ */\n      dup1\n      dup1\n      tag_446\n      swap1\n      tag_225\n      jump\t// in\n    tag_446:\n      swap2\n      pop\n      pop\n        /* \"src/FinLock.sol\":13944:14059  for (uint256 i = 0; i < length; i++) {... */\n      jump(tag_437)\n        /* \"src/FinLock.sol\":14526:14686  function totalLockCountForToken(address token)... */\n    tag_162:\n      sub(shl(0xa0, 0x01), 0x01)\n        /* \"src/FinLock.sol\":14648:14670  _tokenToLockIds[token] */\n      dup2\n      and\n        /* \"src/FinLock.sol\":14618:14625  uint256 */\n      0x00\n        /* \"src/FinLock.sol\":14648:14670  _tokenToLockIds[token] */\n      swap1\n      dup2\n      mstore\n        /* \"src/FinLock.sol\":14648:14663  _tokenToLockIds */\n      0x0a\n        /* \"src/FinLock.sol\":14648:14670  _tokenToLockIds[token] */\n      0x20\n      mstore\n      0x40\n      dup2\n      keccak256\n        /* \"src/FinLock.sol\":14648:14679  _tokenToLockIds[token].length() */\n      tag_186\n      swap1\n        /* \"src/FinLock.sol\":14648:14677  _tokenToLockIds[token].length */\n      tag_187\n        /* \"src/FinLock.sol\":14648:14679  _tokenToLockIds[token].length() */\n      jump\t// in\n        /* \"src/FinLock.sol\":2446:2554  function withdrawFee() external onlyOwner {... */\n    tag_166:\n        /* \"@openzeppelin/contracts/access/Ownable.sol\":1094:1107  _checkOwner() */\n      tag_450\n        /* \"@openzeppelin/contracts/access/Ownable.sol\":1094:1105  _checkOwner */\n      tag_318\n        /* \"@openzeppelin/contracts/access/Ownable.sol\":1094:1107  _checkOwner() */\n      jump\t// in\n    tag_450:\n        /* \"src/FinLock.sol\":2498:2547  payable(owner()).sendValue(address(this).balance) */\n      tag_323\n        /* \"src/FinLock.sol\":2525:2546  address(this).balance */\n      selfbalance\n        /* \"src/FinLock.sol\":2506:2513  owner() */\n      tag_453\n        /* \"@openzeppelin/contracts/access/Ownable.sol\":1247:1254  address */\n      0x00\n        /* \"@openzeppelin/contracts/access/Ownable.sol\":1273:1279  _owner */\n      sload\n      sub(shl(0xa0, 0x01), 0x01)\n      and\n      swap1\n        /* \"@openzeppelin/contracts/access/Ownable.sol\":1201:1286  function owner() public view virtual returns (address) {... */\n      jump\n        /* \"src/FinLock.sol\":2506:2513  owner() */\n    tag_453:\n      sub(shl(0xa0, 0x01), 0x01)\n        /* \"src/FinLock.sol\":2498:2524  payable(owner()).sendValue */\n      and\n      swap1\n      tag_454\n        /* \"src/FinLock.sol\":2498:2547  payable(owner()).sendValue(address(this).balance) */\n      jump\t// in\n        /* \"src/FinLock.sol\":13547:13708  function normalLockCountForUser(address user)... */\n    tag_170:\n      sub(shl(0xa0, 0x01), 0x01)\n        /* \"src/FinLock.sol\":13668:13692  _userNormalLockIds[user] */\n      dup2\n      and\n        /* \"src/FinLock.sol\":13638:13645  uint256 */\n      0x00\n        /* \"src/FinLock.sol\":13668:13692  _userNormalLockIds[user] */\n      swap1\n      dup2\n      mstore\n        /* \"src/FinLock.sol\":13668:13686  _userNormalLockIds */\n      0x04\n        /* \"src/FinLock.sol\":13668:13692  _userNormalLockIds[user] */\n      0x20\n      mstore\n      0x40\n      dup2\n      keccak256\n        /* \"src/FinLock.sol\":13668:13701  _userNormalLockIds[user].length() */\n      tag_186\n      swap1\n        /* \"src/FinLock.sol\":13668:13699  _userNormalLockIds[user].length */\n      tag_187\n        /* \"src/FinLock.sol\":13668:13701  _userNormalLockIds[user].length() */\n      jump\t// in\n        /* \"src/FinLock.sol\":13290:13541  function lpLockForUserAtIndex(address user, uint256 index)... */\n    tag_175:\n        /* \"src/FinLock.sol\":13394:13405  Lock memory */\n      tag_457\n      tag_189\n      jump\t// in\n    tag_457:\n        /* \"src/FinLock.sol\":13456:13461  index */\n      dup2\n        /* \"src/FinLock.sol\":13429:13453  lpLockCountForUser(user) */\n      tag_459\n        /* \"src/FinLock.sol\":13448:13452  user */\n      dup5\n        /* \"src/FinLock.sol\":13429:13447  lpLockCountForUser */\n      tag_43\n        /* \"src/FinLock.sol\":13429:13453  lpLockCountForUser(user) */\n      jump\t// in\n    tag_459:\n        /* \"src/FinLock.sol\":13429:13461  lpLockCountForUser(user) > index */\n      gt\n        /* \"src/FinLock.sol\":13421:13479  require(lpLockCountForUser(user) > index, \"Invalid index\") */\n      tag_460\n      jumpi\n      mload(0x40)\n      shl(0xe5, 0x461bcd)\n      dup2\n      mstore\n        /* \"#utility.yul\":7143:7145   */\n      0x20\n        /* \"src/FinLock.sol\":13421:13479  require(lpLockCountForUser(user) > index, \"Invalid index\") */\n      0x04\n      dup3\n      add\n        /* \"#utility.yul\":7125:7146   */\n      mstore\n        /* \"#utility.yul\":7182:7184   */\n      0x0d\n        /* \"#utility.yul\":7162:7180   */\n      0x24\n      dup3\n      add\n        /* \"#utility.yul\":7155:7185   */\n      mstore\n      shl(0x9b, 0x092dcecc2d8d2c840d2dcc8caf)\n        /* \"#utility.yul\":7201:7219   */\n      0x44\n      dup3\n      add\n        /* \"#utility.yul\":7194:7237   */\n      mstore\n        /* \"#utility.yul\":7254:7272   */\n      0x64\n      add\n        /* \"src/FinLock.sol\":13421:13479  require(lpLockCountForUser(user) > index, \"Invalid index\") */\n      tag_238\n        /* \"#utility.yul\":6941:7278   */\n      jump\n        /* \"src/FinLock.sol\":13421:13479  require(lpLockCountForUser(user) > index, \"Invalid index\") */\n    tag_460:\n      sub(shl(0xa0, 0x01), 0x01)\n        /* \"src/FinLock.sol\":13503:13523  _userLpLockIds[user] */\n      dup4\n      and\n      0x00\n      swap1\n      dup2\n      mstore\n        /* \"src/FinLock.sol\":13503:13517  _userLpLockIds */\n      0x03\n        /* \"src/FinLock.sol\":13503:13523  _userLpLockIds[user] */\n      0x20\n      mstore\n      0x40\n      swap1\n      keccak256\n        /* \"src/FinLock.sol\":13496:13502  _locks */\n      0x02\n      swap1\n        /* \"src/FinLock.sol\":13503:13533  _userLpLockIds[user].at(index) */\n      tag_240\n      swap1\n        /* \"src/FinLock.sol\":13527:13532  index */\n      dup5\n        /* \"src/FinLock.sol\":13503:13526  _userLpLockIds[user].at */\n      tag_218\n        /* \"src/FinLock.sol\":13503:13533  _userLpLockIds[user].at(index) */\n      jump\t// in\n        /* \"@openzeppelin/contracts/access/Ownable.sol\":2074:2272  function transferOwnership(address newOwner) public virtual onlyOwner {... */\n    tag_180:\n        /* \"@openzeppelin/contracts/access/Ownable.sol\":1094:1107  _checkOwner() */\n      tag_467\n        /* \"@openzeppelin/contracts/access/Ownable.sol\":1094:1105  _checkOwner */\n      tag_318\n        /* \"@openzeppelin/contracts/access/Ownable.sol\":1094:1107  _checkOwner() */\n      jump\t// in\n    tag_467:\n      sub(shl(0xa0, 0x01), 0x01)\n        /* \"@openzeppelin/contracts/access/Ownable.sol\":2162:2184  newOwner != address(0) */\n      dup2\n      and\n        /* \"@openzeppelin/contracts/access/Ownable.sol\":2154:2227  require(newOwner != address(0), \"Ownable: new owner is the zero address\") */\n      tag_469\n      jumpi\n      mload(0x40)\n      shl(0xe5, 0x461bcd)\n      dup2\n      mstore\n        /* \"#utility.yul\":12695:12697   */\n      0x20\n        /* \"@openzeppelin/contracts/access/Ownable.sol\":2154:2227  require(newOwner != address(0), \"Ownable: new owner is the zero address\") */\n      0x04\n      dup3\n      add\n        /* \"#utility.yul\":12677:12698   */\n      mstore\n        /* \"#utility.yul\":12734:12736   */\n      0x26\n        /* \"#utility.yul\":12714:12732   */\n      0x24\n      dup3\n      add\n        /* \"#utility.yul\":12707:12737   */\n      mstore\n        /* \"#utility.yul\":12773:12807   */\n      0x4f776e61626c653a206e6577206f776e657220697320746865207a65726f2061\n        /* \"#utility.yul\":12753:12771   */\n      0x44\n      dup3\n      add\n        /* \"#utility.yul\":12746:12808   */\n      mstore\n      shl(0xd0, 0x646472657373)\n        /* \"#utility.yul\":12824:12842   */\n      0x64\n      dup3\n      add\n        /* \"#utility.yul\":12817:12853   */\n      mstore\n        /* \"#utility.yul\":12870:12889   */\n      0x84\n      add\n        /* \"@openzeppelin/contracts/access/Ownable.sol\":2154:2227  require(newOwner != address(0), \"Ownable: new owner is the zero address\") */\n      tag_238\n        /* \"#utility.yul\":12493:12895   */\n      jump\n        /* \"@openzeppelin/contracts/access/Ownable.sol\":2154:2227  require(newOwner != address(0), \"Ownable: new owner is the zero address\") */\n    tag_469:\n        /* \"@openzeppelin/contracts/access/Ownable.sol\":2237:2265  _transferOwnership(newOwner) */\n      tag_355\n        /* \"@openzeppelin/contracts/access/Ownable.sol\":2256:2264  newOwner */\n      dup2\n        /* \"@openzeppelin/contracts/access/Ownable.sol\":2237:2255  _transferOwnership */\n      tag_324\n        /* \"@openzeppelin/contracts/access/Ownable.sol\":2237:2265  _transferOwnership(newOwner) */\n      jump\t// in\n        /* \"@openzeppelin/contracts/utils/structs/EnumerableSet.sol\":11531:11643  function length(UintSet storage set) internal view returns (uint256) {... */\n    tag_187:\n        /* \"@openzeppelin/contracts/utils/structs/EnumerableSet.sol\":11591:11598  uint256 */\n      0x00\n        /* \"@openzeppelin/contracts/utils/structs/EnumerableSet.sol\":11617:11636  _length(set._inner) */\n      tag_186\n        /* \"@openzeppelin/contracts/utils/structs/EnumerableSet.sol\":11625:11628  set */\n      dup3\n        /* \"@openzeppelin/contracts/utils/structs/EnumerableSet.sol\":4545:4563  set._values.length */\n      sload\n      swap1\n        /* \"@openzeppelin/contracts/utils/structs/EnumerableSet.sol\":4463:4570  function _length(Set storage set) private view returns (uint256) {... */\n      jump\n        /* \"@openzeppelin/contracts/utils/structs/EnumerableSet.sol\":11985:12120  function at(UintSet storage set, uint256 index) internal view returns (uint256) {... */\n    tag_218:\n        /* \"@openzeppelin/contracts/utils/structs/EnumerableSet.sol\":12056:12063  uint256 */\n      0x00\n        /* \"@openzeppelin/contracts/utils/structs/EnumerableSet.sol\":12090:12112  _at(set._inner, index) */\n      tag_478\n        /* \"@openzeppelin/contracts/utils/structs/EnumerableSet.sol\":12094:12097  set */\n      dup4\n        /* \"@openzeppelin/contracts/utils/structs/EnumerableSet.sol\":12106:12111  index */\n      dup4\n        /* \"@openzeppelin/contracts/utils/structs/EnumerableSet.sol\":12090:12093  _at */\n      tag_479\n        /* \"@openzeppelin/contracts/utils/structs/EnumerableSet.sol\":12090:12112  _at(set._inner, index) */\n      jump\t// in\n    tag_478:\n        /* \"@openzeppelin/contracts/utils/structs/EnumerableSet.sol\":12082:12113  uint256(_at(set._inner, index)) */\n      swap4\n        /* \"@openzeppelin/contracts/utils/structs/EnumerableSet.sol\":11985:12120  function at(UintSet storage set, uint256 index) internal view returns (uint256) {... */\n      swap3\n      pop\n      pop\n      pop\n      jump\t// out\n        /* \"@openzeppelin/contracts/utils/structs/EnumerableSet.sol\":11090:11225  function remove(UintSet storage set, uint256 value) internal returns (bool) {... */\n    tag_263:\n        /* \"@openzeppelin/contracts/utils/structs/EnumerableSet.sol\":11160:11164  bool */\n      0x00\n        /* \"@openzeppelin/contracts/utils/structs/EnumerableSet.sol\":11183:11218  _remove(set._inner, bytes32(value)) */\n      tag_478\n        /* \"@openzeppelin/contracts/utils/structs/EnumerableSet.sol\":11191:11194  set */\n      dup4\n        /* \"@openzeppelin/contracts/utils/structs/EnumerableSet.sol\":11211:11216  value */\n      dup4\n        /* \"@openzeppelin/contracts/utils/structs/EnumerableSet.sol\":11183:11190  _remove */\n      tag_484\n        /* \"@openzeppelin/contracts/utils/structs/EnumerableSet.sol\":11183:11218  _remove(set._inner, bytes32(value)) */\n      jump\t// in\n        /* \"@openzeppelin/contracts/utils/structs/EnumerableSet.sol\":8623:8779  function remove(AddressSet storage set, address value) internal returns (bool) {... */\n    tag_272:\n        /* \"@openzeppelin/contracts/utils/structs/EnumerableSet.sol\":8696:8700  bool */\n      0x00\n        /* \"@openzeppelin/contracts/utils/structs/EnumerableSet.sol\":8719:8772  _remove(set._inner, bytes32(uint256(uint160(value)))) */\n      tag_478\n        /* \"@openzeppelin/contracts/utils/structs/EnumerableSet.sol\":8727:8730  set */\n      dup4\n      sub(shl(0xa0, 0x01), 0x01)\n        /* \"@openzeppelin/contracts/utils/structs/EnumerableSet.sol\":8747:8770  uint256(uint160(value)) */\n      dup5\n      and\n        /* \"@openzeppelin/contracts/utils/structs/EnumerableSet.sol\":8719:8726  _remove */\n      tag_484\n        /* \"@openzeppelin/contracts/utils/structs/EnumerableSet.sol\":8719:8772  _remove(set._inner, bytes32(uint256(uint160(value)))) */\n      jump\t// in\n        /* \"@openzeppelin/contracts/token/ERC20/utils/SafeERC20.sol\":941:1116  function safeTransfer(IERC20 token, address to, uint256 value) internal {... */\n    tag_277:\n        /* \"@openzeppelin/contracts/token/ERC20/utils/SafeERC20.sol\":1050:1108  abi.encodeWithSelector(token.transfer.selector, to, value) */\n      mload(0x40)\n      sub(shl(0xa0, 0x01), 0x01)\n        /* \"#utility.yul\":13092:13124   */\n      dup4\n      and\n        /* \"@openzeppelin/contracts/token/ERC20/utils/SafeERC20.sol\":1050:1108  abi.encodeWithSelector(token.transfer.selector, to, value) */\n      0x24\n      dup3\n      add\n        /* \"#utility.yul\":13074:13125   */\n      mstore\n        /* \"#utility.yul\":13141:13159   */\n      0x44\n      dup2\n      add\n        /* \"#utility.yul\":13134:13168   */\n      dup3\n      swap1\n      mstore\n        /* \"@openzeppelin/contracts/token/ERC20/utils/SafeERC20.sol\":1023:1109  _callOptionalReturn(token, abi.encodeWithSelector(token.transfer.selector, to, value)) */\n      tag_488\n      swap1\n        /* \"@openzeppelin/contracts/token/ERC20/utils/SafeERC20.sol\":1043:1048  token */\n      dup5\n      swap1\n      shl(0xe0, 0xa9059cbb)\n        /* \"@openzeppelin/contracts/token/ERC20/utils/SafeERC20.sol\":1073:1096  token.transfer.selector */\n      swap1\n        /* \"#utility.yul\":13047:13065   */\n      0x64\n      add\n        /* \"@openzeppelin/contracts/token/ERC20/utils/SafeERC20.sol\":1050:1108  abi.encodeWithSelector(token.transfer.selector, to, value) */\n    tag_489:\n      0x40\n      dup1\n      mload\n      not(0x1f)\n      dup2\n      dup5\n      sub\n      add\n      dup2\n      mstore\n      swap2\n      swap1\n      mstore\n      0x20\n      dup2\n      add\n      dup1\n      mload\n      sub(shl(0xe0, 0x01), 0x01)\n      and\n      not(sub(shl(0xe0, 0x01), 0x01))\n      swap1\n      swap4\n      and\n      swap3\n      swap1\n      swap3\n      or\n      swap1\n      swap2\n      mstore\n        /* \"@openzeppelin/contracts/token/ERC20/utils/SafeERC20.sol\":1023:1042  _callOptionalReturn */\n      tag_491\n        /* \"@openzeppelin/contracts/token/ERC20/utils/SafeERC20.sol\":1023:1109  _callOptionalReturn(token, abi.encodeWithSelector(token.transfer.selector, to, value)) */\n      jump\t// in\n    tag_488:\n        /* \"@openzeppelin/contracts/token/ERC20/utils/SafeERC20.sol\":941:1116  function safeTransfer(IERC20 token, address to, uint256 value) internal {... */\n      pop\n      pop\n      pop\n      jump\t// out\n        /* \"src/FinLock.sol\":15266:15606  function _isValidLpToken(address token, address factory)... */\n    tag_304:\n        /* \"src/FinLock.sol\":15369:15373  bool */\n      0x00\n        /* \"src/FinLock.sol\":15389:15408  IUniswapV2Pair pair */\n      dup1\n        /* \"src/FinLock.sol\":15426:15431  token */\n      dup4\n        /* \"src/FinLock.sol\":15389:15432  IUniswapV2Pair pair = IUniswapV2Pair(token) */\n      swap1\n      pop\n        /* \"src/FinLock.sol\":15442:15461  address factoryPair */\n      0x00\n        /* \"src/FinLock.sol\":15482:15489  factory */\n      dup4\n      sub(shl(0xa0, 0x01), 0x01)\n        /* \"src/FinLock.sol\":15464:15498  IUniswapV2Factory(factory).getPair */\n      and\n      0xe6a43905\n        /* \"src/FinLock.sol\":15512:15516  pair */\n      dup4\n      sub(shl(0xa0, 0x01), 0x01)\n        /* \"src/FinLock.sol\":15512:15523  pair.token0 */\n      and\n      0x0dfe1681\n        /* \"src/FinLock.sol\":15512:15525  pair.token0() */\n      mload(0x40)\n      dup2\n      0xffffffff\n      and\n      0xe0\n      shl\n      dup2\n      mstore\n      0x04\n      add\n      0x20\n      mload(0x40)\n      dup1\n      dup4\n      sub\n      dup2\n      dup7\n      gas\n      staticcall\n      iszero\n      dup1\n      iszero\n      tag_494\n      jumpi\n      returndatasize\n      0x00\n      dup1\n      returndatacopy\n      revert(0x00, returndatasize)\n    tag_494:\n      pop\n      pop\n      pop\n      pop\n      mload(0x40)\n      returndatasize\n      not(0x1f)\n      0x1f\n      dup3\n      add\n      and\n      dup3\n      add\n      dup1\n      0x40\n      mstore\n      pop\n      dup2\n      add\n      swap1\n      tag_495\n      swap2\n      swap1\n      tag_294\n      jump\t// in\n    tag_495:\n        /* \"src/FinLock.sol\":15539:15543  pair */\n      dup5\n      sub(shl(0xa0, 0x01), 0x01)\n        /* \"src/FinLock.sol\":15539:15550  pair.token1 */\n      and\n      0xd21220a7\n        /* \"src/FinLock.sol\":15539:15552  pair.token1() */\n      mload(0x40)\n      dup2\n      0xffffffff\n      and\n      0xe0\n      shl\n      dup2\n      mstore\n      0x04\n      add\n      0x20\n      mload(0x40)\n      dup1\n      dup4\n      sub\n      dup2\n      dup7\n      gas\n      staticcall\n      iszero\n      dup1\n      iszero\n      tag_497\n      jumpi\n      returndatasize\n      0x00\n      dup1\n      returndatacopy\n      revert(0x00, returndatasize)\n    tag_497:\n      pop\n      pop\n      pop\n      pop\n      mload(0x40)\n      returndatasize\n      not(0x1f)\n      0x1f\n      dup3\n      add\n      and\n      dup3\n      add\n      dup1\n      0x40\n      mstore\n      pop\n      dup2\n      add\n      swap1\n      tag_498\n      swap2\n      swap1\n      tag_294\n      jump\t// in\n    tag_498:\n        /* \"src/FinLock.sol\":15464:15562  IUniswapV2Factory(factory).getPair(... */\n      mload(0x40)\n      not(sub(shl(0xe0, 0x01), 0x01))\n      0xe0\n      dup6\n      swap1\n      shl\n      and\n      dup2\n      mstore\n      sub(shl(0xa0, 0x01), 0x01)\n        /* \"#utility.yul\":13409:13424   */\n      swap3\n      dup4\n      and\n        /* \"src/FinLock.sol\":15464:15562  IUniswapV2Factory(factory).getPair(... */\n      0x04\n      dup3\n      add\n        /* \"#utility.yul\":13391:13425   */\n      mstore\n        /* \"#utility.yul\":13461:13476   */\n      swap2\n      and\n        /* \"#utility.yul\":13441:13459   */\n      0x24\n      dup3\n      add\n        /* \"#utility.yul\":13434:13477   */\n      mstore\n        /* \"#utility.yul\":13326:13344   */\n      0x44\n      add\n        /* \"src/FinLock.sol\":15464:15562  IUniswapV2Factory(factory).getPair(... */\n      0x20\n      mload(0x40)\n      dup1\n      dup4\n      sub\n      dup2\n      dup7\n      gas\n      staticcall\n      iszero\n      dup1\n      iszero\n      tag_502\n      jumpi\n      returndatasize\n      0x00\n      dup1\n      returndatacopy\n      revert(0x00, returndatasize)\n    tag_502:\n      pop\n      pop\n      pop\n      pop\n      mload(0x40)\n      returndatasize\n      not(0x1f)\n      0x1f\n      dup3\n      add\n      and\n      dup3\n      add\n      dup1\n      0x40\n      mstore\n      pop\n      dup2\n      add\n      swap1\n      tag_503\n      swap2\n      swap1\n      tag_294\n      jump\t// in\n    tag_503:\n      sub(shl(0xa0, 0x01), 0x01)\n        /* \"src/FinLock.sol\":15579:15599  factoryPair == token */\n      swap1\n      dup2\n      and\n      swap1\n      dup7\n      and\n      eq\n      swap3\n      pop\n      pop\n      pop\n        /* \"src/FinLock.sol\":15266:15606  function _isValidLpToken(address token, address factory)... */\n      swap3\n      swap2\n      pop\n      pop\n      jump\t// out\n        /* \"src/FinLock.sol\":3959:4581  function _lockLpToken(... */\n    tag_309:\n        /* \"src/FinLock.sol\":4127:4137  uint256 id */\n      0x00\n        /* \"src/FinLock.sol\":4154:4196  _addLock(owner, token, amount, unlockDate) */\n      tag_505\n        /* \"src/FinLock.sol\":4163:4168  owner */\n      dup7\n        /* \"src/FinLock.sol\":4170:4175  token */\n      dup7\n        /* \"src/FinLock.sol\":4177:4183  amount */\n      dup6\n        /* \"src/FinLock.sol\":4185:4195  unlockDate */\n      dup6\n        /* \"src/FinLock.sol\":4154:4162  _addLock */\n      tag_506\n        /* \"src/FinLock.sol\":4154:4196  _addLock(owner, token, amount, unlockDate) */\n      jump\t// in\n    tag_505:\n      sub(shl(0xa0, 0x01), 0x01)\n        /* \"src/FinLock.sol\":4206:4227  _userLpLockIds[owner] */\n      dup8\n      and\n      0x00\n      swap1\n      dup2\n      mstore\n        /* \"src/FinLock.sol\":4206:4220  _userLpLockIds */\n      0x03\n        /* \"src/FinLock.sol\":4206:4227  _userLpLockIds[owner] */\n      0x20\n      mstore\n      0x40\n      swap1\n      keccak256\n        /* \"src/FinLock.sol\":4149:4196  id = _addLock(owner, token, amount, unlockDate) */\n      swap1\n      swap2\n      pop\n        /* \"src/FinLock.sol\":4206:4235  _userLpLockIds[owner].add(id) */\n      tag_507\n      swap1\n        /* \"src/FinLock.sol\":4149:4196  id = _addLock(owner, token, amount, unlockDate) */\n      dup3\n        /* \"src/FinLock.sol\":4206:4231  _userLpLockIds[owner].add */\n      tag_508\n        /* \"src/FinLock.sol\":4206:4235  _userLpLockIds[owner].add(id) */\n      jump\t// in\n    tag_507:\n      pop\n        /* \"src/FinLock.sol\":4245:4271  _lpLockedTokens.add(token) */\n      tag_509\n        /* \"src/FinLock.sol\":4245:4260  _lpLockedTokens */\n      0x05\n        /* \"src/FinLock.sol\":4265:4270  token */\n      dup7\n        /* \"src/FinLock.sol\":4245:4264  _lpLockedTokens.add */\n      tag_510\n        /* \"src/FinLock.sol\":4245:4271  _lpLockedTokens.add(token) */\n      jump\t// in\n    tag_509:\n      pop\n      sub(shl(0xa0, 0x01), 0x01)\n        /* \"src/FinLock.sol\":4321:4346  cumulativeLockInfo[token] */\n      dup1\n      dup7\n      and\n        /* \"src/FinLock.sol\":4282:4318  CumulativeLockInfo storage tokenInfo */\n      0x00\n        /* \"src/FinLock.sol\":4321:4346  cumulativeLockInfo[token] */\n      swap1\n      dup2\n      mstore\n        /* \"src/FinLock.sol\":4321:4339  cumulativeLockInfo */\n      0x09\n        /* \"src/FinLock.sol\":4321:4346  cumulativeLockInfo[token] */\n      0x20\n      mstore\n      0x40\n      swap1\n      keccak256\n        /* \"src/FinLock.sol\":4360:4375  tokenInfo.token */\n      dup1\n      sload\n        /* \"src/FinLock.sol\":4321:4346  cumulativeLockInfo[token] */\n      swap1\n      swap2\n        /* \"src/FinLock.sol\":4360:4375  tokenInfo.token */\n      and\n        /* \"src/FinLock.sol\":4356:4480  if (tokenInfo.token == address(0)) {... */\n      tag_511\n      jumpi\n        /* \"src/FinLock.sol\":4405:4428  tokenInfo.token = token */\n      dup1\n      sload\n      sub(shl(0xa0, 0x01), 0x01)\n      dup1\n      dup9\n      and\n      not(sub(shl(0xa0, 0x01), 0x01))\n      swap3\n      dup4\n      and\n      or\n      dup4\n      sstore\n      0x01\n        /* \"src/FinLock.sol\":4442:4459  tokenInfo.factory */\n      dup4\n      add\n        /* \"src/FinLock.sol\":4442:4469  tokenInfo.factory = factory */\n      dup1\n      sload\n      swap2\n      dup9\n      and\n      swap2\n      swap1\n      swap3\n      and\n      or\n      swap1\n      sstore\n        /* \"src/FinLock.sol\":4356:4480  if (tokenInfo.token == address(0)) {... */\n    tag_511:\n        /* \"src/FinLock.sol\":4527:4533  amount */\n      dup4\n        /* \"src/FinLock.sol\":4508:4517  tokenInfo */\n      dup2\n        /* \"src/FinLock.sol\":4508:4524  tokenInfo.amount */\n      0x02\n      add\n      sload\n        /* \"src/FinLock.sol\":4508:4533  tokenInfo.amount + amount */\n      tag_512\n      swap2\n      swap1\n      tag_199\n      jump\t// in\n    tag_512:\n        /* \"src/FinLock.sol\":4489:4505  tokenInfo.amount */\n      0x02\n      dup3\n      add\n        /* \"src/FinLock.sol\":4489:4533  tokenInfo.amount = tokenInfo.amount + amount */\n      sstore\n      sub(shl(0xa0, 0x01), 0x01)\n        /* \"src/FinLock.sol\":4544:4566  _tokenToLockIds[token] */\n      dup7\n      and\n      0x00\n      swap1\n      dup2\n      mstore\n        /* \"src/FinLock.sol\":4544:4559  _tokenToLockIds */\n      0x0a\n        /* \"src/FinLock.sol\":4544:4566  _tokenToLockIds[token] */\n      0x20\n      mstore\n      0x40\n      swap1\n      keccak256\n        /* \"src/FinLock.sol\":4544:4574  _tokenToLockIds[token].add(id) */\n      tag_513\n      swap1\n        /* \"src/FinLock.sol\":4571:4573  id */\n      dup4\n        /* \"src/FinLock.sol\":4544:4570  _tokenToLockIds[token].add */\n      tag_508\n        /* \"src/FinLock.sol\":4544:4574  _tokenToLockIds[token].add(id) */\n      jump\t// in\n    tag_513:\n      pop\n        /* \"src/FinLock.sol\":4139:4581  {... */\n      pop\n        /* \"src/FinLock.sol\":3959:4581  function _lockLpToken(... */\n      swap6\n      swap5\n      pop\n      pop\n      pop\n      pop\n      pop\n      jump\t// out\n        /* \"src/FinLock.sol\":4587:5199  function _lockNormalToken(... */\n    tag_312:\n        /* \"src/FinLock.sol\":4734:4744  uint256 id */\n      0x00\n        /* \"src/FinLock.sol\":4761:4803  _addLock(owner, token, amount, unlockDate) */\n      tag_515\n        /* \"src/FinLock.sol\":4770:4775  owner */\n      dup6\n        /* \"src/FinLock.sol\":4777:4782  token */\n      dup6\n        /* \"src/FinLock.sol\":4784:4790  amount */\n      dup6\n        /* \"src/FinLock.sol\":4792:4802  unlockDate */\n      dup6\n        /* \"src/FinLock.sol\":4761:4769  _addLock */\n      tag_506\n        /* \"src/FinLock.sol\":4761:4803  _addLock(owner, token, amount, unlockDate) */\n      jump\t// in\n    tag_515:\n      sub(shl(0xa0, 0x01), 0x01)\n        /* \"src/FinLock.sol\":4813:4838  _userNormalLockIds[owner] */\n      dup7\n      and\n      0x00\n      swap1\n      dup2\n      mstore\n        /* \"src/FinLock.sol\":4813:4831  _userNormalLockIds */\n      0x04\n        /* \"src/FinLock.sol\":4813:4838  _userNormalLockIds[owner] */\n      0x20\n      mstore\n      0x40\n      swap1\n      keccak256\n        /* \"src/FinLock.sol\":4756:4803  id = _addLock(owner, token, amount, unlockDate) */\n      swap1\n      swap2\n      pop\n        /* \"src/FinLock.sol\":4813:4846  _userNormalLockIds[owner].add(id) */\n      tag_516\n      swap1\n        /* \"src/FinLock.sol\":4756:4803  id = _addLock(owner, token, amount, unlockDate) */\n      dup3\n        /* \"src/FinLock.sol\":4813:4842  _userNormalLockIds[owner].add */\n      tag_508\n        /* \"src/FinLock.sol\":4813:4846  _userNormalLockIds[owner].add(id) */\n      jump\t// in\n    tag_516:\n      pop\n        /* \"src/FinLock.sol\":4856:4886  _normalLockedTokens.add(token) */\n      tag_517\n        /* \"src/FinLock.sol\":4856:4875  _normalLockedTokens */\n      0x07\n        /* \"src/FinLock.sol\":4880:4885  token */\n      dup6\n        /* \"src/FinLock.sol\":4856:4879  _normalLockedTokens.add */\n      tag_510\n        /* \"src/FinLock.sol\":4856:4886  _normalLockedTokens.add(token) */\n      jump\t// in\n    tag_517:\n      pop\n      sub(shl(0xa0, 0x01), 0x01)\n        /* \"src/FinLock.sol\":4936:4961  cumulativeLockInfo[token] */\n      dup1\n      dup6\n      and\n        /* \"src/FinLock.sol\":4897:4933  CumulativeLockInfo storage tokenInfo */\n      0x00\n        /* \"src/FinLock.sol\":4936:4961  cumulativeLockInfo[token] */\n      swap1\n      dup2\n      mstore\n        /* \"src/FinLock.sol\":4936:4954  cumulativeLockInfo */\n      0x09\n        /* \"src/FinLock.sol\":4936:4961  cumulativeLockInfo[token] */\n      0x20\n      mstore\n      0x40\n      swap1\n      keccak256\n        /* \"src/FinLock.sol\":4975:4990  tokenInfo.token */\n      dup1\n      sload\n        /* \"src/FinLock.sol\":4936:4961  cumulativeLockInfo[token] */\n      swap1\n      swap2\n        /* \"src/FinLock.sol\":4975:4990  tokenInfo.token */\n      and\n        /* \"src/FinLock.sol\":4971:5098  if (tokenInfo.token == address(0)) {... */\n      tag_518\n      jumpi\n        /* \"src/FinLock.sol\":5020:5043  tokenInfo.token = token */\n      dup1\n      sload\n      sub(shl(0xa0, 0x01), 0x01)\n      dup7\n      and\n      not(sub(shl(0xa0, 0x01), 0x01))\n      swap2\n      dup3\n      and\n      or\n      dup3\n      sstore\n      0x01\n        /* \"src/FinLock.sol\":5057:5074  tokenInfo.factory */\n      dup3\n      add\n        /* \"src/FinLock.sol\":5057:5087  tokenInfo.factory = address(0) */\n      dup1\n      sload\n      swap1\n      swap2\n      and\n      swap1\n      sstore\n        /* \"src/FinLock.sol\":4971:5098  if (tokenInfo.token == address(0)) {... */\n    tag_518:\n        /* \"src/FinLock.sol\":5145:5151  amount */\n      dup4\n        /* \"src/FinLock.sol\":5126:5135  tokenInfo */\n      dup2\n        /* \"src/FinLock.sol\":5126:5142  tokenInfo.amount */\n      0x02\n      add\n      sload\n        /* \"src/FinLock.sol\":5126:5151  tokenInfo.amount + amount */\n      tag_519\n      swap2\n      swap1\n      tag_199\n      jump\t// in\n    tag_519:\n        /* \"src/FinLock.sol\":5107:5123  tokenInfo.amount */\n      0x02\n      dup3\n      add\n        /* \"src/FinLock.sol\":5107:5151  tokenInfo.amount = tokenInfo.amount + amount */\n      sstore\n      sub(shl(0xa0, 0x01), 0x01)\n        /* \"src/FinLock.sol\":5162:5184  _tokenToLockIds[token] */\n      dup6\n      and\n      0x00\n      swap1\n      dup2\n      mstore\n        /* \"src/FinLock.sol\":5162:5177  _tokenToLockIds */\n      0x0a\n        /* \"src/FinLock.sol\":5162:5184  _tokenToLockIds[token] */\n      0x20\n      mstore\n      0x40\n      swap1\n      keccak256\n        /* \"src/FinLock.sol\":5162:5192  _tokenToLockIds[token].add(id) */\n      tag_520\n      swap1\n        /* \"src/FinLock.sol\":5189:5191  id */\n      dup4\n        /* \"src/FinLock.sol\":5162:5188  _tokenToLockIds[token].add */\n      tag_508\n        /* \"src/FinLock.sol\":5162:5192  _tokenToLockIds[token].add(id) */\n      jump\t// in\n    tag_520:\n      pop\n        /* \"src/FinLock.sol\":4746:5199  {... */\n      pop\n        /* \"src/FinLock.sol\":4587:5199  function _lockNormalToken(... */\n      swap5\n      swap4\n      pop\n      pop\n      pop\n      pop\n      jump\t// out\n        /* \"src/FinLock.sol\":9911:10429  function _safeTransferFromEnsureExactAmount(... */\n    tag_314:\n        /* \"src/FinLock.sol\":10108:10142  IERC20(token).balanceOf(recipient) */\n      mload(0x40)\n      shl(0xe0, 0x70a08231)\n      dup2\n      mstore\n      sub(shl(0xa0, 0x01), 0x01)\n        /* \"#utility.yul\":5397:5429   */\n      dup4\n      dup2\n      and\n        /* \"src/FinLock.sol\":10108:10142  IERC20(token).balanceOf(recipient) */\n      0x04\n      dup4\n      add\n        /* \"#utility.yul\":5379:5430   */\n      mstore\n        /* \"src/FinLock.sol\":10078:10105  uint256 oldRecipientBalance */\n      0x00\n      swap2\n        /* \"src/FinLock.sol\":10108:10131  IERC20(token).balanceOf */\n      swap1\n      dup7\n      and\n      swap1\n      0x70a08231\n      swap1\n        /* \"#utility.yul\":5352:5370   */\n      0x24\n      add\n        /* \"src/FinLock.sol\":10108:10142  IERC20(token).balanceOf(recipient) */\n      0x20\n      mload(0x40)\n      dup1\n      dup4\n      sub\n      dup2\n      dup7\n      gas\n      staticcall\n      iszero\n      dup1\n      iszero\n      tag_524\n      jumpi\n      returndatasize\n      0x00\n      dup1\n      returndatacopy\n      revert(0x00, returndatasize)\n    tag_524:\n      pop\n      pop\n      pop\n      pop\n      mload(0x40)\n      returndatasize\n      not(0x1f)\n      0x1f\n      dup3\n      add\n      and\n      dup3\n      add\n      dup1\n      0x40\n      mstore\n      pop\n      dup2\n      add\n      swap1\n      tag_525\n      swap2\n      swap1\n      tag_526\n      jump\t// in\n    tag_525:\n        /* \"src/FinLock.sol\":10078:10142  uint256 oldRecipientBalance = IERC20(token).balanceOf(recipient) */\n      swap1\n      pop\n        /* \"src/FinLock.sol\":10152:10209  IERC20(token).safeTransferFrom(sender, recipient, amount) */\n      tag_527\n      sub(shl(0xa0, 0x01), 0x01)\n        /* \"src/FinLock.sol\":10152:10182  IERC20(token).safeTransferFrom */\n      dup7\n      and\n        /* \"src/FinLock.sol\":10183:10189  sender */\n      dup6\n        /* \"src/FinLock.sol\":10191:10200  recipient */\n      dup6\n        /* \"src/FinLock.sol\":10202:10208  amount */\n      dup6\n        /* \"src/FinLock.sol\":10152:10182  IERC20(token).safeTransferFrom */\n      tag_528\n        /* \"src/FinLock.sol\":10152:10209  IERC20(token).safeTransferFrom(sender, recipient, amount) */\n      jump\t// in\n    tag_527:\n        /* \"src/FinLock.sol\":10249:10283  IERC20(token).balanceOf(recipient) */\n      mload(0x40)\n      shl(0xe0, 0x70a08231)\n      dup2\n      mstore\n      sub(shl(0xa0, 0x01), 0x01)\n        /* \"#utility.yul\":5397:5429   */\n      dup5\n      dup2\n      and\n        /* \"src/FinLock.sol\":10249:10283  IERC20(token).balanceOf(recipient) */\n      0x04\n      dup4\n      add\n        /* \"#utility.yul\":5379:5430   */\n      mstore\n        /* \"src/FinLock.sol\":10219:10246  uint256 newRecipientBalance */\n      0x00\n      swap2\n        /* \"src/FinLock.sol\":10249:10272  IERC20(token).balanceOf */\n      swap1\n      dup8\n      and\n      swap1\n      0x70a08231\n      swap1\n        /* \"#utility.yul\":5352:5370   */\n      0x24\n      add\n        /* \"src/FinLock.sol\":10249:10283  IERC20(token).balanceOf(recipient) */\n      0x20\n      mload(0x40)\n      dup1\n      dup4\n      sub\n      dup2\n      dup7\n      gas\n      staticcall\n      iszero\n      dup1\n      iszero\n      tag_531\n      jumpi\n      returndatasize\n      0x00\n      dup1\n      returndatacopy\n      revert(0x00, returndatasize)\n    tag_531:\n      pop\n      pop\n      pop\n      pop\n      mload(0x40)\n      returndatasize\n      not(0x1f)\n      0x1f\n      dup3\n      add\n      and\n      dup3\n      add\n      dup1\n      0x40\n      mstore\n      pop\n      dup2\n      add\n      swap1\n      tag_532\n      swap2\n      swap1\n      tag_526\n      jump\t// in\n    tag_532:\n        /* \"src/FinLock.sol\":10219:10283  uint256 newRecipientBalance = IERC20(token).balanceOf(recipient) */\n      swap1\n      pop\n        /* \"src/FinLock.sol\":10359:10365  amount */\n      dup3\n        /* \"src/FinLock.sol\":10314:10355  newRecipientBalance - oldRecipientBalance */\n      tag_533\n        /* \"src/FinLock.sol\":10336:10355  oldRecipientBalance */\n      dup4\n        /* \"src/FinLock.sol\":10219:10283  uint256 newRecipientBalance = IERC20(token).balanceOf(recipient) */\n      dup4\n        /* \"src/FinLock.sol\":10314:10355  newRecipientBalance - oldRecipientBalance */\n      tag_205\n      jump\t// in\n    tag_533:\n        /* \"src/FinLock.sol\":10314:10365  newRecipientBalance - oldRecipientBalance == amount */\n      eq\n        /* \"src/FinLock.sol\":10293:10422  require(... */\n      tag_534\n      jumpi\n      mload(0x40)\n      shl(0xe5, 0x461bcd)\n      dup2\n      mstore\n        /* \"#utility.yul\":13879:13881   */\n      0x20\n        /* \"src/FinLock.sol\":10293:10422  require(... */\n      0x04\n      dup3\n      add\n        /* \"#utility.yul\":13861:13882   */\n      mstore\n        /* \"#utility.yul\":13918:13920   */\n      0x1f\n        /* \"#utility.yul\":13898:13916   */\n      0x24\n      dup3\n      add\n        /* \"#utility.yul\":13891:13921   */\n      mstore\n        /* \"#utility.yul\":13957:13990   */\n      0x4e6f7420656e6f75676820746f6b656e20776173207472616e73666572656400\n        /* \"#utility.yul\":13937:13955   */\n      0x44\n      dup3\n      add\n        /* \"#utility.yul\":13930:13991   */\n      mstore\n        /* \"#utility.yul\":14008:14026   */\n      0x64\n      add\n        /* \"src/FinLock.sol\":10293:10422  require(... */\n      tag_238\n        /* \"#utility.yul\":13677:14032   */\n      jump\n        /* \"src/FinLock.sol\":10293:10422  require(... */\n    tag_534:\n        /* \"src/FinLock.sol\":10068:10429  {... */\n      pop\n      pop\n        /* \"src/FinLock.sol\":9911:10429  function _safeTransferFromEnsureExactAmount(... */\n      pop\n      pop\n      pop\n      pop\n      jump\t// out\n        /* \"@openzeppelin/contracts/access/Ownable.sol\":1359:1489  function _checkOwner() internal view virtual {... */\n    tag_318:\n        /* \"@openzeppelin/contracts/access/Ownable.sol\":1247:1254  address */\n      0x00\n        /* \"@openzeppelin/contracts/access/Ownable.sol\":1273:1279  _owner */\n      sload\n      sub(shl(0xa0, 0x01), 0x01)\n      and\n        /* \"@openzeppelin/contracts/utils/Context.sol\":719:729  msg.sender */\n      caller\n        /* \"@openzeppelin/contracts/access/Ownable.sol\":1422:1445  owner() == _msgSender() */\n      eq\n        /* \"@openzeppelin/contracts/access/Ownable.sol\":1414:1482  require(owner() == _msgSender(), \"Ownable: caller is not the owner\") */\n      tag_323\n      jumpi\n      mload(0x40)\n      shl(0xe5, 0x461bcd)\n      dup2\n      mstore\n        /* \"#utility.yul\":14239:14241   */\n      0x20\n        /* \"@openzeppelin/contracts/access/Ownable.sol\":1414:1482  require(owner() == _msgSender(), \"Ownable: caller is not the owner\") */\n      0x04\n      dup3\n      add\n        /* \"#utility.yul\":14221:14242   */\n      dup2\n      swap1\n      mstore\n        /* \"#utility.yul\":14258:14276   */\n      0x24\n      dup3\n      add\n        /* \"#utility.yul\":14251:14281   */\n      mstore\n        /* \"#utility.yul\":14317:14351   */\n      0x4f776e61626c653a2063616c6c6572206973206e6f7420746865206f776e6572\n        /* \"#utility.yul\":14297:14315   */\n      0x44\n      dup3\n      add\n        /* \"#utility.yul\":14290:14352   */\n      mstore\n        /* \"#utility.yul\":14369:14387   */\n      0x64\n      add\n        /* \"@openzeppelin/contracts/access/Ownable.sol\":1414:1482  require(owner() == _msgSender(), \"Ownable: caller is not the owner\") */\n      tag_238\n        /* \"#utility.yul\":14037:14393   */\n      jump\n        /* \"@openzeppelin/contracts/access/Ownable.sol\":2426:2613  function _transferOwnership(address newOwner) internal virtual {... */\n    tag_324:\n        /* \"@openzeppelin/contracts/access/Ownable.sol\":2499:2515  address oldOwner */\n      0x00\n        /* \"@openzeppelin/contracts/access/Ownable.sol\":2518:2524  _owner */\n      dup1\n      sload\n      sub(shl(0xa0, 0x01), 0x01)\n        /* \"@openzeppelin/contracts/access/Ownable.sol\":2534:2551  _owner = newOwner */\n      dup4\n      dup2\n      and\n      not(sub(shl(0xa0, 0x01), 0x01))\n      dup4\n      and\n      dup2\n      or\n      dup5\n      sstore\n        /* \"@openzeppelin/contracts/access/Ownable.sol\":2566:2606  OwnershipTransferred(oldOwner, newOwner) */\n      mload(0x40)\n        /* \"@openzeppelin/contracts/access/Ownable.sol\":2518:2524  _owner */\n      swap2\n      swap1\n      swap3\n      and\n      swap3\n      dup4\n      swap2\n        /* \"@openzeppelin/contracts/access/Ownable.sol\":2566:2606  OwnershipTransferred(oldOwner, newOwner) */\n      0x8be0079c531659141344cd1fd0a4f28419497f9722a3daafe3b4186f6b6457e0\n      swap2\n        /* \"@openzeppelin/contracts/access/Ownable.sol\":2499:2515  address oldOwner */\n      swap1\n        /* \"@openzeppelin/contracts/access/Ownable.sol\":2566:2606  OwnershipTransferred(oldOwner, newOwner) */\n      log3\n        /* \"@openzeppelin/contracts/access/Ownable.sol\":2489:2613  {... */\n      pop\n        /* \"@openzeppelin/contracts/access/Ownable.sol\":2426:2613  function _transferOwnership(address newOwner) internal virtual {... */\n      pop\n      jump\t// out\n        /* \"src/FinLock.sol\":8816:9787  function _transferLockOwnership(uint256 lockId, address newOwner)... */\n    tag_357:\n        /* \"src/FinLock.sol\":2244:2250  _locks */\n      0x02\n        /* \"src/FinLock.sol\":2244:2257  _locks.length */\n      sload\n        /* \"src/FinLock.sol\":8917:8923  lockId */\n      dup3\n      swap1\n        /* \"src/FinLock.sol\":2235:2257  lockId < _locks.length */\n      dup2\n      lt\n        /* \"src/FinLock.sol\":2227:2277  require(lockId < _locks.length, \"Invalid lock id\") */\n      tag_548\n      jumpi\n      mload(0x40)\n      shl(0xe5, 0x461bcd)\n      dup2\n      mstore\n      0x04\n      add\n      tag_238\n      swap1\n      tag_247\n      jump\t// in\n    tag_548:\n        /* \"src/FinLock.sol\":8939:8960  Lock storage userLock */\n      0x00\n        /* \"src/FinLock.sol\":8963:8969  _locks */\n      0x02\n        /* \"src/FinLock.sol\":8970:8976  lockId */\n      dup5\n        /* \"src/FinLock.sol\":8963:8977  _locks[lockId] */\n      dup2\n      sload\n      dup2\n      lt\n      tag_552\n      jumpi\n      tag_552\n      tag_193\n      jump\t// in\n    tag_552:\n      0x00\n      swap2\n      dup3\n      mstore\n      0x20\n      swap1\n      swap2\n      keccak256\n      0x06\n      swap1\n      swap2\n      mul\n      add\n        /* \"src/FinLock.sol\":9010:9024  userLock.owner */\n      0x02\n      dup2\n      add\n      sload\n        /* \"src/FinLock.sol\":8963:8977  _locks[lockId] */\n      swap1\n      swap2\n      pop\n      sub(shl(0xa0, 0x01), 0x01)\n        /* \"src/FinLock.sol\":9010:9024  userLock.owner */\n      and\n        /* \"src/FinLock.sol\":9071:9081  msg.sender */\n      caller\n        /* \"src/FinLock.sol\":9055:9081  currentOwner == msg.sender */\n      dup2\n      eq\n        /* \"src/FinLock.sol\":9034:9141  require(... */\n      tag_554\n      jumpi\n      mload(0x40)\n      shl(0xe5, 0x461bcd)\n      dup2\n      mstore\n      0x04\n      add\n      tag_238\n      swap1\n      tag_254\n      jump\t// in\n    tag_554:\n        /* \"src/FinLock.sol\":9173:9181  userLock */\n      dup2\n        /* \"src/FinLock.sol\":9173:9188  userLock.amount */\n      0x03\n      add\n      sload\n        /* \"src/FinLock.sol\":9192:9193  0 */\n      0x00\n        /* \"src/FinLock.sol\":9173:9193  userLock.amount != 0 */\n      sub\n        /* \"src/FinLock.sol\":9152:9240  require(... */\n      tag_556\n      jumpi\n      mload(0x40)\n      shl(0xe5, 0x461bcd)\n      dup2\n      mstore\n        /* \"#utility.yul\":14600:14602   */\n      0x20\n        /* \"src/FinLock.sol\":9152:9240  require(... */\n      0x04\n      dup3\n      add\n        /* \"#utility.yul\":14582:14603   */\n      mstore\n        /* \"#utility.yul\":14639:14641   */\n      0x15\n        /* \"#utility.yul\":14619:14637   */\n      0x24\n      dup3\n      add\n        /* \"#utility.yul\":14612:14642   */\n      mstore\n      shl(0x58, 0x546865206c6f636b20686173206e6f2076616c7565)\n        /* \"#utility.yul\":14658:14676   */\n      0x44\n      dup3\n      add\n        /* \"#utility.yul\":14651:14702   */\n      mstore\n        /* \"#utility.yul\":14719:14737   */\n      0x64\n      add\n        /* \"src/FinLock.sol\":9152:9240  require(... */\n      tag_238\n        /* \"#utility.yul\":14398:14743   */\n      jump\n        /* \"src/FinLock.sol\":9152:9240  require(... */\n    tag_556:\n        /* \"src/FinLock.sol\":9251:9265  userLock.owner */\n      0x02\n      dup3\n      add\n        /* \"src/FinLock.sol\":9251:9276  userLock.owner = newOwner */\n      dup1\n      sload\n      not(sub(shl(0xa0, 0x01), 0x01))\n      and\n      sub(shl(0xa0, 0x01), 0x01)\n      dup7\n      dup2\n      and\n      swap2\n      swap1\n      swap2\n      or\n      swap1\n      swap2\n      sstore\n      0x01\n        /* \"src/FinLock.sol\":9358:9372  userLock.token */\n      dup1\n      dup5\n      add\n      sload\n      dup3\n      and\n      0x00\n        /* \"src/FinLock.sol\":9326:9382  cumulativeLockInfo[... */\n      swap1\n      dup2\n      mstore\n        /* \"src/FinLock.sol\":9326:9344  cumulativeLockInfo */\n      0x09\n        /* \"src/FinLock.sol\":9326:9382  cumulativeLockInfo[... */\n      0x20\n      mstore\n      0x40\n      swap1\n      keccak256\n        /* \"src/FinLock.sol\":9410:9427  tokenInfo.factory */\n      swap1\n      dup2\n      add\n      sload\n        /* \"src/FinLock.sol\":9326:9382  cumulativeLockInfo[... */\n      swap1\n      swap2\n        /* \"src/FinLock.sol\":9410:9427  tokenInfo.factory */\n      and\n        /* \"src/FinLock.sol\":9410:9441  tokenInfo.factory != address(0) */\n      iszero\n      dup1\n      iszero\n      swap1\n        /* \"src/FinLock.sol\":9452:9717  if (isLpToken) {... */\n      tag_559\n      jumpi\n      sub(shl(0xa0, 0x01), 0x01)\n        /* \"src/FinLock.sol\":9481:9509  _userLpLockIds[currentOwner] */\n      dup4\n      and\n      0x00\n      swap1\n      dup2\n      mstore\n        /* \"src/FinLock.sol\":9481:9495  _userLpLockIds */\n      0x03\n        /* \"src/FinLock.sol\":9481:9509  _userLpLockIds[currentOwner] */\n      0x20\n      mstore\n      0x40\n      swap1\n      keccak256\n        /* \"src/FinLock.sol\":9481:9524  _userLpLockIds[currentOwner].remove(lockId) */\n      tag_560\n      swap1\n        /* \"src/FinLock.sol\":9517:9523  lockId */\n      dup9\n        /* \"src/FinLock.sol\":9481:9516  _userLpLockIds[currentOwner].remove */\n      tag_263\n        /* \"src/FinLock.sol\":9481:9524  _userLpLockIds[currentOwner].remove(lockId) */\n      jump\t// in\n    tag_560:\n      pop\n      sub(shl(0xa0, 0x01), 0x01)\n        /* \"src/FinLock.sol\":9538:9562  _userLpLockIds[newOwner] */\n      dup7\n      and\n      0x00\n      swap1\n      dup2\n      mstore\n        /* \"src/FinLock.sol\":9538:9552  _userLpLockIds */\n      0x03\n        /* \"src/FinLock.sol\":9538:9562  _userLpLockIds[newOwner] */\n      0x20\n      mstore\n      0x40\n      swap1\n      keccak256\n        /* \"src/FinLock.sol\":9538:9574  _userLpLockIds[newOwner].add(lockId) */\n      tag_561\n      swap1\n        /* \"src/FinLock.sol\":9567:9573  lockId */\n      dup9\n        /* \"src/FinLock.sol\":9538:9566  _userLpLockIds[newOwner].add */\n      tag_508\n        /* \"src/FinLock.sol\":9538:9574  _userLpLockIds[newOwner].add(lockId) */\n      jump\t// in\n    tag_561:\n      pop\n        /* \"src/FinLock.sol\":9452:9717  if (isLpToken) {... */\n      jump(tag_562)\n    tag_559:\n      sub(shl(0xa0, 0x01), 0x01)\n        /* \"src/FinLock.sol\":9605:9637  _userNormalLockIds[currentOwner] */\n      dup4\n      and\n      0x00\n      swap1\n      dup2\n      mstore\n        /* \"src/FinLock.sol\":9605:9623  _userNormalLockIds */\n      0x04\n        /* \"src/FinLock.sol\":9605:9637  _userNormalLockIds[currentOwner] */\n      0x20\n      mstore\n      0x40\n      swap1\n      keccak256\n        /* \"src/FinLock.sol\":9605:9652  _userNormalLockIds[currentOwner].remove(lockId) */\n      tag_563\n      swap1\n        /* \"src/FinLock.sol\":9645:9651  lockId */\n      dup9\n        /* \"src/FinLock.sol\":9605:9644  _userNormalLockIds[currentOwner].remove */\n      tag_263\n        /* \"src/FinLock.sol\":9605:9652  _userNormalLockIds[currentOwner].remove(lockId) */\n      jump\t// in\n    tag_563:\n      pop\n      sub(shl(0xa0, 0x01), 0x01)\n        /* \"src/FinLock.sol\":9666:9694  _userNormalLockIds[newOwner] */\n      dup7\n      and\n      0x00\n      swap1\n      dup2\n      mstore\n        /* \"src/FinLock.sol\":9666:9684  _userNormalLockIds */\n      0x04\n        /* \"src/FinLock.sol\":9666:9694  _userNormalLockIds[newOwner] */\n      0x20\n      mstore\n      0x40\n      swap1\n      keccak256\n        /* \"src/FinLock.sol\":9666:9706  _userNormalLockIds[newOwner].add(lockId) */\n      tag_564\n      swap1\n        /* \"src/FinLock.sol\":9699:9705  lockId */\n      dup9\n        /* \"src/FinLock.sol\":9666:9698  _userNormalLockIds[newOwner].add */\n      tag_508\n        /* \"src/FinLock.sol\":9666:9706  _userNormalLockIds[newOwner].add(lockId) */\n      jump\t// in\n    tag_564:\n      pop\n        /* \"src/FinLock.sol\":9452:9717  if (isLpToken) {... */\n    tag_562:\n        /* \"src/FinLock.sol\":9732:9780  LockOwnerChanged(lockId, currentOwner, newOwner) */\n      0x40\n      dup1\n      mload\n        /* \"#utility.yul\":14950:14975   */\n      dup9\n      dup2\n      mstore\n      sub(shl(0xa0, 0x01), 0x01)\n        /* \"#utility.yul\":15049:15064   */\n      dup6\n      dup2\n      and\n        /* \"#utility.yul\":15044:15046   */\n      0x20\n        /* \"#utility.yul\":15029:15047   */\n      dup4\n      add\n        /* \"#utility.yul\":15022:15065   */\n      mstore\n        /* \"#utility.yul\":15101:15116   */\n      dup9\n      and\n        /* \"#utility.yul\":15081:15099   */\n      dup2\n      dup4\n      add\n        /* \"#utility.yul\":15074:15117   */\n      mstore\n        /* \"src/FinLock.sol\":9732:9780  LockOwnerChanged(lockId, currentOwner, newOwner) */\n      swap1\n      mload\n      0x9075ad040756c0d8743a1fed927066a92c4755071615bf61e04b17583d961caf\n      swap2\n      dup2\n      swap1\n      sub\n        /* \"#utility.yul\":14938:14940   */\n      0x60\n        /* \"src/FinLock.sol\":9732:9780  LockOwnerChanged(lockId, currentOwner, newOwner) */\n      add\n      swap1\n      log1\n        /* \"src/FinLock.sol\":8929:9787  {... */\n      pop\n      pop\n      pop\n      pop\n        /* \"src/FinLock.sol\":8816:9787  function _transferLockOwnership(uint256 lockId, address newOwner)... */\n      pop\n      pop\n      pop\n      jump\t// out\n        /* \"@openzeppelin/contracts/utils/Address.sol\":2647:2959  function sendValue(address payable recipient, uint256 amount) internal {... */\n    tag_454:\n        /* \"@openzeppelin/contracts/utils/Address.sol\":2761:2767  amount */\n      dup1\n        /* \"@openzeppelin/contracts/utils/Address.sol\":2736:2757  address(this).balance */\n      selfbalance\n        /* \"@openzeppelin/contracts/utils/Address.sol\":2736:2767  address(this).balance >= amount */\n      lt\n      iszero\n        /* \"@openzeppelin/contracts/utils/Address.sol\":2728:2801  require(address(this).balance >= amount, \"Address: insufficient balance\") */\n      tag_568\n      jumpi\n      mload(0x40)\n      shl(0xe5, 0x461bcd)\n      dup2\n      mstore\n        /* \"#utility.yul\":15330:15332   */\n      0x20\n        /* \"@openzeppelin/contracts/utils/Address.sol\":2728:2801  require(address(this).balance >= amount, \"Address: insufficient balance\") */\n      0x04\n      dup3\n      add\n        /* \"#utility.yul\":15312:15333   */\n      mstore\n        /* \"#utility.yul\":15369:15371   */\n      0x1d\n        /* \"#utility.yul\":15349:15367   */\n      0x24\n      dup3\n      add\n        /* \"#utility.yul\":15342:15372   */\n      mstore\n        /* \"#utility.yul\":15408:15439   */\n      0x416464726573733a20696e73756666696369656e742062616c616e6365000000\n        /* \"#utility.yul\":15388:15406   */\n      0x44\n      dup3\n      add\n        /* \"#utility.yul\":15381:15440   */\n      mstore\n        /* \"#utility.yul\":15457:15475   */\n      0x64\n      add\n        /* \"@openzeppelin/contracts/utils/Address.sol\":2728:2801  require(address(this).balance >= amount, \"Address: insufficient balance\") */\n      tag_238\n        /* \"#utility.yul\":15128:15481   */\n      jump\n        /* \"@openzeppelin/contracts/utils/Address.sol\":2728:2801  require(address(this).balance >= amount, \"Address: insufficient balance\") */\n    tag_568:\n        /* \"@openzeppelin/contracts/utils/Address.sol\":2813:2825  bool success */\n      0x00\n        /* \"@openzeppelin/contracts/utils/Address.sol\":2831:2840  recipient */\n      dup3\n      sub(shl(0xa0, 0x01), 0x01)\n        /* \"@openzeppelin/contracts/utils/Address.sol\":2831:2845  recipient.call */\n      and\n        /* \"@openzeppelin/contracts/utils/Address.sol\":2853:2859  amount */\n      dup3\n        /* \"@openzeppelin/contracts/utils/Address.sol\":2831:2864  recipient.call{value: amount}(\"\") */\n      mload(0x40)\n      0x00\n      mload(0x40)\n      dup1\n      dup4\n      sub\n      dup2\n      dup6\n      dup8\n      gas\n      call\n      swap3\n      pop\n      pop\n      pop\n      returndatasize\n      dup1\n      0x00\n      dup2\n      eq\n      tag_575\n      jumpi\n      mload(0x40)\n      swap2\n      pop\n      and(add(returndatasize, 0x3f), not(0x1f))\n      dup3\n      add\n      0x40\n      mstore\n      returndatasize\n      dup3\n      mstore\n      returndatasize\n      0x00\n      0x20\n      dup5\n      add\n      returndatacopy\n      jump(tag_574)\n    tag_575:\n      0x60\n      swap2\n      pop\n    tag_574:\n      pop\n        /* \"@openzeppelin/contracts/utils/Address.sol\":2812:2864  (bool success, ) = recipient.call{value: amount}(\"\") */\n      pop\n      swap1\n      pop\n        /* \"@openzeppelin/contracts/utils/Address.sol\":2882:2889  success */\n      dup1\n        /* \"@openzeppelin/contracts/utils/Address.sol\":2874:2952  require(success, \"Address: unable to send value, recipient may have reverted\") */\n      tag_488\n      jumpi\n      mload(0x40)\n      shl(0xe5, 0x461bcd)\n      dup2\n      mstore\n        /* \"#utility.yul\":15898:15900   */\n      0x20\n        /* \"@openzeppelin/contracts/utils/Address.sol\":2874:2952  require(success, \"Address: unable to send value, recipient may have reverted\") */\n      0x04\n      dup3\n      add\n        /* \"#utility.yul\":15880:15901   */\n      mstore\n        /* \"#utility.yul\":15937:15939   */\n      0x3a\n        /* \"#utility.yul\":15917:15935   */\n      0x24\n      dup3\n      add\n        /* \"#utility.yul\":15910:15940   */\n      mstore\n        /* \"#utility.yul\":15976:16010   */\n      0x416464726573733a20756e61626c6520746f2073656e642076616c75652c2072\n        /* \"#utility.yul\":15956:15974   */\n      0x44\n      dup3\n      add\n        /* \"#utility.yul\":15949:16011   */\n      mstore\n        /* \"#utility.yul\":16047:16075   */\n      0x6563697069656e74206d61792068617665207265766572746564000000000000\n        /* \"#utility.yul\":16027:16045   */\n      0x64\n      dup3\n      add\n        /* \"#utility.yul\":16020:16076   */\n      mstore\n        /* \"#utility.yul\":16093:16112   */\n      0x84\n      add\n        /* \"@openzeppelin/contracts/utils/Address.sol\":2874:2952  require(success, \"Address: unable to send value, recipient may have reverted\") */\n      tag_238\n        /* \"#utility.yul\":15696:16118   */\n      jump\n        /* \"@openzeppelin/contracts/utils/structs/EnumerableSet.sol\":4912:5030  function _at(Set storage set, uint256 index) private view returns (bytes32) {... */\n    tag_479:\n        /* \"@openzeppelin/contracts/utils/structs/EnumerableSet.sol\":4979:4986  bytes32 */\n      0x00\n        /* \"@openzeppelin/contracts/utils/structs/EnumerableSet.sol\":5005:5008  set */\n      dup3\n        /* \"@openzeppelin/contracts/utils/structs/EnumerableSet.sol\":5005:5016  set._values */\n      0x00\n      add\n        /* \"@openzeppelin/contracts/utils/structs/EnumerableSet.sol\":5017:5022  index */\n      dup3\n        /* \"@openzeppelin/contracts/utils/structs/EnumerableSet.sol\":5005:5023  set._values[index] */\n      dup2\n      sload\n      dup2\n      lt\n      tag_582\n      jumpi\n      tag_582\n      tag_193\n      jump\t// in\n    tag_582:\n      swap1\n      0x00\n      mstore\n      keccak256(0x00, 0x20)\n      add\n      sload\n        /* \"@openzeppelin/contracts/utils/structs/EnumerableSet.sol\":4998:5023  return set._values[index] */\n      swap1\n      pop\n        /* \"@openzeppelin/contracts/utils/structs/EnumerableSet.sol\":4912:5030  function _at(Set storage set, uint256 index) private view returns (bytes32) {... */\n      swap3\n      swap2\n      pop\n      pop\n      jump\t// out\n        /* \"@openzeppelin/contracts/utils/structs/EnumerableSet.sol\":2786:4174  function _remove(Set storage set, bytes32 value) private returns (bool) {... */\n    tag_484:\n        /* \"@openzeppelin/contracts/utils/structs/EnumerableSet.sol\":2852:2856  bool */\n      0x00\n        /* \"@openzeppelin/contracts/utils/structs/EnumerableSet.sol\":2989:3008  set._indexes[value] */\n      dup2\n      dup2\n      mstore\n        /* \"@openzeppelin/contracts/utils/structs/EnumerableSet.sol\":2989:3001  set._indexes */\n      0x01\n      dup4\n      add\n        /* \"@openzeppelin/contracts/utils/structs/EnumerableSet.sol\":2989:3008  set._indexes[value] */\n      0x20\n      mstore\n      0x40\n      dup2\n      keccak256\n      sload\n        /* \"@openzeppelin/contracts/utils/structs/EnumerableSet.sol\":3023:3038  valueIndex != 0 */\n      dup1\n      iszero\n        /* \"@openzeppelin/contracts/utils/structs/EnumerableSet.sol\":3019:4168  if (valueIndex != 0) {... */\n      tag_585\n      jumpi\n        /* \"@openzeppelin/contracts/utils/structs/EnumerableSet.sol\":3392:3413  uint256 toDeleteIndex */\n      0x00\n        /* \"@openzeppelin/contracts/utils/structs/EnumerableSet.sol\":3416:3430  valueIndex - 1 */\n      tag_586\n        /* \"@openzeppelin/contracts/utils/structs/EnumerableSet.sol\":3429:3430  1 */\n      0x01\n        /* \"@openzeppelin/contracts/utils/structs/EnumerableSet.sol\":3416:3426  valueIndex */\n      dup4\n        /* \"@openzeppelin/contracts/utils/structs/EnumerableSet.sol\":3416:3430  valueIndex - 1 */\n      tag_205\n      jump\t// in\n    tag_586:\n        /* \"@openzeppelin/contracts/utils/structs/EnumerableSet.sol\":3464:3482  set._values.length */\n      dup6\n      sload\n        /* \"@openzeppelin/contracts/utils/structs/EnumerableSet.sol\":3392:3430  uint256 toDeleteIndex = valueIndex - 1 */\n      swap1\n      swap2\n      pop\n        /* \"@openzeppelin/contracts/utils/structs/EnumerableSet.sol\":3444:3461  uint256 lastIndex */\n      0x00\n      swap1\n        /* \"@openzeppelin/contracts/utils/structs/EnumerableSet.sol\":3464:3486  set._values.length - 1 */\n      tag_587\n      swap1\n        /* \"@openzeppelin/contracts/utils/structs/EnumerableSet.sol\":3485:3486  1 */\n      0x01\n      swap1\n        /* \"@openzeppelin/contracts/utils/structs/EnumerableSet.sol\":3464:3486  set._values.length - 1 */\n      tag_205\n      jump\t// in\n    tag_587:\n        /* \"@openzeppelin/contracts/utils/structs/EnumerableSet.sol\":3444:3486  uint256 lastIndex = set._values.length - 1 */\n      swap1\n      pop\n        /* \"@openzeppelin/contracts/utils/structs/EnumerableSet.sol\":3518:3531  toDeleteIndex */\n      dup2\n        /* \"@openzeppelin/contracts/utils/structs/EnumerableSet.sol\":3505:3514  lastIndex */\n      dup2\n        /* \"@openzeppelin/contracts/utils/structs/EnumerableSet.sol\":3505:3531  lastIndex != toDeleteIndex */\n      eq\n        /* \"@openzeppelin/contracts/utils/structs/EnumerableSet.sol\":3501:3899  if (lastIndex != toDeleteIndex) {... */\n      tag_588\n      jumpi\n        /* \"@openzeppelin/contracts/utils/structs/EnumerableSet.sol\":3551:3568  bytes32 lastValue */\n      0x00\n        /* \"@openzeppelin/contracts/utils/structs/EnumerableSet.sol\":3571:3574  set */\n      dup7\n        /* \"@openzeppelin/contracts/utils/structs/EnumerableSet.sol\":3571:3582  set._values */\n      0x00\n      add\n        /* \"@openzeppelin/contracts/utils/structs/EnumerableSet.sol\":3583:3592  lastIndex */\n      dup3\n        /* \"@openzeppelin/contracts/utils/structs/EnumerableSet.sol\":3571:3593  set._values[lastIndex] */\n      dup2\n      sload\n      dup2\n      lt\n      tag_590\n      jumpi\n      tag_590\n      tag_193\n      jump\t// in\n    tag_590:\n      swap1\n      0x00\n      mstore\n      keccak256(0x00, 0x20)\n      add\n      sload\n        /* \"@openzeppelin/contracts/utils/structs/EnumerableSet.sol\":3551:3593  bytes32 lastValue = set._values[lastIndex] */\n      swap1\n      pop\n        /* \"@openzeppelin/contracts/utils/structs/EnumerableSet.sol\":3722:3731  lastValue */\n      dup1\n        /* \"@openzeppelin/contracts/utils/structs/EnumerableSet.sol\":3693:3696  set */\n      dup8\n        /* \"@openzeppelin/contracts/utils/structs/EnumerableSet.sol\":3693:3704  set._values */\n      0x00\n      add\n        /* \"@openzeppelin/contracts/utils/structs/EnumerableSet.sol\":3705:3718  toDeleteIndex */\n      dup5\n        /* \"@openzeppelin/contracts/utils/structs/EnumerableSet.sol\":3693:3719  set._values[toDeleteIndex] */\n      dup2\n      sload\n      dup2\n      lt\n      tag_593\n      jumpi\n      tag_593\n      tag_193\n      jump\t// in\n    tag_593:\n      0x00\n      swap2\n      dup3\n      mstore\n      0x20\n      dup1\n      dup4\n      keccak256\n      swap1\n      swap2\n      add\n        /* \"@openzeppelin/contracts/utils/structs/EnumerableSet.sol\":3693:3731  set._values[toDeleteIndex] = lastValue */\n      swap3\n      swap1\n      swap3\n      sstore\n        /* \"@openzeppelin/contracts/utils/structs/EnumerableSet.sol\":3805:3828  set._indexes[lastValue] */\n      swap2\n      dup3\n      mstore\n        /* \"@openzeppelin/contracts/utils/structs/EnumerableSet.sol\":3805:3817  set._indexes */\n      0x01\n      dup9\n      add\n        /* \"@openzeppelin/contracts/utils/structs/EnumerableSet.sol\":3805:3828  set._indexes[lastValue] */\n      swap1\n      mstore\n      0x40\n      swap1\n      keccak256\n        /* \"@openzeppelin/contracts/utils/structs/EnumerableSet.sol\":3805:3841  set._indexes[lastValue] = valueIndex */\n      dup4\n      swap1\n      sstore\n        /* \"@openzeppelin/contracts/utils/structs/EnumerableSet.sol\":3501:3899  if (lastIndex != toDeleteIndex) {... */\n    tag_588:\n        /* \"@openzeppelin/contracts/utils/structs/EnumerableSet.sol\":3977:3994  set._values.pop() */\n      dup6\n      sload\n        /* \"@openzeppelin/contracts/utils/structs/EnumerableSet.sol\":3977:3980  set */\n      dup7\n      swap1\n        /* \"@openzeppelin/contracts/utils/structs/EnumerableSet.sol\":3977:3994  set._values.pop() */\n      dup1\n      tag_596\n      jumpi\n      tag_596\n      tag_597\n      jump\t// in\n    tag_596:\n      0x01\n      swap1\n      sub\n      dup2\n      dup2\n      swap1\n      0x00\n      mstore\n      keccak256(0x00, 0x20)\n      add\n      0x00\n      swap1\n      sstore\n      swap1\n      sstore\n        /* \"@openzeppelin/contracts/utils/structs/EnumerableSet.sol\":4069:4072  set */\n      dup6\n        /* \"@openzeppelin/contracts/utils/structs/EnumerableSet.sol\":4069:4081  set._indexes */\n      0x01\n      add\n        /* \"@openzeppelin/contracts/utils/structs/EnumerableSet.sol\":4069:4088  set._indexes[value] */\n      0x00\n        /* \"@openzeppelin/contracts/utils/structs/EnumerableSet.sol\":4082:4087  value */\n      dup7\n        /* \"@openzeppelin/contracts/utils/structs/EnumerableSet.sol\":4069:4088  set._indexes[value] */\n      dup2\n      mstore\n      0x20\n      add\n      swap1\n      dup2\n      mstore\n      0x20\n      add\n      0x00\n      keccak256\n        /* \"@openzeppelin/contracts/utils/structs/EnumerableSet.sol\":4062:4088  delete set._indexes[value] */\n      0x00\n      swap1\n      sstore\n        /* \"@openzeppelin/contracts/utils/structs/EnumerableSet.sol\":4110:4114  true */\n      0x01\n        /* \"@openzeppelin/contracts/utils/structs/EnumerableSet.sol\":4103:4114  return true */\n      swap4\n      pop\n      pop\n      pop\n      pop\n      jump(tag_186)\n        /* \"@openzeppelin/contracts/utils/structs/EnumerableSet.sol\":3019:4168  if (valueIndex != 0) {... */\n    tag_585:\n        /* \"@openzeppelin/contracts/utils/structs/EnumerableSet.sol\":4152:4157  false */\n      0x00\n        /* \"@openzeppelin/contracts/utils/structs/EnumerableSet.sol\":4145:4157  return false */\n      swap2\n      pop\n      pop\n      jump(tag_186)\n        /* \"@openzeppelin/contracts/token/ERC20/utils/SafeERC20.sol\":5173:5815  function _callOptionalReturn(IERC20 token, bytes memory data) private {... */\n    tag_491:\n        /* \"@openzeppelin/contracts/token/ERC20/utils/SafeERC20.sol\":5592:5615  bytes memory returndata */\n      0x00\n        /* \"@openzeppelin/contracts/token/ERC20/utils/SafeERC20.sol\":5618:5687  address(token).functionCall(data, \"SafeERC20: low-level call failed\") */\n      tag_601\n        /* \"@openzeppelin/contracts/token/ERC20/utils/SafeERC20.sol\":5646:5650  data */\n      dup3\n        /* \"@openzeppelin/contracts/token/ERC20/utils/SafeERC20.sol\":5618:5687  address(token).functionCall(data, \"SafeERC20: low-level call failed\") */\n      mload(0x40)\n      dup1\n      0x40\n      add\n      0x40\n      mstore\n      dup1\n      0x20\n      dup2\n      mstore\n      0x20\n      add\n      0x5361666545524332303a206c6f772d6c6576656c2063616c6c206661696c6564\n      dup2\n      mstore\n      pop\n        /* \"@openzeppelin/contracts/token/ERC20/utils/SafeERC20.sol\":5626:5631  token */\n      dup6\n      sub(shl(0xa0, 0x01), 0x01)\n        /* \"@openzeppelin/contracts/token/ERC20/utils/SafeERC20.sol\":5618:5645  address(token).functionCall */\n      and\n      tag_602\n      swap1\n        /* \"@openzeppelin/contracts/token/ERC20/utils/SafeERC20.sol\":5618:5687  address(token).functionCall(data, \"SafeERC20: low-level call failed\") */\n      swap3\n      swap2\n      swap1\n      0xffffffff\n      and\n      jump\t// in\n    tag_601:\n        /* \"@openzeppelin/contracts/token/ERC20/utils/SafeERC20.sol\":5592:5687  bytes memory returndata = address(token).functionCall(data, \"SafeERC20: low-level call failed\") */\n      swap1\n      pop\n        /* \"@openzeppelin/contracts/token/ERC20/utils/SafeERC20.sol\":5705:5715  returndata */\n      dup1\n        /* \"@openzeppelin/contracts/token/ERC20/utils/SafeERC20.sol\":5705:5722  returndata.length */\n      mload\n        /* \"@openzeppelin/contracts/token/ERC20/utils/SafeERC20.sol\":5726:5727  0 */\n      0x00\n        /* \"@openzeppelin/contracts/token/ERC20/utils/SafeERC20.sol\":5705:5727  returndata.length == 0 */\n      eq\n        /* \"@openzeppelin/contracts/token/ERC20/utils/SafeERC20.sol\":5705:5761  returndata.length == 0 || abi.decode(returndata, (bool)) */\n      dup1\n      tag_604\n      jumpi\n      pop\n        /* \"@openzeppelin/contracts/token/ERC20/utils/SafeERC20.sol\":5742:5752  returndata */\n      dup1\n        /* \"@openzeppelin/contracts/token/ERC20/utils/SafeERC20.sol\":5731:5761  abi.decode(returndata, (bool)) */\n      dup1\n      0x20\n      add\n      swap1\n      mload\n      dup2\n      add\n      swap1\n      tag_604\n      swap2\n      swap1\n      tag_605\n      jump\t// in\n    tag_604:\n        /* \"@openzeppelin/contracts/token/ERC20/utils/SafeERC20.sol\":5697:5808  require(returndata.length == 0 || abi.decode(returndata, (bool)), \"SafeERC20: ERC20 operation did not succeed\") */\n      tag_488\n      jumpi\n      mload(0x40)\n      shl(0xe5, 0x461bcd)\n      dup2\n      mstore\n        /* \"#utility.yul\":16707:16709   */\n      0x20\n        /* \"@openzeppelin/contracts/token/ERC20/utils/SafeERC20.sol\":5697:5808  require(returndata.length == 0 || abi.decode(returndata, (bool)), \"SafeERC20: ERC20 operation did not succeed\") */\n      0x04\n      dup3\n      add\n        /* \"#utility.yul\":16689:16710   */\n      mstore\n        /* \"#utility.yul\":16746:16748   */\n      0x2a\n        /* \"#utility.yul\":16726:16744   */\n      0x24\n      dup3\n      add\n        /* \"#utility.yul\":16719:16749   */\n      mstore\n        /* \"#utility.yul\":16785:16819   */\n      0x5361666545524332303a204552433230206f7065726174696f6e20646964206e\n        /* \"#utility.yul\":16765:16783   */\n      0x44\n      dup3\n      add\n        /* \"#utility.yul\":16758:16820   */\n      mstore\n      shl(0xb2, 0x1bdd081cdd58d8d95959)\n        /* \"#utility.yul\":16836:16854   */\n      0x64\n      dup3\n      add\n        /* \"#utility.yul\":16829:16869   */\n      mstore\n        /* \"#utility.yul\":16886:16905   */\n      0x84\n      add\n        /* \"@openzeppelin/contracts/token/ERC20/utils/SafeERC20.sol\":5697:5808  require(returndata.length == 0 || abi.decode(returndata, (bool)), \"SafeERC20: ERC20 operation did not succeed\") */\n      tag_238\n        /* \"#utility.yul\":16505:16911   */\n      jump\n        /* \"src/FinLock.sol\":5205:5644  function _addLock(... */\n    tag_506:\n        /* \"src/FinLock.sol\":5371:5377  _locks */\n      0x02\n        /* \"src/FinLock.sol\":5371:5384  _locks.length */\n      dup1\n      sload\n        /* \"src/FinLock.sol\":5416:5607  Lock({... */\n      0x40\n      dup1\n      mload\n      0xc0\n      dup2\n      add\n      dup3\n      mstore\n      dup3\n      dup2\n      mstore\n      sub(shl(0xa0, 0x01), 0x01)\n      swap7\n      dup8\n      and\n      0x20\n      dup3\n      add\n      swap1\n      dup2\n      mstore\n      swap8\n      dup8\n      and\n      swap2\n      dup2\n      add\n      swap2\n      dup3\n      mstore\n      0x60\n      dup2\n      add\n      swap6\n      dup7\n      mstore\n        /* \"src/FinLock.sol\":5545:5560  block.timestamp */\n      timestamp\n        /* \"src/FinLock.sol\":5416:5607  Lock({... */\n      0x80\n      dup3\n      add\n      swap1\n      dup2\n      mstore\n      0xa0\n      dup3\n      add\n      swap6\n      dup7\n      mstore\n        /* \"src/FinLock.sol\":5617:5637  _locks.push(newLock) */\n      0x01\n      dup5\n      add\n      dup6\n      sstore\n        /* \"src/FinLock.sol\":5344:5354  uint256 id */\n      0x00\n        /* \"src/FinLock.sol\":5617:5637  _locks.push(newLock) */\n      swap5\n      swap1\n      swap5\n      mstore\n      mload\n      0x06\n      dup4\n      mul\n      0x405787fa12a823e0f2b7631cc41b3ba8828b3321ca811111fa75cd3aa3bb5ace\n      dup2\n      add\n      swap2\n      swap1\n      swap2\n      sstore\n      swap7\n      mload\n      0x405787fa12a823e0f2b7631cc41b3ba8828b3321ca811111fa75cd3aa3bb5acf\n      dup9\n      add\n      dup1\n      sload\n      swap2\n      dup9\n      and\n      not(sub(shl(0xa0, 0x01), 0x01))\n      swap3\n      dup4\n      and\n      or\n      swap1\n      sstore\n      swap1\n      mload\n      0x405787fa12a823e0f2b7631cc41b3ba8828b3321ca811111fa75cd3aa3bb5ad0\n      dup9\n      add\n      dup1\n      sload\n      swap2\n      swap1\n      swap8\n      and\n      swap2\n      and\n      or\n      swap1\n      swap5\n      sstore\n      swap2\n      mload\n      0x405787fa12a823e0f2b7631cc41b3ba8828b3321ca811111fa75cd3aa3bb5ad1\n      dup6\n      add\n      sstore\n      swap1\n      mload\n      0x405787fa12a823e0f2b7631cc41b3ba8828b3321ca811111fa75cd3aa3bb5ad2\n      dup5\n      add\n      sstore\n      mload\n      0x405787fa12a823e0f2b7631cc41b3ba8828b3321ca811111fa75cd3aa3bb5ad3\n      swap1\n      swap3\n      add\n      swap2\n      swap1\n      swap2\n      sstore\n        /* \"src/FinLock.sol\":5371:5384  _locks.length */\n      swap1\n        /* \"src/FinLock.sol\":5205:5644  function _addLock(... */\n      jump\t// out\n        /* \"@openzeppelin/contracts/utils/structs/EnumerableSet.sol\":10793:10922  function add(UintSet storage set, uint256 value) internal returns (bool) {... */\n    tag_508:\n        /* \"@openzeppelin/contracts/utils/structs/EnumerableSet.sol\":10860:10864  bool */\n      0x00\n        /* \"@openzeppelin/contracts/utils/structs/EnumerableSet.sol\":10883:10915  _add(set._inner, bytes32(value)) */\n      tag_478\n        /* \"@openzeppelin/contracts/utils/structs/EnumerableSet.sol\":10888:10891  set */\n      dup4\n        /* \"@openzeppelin/contracts/utils/structs/EnumerableSet.sol\":10908:10913  value */\n      dup4\n        /* \"@openzeppelin/contracts/utils/structs/EnumerableSet.sol\":10883:10887  _add */\n      tag_613\n        /* \"@openzeppelin/contracts/utils/structs/EnumerableSet.sol\":10883:10915  _add(set._inner, bytes32(value)) */\n      jump\t// in\n        /* \"@openzeppelin/contracts/utils/structs/EnumerableSet.sol\":8305:8455  function add(AddressSet storage set, address value) internal returns (bool) {... */\n    tag_510:\n        /* \"@openzeppelin/contracts/utils/structs/EnumerableSet.sol\":8375:8379  bool */\n      0x00\n        /* \"@openzeppelin/contracts/utils/structs/EnumerableSet.sol\":8398:8448  _add(set._inner, bytes32(uint256(uint160(value)))) */\n      tag_478\n        /* \"@openzeppelin/contracts/utils/structs/EnumerableSet.sol\":8403:8406  set */\n      dup4\n      sub(shl(0xa0, 0x01), 0x01)\n        /* \"@openzeppelin/contracts/utils/structs/EnumerableSet.sol\":8423:8446  uint256(uint160(value)) */\n      dup5\n      and\n        /* \"@openzeppelin/contracts/utils/structs/EnumerableSet.sol\":8398:8402  _add */\n      tag_613\n        /* \"@openzeppelin/contracts/utils/structs/EnumerableSet.sol\":8398:8448  _add(set._inner, bytes32(uint256(uint160(value)))) */\n      jump\t// in\n        /* \"@openzeppelin/contracts/token/ERC20/utils/SafeERC20.sol\":1355:1558  function safeTransferFrom(IERC20 token, address from, address to, uint256 value) internal {... */\n    tag_528:\n        /* \"@openzeppelin/contracts/token/ERC20/utils/SafeERC20.sol\":1482:1550  abi.encodeWithSelector(token.transferFrom.selector, from, to, value) */\n      mload(0x40)\n      sub(shl(0xa0, 0x01), 0x01)\n        /* \"#utility.yul\":6020:6035   */\n      dup1\n      dup6\n      and\n        /* \"@openzeppelin/contracts/token/ERC20/utils/SafeERC20.sol\":1482:1550  abi.encodeWithSelector(token.transferFrom.selector, from, to, value) */\n      0x24\n      dup4\n      add\n        /* \"#utility.yul\":6002:6036   */\n      mstore\n        /* \"#utility.yul\":6072:6087   */\n      dup4\n      and\n        /* \"#utility.yul\":6052:6070   */\n      0x44\n      dup3\n      add\n        /* \"#utility.yul\":6045:6088   */\n      mstore\n        /* \"#utility.yul\":6104:6122   */\n      0x64\n      dup2\n      add\n        /* \"#utility.yul\":6097:6131   */\n      dup3\n      swap1\n      mstore\n        /* \"@openzeppelin/contracts/token/ERC20/utils/SafeERC20.sol\":1455:1551  _callOptionalReturn(token, abi.encodeWithSelector(token.transferFrom.selector, from, to, value)) */\n      tag_617\n      swap1\n        /* \"@openzeppelin/contracts/token/ERC20/utils/SafeERC20.sol\":1475:1480  token */\n      dup6\n      swap1\n      shl(0xe0, 0x23b872dd)\n        /* \"@openzeppelin/contracts/token/ERC20/utils/SafeERC20.sol\":1505:1532  token.transferFrom.selector */\n      swap1\n        /* \"#utility.yul\":5937:5955   */\n      0x84\n      add\n        /* \"@openzeppelin/contracts/token/ERC20/utils/SafeERC20.sol\":1482:1550  abi.encodeWithSelector(token.transferFrom.selector, from, to, value) */\n      tag_489\n        /* \"#utility.yul\":5762:6137   */\n      jump\n        /* \"@openzeppelin/contracts/token/ERC20/utils/SafeERC20.sol\":1455:1551  _callOptionalReturn(token, abi.encodeWithSelector(token.transferFrom.selector, from, to, value)) */\n    tag_617:\n        /* \"@openzeppelin/contracts/token/ERC20/utils/SafeERC20.sol\":1355:1558  function safeTransferFrom(IERC20 token, address from, address to, uint256 value) internal {... */\n      pop\n      pop\n      pop\n      pop\n      jump\t// out\n        /* \"@openzeppelin/contracts/utils/Address.sol\":4108:4331  function functionCall(... */\n    tag_602:\n        /* \"@openzeppelin/contracts/utils/Address.sol\":4241:4253  bytes memory */\n      0x60\n        /* \"@openzeppelin/contracts/utils/Address.sol\":4272:4324  functionCallWithValue(target, data, 0, errorMessage) */\n      tag_621\n        /* \"@openzeppelin/contracts/utils/Address.sol\":4294:4300  target */\n      dup5\n        /* \"@openzeppelin/contracts/utils/Address.sol\":4302:4306  data */\n      dup5\n        /* \"@openzeppelin/contracts/utils/Address.sol\":4308:4309  0 */\n      0x00\n        /* \"@openzeppelin/contracts/utils/Address.sol\":4311:4323  errorMessage */\n      dup6\n        /* \"@openzeppelin/contracts/utils/Address.sol\":4272:4293  functionCallWithValue */\n      tag_622\n        /* \"@openzeppelin/contracts/utils/Address.sol\":4272:4324  functionCallWithValue(target, data, 0, errorMessage) */\n      jump\t// in\n    tag_621:\n        /* \"@openzeppelin/contracts/utils/Address.sol\":4265:4324  return functionCallWithValue(target, data, 0, errorMessage) */\n      swap5\n        /* \"@openzeppelin/contracts/utils/Address.sol\":4108:4331  function functionCall(... */\n      swap4\n      pop\n      pop\n      pop\n      pop\n      jump\t// out\n        /* \"@openzeppelin/contracts/utils/structs/EnumerableSet.sol\":2214:2618  function _add(Set storage set, bytes32 value) private returns (bool) {... */\n    tag_613:\n        /* \"@openzeppelin/contracts/utils/structs/EnumerableSet.sol\":2277:2281  bool */\n      0x00\n        /* \"@openzeppelin/contracts/utils/structs/EnumerableSet.sol\":4351:4370  set._indexes[value] */\n      dup2\n      dup2\n      mstore\n        /* \"@openzeppelin/contracts/utils/structs/EnumerableSet.sol\":4351:4363  set._indexes */\n      0x01\n      dup4\n      add\n        /* \"@openzeppelin/contracts/utils/structs/EnumerableSet.sol\":4351:4370  set._indexes[value] */\n      0x20\n      mstore\n      0x40\n      dup2\n      keccak256\n      sload\n        /* \"@openzeppelin/contracts/utils/structs/EnumerableSet.sol\":2293:2612  if (!_contains(set, value)) {... */\n      tag_626\n      jumpi\n      pop\n        /* \"@openzeppelin/contracts/utils/structs/EnumerableSet.sol\":2335:2358  set._values.push(value) */\n      dup2\n      sload\n      0x01\n      dup2\n      dup2\n      add\n      dup5\n      sstore\n        /* \"@openzeppelin/contracts/utils/structs/EnumerableSet.sol\":2335:2346  set._values */\n      0x00\n        /* \"@openzeppelin/contracts/utils/structs/EnumerableSet.sol\":2335:2358  set._values.push(value) */\n      dup5\n      dup2\n      mstore\n      0x20\n      dup1\n      dup3\n      keccak256\n      swap1\n      swap4\n      add\n      dup5\n      swap1\n      sstore\n        /* \"@openzeppelin/contracts/utils/structs/EnumerableSet.sol\":2515:2533  set._values.length */\n      dup5\n      sload\n        /* \"@openzeppelin/contracts/utils/structs/EnumerableSet.sol\":2493:2512  set._indexes[value] */\n      dup5\n      dup3\n      mstore\n        /* \"@openzeppelin/contracts/utils/structs/EnumerableSet.sol\":2493:2505  set._indexes */\n      dup3\n      dup7\n      add\n        /* \"@openzeppelin/contracts/utils/structs/EnumerableSet.sol\":2493:2512  set._indexes[value] */\n      swap1\n      swap4\n      mstore\n      0x40\n      swap1\n      keccak256\n        /* \"@openzeppelin/contracts/utils/structs/EnumerableSet.sol\":2493:2533  set._indexes[value] = set._values.length */\n      swap2\n      swap1\n      swap2\n      sstore\n        /* \"@openzeppelin/contracts/utils/structs/EnumerableSet.sol\":2547:2558  return true */\n      jump(tag_186)\n        /* \"@openzeppelin/contracts/utils/structs/EnumerableSet.sol\":2293:2612  if (!_contains(set, value)) {... */\n    tag_626:\n      pop\n        /* \"@openzeppelin/contracts/utils/structs/EnumerableSet.sol\":2596:2601  false */\n      0x00\n        /* \"@openzeppelin/contracts/utils/structs/EnumerableSet.sol\":2589:2601  return false */\n      jump(tag_186)\n        /* \"@openzeppelin/contracts/utils/Address.sol\":5165:5611  function functionCallWithValue(... */\n    tag_622:\n        /* \"@openzeppelin/contracts/utils/Address.sol\":5330:5342  bytes memory */\n      0x60\n        /* \"@openzeppelin/contracts/utils/Address.sol\":5387:5392  value */\n      dup3\n        /* \"@openzeppelin/contracts/utils/Address.sol\":5362:5383  address(this).balance */\n      selfbalance\n        /* \"@openzeppelin/contracts/utils/Address.sol\":5362:5392  address(this).balance >= value */\n      lt\n      iszero\n        /* \"@openzeppelin/contracts/utils/Address.sol\":5354:5435  require(address(this).balance >= value, \"Address: insufficient balance for call\") */\n      tag_630\n      jumpi\n      mload(0x40)\n      shl(0xe5, 0x461bcd)\n      dup2\n      mstore\n        /* \"#utility.yul\":17118:17120   */\n      0x20\n        /* \"@openzeppelin/contracts/utils/Address.sol\":5354:5435  require(address(this).balance >= value, \"Address: insufficient balance for call\") */\n      0x04\n      dup3\n      add\n        /* \"#utility.yul\":17100:17121   */\n      mstore\n        /* \"#utility.yul\":17157:17159   */\n      0x26\n        /* \"#utility.yul\":17137:17155   */\n      0x24\n      dup3\n      add\n        /* \"#utility.yul\":17130:17160   */\n      mstore\n        /* \"#utility.yul\":17196:17230   */\n      0x416464726573733a20696e73756666696369656e742062616c616e636520666f\n        /* \"#utility.yul\":17176:17194   */\n      0x44\n      dup3\n      add\n        /* \"#utility.yul\":17169:17231   */\n      mstore\n      shl(0xd2, 0x1c8818d85b1b)\n        /* \"#utility.yul\":17247:17265   */\n      0x64\n      dup3\n      add\n        /* \"#utility.yul\":17240:17276   */\n      mstore\n        /* \"#utility.yul\":17293:17312   */\n      0x84\n      add\n        /* \"@openzeppelin/contracts/utils/Address.sol\":5354:5435  require(address(this).balance >= value, \"Address: insufficient balance for call\") */\n      tag_238\n        /* \"#utility.yul\":16916:17318   */\n      jump\n        /* \"@openzeppelin/contracts/utils/Address.sol\":5354:5435  require(address(this).balance >= value, \"Address: insufficient balance for call\") */\n    tag_630:\n        /* \"@openzeppelin/contracts/utils/Address.sol\":5446:5458  bool success */\n      0x00\n        /* \"@openzeppelin/contracts/utils/Address.sol\":5460:5483  bytes memory returndata */\n      dup1\n        /* \"@openzeppelin/contracts/utils/Address.sol\":5487:5493  target */\n      dup7\n      sub(shl(0xa0, 0x01), 0x01)\n        /* \"@openzeppelin/contracts/utils/Address.sol\":5487:5498  target.call */\n      and\n        /* \"@openzeppelin/contracts/utils/Address.sol\":5506:5511  value */\n      dup6\n        /* \"@openzeppelin/contracts/utils/Address.sol\":5513:5517  data */\n      dup8\n        /* \"@openzeppelin/contracts/utils/Address.sol\":5487:5518  target.call{value: value}(data) */\n      mload(0x40)\n      tag_633\n      swap2\n      swap1\n      tag_634\n      jump\t// in\n    tag_633:\n      0x00\n      mload(0x40)\n      dup1\n      dup4\n      sub\n      dup2\n      dup6\n      dup8\n      gas\n      call\n      swap3\n      pop\n      pop\n      pop\n      returndatasize\n      dup1\n      0x00\n      dup2\n      eq\n      tag_637\n      jumpi\n      mload(0x40)\n      swap2\n      pop\n      and(add(returndatasize, 0x3f), not(0x1f))\n      dup3\n      add\n      0x40\n      mstore\n      returndatasize\n      dup3\n      mstore\n      returndatasize\n      0x00\n      0x20\n      dup5\n      add\n      returndatacopy\n      jump(tag_636)\n    tag_637:\n      0x60\n      swap2\n      pop\n    tag_636:\n      pop\n        /* \"@openzeppelin/contracts/utils/Address.sol\":5445:5518  (bool success, bytes memory returndata) = target.call{value: value}(data) */\n      swap2\n      pop\n      swap2\n      pop\n        /* \"@openzeppelin/contracts/utils/Address.sol\":5535:5604  verifyCallResultFromTarget(target, success, returndata, errorMessage) */\n      tag_638\n        /* \"@openzeppelin/contracts/utils/Address.sol\":5562:5568  target */\n      dup8\n        /* \"@openzeppelin/contracts/utils/Address.sol\":5570:5577  success */\n      dup4\n        /* \"@openzeppelin/contracts/utils/Address.sol\":5579:5589  returndata */\n      dup4\n        /* \"@openzeppelin/contracts/utils/Address.sol\":5591:5603  errorMessage */\n      dup8\n        /* \"@openzeppelin/contracts/utils/Address.sol\":5535:5561  verifyCallResultFromTarget */\n      tag_639\n        /* \"@openzeppelin/contracts/utils/Address.sol\":5535:5604  verifyCallResultFromTarget(target, success, returndata, errorMessage) */\n      jump\t// in\n    tag_638:\n        /* \"@openzeppelin/contracts/utils/Address.sol\":5528:5604  return verifyCallResultFromTarget(target, success, returndata, errorMessage) */\n      swap8\n        /* \"@openzeppelin/contracts/utils/Address.sol\":5165:5611  function functionCallWithValue(... */\n      swap7\n      pop\n      pop\n      pop\n      pop\n      pop\n      pop\n      pop\n      jump\t// out\n        /* \"@openzeppelin/contracts/utils/Address.sol\":7671:8299  function verifyCallResultFromTarget(... */\n    tag_639:\n        /* \"@openzeppelin/contracts/utils/Address.sol\":7851:7863  bytes memory */\n      0x60\n        /* \"@openzeppelin/contracts/utils/Address.sol\":7879:7886  success */\n      dup4\n        /* \"@openzeppelin/contracts/utils/Address.sol\":7875:8293  if (success) {... */\n      iszero\n      tag_642\n      jumpi\n        /* \"@openzeppelin/contracts/utils/Address.sol\":7906:7916  returndata */\n      dup3\n        /* \"@openzeppelin/contracts/utils/Address.sol\":7906:7923  returndata.length */\n      mload\n        /* \"@openzeppelin/contracts/utils/Address.sol\":7927:7928  0 */\n      0x00\n        /* \"@openzeppelin/contracts/utils/Address.sol\":7906:7928  returndata.length == 0 */\n      sub\n        /* \"@openzeppelin/contracts/utils/Address.sol\":7902:8188  if (returndata.length == 0) {... */\n      tag_646\n      jumpi\n      sub(shl(0xa0, 0x01), 0x01)\n        /* \"@openzeppelin/contracts/utils/Address.sol\":1702:1721  account.code.length */\n      dup6\n      and\n      extcodesize\n        /* \"@openzeppelin/contracts/utils/Address.sol\":8113:8173  require(isContract(target), \"Address: call to non-contract\") */\n      tag_646\n      jumpi\n      mload(0x40)\n      shl(0xe5, 0x461bcd)\n      dup2\n      mstore\n        /* \"#utility.yul\":18072:18074   */\n      0x20\n        /* \"@openzeppelin/contracts/utils/Address.sol\":8113:8173  require(isContract(target), \"Address: call to non-contract\") */\n      0x04\n      dup3\n      add\n        /* \"#utility.yul\":18054:18075   */\n      mstore\n        /* \"#utility.yul\":18111:18113   */\n      0x1d\n        /* \"#utility.yul\":18091:18109   */\n      0x24\n      dup3\n      add\n        /* \"#utility.yul\":18084:18114   */\n      mstore\n        /* \"#utility.yul\":18150:18181   */\n      0x416464726573733a2063616c6c20746f206e6f6e2d636f6e7472616374000000\n        /* \"#utility.yul\":18130:18148   */\n      0x44\n      dup3\n      add\n        /* \"#utility.yul\":18123:18182   */\n      mstore\n        /* \"#utility.yul\":18199:18217   */\n      0x64\n      add\n        /* \"@openzeppelin/contracts/utils/Address.sol\":8113:8173  require(isContract(target), \"Address: call to non-contract\") */\n      tag_238\n        /* \"#utility.yul\":17870:18223   */\n      jump\n        /* \"@openzeppelin/contracts/utils/Address.sol\":8113:8173  require(isContract(target), \"Address: call to non-contract\") */\n    tag_646:\n      pop\n        /* \"@openzeppelin/contracts/utils/Address.sol\":8208:8218  returndata */\n      dup2\n        /* \"@openzeppelin/contracts/utils/Address.sol\":8201:8218  return returndata */\n      jump(tag_621)\n        /* \"@openzeppelin/contracts/utils/Address.sol\":7875:8293  if (success) {... */\n    tag_642:\n        /* \"@openzeppelin/contracts/utils/Address.sol\":8249:8282  _revert(returndata, errorMessage) */\n      tag_621\n        /* \"@openzeppelin/contracts/utils/Address.sol\":8257:8267  returndata */\n      dup4\n        /* \"@openzeppelin/contracts/utils/Address.sol\":8269:8281  errorMessage */\n      dup4\n        /* \"@openzeppelin/contracts/utils/Address.sol\":8980:8997  returndata.length */\n      dup2\n      mload\n        /* \"@openzeppelin/contracts/utils/Address.sol\":8980:9001  returndata.length > 0 */\n      iszero\n        /* \"@openzeppelin/contracts/utils/Address.sol\":8976:9355  if (returndata.length > 0) {... */\n      tag_654\n      jumpi\n        /* \"@openzeppelin/contracts/utils/Address.sol\":9208:9218  returndata */\n      dup2\n        /* \"@openzeppelin/contracts/utils/Address.sol\":9202:9219  mload(returndata) */\n      mload\n        /* \"@openzeppelin/contracts/utils/Address.sol\":9264:9279  returndata_size */\n      dup1\n        /* \"@openzeppelin/contracts/utils/Address.sol\":9251:9261  returndata */\n      dup4\n        /* \"@openzeppelin/contracts/utils/Address.sol\":9247:9249  32 */\n      0x20\n        /* \"@openzeppelin/contracts/utils/Address.sol\":9243:9262  add(32, returndata) */\n      add\n        /* \"@openzeppelin/contracts/utils/Address.sol\":9236:9280  revert(add(32, returndata), returndata_size) */\n      revert\n        /* \"@openzeppelin/contracts/utils/Address.sol\":8976:9355  if (returndata.length > 0) {... */\n    tag_654:\n        /* \"@openzeppelin/contracts/utils/Address.sol\":9331:9343  errorMessage */\n      dup1\n        /* \"@openzeppelin/contracts/utils/Address.sol\":9324:9344  revert(errorMessage) */\n      mload(0x40)\n      shl(0xe5, 0x461bcd)\n      dup2\n      mstore\n      0x04\n      add\n      tag_238\n      swap2\n      swap1\n      tag_657\n      jump\t// in\n    tag_189:\n      mload(0x40)\n      dup1\n      0xc0\n      add\n      0x40\n      mstore\n      dup1\n      0x00\n      dup2\n      mstore\n      0x20\n      add\n      and(sub(shl(0xa0, 0x01), 0x01), 0x00)\n      dup2\n      mstore\n      0x20\n      add\n      and(sub(shl(0xa0, 0x01), 0x01), 0x00)\n      dup2\n      mstore\n      0x20\n      add\n      0x00\n      dup2\n      mstore\n      0x20\n      add\n      0x00\n      dup2\n      mstore\n      0x20\n      add\n      0x00\n      dup2\n      mstore\n      pop\n      swap1\n      jump\t// out\n        /* \"#utility.yul\":14:145   */\n    tag_658:\n      sub(shl(0xa0, 0x01), 0x01)\n        /* \"#utility.yul\":89:120   */\n      dup2\n      and\n        /* \"#utility.yul\":79:121   */\n      dup2\n      eq\n        /* \"#utility.yul\":69:139   */\n      tag_355\n      jumpi\n        /* \"#utility.yul\":135:136   */\n      0x00\n        /* \"#utility.yul\":132:133   */\n      dup1\n        /* \"#utility.yul\":125:137   */\n      revert\n        /* \"#utility.yul\":150:397   */\n    tag_42:\n        /* \"#utility.yul\":209:215   */\n      0x00\n        /* \"#utility.yul\":262:264   */\n      0x20\n        /* \"#utility.yul\":250:259   */\n      dup3\n        /* \"#utility.yul\":241:248   */\n      dup5\n        /* \"#utility.yul\":237:260   */\n      sub\n        /* \"#utility.yul\":233:265   */\n      slt\n        /* \"#utility.yul\":230:282   */\n      iszero\n      tag_668\n      jumpi\n        /* \"#utility.yul\":278:279   */\n      0x00\n        /* \"#utility.yul\":275:276   */\n      dup1\n        /* \"#utility.yul\":268:280   */\n      revert\n        /* \"#utility.yul\":230:282   */\n    tag_668:\n        /* \"#utility.yul\":317:326   */\n      dup2\n        /* \"#utility.yul\":304:327   */\n      calldataload\n        /* \"#utility.yul\":336:367   */\n      tag_478\n        /* \"#utility.yul\":361:366   */\n      dup2\n        /* \"#utility.yul\":336:367   */\n      tag_658\n      jump\t// in\n        /* \"#utility.yul\":584:764   */\n    tag_49:\n        /* \"#utility.yul\":643:649   */\n      0x00\n        /* \"#utility.yul\":696:698   */\n      0x20\n        /* \"#utility.yul\":684:693   */\n      dup3\n        /* \"#utility.yul\":675:682   */\n      dup5\n        /* \"#utility.yul\":671:694   */\n      sub\n        /* \"#utility.yul\":667:699   */\n      slt\n        /* \"#utility.yul\":664:716   */\n      iszero\n      tag_672\n      jumpi\n        /* \"#utility.yul\":712:713   */\n      0x00\n        /* \"#utility.yul\":709:710   */\n      dup1\n        /* \"#utility.yul\":702:714   */\n      revert\n        /* \"#utility.yul\":664:716   */\n    tag_672:\n      pop\n        /* \"#utility.yul\":735:758   */\n      calldataload\n      swap2\n        /* \"#utility.yul\":584:764   */\n      swap1\n      pop\n      jump\t// out\n        /* \"#utility.yul\":769:1235   */\n    tag_659:\n        /* \"#utility.yul\":845:850   */\n      dup1\n        /* \"#utility.yul\":839:851   */\n      mload\n        /* \"#utility.yul\":834:837   */\n      dup3\n        /* \"#utility.yul\":827:852   */\n      mstore\n        /* \"#utility.yul\":898:902   */\n      0x20\n        /* \"#utility.yul\":891:896   */\n      dup2\n        /* \"#utility.yul\":887:903   */\n      add\n        /* \"#utility.yul\":881:904   */\n      mload\n        /* \"#utility.yul\":940:941   */\n      0x01\n        /* \"#utility.yul\":936:937   */\n      dup1\n        /* \"#utility.yul\":931:934   */\n      0xa0\n        /* \"#utility.yul\":927:938   */\n      shl\n        /* \"#utility.yul\":923:942   */\n      sub\n        /* \"#utility.yul\":992:994   */\n      dup1\n        /* \"#utility.yul\":978:990   */\n      dup3\n        /* \"#utility.yul\":974:995   */\n      and\n        /* \"#utility.yul\":967:971   */\n      0x20\n        /* \"#utility.yul\":962:965   */\n      dup6\n        /* \"#utility.yul\":958:972   */\n      add\n        /* \"#utility.yul\":951:996   */\n      mstore\n        /* \"#utility.yul\":1057:1059   */\n      dup1\n        /* \"#utility.yul\":1049:1053   */\n      0x40\n        /* \"#utility.yul\":1042:1047   */\n      dup5\n        /* \"#utility.yul\":1038:1054   */\n      add\n        /* \"#utility.yul\":1032:1055   */\n      mload\n        /* \"#utility.yul\":1028:1060   */\n      and\n        /* \"#utility.yul\":1021:1025   */\n      0x40\n        /* \"#utility.yul\":1016:1019   */\n      dup6\n        /* \"#utility.yul\":1012:1026   */\n      add\n        /* \"#utility.yul\":1005:1061   */\n      mstore\n      pop\n      pop\n        /* \"#utility.yul\":1110:1114   */\n      0x60\n        /* \"#utility.yul\":1103:1108   */\n      dup2\n        /* \"#utility.yul\":1099:1115   */\n      add\n        /* \"#utility.yul\":1093:1116   */\n      mload\n        /* \"#utility.yul\":1086:1090   */\n      0x60\n        /* \"#utility.yul\":1081:1084   */\n      dup4\n        /* \"#utility.yul\":1077:1091   */\n      add\n        /* \"#utility.yul\":1070:1117   */\n      mstore\n        /* \"#utility.yul\":1166:1170   */\n      0x80\n        /* \"#utility.yul\":1159:1164   */\n      dup2\n        /* \"#utility.yul\":1155:1171   */\n      add\n        /* \"#utility.yul\":1149:1172   */\n      mload\n        /* \"#utility.yul\":1142:1146   */\n      0x80\n        /* \"#utility.yul\":1137:1140   */\n      dup4\n        /* \"#utility.yul\":1133:1147   */\n      add\n        /* \"#utility.yul\":1126:1173   */\n      mstore\n        /* \"#utility.yul\":1222:1226   */\n      0xa0\n        /* \"#utility.yul\":1215:1220   */\n      dup2\n        /* \"#utility.yul\":1211:1227   */\n      add\n        /* \"#utility.yul\":1205:1228   */\n      mload\n        /* \"#utility.yul\":1198:1202   */\n      0xa0\n        /* \"#utility.yul\":1193:1196   */\n      dup4\n        /* \"#utility.yul\":1189:1203   */\n      add\n        /* \"#utility.yul\":1182:1229   */\n      mstore\n        /* \"#utility.yul\":769:1235   */\n      pop\n      pop\n      jump\t// out\n        /* \"#utility.yul\":1240:1478   */\n    tag_52:\n        /* \"#utility.yul\":1418:1421   */\n      0xc0\n        /* \"#utility.yul\":1403:1422   */\n      dup2\n      add\n        /* \"#utility.yul\":1431:1472   */\n      tag_186\n        /* \"#utility.yul\":1407:1416   */\n      dup3\n        /* \"#utility.yul\":1454:1460   */\n      dup5\n        /* \"#utility.yul\":1431:1472   */\n      tag_659\n      jump\t// in\n        /* \"#utility.yul\":1483:1866   */\n    tag_60:\n        /* \"#utility.yul\":1560:1566   */\n      0x00\n        /* \"#utility.yul\":1568:1574   */\n      dup1\n        /* \"#utility.yul\":1576:1582   */\n      0x00\n        /* \"#utility.yul\":1629:1631   */\n      0x60\n        /* \"#utility.yul\":1617:1626   */\n      dup5\n        /* \"#utility.yul\":1608:1615   */\n      dup7\n        /* \"#utility.yul\":1604:1627   */\n      sub\n        /* \"#utility.yul\":1600:1632   */\n      slt\n        /* \"#utility.yul\":1597:1649   */\n      iszero\n      tag_677\n      jumpi\n        /* \"#utility.yul\":1645:1646   */\n      0x00\n        /* \"#utility.yul\":1642:1643   */\n      dup1\n        /* \"#utility.yul\":1635:1647   */\n      revert\n        /* \"#utility.yul\":1597:1649   */\n    tag_677:\n        /* \"#utility.yul\":1684:1693   */\n      dup4\n        /* \"#utility.yul\":1671:1694   */\n      calldataload\n        /* \"#utility.yul\":1703:1734   */\n      tag_678\n        /* \"#utility.yul\":1728:1733   */\n      dup2\n        /* \"#utility.yul\":1703:1734   */\n      tag_658\n      jump\t// in\n    tag_678:\n        /* \"#utility.yul\":1753:1758   */\n      swap6\n        /* \"#utility.yul\":1805:1807   */\n      0x20\n        /* \"#utility.yul\":1790:1808   */\n      dup6\n      add\n        /* \"#utility.yul\":1777:1809   */\n      calldataload\n      swap6\n      pop\n        /* \"#utility.yul\":1856:1858   */\n      0x40\n        /* \"#utility.yul\":1841:1859   */\n      swap1\n      swap5\n      add\n        /* \"#utility.yul\":1828:1860   */\n      calldataload\n      swap4\n        /* \"#utility.yul\":1483:1866   */\n      swap3\n      pop\n      pop\n      pop\n      jump\t// out\n        /* \"#utility.yul\":1871:2565   */\n    tag_63:\n        /* \"#utility.yul\":2086:2088   */\n      0x20\n        /* \"#utility.yul\":2138:2159   */\n      dup1\n      dup3\n      mstore\n        /* \"#utility.yul\":2208:2221   */\n      dup3\n      mload\n        /* \"#utility.yul\":2111:2129   */\n      dup3\n      dup3\n      add\n        /* \"#utility.yul\":2230:2252   */\n      dup2\n      swap1\n      mstore\n        /* \"#utility.yul\":2057:2061   */\n      0x00\n      swap2\n        /* \"#utility.yul\":2086:2088   */\n      swap1\n        /* \"#utility.yul\":2309:2324   */\n      dup5\n      dup3\n      add\n      swap1\n        /* \"#utility.yul\":2283:2285   */\n      0x40\n        /* \"#utility.yul\":2268:2286   */\n      dup6\n      add\n      swap1\n        /* \"#utility.yul\":2057:2061   */\n      dup5\n        /* \"#utility.yul\":2352:2539   */\n    tag_680:\n        /* \"#utility.yul\":2366:2372   */\n      dup2\n        /* \"#utility.yul\":2363:2364   */\n      dup2\n        /* \"#utility.yul\":2360:2373   */\n      lt\n        /* \"#utility.yul\":2352:2539   */\n      iszero\n      tag_215\n      jumpi\n        /* \"#utility.yul\":2415:2457   */\n      tag_683\n        /* \"#utility.yul\":2453:2456   */\n      dup4\n        /* \"#utility.yul\":2444:2450   */\n      dup6\n        /* \"#utility.yul\":2438:2451   */\n      mload\n        /* \"#utility.yul\":2415:2457   */\n      tag_659\n      jump\t// in\n    tag_683:\n        /* \"#utility.yul\":2514:2529   */\n      swap3\n      dup5\n      add\n      swap3\n        /* \"#utility.yul\":2486:2490   */\n      0xc0\n        /* \"#utility.yul\":2477:2491   */\n      swap3\n      swap1\n      swap3\n      add\n      swap2\n        /* \"#utility.yul\":2388:2389   */\n      0x01\n        /* \"#utility.yul\":2381:2390   */\n      add\n        /* \"#utility.yul\":2352:2539   */\n      jump(tag_680)\n        /* \"#utility.yul\":2570:2885   */\n    tag_75:\n        /* \"#utility.yul\":2638:2644   */\n      0x00\n        /* \"#utility.yul\":2646:2652   */\n      dup1\n        /* \"#utility.yul\":2699:2701   */\n      0x40\n        /* \"#utility.yul\":2687:2696   */\n      dup4\n        /* \"#utility.yul\":2678:2685   */\n      dup6\n        /* \"#utility.yul\":2674:2697   */\n      sub\n        /* \"#utility.yul\":2670:2702   */\n      slt\n        /* \"#utility.yul\":2667:2719   */\n      iszero\n      tag_685\n      jumpi\n        /* \"#utility.yul\":2715:2716   */\n      0x00\n        /* \"#utility.yul\":2712:2713   */\n      dup1\n        /* \"#utility.yul\":2705:2717   */\n      revert\n        /* \"#utility.yul\":2667:2719   */\n    tag_685:\n        /* \"#utility.yul\":2754:2763   */\n      dup3\n        /* \"#utility.yul\":2741:2764   */\n      calldataload\n        /* \"#utility.yul\":2773:2804   */\n      tag_686\n        /* \"#utility.yul\":2798:2803   */\n      dup2\n        /* \"#utility.yul\":2773:2804   */\n      tag_658\n      jump\t// in\n    tag_686:\n        /* \"#utility.yul\":2823:2828   */\n      swap5\n        /* \"#utility.yul\":2875:2877   */\n      0x20\n        /* \"#utility.yul\":2860:2878   */\n      swap4\n      swap1\n      swap4\n      add\n        /* \"#utility.yul\":2847:2879   */\n      calldataload\n      swap4\n      pop\n      pop\n      pop\n        /* \"#utility.yul\":2570:2885   */\n      jump\t// out\n        /* \"#utility.yul\":2890:3008   */\n    tag_660:\n        /* \"#utility.yul\":2976:2981   */\n      dup1\n        /* \"#utility.yul\":2969:2982   */\n      iszero\n        /* \"#utility.yul\":2962:2983   */\n      iszero\n        /* \"#utility.yul\":2955:2960   */\n      dup2\n        /* \"#utility.yul\":2952:2984   */\n      eq\n        /* \"#utility.yul\":2942:3002   */\n      tag_355\n      jumpi\n        /* \"#utility.yul\":2998:2999   */\n      0x00\n        /* \"#utility.yul\":2995:2996   */\n      dup1\n        /* \"#utility.yul\":2988:3000   */\n      revert\n        /* \"#utility.yul\":3013:3674   */\n    tag_84:\n        /* \"#utility.yul\":3105:3111   */\n      0x00\n        /* \"#utility.yul\":3113:3119   */\n      dup1\n        /* \"#utility.yul\":3121:3127   */\n      0x00\n        /* \"#utility.yul\":3129:3135   */\n      dup1\n        /* \"#utility.yul\":3137:3143   */\n      0x00\n        /* \"#utility.yul\":3190:3193   */\n      0xa0\n        /* \"#utility.yul\":3178:3187   */\n      dup7\n        /* \"#utility.yul\":3169:3176   */\n      dup9\n        /* \"#utility.yul\":3165:3188   */\n      sub\n        /* \"#utility.yul\":3161:3194   */\n      slt\n        /* \"#utility.yul\":3158:3211   */\n      iszero\n      tag_690\n      jumpi\n        /* \"#utility.yul\":3207:3208   */\n      0x00\n        /* \"#utility.yul\":3204:3205   */\n      dup1\n        /* \"#utility.yul\":3197:3209   */\n      revert\n        /* \"#utility.yul\":3158:3211   */\n    tag_690:\n        /* \"#utility.yul\":3246:3255   */\n      dup6\n        /* \"#utility.yul\":3233:3256   */\n      calldataload\n        /* \"#utility.yul\":3265:3296   */\n      tag_691\n        /* \"#utility.yul\":3290:3295   */\n      dup2\n        /* \"#utility.yul\":3265:3296   */\n      tag_658\n      jump\t// in\n    tag_691:\n        /* \"#utility.yul\":3315:3320   */\n      swap5\n      pop\n        /* \"#utility.yul\":3372:3374   */\n      0x20\n        /* \"#utility.yul\":3357:3375   */\n      dup7\n      add\n        /* \"#utility.yul\":3344:3376   */\n      calldataload\n        /* \"#utility.yul\":3385:3418   */\n      tag_692\n        /* \"#utility.yul\":3344:3376   */\n      dup2\n        /* \"#utility.yul\":3385:3418   */\n      tag_658\n      jump\t// in\n    tag_692:\n        /* \"#utility.yul\":3437:3444   */\n      swap4\n      pop\n        /* \"#utility.yul\":3496:3498   */\n      0x40\n        /* \"#utility.yul\":3481:3499   */\n      dup7\n      add\n        /* \"#utility.yul\":3468:3500   */\n      calldataload\n        /* \"#utility.yul\":3509:3539   */\n      tag_693\n        /* \"#utility.yul\":3468:3500   */\n      dup2\n        /* \"#utility.yul\":3509:3539   */\n      tag_660\n      jump\t// in\n    tag_693:\n        /* \"#utility.yul\":3013:3674   */\n      swap5\n      swap8\n      swap4\n      swap7\n      pop\n        /* \"#utility.yul\":3558:3565   */\n      swap4\n      swap5\n        /* \"#utility.yul\":3612:3614   */\n      0x60\n        /* \"#utility.yul\":3597:3615   */\n      dup2\n      add\n        /* \"#utility.yul\":3584:3616   */\n      calldataload\n      swap5\n      pop\n        /* \"#utility.yul\":3663:3666   */\n      0x80\n        /* \"#utility.yul\":3648:3667   */\n      add\n        /* \"#utility.yul\":3635:3668   */\n      calldataload\n      swap3\n        /* \"#utility.yul\":3013:3674   */\n      swap2\n      pop\n      pop\n      jump\t// out\n        /* \"#utility.yul\":3679:3927   */\n    tag_97:\n        /* \"#utility.yul\":3747:3753   */\n      0x00\n        /* \"#utility.yul\":3755:3761   */\n      dup1\n        /* \"#utility.yul\":3808:3810   */\n      0x40\n        /* \"#utility.yul\":3796:3805   */\n      dup4\n        /* \"#utility.yul\":3787:3794   */\n      dup6\n        /* \"#utility.yul\":3783:3806   */\n      sub\n        /* \"#utility.yul\":3779:3811   */\n      slt\n        /* \"#utility.yul\":3776:3828   */\n      iszero\n      tag_695\n      jumpi\n        /* \"#utility.yul\":3824:3825   */\n      0x00\n        /* \"#utility.yul\":3821:3822   */\n      dup1\n        /* \"#utility.yul\":3814:3826   */\n      revert\n        /* \"#utility.yul\":3776:3828   */\n    tag_695:\n      pop\n      pop\n        /* \"#utility.yul\":3847:3870   */\n      dup1\n      calldataload\n      swap3\n        /* \"#utility.yul\":3917:3919   */\n      0x20\n        /* \"#utility.yul\":3902:3920   */\n      swap1\n      swap2\n      add\n        /* \"#utility.yul\":3889:3921   */\n      calldataload\n      swap2\n      pop\n        /* \"#utility.yul\":3679:3927   */\n      jump\t// out\n        /* \"#utility.yul\":4208:4944   */\n    tag_100:\n        /* \"#utility.yul\":4451:4453   */\n      0x20\n        /* \"#utility.yul\":4503:4524   */\n      dup1\n      dup3\n      mstore\n        /* \"#utility.yul\":4573:4586   */\n      dup3\n      mload\n        /* \"#utility.yul\":4476:4494   */\n      dup3\n      dup3\n      add\n        /* \"#utility.yul\":4595:4617   */\n      dup2\n      swap1\n      mstore\n        /* \"#utility.yul\":4422:4426   */\n      0x00\n      swap2\n        /* \"#utility.yul\":4451:4453   */\n      swap1\n        /* \"#utility.yul\":4674:4689   */\n      dup5\n      dup3\n      add\n      swap1\n        /* \"#utility.yul\":4648:4650   */\n      0x40\n        /* \"#utility.yul\":4633:4651   */\n      dup6\n      add\n      swap1\n        /* \"#utility.yul\":4422:4426   */\n      dup5\n        /* \"#utility.yul\":4717:4918   */\n    tag_698:\n        /* \"#utility.yul\":4731:4737   */\n      dup2\n        /* \"#utility.yul\":4728:4729   */\n      dup2\n        /* \"#utility.yul\":4725:4738   */\n      lt\n        /* \"#utility.yul\":4717:4918   */\n      iszero\n      tag_215\n      jumpi\n        /* \"#utility.yul\":4780:4836   */\n      tag_701\n        /* \"#utility.yul\":4832:4835   */\n      dup4\n        /* \"#utility.yul\":4823:4829   */\n      dup6\n        /* \"#utility.yul\":4817:4830   */\n      mload\n        /* \"#utility.yul\":4058:4070   */\n      dup1\n      mload\n      sub(shl(0xa0, 0x01), 0x01)\n        /* \"#utility.yul\":4054:4075   */\n      swap1\n      dup2\n      and\n        /* \"#utility.yul\":4042:4076   */\n      dup4\n      mstore\n        /* \"#utility.yul\":4129:4133   */\n      0x20\n        /* \"#utility.yul\":4118:4134   */\n      dup1\n      dup4\n      add\n        /* \"#utility.yul\":4112:4135   */\n      mload\n        /* \"#utility.yul\":4108:4140   */\n      swap1\n      swap2\n      and\n        /* \"#utility.yul\":4092:4106   */\n      swap1\n      dup4\n      add\n        /* \"#utility.yul\":4085:4141   */\n      mstore\n        /* \"#utility.yul\":4190:4194   */\n      0x40\n        /* \"#utility.yul\":4179:4195   */\n      swap1\n      dup2\n      add\n        /* \"#utility.yul\":4173:4196   */\n      mload\n        /* \"#utility.yul\":4157:4171   */\n      swap2\n      add\n        /* \"#utility.yul\":4150:4197   */\n      mstore\n        /* \"#utility.yul\":3932:4203   */\n      jump\n        /* \"#utility.yul\":4780:4836   */\n    tag_701:\n        /* \"#utility.yul\":4893:4908   */\n      swap3\n      dup5\n      add\n      swap3\n        /* \"#utility.yul\":4865:4869   */\n      0x60\n        /* \"#utility.yul\":4856:4870   */\n      swap3\n      swap1\n      swap3\n      add\n      swap2\n        /* \"#utility.yul\":4753:4754   */\n      0x01\n        /* \"#utility.yul\":4746:4755   */\n      add\n        /* \"#utility.yul\":4717:4918   */\n      jump(tag_698)\n        /* \"#utility.yul\":4949:5228   */\n    tag_106:\n        /* \"#utility.yul\":4058:4070   */\n      dup2\n      mload\n      sub(shl(0xa0, 0x01), 0x01)\n        /* \"#utility.yul\":4054:4075   */\n      swap1\n      dup2\n      and\n        /* \"#utility.yul\":4042:4076   */\n      dup3\n      mstore\n        /* \"#utility.yul\":4129:4133   */\n      0x20\n        /* \"#utility.yul\":4118:4134   */\n      dup1\n      dup5\n      add\n        /* \"#utility.yul\":4112:4135   */\n      mload\n        /* \"#utility.yul\":4108:4140   */\n      swap1\n      swap2\n      and\n        /* \"#utility.yul\":4092:4106   */\n      swap1\n      dup3\n      add\n        /* \"#utility.yul\":4085:4141   */\n      mstore\n        /* \"#utility.yul\":4190:4194   */\n      0x40\n        /* \"#utility.yul\":4179:4195   */\n      dup1\n      dup4\n      add\n        /* \"#utility.yul\":4173:4196   */\n      mload\n        /* \"#utility.yul\":4157:4171   */\n      swap1\n      dup3\n      add\n        /* \"#utility.yul\":4150:4197   */\n      mstore\n        /* \"#utility.yul\":5155:5157   */\n      0x60\n        /* \"#utility.yul\":5140:5158   */\n      dup2\n      add\n        /* \"#utility.yul\":5167:5222   */\n      tag_186\n        /* \"#utility.yul\":3932:4203   */\n      jump\n        /* \"#utility.yul\":5441:5757   */\n    tag_133:\n        /* \"#utility.yul\":5518:5524   */\n      0x00\n        /* \"#utility.yul\":5526:5532   */\n      dup1\n        /* \"#utility.yul\":5534:5540   */\n      0x00\n        /* \"#utility.yul\":5587:5589   */\n      0x60\n        /* \"#utility.yul\":5575:5584   */\n      dup5\n        /* \"#utility.yul\":5566:5573   */\n      dup7\n        /* \"#utility.yul\":5562:5585   */\n      sub\n        /* \"#utility.yul\":5558:5590   */\n      slt\n        /* \"#utility.yul\":5555:5607   */\n      iszero\n      tag_706\n      jumpi\n        /* \"#utility.yul\":5603:5604   */\n      0x00\n        /* \"#utility.yul\":5600:5601   */\n      dup1\n        /* \"#utility.yul\":5593:5605   */\n      revert\n        /* \"#utility.yul\":5555:5607   */\n    tag_706:\n      pop\n      pop\n        /* \"#utility.yul\":5626:5649   */\n      dup2\n      calldataload\n      swap4\n        /* \"#utility.yul\":5696:5698   */\n      0x20\n        /* \"#utility.yul\":5681:5699   */\n      dup4\n      add\n        /* \"#utility.yul\":5668:5700   */\n      calldataload\n      swap4\n      pop\n        /* \"#utility.yul\":5747:5749   */\n      0x40\n        /* \"#utility.yul\":5732:5750   */\n      swap1\n      swap3\n      add\n        /* \"#utility.yul\":5719:5751   */\n      calldataload\n      swap2\n        /* \"#utility.yul\":5441:5757   */\n      swap1\n      pop\n      jump\t// out\n        /* \"#utility.yul\":6142:6269   */\n    tag_193:\n        /* \"#utility.yul\":6203:6213   */\n      0x4e487b71\n        /* \"#utility.yul\":6198:6201   */\n      0xe0\n        /* \"#utility.yul\":6194:6214   */\n      shl\n        /* \"#utility.yul\":6191:6192   */\n      0x00\n        /* \"#utility.yul\":6184:6215   */\n      mstore\n        /* \"#utility.yul\":6234:6238   */\n      0x32\n        /* \"#utility.yul\":6231:6232   */\n      0x04\n        /* \"#utility.yul\":6224:6239   */\n      mstore\n        /* \"#utility.yul\":6258:6262   */\n      0x24\n        /* \"#utility.yul\":6255:6256   */\n      0x00\n        /* \"#utility.yul\":6248:6263   */\n      revert\n        /* \"#utility.yul\":6274:6401   */\n    tag_662:\n        /* \"#utility.yul\":6335:6345   */\n      0x4e487b71\n        /* \"#utility.yul\":6330:6333   */\n      0xe0\n        /* \"#utility.yul\":6326:6346   */\n      shl\n        /* \"#utility.yul\":6323:6324   */\n      0x00\n        /* \"#utility.yul\":6316:6347   */\n      mstore\n        /* \"#utility.yul\":6366:6370   */\n      0x11\n        /* \"#utility.yul\":6363:6364   */\n      0x04\n        /* \"#utility.yul\":6356:6371   */\n      mstore\n        /* \"#utility.yul\":6390:6394   */\n      0x24\n        /* \"#utility.yul\":6387:6388   */\n      0x00\n        /* \"#utility.yul\":6380:6395   */\n      revert\n        /* \"#utility.yul\":6406:6531   */\n    tag_199:\n        /* \"#utility.yul\":6471:6480   */\n      dup1\n      dup3\n      add\n        /* \"#utility.yul\":6492:6502   */\n      dup1\n      dup3\n      gt\n        /* \"#utility.yul\":6489:6525   */\n      iszero\n      tag_186\n      jumpi\n        /* \"#utility.yul\":6505:6523   */\n      tag_186\n      tag_662\n      jump\t// in\n        /* \"#utility.yul\":6536:6664   */\n    tag_205:\n        /* \"#utility.yul\":6603:6612   */\n      dup2\n      dup2\n      sub\n        /* \"#utility.yul\":6624:6635   */\n      dup2\n      dup2\n      gt\n        /* \"#utility.yul\":6621:6658   */\n      iszero\n      tag_186\n      jumpi\n        /* \"#utility.yul\":6638:6656   */\n      tag_186\n      tag_662\n      jump\t// in\n        /* \"#utility.yul\":6669:6796   */\n    tag_210:\n        /* \"#utility.yul\":6730:6740   */\n      0x4e487b71\n        /* \"#utility.yul\":6725:6728   */\n      0xe0\n        /* \"#utility.yul\":6721:6741   */\n      shl\n        /* \"#utility.yul\":6718:6719   */\n      0x00\n        /* \"#utility.yul\":6711:6742   */\n      mstore\n        /* \"#utility.yul\":6761:6765   */\n      0x41\n        /* \"#utility.yul\":6758:6759   */\n      0x04\n        /* \"#utility.yul\":6751:6766   */\n      mstore\n        /* \"#utility.yul\":6785:6789   */\n      0x24\n        /* \"#utility.yul\":6782:6783   */\n      0x00\n        /* \"#utility.yul\":6775:6790   */\n      revert\n        /* \"#utility.yul\":6801:6936   */\n    tag_225:\n        /* \"#utility.yul\":6840:6843   */\n      0x00\n        /* \"#utility.yul\":6861:6878   */\n      0x01\n      dup3\n      add\n        /* \"#utility.yul\":6858:6901   */\n      tag_719\n      jumpi\n        /* \"#utility.yul\":6881:6899   */\n      tag_719\n      tag_662\n      jump\t// in\n    tag_719:\n      pop\n        /* \"#utility.yul\":6928:6929   */\n      0x01\n        /* \"#utility.yul\":6917:6930   */\n      add\n      swap1\n        /* \"#utility.yul\":6801:6936   */\n      jump\t// out\n        /* \"#utility.yul\":7283:7622   */\n    tag_247:\n        /* \"#utility.yul\":7485:7487   */\n      0x20\n        /* \"#utility.yul\":7467:7488   */\n      dup1\n      dup3\n      mstore\n        /* \"#utility.yul\":7524:7526   */\n      0x0f\n        /* \"#utility.yul\":7504:7522   */\n      swap1\n      dup3\n      add\n        /* \"#utility.yul\":7497:7527   */\n      mstore\n      shl(0x8a, 0x125b9d985b1a59081b1bd8dac81a59)\n        /* \"#utility.yul\":7558:7560   */\n      0x40\n        /* \"#utility.yul\":7543:7561   */\n      dup3\n      add\n        /* \"#utility.yul\":7536:7581   */\n      mstore\n        /* \"#utility.yul\":7613:7615   */\n      0x60\n        /* \"#utility.yul\":7598:7616   */\n      add\n      swap1\n        /* \"#utility.yul\":7283:7622   */\n      jump\t// out\n        /* \"#utility.yul\":7627:8025   */\n    tag_254:\n        /* \"#utility.yul\":7829:7831   */\n      0x20\n        /* \"#utility.yul\":7811:7832   */\n      dup1\n      dup3\n      mstore\n        /* \"#utility.yul\":7868:7870   */\n      0x22\n        /* \"#utility.yul\":7848:7866   */\n      swap1\n      dup3\n      add\n        /* \"#utility.yul\":7841:7871   */\n      mstore\n        /* \"#utility.yul\":7907:7941   */\n      0x596f7520617265206e6f7420746865206f776e6572206f662074686973206c6f\n        /* \"#utility.yul\":7902:7904   */\n      0x40\n        /* \"#utility.yul\":7887:7905   */\n      dup3\n      add\n        /* \"#utility.yul\":7880:7942   */\n      mstore\n      shl(0xf0, 0x636b)\n        /* \"#utility.yul\":7973:7975   */\n      0x60\n        /* \"#utility.yul\":7958:7976   */\n      dup3\n      add\n        /* \"#utility.yul\":7951:7983   */\n      mstore\n        /* \"#utility.yul\":8015:8018   */\n      0x80\n        /* \"#utility.yul\":8000:8019   */\n      add\n      swap1\n        /* \"#utility.yul\":7627:8025   */\n      jump\t// out\n        /* \"#utility.yul\":8729:9176   */\n    tag_279:\n      sub(shl(0xa0, 0x01), 0x01)\n        /* \"#utility.yul\":9016:9031   */\n      swap5\n      dup6\n      and\n        /* \"#utility.yul\":8998:9032   */\n      dup2\n      mstore\n        /* \"#utility.yul\":9068:9083   */\n      swap3\n      swap1\n      swap4\n      and\n        /* \"#utility.yul\":9063:9065   */\n      0x20\n        /* \"#utility.yul\":9048:9066   */\n      dup4\n      add\n        /* \"#utility.yul\":9041:9084   */\n      mstore\n        /* \"#utility.yul\":9115:9117   */\n      0x40\n        /* \"#utility.yul\":9100:9118   */\n      dup3\n      add\n        /* \"#utility.yul\":9093:9127   */\n      mstore\n        /* \"#utility.yul\":9158:9160   */\n      0x60\n        /* \"#utility.yul\":9143:9161   */\n      dup2\n      add\n        /* \"#utility.yul\":9136:9170   */\n      swap2\n      swap1\n      swap2\n      mstore\n        /* \"#utility.yul\":8947:8950   */\n      0x80\n        /* \"#utility.yul\":8932:8951   */\n      add\n      swap1\n        /* \"#utility.yul\":8729:9176   */\n      jump\t// out\n        /* \"#utility.yul\":10281:10532   */\n    tag_294:\n        /* \"#utility.yul\":10351:10357   */\n      0x00\n        /* \"#utility.yul\":10404:10406   */\n      0x20\n        /* \"#utility.yul\":10392:10401   */\n      dup3\n        /* \"#utility.yul\":10383:10390   */\n      dup5\n        /* \"#utility.yul\":10379:10402   */\n      sub\n        /* \"#utility.yul\":10375:10407   */\n      slt\n        /* \"#utility.yul\":10372:10424   */\n      iszero\n      tag_730\n      jumpi\n        /* \"#utility.yul\":10420:10421   */\n      0x00\n        /* \"#utility.yul\":10417:10418   */\n      dup1\n        /* \"#utility.yul\":10410:10422   */\n      revert\n        /* \"#utility.yul\":10372:10424   */\n    tag_730:\n        /* \"#utility.yul\":10452:10461   */\n      dup2\n        /* \"#utility.yul\":10446:10462   */\n      mload\n        /* \"#utility.yul\":10471:10502   */\n      tag_478\n        /* \"#utility.yul\":10496:10501   */\n      dup2\n        /* \"#utility.yul\":10471:10502   */\n      tag_658\n      jump\t// in\n        /* \"#utility.yul\":13488:13672   */\n    tag_526:\n        /* \"#utility.yul\":13558:13564   */\n      0x00\n        /* \"#utility.yul\":13611:13613   */\n      0x20\n        /* \"#utility.yul\":13599:13608   */\n      dup3\n        /* \"#utility.yul\":13590:13597   */\n      dup5\n        /* \"#utility.yul\":13586:13609   */\n      sub\n        /* \"#utility.yul\":13582:13614   */\n      slt\n        /* \"#utility.yul\":13579:13631   */\n      iszero\n      tag_741\n      jumpi\n        /* \"#utility.yul\":13627:13628   */\n      0x00\n        /* \"#utility.yul\":13624:13625   */\n      dup1\n        /* \"#utility.yul\":13617:13629   */\n      revert\n        /* \"#utility.yul\":13579:13631   */\n    tag_741:\n      pop\n        /* \"#utility.yul\":13650:13666   */\n      mload\n      swap2\n        /* \"#utility.yul\":13488:13672   */\n      swap1\n      pop\n      jump\t// out\n        /* \"#utility.yul\":16123:16250   */\n    tag_597:\n        /* \"#utility.yul\":16184:16194   */\n      0x4e487b71\n        /* \"#utility.yul\":16179:16182   */\n      0xe0\n        /* \"#utility.yul\":16175:16195   */\n      shl\n        /* \"#utility.yul\":16172:16173   */\n      0x00\n        /* \"#utility.yul\":16165:16196   */\n      mstore\n        /* \"#utility.yul\":16215:16219   */\n      0x31\n        /* \"#utility.yul\":16212:16213   */\n      0x04\n        /* \"#utility.yul\":16205:16220   */\n      mstore\n        /* \"#utility.yul\":16239:16243   */\n      0x24\n        /* \"#utility.yul\":16236:16237   */\n      0x00\n        /* \"#utility.yul\":16229:16244   */\n      revert\n        /* \"#utility.yul\":16255:16500   */\n    tag_605:\n        /* \"#utility.yul\":16322:16328   */\n      0x00\n        /* \"#utility.yul\":16375:16377   */\n      0x20\n        /* \"#utility.yul\":16363:16372   */\n      dup3\n        /* \"#utility.yul\":16354:16361   */\n      dup5\n        /* \"#utility.yul\":16350:16373   */\n      sub\n        /* \"#utility.yul\":16346:16378   */\n      slt\n        /* \"#utility.yul\":16343:16395   */\n      iszero\n      tag_751\n      jumpi\n        /* \"#utility.yul\":16391:16392   */\n      0x00\n        /* \"#utility.yul\":16388:16389   */\n      dup1\n        /* \"#utility.yul\":16381:16393   */\n      revert\n        /* \"#utility.yul\":16343:16395   */\n    tag_751:\n        /* \"#utility.yul\":16423:16432   */\n      dup2\n        /* \"#utility.yul\":16417:16433   */\n      mload\n        /* \"#utility.yul\":16442:16470   */\n      tag_478\n        /* \"#utility.yul\":16464:16469   */\n      dup2\n        /* \"#utility.yul\":16442:16470   */\n      tag_660\n      jump\t// in\n        /* \"#utility.yul\":17323:17573   */\n    tag_663:\n        /* \"#utility.yul\":17408:17409   */\n      0x00\n        /* \"#utility.yul\":17418:17531   */\n    tag_756:\n        /* \"#utility.yul\":17432:17438   */\n      dup4\n        /* \"#utility.yul\":17429:17430   */\n      dup2\n        /* \"#utility.yul\":17426:17439   */\n      lt\n        /* \"#utility.yul\":17418:17531   */\n      iszero\n      tag_758\n      jumpi\n        /* \"#utility.yul\":17508:17519   */\n      dup2\n      dup2\n      add\n        /* \"#utility.yul\":17502:17520   */\n      mload\n        /* \"#utility.yul\":17489:17500   */\n      dup4\n      dup3\n      add\n        /* \"#utility.yul\":17482:17521   */\n      mstore\n        /* \"#utility.yul\":17454:17456   */\n      0x20\n        /* \"#utility.yul\":17447:17457   */\n      add\n        /* \"#utility.yul\":17418:17531   */\n      jump(tag_756)\n    tag_758:\n      pop\n      pop\n        /* \"#utility.yul\":17565:17566   */\n      0x00\n        /* \"#utility.yul\":17547:17563   */\n      swap2\n      add\n        /* \"#utility.yul\":17540:17567   */\n      mstore\n        /* \"#utility.yul\":17323:17573   */\n      jump\t// out\n        /* \"#utility.yul\":17578:17865   */\n    tag_634:\n        /* \"#utility.yul\":17707:17710   */\n      0x00\n        /* \"#utility.yul\":17745:17751   */\n      dup3\n        /* \"#utility.yul\":17739:17752   */\n      mload\n        /* \"#utility.yul\":17761:17827   */\n      tag_760\n        /* \"#utility.yul\":17820:17826   */\n      dup2\n        /* \"#utility.yul\":17815:17818   */\n      dup5\n        /* \"#utility.yul\":17808:17812   */\n      0x20\n        /* \"#utility.yul\":17800:17806   */\n      dup8\n        /* \"#utility.yul\":17796:17813   */\n      add\n        /* \"#utility.yul\":17761:17827   */\n      tag_663\n      jump\t// in\n    tag_760:\n        /* \"#utility.yul\":17843:17859   */\n      swap2\n      swap1\n      swap2\n      add\n      swap3\n        /* \"#utility.yul\":17578:17865   */\n      swap2\n      pop\n      pop\n      jump\t// out\n        /* \"#utility.yul\":18228:18624   */\n    tag_657:\n        /* \"#utility.yul\":18377:18379   */\n      0x20\n        /* \"#utility.yul\":18366:18375   */\n      dup2\n        /* \"#utility.yul\":18359:18380   */\n      mstore\n        /* \"#utility.yul\":18340:18344   */\n      0x00\n        /* \"#utility.yul\":18409:18415   */\n      dup3\n        /* \"#utility.yul\":18403:18416   */\n      mload\n        /* \"#utility.yul\":18452:18458   */\n      dup1\n        /* \"#utility.yul\":18447:18449   */\n      0x20\n        /* \"#utility.yul\":18436:18445   */\n      dup5\n        /* \"#utility.yul\":18432:18450   */\n      add\n        /* \"#utility.yul\":18425:18459   */\n      mstore\n        /* \"#utility.yul\":18468:18547   */\n      tag_763\n        /* \"#utility.yul\":18540:18546   */\n      dup2\n        /* \"#utility.yul\":18535:18537   */\n      0x40\n        /* \"#utility.yul\":18524:18533   */\n      dup6\n        /* \"#utility.yul\":18520:18538   */\n      add\n        /* \"#utility.yul\":18515:18517   */\n      0x20\n        /* \"#utility.yul\":18507:18513   */\n      dup8\n        /* \"#utility.yul\":18503:18518   */\n      add\n        /* \"#utility.yul\":18468:18547   */\n      tag_663\n      jump\t// in\n    tag_763:\n        /* \"#utility.yul\":18608:18610   */\n      0x1f\n        /* \"#utility.yul\":18587:18602   */\n      add\n      not(0x1f)\n        /* \"#utility.yul\":18583:18612   */\n      and\n        /* \"#utility.yul\":18568:18613   */\n      swap2\n      swap1\n      swap2\n      add\n        /* \"#utility.yul\":18615:18617   */\n      0x40\n        /* \"#utility.yul\":18564:18618   */\n      add\n      swap3\n        /* \"#utility.yul\":18228:18624   */\n      swap2\n      pop\n      pop\n      jump\t// out\n\n    auxdata: 0xa264697066735822122082d60965903068a22e87818c4ce3203ec207b96bdb0909e8bfb734091e17e36064736f6c63430008120033\n}\n",
				"bytecode": {
					"linkReferences": {},
					"object": "60806040523480156200001157600080fd5b5060405162002d8638038062002d86833981016040819052620000349162000098565b6200003f3362000048565b600155620000b2565b600080546001600160a01b038381166001600160a01b0319831681178455604051919092169283917f8be0079c531659141344cd1fd0a4f28419497f9722a3daafe3b4186f6b6457e09190a35050565b600060208284031215620000ab57600080fd5b5051919050565b612cc480620000c26000396000f3fe6080604052600436106101cd5760003560e01c8063a57e3141116100f7578063ddca3f4311610095578063eb80bdae11610064578063eb80bdae1461054c578063eeacf7861461056c578063f2fde38b1461058c578063fd981c66146105ac57600080fd5b8063ddca3f4314610492578063e1444fd6146104a8578063e3676f8814610517578063e941fa781461053757600080fd5b8063b3b9aa48116100d1578063b3b9aa481461042a578063b982922e1461043d578063cd83eadc14610452578063da1d8cff1461047257600080fd5b8063a57e3141146103ca578063aec640c6146103ea578063aef0e5401461040a57600080fd5b80636198e3391161016f57806376c128221161013e57806376c12822146103285780637e6706d3146103555780638da5cb5b14610382578063a20b8c18146103aa57600080fd5b80636198e339146102be57806364be5b39146102e057806369fe0e2d146102f3578063715018a61461031357600080fd5b8063332f26d7116101ab578063332f26d714610247578063475831c8146102745780635fbdf73914610289578063618df7a31461029e57600080fd5b806307873ef1146101d25780630d4f581a146102055780631982242c14610232575b600080fd5b3480156101de57600080fd5b506101f26101ed366004612824565b6105c1565b6040519081526020015b60405180910390f35b34801561021157600080fd5b50610225610220366004612841565b6105e8565b6040516101fc91906128a2565b34801561023e57600080fd5b506101f261066c565b34801561025357600080fd5b506102676102623660046128b0565b61068d565b6040516101fc91906128e5565b34801561028057600080fd5b506101f2610847565b34801561029557600080fd5b50610267610853565b3480156102aa57600080fd5b506102256102b9366004612927565b6108f4565b3480156102ca57600080fd5b506102de6102d9366004612841565b6109e8565b005b6101f26102ee366004612961565b610c81565b3480156102ff57600080fd5b506102de61030e366004612841565b610efa565b34801561031f57600080fd5b506102de610f07565b34801561033457600080fd5b506103486103433660046129bc565b610f1b565b6040516101fc91906129de565b34801561036157600080fd5b50610375610370366004612841565b611072565b6040516101fc9190612a42565b34801561038e57600080fd5b506000546040516001600160a01b0390911681526020016101fc565b3480156103b657600080fd5b506103756103c5366004612841565b6110e9565b3480156103d657600080fd5b506102de6103e5366004612841565b611115565b3480156103f657600080fd5b506103486104053660046129bc565b611133565b34801561041657600080fd5b50610267610425366004612824565b61127f565b6102de610438366004612a71565b6113da565b34801561044957600080fd5b506101f26116ba565b34801561045e57600080fd5b506101f261046d366004612824565b6116c6565b34801561047e57600080fd5b5061026761048d366004612824565b6116e4565b34801561049e57600080fd5b506101f260015481565b3480156104b457600080fd5b506104f16104c3366004612824565b6009602052600090815260409020805460018201546002909201546001600160a01b03918216929091169083565b604080516001600160a01b039485168152939092166020840152908201526060016101fc565b34801561052357600080fd5b506101f2610532366004612824565b611837565b34801561054357600080fd5b506102de611858565b34801561055857600080fd5b506101f2610567366004612824565b611885565b34801561057857600080fd5b50610225610587366004612927565b6118a6565b34801561059857600080fd5b506102de6105a7366004612824565b61191a565b3480156105b857600080fd5b506002546101f2565b6001600160a01b03811660009081526003602052604081206105e290611990565b92915050565b6105f06127c7565b6002828154811061060357610603612a9d565b60009182526020918290206040805160c08101825260069093029091018054835260018101546001600160a01b0390811694840194909452600281015490931690820152600382015460608201526004820154608082015260059091015460a082015292915050565b6000610676610847565b61067e6116ba565b6106889190612ac9565b905090565b6001600160a01b0383166000908152600a602052604090206060906106b190611990565b82106106e8576001600160a01b0384166000908152600a602052604090206001906106db90611990565b6106e59190612adc565b91505b60006106f48484612adc565b6106ff906001612ac9565b905060008167ffffffffffffffff81111561071c5761071c612aef565b60405190808252806020026020018201604052801561075557816020015b6107426127c7565b81526020019060019003908161073a5790505b5090506000855b85811161083b576001600160a01b0388166000908152600a60205260409020600290610788908361199a565b8154811061079857610798612a9d565b60009182526020918290206040805160c08101825260069093029091018054835260018101546001600160a01b0390811694840194909452600281015490931690820152600382015460608201526004820154608082015260059091015460a0820152835184908490811061080f5761080f612a9d565b6020026020010181905250818061082590612b05565b925050808061083390612b05565b91505061075c565b50909695505050505050565b60006106886007611990565b60606002805480602002602001604051908101604052809291908181526020016000905b828210156108eb5760008481526020908190206040805160c08101825260068602909201805483526001808201546001600160a01b03908116858701526002830154169284019290925260038101546060840152600481015460808401526005015460a08301529083529092019101610877565b50505050905090565b6108fc6127c7565b8161090684611885565b116109485760405162461bcd60e51b815260206004820152600d60248201526c092dcecc2d8d2c840d2dcc8caf609b1b60448201526064015b60405180910390fd5b6001600160a01b038316600090815260046020526040902060029061096d908461199a565b8154811061097d5761097d612a9d565b60009182526020918290206040805160c08101825260069093029091018054835260018101546001600160a01b0390811694840194909452600281015490931690820152600382015460608201526004820154608082015260059091015460a0820152905092915050565b60025481908110610a0b5760405162461bcd60e51b815260040161093f90612b1e565b600060028381548110610a2057610a20612a9d565b600091825260209091206002600690920201908101549091506001600160a01b03163314610a605760405162461bcd60e51b815260040161093f90612b47565b8060050154421015610ab45760405162461bcd60e51b815260206004820152601860248201527f4974206973206e6f742074696d6520746f20756e6c6f636b0000000000000000604482015260640161093f565b6000816003015411610afc5760405162461bcd60e51b81526020600482015260116024820152704e6f7468696e6720746f20756e6c6f636b60781b604482015260640161093f565b6001808201546001600160a01b039081166000908152600960205260409020918201541615801590610b4757336000908152600360205260409020610b4190866119ad565b50610b62565b336000908152600460205260409020610b6090866119ad565b505b600383015460028301548110610b7e5760006002840155610b94565b808360020154610b8e9190612adc565b60028401555b8260020154600003610be2578115610bc6576001840154610bc0906005906001600160a01b03166119b9565b50610be2565b6001840154610be0906007906001600160a01b03166119b9565b505b600060038501819055845460018601546001600160a01b03168252600a6020526040909120610c10916119ad565b506001840154610c2a906001600160a01b031633836119ce565b835460018501546040517fc6532367992b32e42a62dd89fc3574876d97d081a263aa6e030f34b79b7e6e8b91610c71916001600160a01b0390911690339086904290612b89565b60405180910390a2505050505050565b60006001543414610cba5760405162461bcd60e51b815260206004820152600360248201526246656560e81b604482015260640161093f565b428211610d1a5760405162461bcd60e51b815260206004820152602860248201527f556e6c6f636b20646174652073686f756c642062652061667465722063757272604482015267656e742074696d6560c01b606482015260840161093f565b60008311610d6a5760405162461bcd60e51b815260206004820152601f60248201527f416d6f756e742073686f756c642062652067726561746572207468616e203000604482015260640161093f565b8315610e98576000856001600160a01b031663c45a01556040518163ffffffff1660e01b8152600401602060405180830381865afa925050508015610dcc575060408051601f3d908101601f19168201909252610dc991810190612bb2565b60015b610e185760405162461bcd60e51b815260206004820152601c60248201527f5468697320746f6b656e206973206e6f742061204c5020746f6b656e00000000604482015260640161093f565b90506001600160a01b03811615801590610e375750610e378682611a36565b610e835760405162461bcd60e51b815260206004820152601d60248201527f5468697320746f6b656e206973206e6f742061204c5020746f6b656e2e000000604482015260640161093f565b610e908787838787611b99565b915050610ea7565b610ea486868585611c6a565b90505b610eb385333086611d34565b807f694af1cc8727cdd0afbdd53d9b87b69248bd490224e9dd090e788546506e076f86888686604051610ee99493929190612b89565b60405180910390a295945050505050565b610f02611e89565b600155565b610f0f611e89565b610f196000611ee3565b565b6060610f276007611990565b8210610f46576001610f396007611990565b610f439190612adc565b91505b6000610f528484612adc565b610f5d906001612ac9565b905060008167ffffffffffffffff811115610f7a57610f7a612aef565b604051908082528060200260200182016040528015610fc557816020015b6040805160608101825260008082526020808301829052928201528252600019909201910181610f985790505b5090506000855b8581116110675760096000610fe260078461199a565b6001600160a01b0390811682526020808301939093526040918201600020825160608101845281548316815260018201549092169382019390935260029092015490820152835184908490811061103b5761103b612a9d565b6020026020010181905250818061105190612b05565b925050808061105f90612b05565b915050610fcc565b509095945050505050565b60408051606081018252600080825260208201819052918101919091526009600061109e60078561199a565b6001600160a01b039081168252602080830193909352604091820160002082516060810184528154831681526001820154909216938201939093526002909201549082015292915050565b60408051606081018252600080825260208201819052918101919091526009600061109e60058561199a565b6111308161112b6000546001600160a01b031690565b611f33565b50565b606061113f6005611990565b821061115e5760016111516005611990565b61115b9190612adc565b91505b600061116a8484612adc565b611175906001612ac9565b905060008167ffffffffffffffff81111561119257611192612aef565b6040519080825280602002602001820160405280156111dd57816020015b60408051606081018252600080825260208083018290529282015282526000199092019101816111b05790505b5090506000855b85811161106757600960006111fa60058461199a565b6001600160a01b0390811682526020808301939093526040918201600020825160608101845281548316815260018201549092169382019390935260029092015490820152835184908490811061125357611253612a9d565b6020026020010181905250818061126990612b05565b925050808061127790612b05565b9150506111e4565b6001600160a01b0381166000908152600360205260408120606091906112a490611990565b905060008167ffffffffffffffff8111156112c1576112c1612aef565b6040519080825280602002602001820160405280156112fa57816020015b6112e76127c7565b8152602001906001900390816112df5790505b50905060005b828110156113d2576001600160a01b038516600090815260036020526040902060029061132d908361199a565b8154811061133d5761133d612a9d565b60009182526020918290206040805160c08101825260069093029091018054835260018101546001600160a01b0390811694840194909452600281015490931690820152600382015460608201526004820154608082015260059091015460a082015282518390839081106113b4576113b4612a9d565b602002602001018190525080806113ca90612b05565b915050611300565b509392505050565b60015434146114115760405162461bcd60e51b815260206004820152600360248201526246656560e81b604482015260640161093f565b600254839081106114345760405162461bcd60e51b815260040161093f90612b1e565b60006002858154811061144957611449612a9d565b600091825260209091206002600690920201908101549091506001600160a01b031633146114895760405162461bcd60e51b815260040161093f90612b47565b60008160030154116114d15760405162461bcd60e51b8152602060048201526011602482015270131bd8dac81dd85cc81d5b9b1bd8dad959607a1b604482015260640161093f565b821561157257806005015483101580156114ea57504283115b61156a5760405162461bcd60e51b8152602060048201526044602482018190527f4e657720756e6c6f636b2074696d652073686f756c64206e6f74206265206265908201527f666f7265206f6c6420756e6c6f636b2074696d65206f722063757272656e742060648201526374696d6560e01b608482015260a40161093f565b600581018390555b83156116565780600301548410156115e65760405162461bcd60e51b815260206004820152603160248201527f4e657720616d6f756e742073686f756c64206e6f74206265206c657373207468604482015270185b8818dd5c9c995b9d08185b5bdd5b9d607a1b606482015260840161093f565b60008160030154856115f89190612adc565b9050801561165457600182015461161a906001600160a01b0316333084611d34565b6003820185905560018201546001600160a01b03166000908152600960205260409020600281015461164d908390612ac9565b6002909101555b505b805460018201546002830154600384015460058501546040517fa8b26360df8d5e154ffa5a8a7e894e85f781acfbbef0b744fb9551d8fd0fd36c946116ab946001600160a01b03918216949116929091612b89565b60405180910390a25050505050565b60006106886005611990565b60006116d1826105c1565b6116da83611885565b6105e29190612ac9565b6001600160a01b03811660009081526004602052604081206060919061170990611990565b905060008167ffffffffffffffff81111561172657611726612aef565b60405190808252806020026020018201604052801561175f57816020015b61174c6127c7565b8152602001906001900390816117445790505b50905060005b828110156113d2576001600160a01b0385166000908152600460205260409020600290611792908361199a565b815481106117a2576117a2612a9d565b60009182526020918290206040805160c08101825260069093029091018054835260018101546001600160a01b0390811694840194909452600281015490931690820152600382015460608201526004820154608082015260059091015460a0820152825183908390811061181957611819612a9d565b6020026020010181905250808061182f90612b05565b915050611765565b6001600160a01b0381166000908152600a602052604081206105e290611990565b611860611e89565b610f19476118766000546001600160a01b031690565b6001600160a01b031690612122565b6001600160a01b03811660009081526004602052604081206105e290611990565b6118ae6127c7565b816118b8846105c1565b116118f55760405162461bcd60e51b815260206004820152600d60248201526c092dcecc2d8d2c840d2dcc8caf609b1b604482015260640161093f565b6001600160a01b038316600090815260036020526040902060029061096d908461199a565b611922611e89565b6001600160a01b0381166119875760405162461bcd60e51b815260206004820152602660248201527f4f776e61626c653a206e6577206f776e657220697320746865207a65726f206160448201526564647265737360d01b606482015260840161093f565b61113081611ee3565b60006105e2825490565b60006119a6838361223b565b9392505050565b60006119a68383612265565b60006119a6836001600160a01b038416612265565b6040516001600160a01b038316602482015260448101829052611a3190849063a9059cbb60e01b906064015b60408051601f198184030181529190526020810180516001600160e01b03166001600160e01b031990931692909217909152612358565b505050565b6000808390506000836001600160a01b031663e6a43905836001600160a01b0316630dfe16816040518163ffffffff1660e01b8152600401602060405180830381865afa158015611a8b573d6000803e3d6000fd5b505050506040513d601f19601f82011682018060405250810190611aaf9190612bb2565b846001600160a01b031663d21220a76040518163ffffffff1660e01b8152600401602060405180830381865afa158015611aed573d6000803e3d6000fd5b505050506040513d601f19601f82011682018060405250810190611b119190612bb2565b6040516001600160e01b031960e085901b1681526001600160a01b03928316600482015291166024820152604401602060405180830381865afa158015611b5c573d6000803e3d6000fd5b505050506040513d601f19601f82011682018060405250810190611b809190612bb2565b6001600160a01b03908116908616149250505092915050565b6000611ba78686858561242d565b6001600160a01b0387166000908152600360205260409020909150611bcc9082612589565b50611bd8600586612595565b506001600160a01b0380861660009081526009602052604090208054909116611c285780546001600160a01b038088166001600160a01b0319928316178355600183018054918816919092161790555b838160020154611c389190612ac9565b60028201556001600160a01b0386166000908152600a60205260409020611c5f9083612589565b505095945050505050565b6000611c788585858561242d565b6001600160a01b0386166000908152600460205260409020909150611c9d9082612589565b50611ca9600785612595565b506001600160a01b0380851660009081526009602052604090208054909116611cf35780546001600160a01b0386166001600160a01b031991821617825560018201805490911690555b838160020154611d039190612ac9565b60028201556001600160a01b0385166000908152600a60205260409020611d2a9083612589565b5050949350505050565b6040516370a0823160e01b81526001600160a01b038381166004830152600091908616906370a0823190602401602060405180830381865afa158015611d7e573d6000803e3d6000fd5b505050506040513d601f19601f82011682018060405250810190611da29190612bcf565b9050611db96001600160a01b0386168585856125aa565b6040516370a0823160e01b81526001600160a01b038481166004830152600091908716906370a0823190602401602060405180830381865afa158015611e03573d6000803e3d6000fd5b505050506040513d601f19601f82011682018060405250810190611e279190612bcf565b905082611e348383612adc565b14611e815760405162461bcd60e51b815260206004820152601f60248201527f4e6f7420656e6f75676820746f6b656e20776173207472616e73666572656400604482015260640161093f565b505050505050565b6000546001600160a01b03163314610f195760405162461bcd60e51b815260206004820181905260248201527f4f776e61626c653a2063616c6c6572206973206e6f7420746865206f776e6572604482015260640161093f565b600080546001600160a01b038381166001600160a01b0319831681178455604051919092169283917f8be0079c531659141344cd1fd0a4f28419497f9722a3daafe3b4186f6b6457e09190a35050565b60025482908110611f565760405162461bcd60e51b815260040161093f90612b1e565b600060028481548110611f6b57611f6b612a9d565b6000918252602090912060069091020160028101549091506001600160a01b0316338114611fab5760405162461bcd60e51b815260040161093f90612b47565b8160030154600003611ff75760405162461bcd60e51b8152602060048201526015602482015274546865206c6f636b20686173206e6f2076616c756560581b604482015260640161093f565b6002820180546001600160a01b0319166001600160a01b0386811691909117909155600180840154821660009081526009602052604090209081015490911615801590612089576001600160a01b038316600090815260036020526040902061206090886119ad565b506001600160a01b03861660009081526003602052604090206120839088612589565b506120d0565b6001600160a01b03831660009081526004602052604090206120ab90886119ad565b506001600160a01b03861660009081526004602052604090206120ce9088612589565b505b604080518881526001600160a01b03858116602083015288168183015290517f9075ad040756c0d8743a1fed927066a92c4755071615bf61e04b17583d961caf9181900360600190a150505050505050565b804710156121725760405162461bcd60e51b815260206004820152601d60248201527f416464726573733a20696e73756666696369656e742062616c616e6365000000604482015260640161093f565b6000826001600160a01b03168260405160006040518083038185875af1925050503d80600081146121bf576040519150601f19603f3d011682016040523d82523d6000602084013e6121c4565b606091505b5050905080611a315760405162461bcd60e51b815260206004820152603a60248201527f416464726573733a20756e61626c6520746f2073656e642076616c75652c207260448201527f6563697069656e74206d61792068617665207265766572746564000000000000606482015260840161093f565b600082600001828154811061225257612252612a9d565b9060005260206000200154905092915050565b6000818152600183016020526040812054801561234e576000612289600183612adc565b855490915060009061229d90600190612adc565b90508181146123025760008660000182815481106122bd576122bd612a9d565b90600052602060002001549050808760000184815481106122e0576122e0612a9d565b6000918252602080832090910192909255918252600188019052604090208390555b855486908061231357612313612be8565b6001900381819060005260206000200160009055905585600101600086815260200190815260200160002060009055600193505050506105e2565b60009150506105e2565b60006123ad826040518060400160405280602081526020017f5361666545524332303a206c6f772d6c6576656c2063616c6c206661696c6564815250856001600160a01b03166125e89092919063ffffffff16565b90508051600014806123ce5750808060200190518101906123ce9190612bfe565b611a315760405162461bcd60e51b815260206004820152602a60248201527f5361666545524332303a204552433230206f7065726174696f6e20646964206e6044820152691bdd081cdd58d8d9595960b21b606482015260840161093f565b600280546040805160c0810182528281526001600160a01b039687166020820190815297871691810191825260608101958652426080820190815260a0820195865260018401855560009490945251600683027f405787fa12a823e0f2b7631cc41b3ba8828b3321ca811111fa75cd3aa3bb5ace81019190915596517f405787fa12a823e0f2b7631cc41b3ba8828b3321ca811111fa75cd3aa3bb5acf880180549188166001600160a01b031992831617905590517f405787fa12a823e0f2b7631cc41b3ba8828b3321ca811111fa75cd3aa3bb5ad0880180549190971691161790945591517f405787fa12a823e0f2b7631cc41b3ba8828b3321ca811111fa75cd3aa3bb5ad185015590517f405787fa12a823e0f2b7631cc41b3ba8828b3321ca811111fa75cd3aa3bb5ad2840155517f405787fa12a823e0f2b7631cc41b3ba8828b3321ca811111fa75cd3aa3bb5ad39092019190915590565b60006119a683836125ff565b60006119a6836001600160a01b0384166125ff565b6040516001600160a01b03808516602483015283166044820152606481018290526125e29085906323b872dd60e01b906084016119fa565b50505050565b60606125f7848460008561264e565b949350505050565b6000818152600183016020526040812054612646575081546001818101845560008481526020808220909301849055845484825282860190935260409020919091556105e2565b5060006105e2565b6060824710156126af5760405162461bcd60e51b815260206004820152602660248201527f416464726573733a20696e73756666696369656e742062616c616e636520666f6044820152651c8818d85b1b60d21b606482015260840161093f565b600080866001600160a01b031685876040516126cb9190612c3f565b60006040518083038185875af1925050503d8060008114612708576040519150601f19603f3d011682016040523d82523d6000602084013e61270d565b606091505b509150915061271e87838387612729565b979650505050505050565b60608315612798578251600003612791576001600160a01b0385163b6127915760405162461bcd60e51b815260206004820152601d60248201527f416464726573733a2063616c6c20746f206e6f6e2d636f6e7472616374000000604482015260640161093f565b50816125f7565b6125f783838151156127ad5781518083602001fd5b8060405162461bcd60e51b815260040161093f9190612c5b565b6040518060c001604052806000815260200160006001600160a01b0316815260200160006001600160a01b031681526020016000815260200160008152602001600081525090565b6001600160a01b038116811461113057600080fd5b60006020828403121561283657600080fd5b81356119a68161280f565b60006020828403121561285357600080fd5b5035919050565b80518252602081015160018060a01b0380821660208501528060408401511660408501525050606081015160608301526080810151608083015260a081015160a08301525050565b60c081016105e2828461285a565b6000806000606084860312156128c557600080fd5b83356128d08161280f565b95602085013595506040909401359392505050565b6020808252825182820181905260009190848201906040850190845b8181101561083b5761291483855161285a565b9284019260c09290920191600101612901565b6000806040838503121561293a57600080fd5b82356129458161280f565b946020939093013593505050565b801515811461113057600080fd5b600080600080600060a0868803121561297957600080fd5b85356129848161280f565b945060208601356129948161280f565b935060408601356129a481612953565b94979396509394606081013594506080013592915050565b600080604083850312156129cf57600080fd5b50508035926020909101359150565b6020808252825182820181905260009190848201906040850190845b8181101561083b57612a2f83855180516001600160a01b03908116835260208083015190911690830152604090810151910152565b92840192606092909201916001016129fa565b81516001600160a01b0390811682526020808401519091169082015260408083015190820152606081016105e2565b600080600060608486031215612a8657600080fd5b505081359360208301359350604090920135919050565b634e487b7160e01b600052603260045260246000fd5b634e487b7160e01b600052601160045260246000fd5b808201808211156105e2576105e2612ab3565b818103818111156105e2576105e2612ab3565b634e487b7160e01b600052604160045260246000fd5b600060018201612b1757612b17612ab3565b5060010190565b6020808252600f908201526e125b9d985b1a59081b1bd8dac81a59608a1b604082015260600190565b60208082526022908201527f596f7520617265206e6f7420746865206f776e6572206f662074686973206c6f604082015261636b60f01b606082015260800190565b6001600160a01b0394851681529290931660208301526040820152606081019190915260800190565b600060208284031215612bc457600080fd5b81516119a68161280f565b600060208284031215612be157600080fd5b5051919050565b634e487b7160e01b600052603160045260246000fd5b600060208284031215612c1057600080fd5b81516119a681612953565b60005b83811015612c36578181015183820152602001612c1e565b50506000910152565b60008251612c51818460208701612c1b565b9190910192915050565b6020815260008251806020840152612c7a816040850160208701612c1b565b601f01601f1916919091016040019291505056fea264697066735822122082d60965903068a22e87818c4ce3203ec207b96bdb0909e8bfb734091e17e36064736f6c63430008120033",
					"opcodes": "PUSH1 0x80 PUSH1 0x40 MSTORE CALLVALUE DUP1 ISZERO PUSH3 0x11 JUMPI PUSH1 0x0 DUP1 REVERT JUMPDEST POP PUSH1 0x40 MLOAD PUSH3 0x2D86 CODESIZE SUB DUP1 PUSH3 0x2D86 DUP4 CODECOPY DUP2 ADD PUSH1 0x40 DUP2 SWAP1 MSTORE PUSH3 0x34 SWAP2 PUSH3 0x98 JUMP JUMPDEST PUSH3 0x3F CALLER PUSH3 0x48 JUMP JUMPDEST PUSH1 0x1 SSTORE PUSH3 0xB2 JUMP JUMPDEST PUSH1 0x0 DUP1 SLOAD PUSH1 0x1 PUSH1 0x1 PUSH1 0xA0 SHL SUB DUP4 DUP2 AND PUSH1 0x1 PUSH1 0x1 PUSH1 0xA0 SHL SUB NOT DUP4 AND DUP2 OR DUP5 SSTORE PUSH1 0x40 MLOAD SWAP2 SWAP1 SWAP3 AND SWAP3 DUP4 SWAP2 PUSH32 0x8BE0079C531659141344CD1FD0A4F28419497F9722A3DAAFE3B4186F6B6457E0 SWAP2 SWAP1 LOG3 POP POP JUMP JUMPDEST PUSH1 0x0 PUSH1 0x20 DUP3 DUP5 SUB SLT ISZERO PUSH3 0xAB JUMPI PUSH1 0x0 DUP1 REVERT JUMPDEST POP MLOAD SWAP2 SWAP1 POP JUMP JUMPDEST PUSH2 0x2CC4 DUP1 PUSH3 0xC2 PUSH1 0x0 CODECOPY PUSH1 0x0 RETURN INVALID PUSH1 0x80 PUSH1 0x40 MSTORE PUSH1 0x4 CALLDATASIZE LT PUSH2 0x1CD JUMPI PUSH1 0x0 CALLDATALOAD PUSH1 0xE0 SHR DUP1 PUSH4 0xA57E3141 GT PUSH2 0xF7 JUMPI DUP1 PUSH4 0xDDCA3F43 GT PUSH2 0x95 JUMPI DUP1 PUSH4 0xEB80BDAE GT PUSH2 0x64 JUMPI DUP1 PUSH4 0xEB80BDAE EQ PUSH2 0x54C JUMPI DUP1 PUSH4 0xEEACF786 EQ PUSH2 0x56C JUMPI DUP1 PUSH4 0xF2FDE38B EQ PUSH2 0x58C JUMPI DUP1 PUSH4 0xFD981C66 EQ PUSH2 0x5AC JUMPI PUSH1 0x0 DUP1 REVERT JUMPDEST DUP1 PUSH4 0xDDCA3F43 EQ PUSH2 0x492 JUMPI DUP1 PUSH4 0xE1444FD6 EQ PUSH2 0x4A8 JUMPI DUP1 PUSH4 0xE3676F88 EQ PUSH2 0x517 JUMPI DUP1 PUSH4 0xE941FA78 EQ PUSH2 0x537 JUMPI PUSH1 0x0 DUP1 REVERT JUMPDEST DUP1 PUSH4 0xB3B9AA48 GT PUSH2 0xD1 JUMPI DUP1 PUSH4 0xB3B9AA48 EQ PUSH2 0x42A JUMPI DUP1 PUSH4 0xB982922E EQ PUSH2 0x43D JUMPI DUP1 PUSH4 0xCD83EADC EQ PUSH2 0x452 JUMPI DUP1 PUSH4 0xDA1D8CFF EQ PUSH2 0x472 JUMPI PUSH1 0x0 DUP1 REVERT JUMPDEST DUP1 PUSH4 0xA57E3141 EQ PUSH2 0x3CA JUMPI DUP1 PUSH4 0xAEC640C6 EQ PUSH2 0x3EA JUMPI DUP1 PUSH4 0xAEF0E540 EQ PUSH2 0x40A JUMPI PUSH1 0x0 DUP1 REVERT JUMPDEST DUP1 PUSH4 0x6198E339 GT PUSH2 0x16F JUMPI DUP1 PUSH4 0x76C12822 GT PUSH2 0x13E JUMPI DUP1 PUSH4 0x76C12822 EQ PUSH2 0x328 JUMPI DUP1 PUSH4 0x7E6706D3 EQ PUSH2 0x355 JUMPI DUP1 PUSH4 0x8DA5CB5B EQ PUSH2 0x382 JUMPI DUP1 PUSH4 0xA20B8C18 EQ PUSH2 0x3AA JUMPI PUSH1 0x0 DUP1 REVERT JUMPDEST DUP1 PUSH4 0x6198E339 EQ PUSH2 0x2BE JUMPI DUP1 PUSH4 0x64BE5B39 EQ PUSH2 0x2E0 JUMPI DUP1 PUSH4 0x69FE0E2D EQ PUSH2 0x2F3 JUMPI DUP1 PUSH4 0x715018A6 EQ PUSH2 0x313 JUMPI PUSH1 0x0 DUP1 REVERT JUMPDEST DUP1 PUSH4 0x332F26D7 GT PUSH2 0x1AB JUMPI DUP1 PUSH4 0x332F26D7 EQ PUSH2 0x247 JUMPI DUP1 PUSH4 0x475831C8 EQ PUSH2 0x274 JUMPI DUP1 PUSH4 0x5FBDF739 EQ PUSH2 0x289 JUMPI DUP1 PUSH4 0x618DF7A3 EQ PUSH2 0x29E JUMPI PUSH1 0x0 DUP1 REVERT JUMPDEST DUP1 PUSH4 0x7873EF1 EQ PUSH2 0x1D2 JUMPI DUP1 PUSH4 0xD4F581A EQ PUSH2 0x205 JUMPI DUP1 PUSH4 0x1982242C EQ PUSH2 0x232 JUMPI JUMPDEST PUSH1 0x0 DUP1 REVERT JUMPDEST CALLVALUE DUP1 ISZERO PUSH2 0x1DE JUMPI PUSH1 0x0 DUP1 REVERT JUMPDEST POP PUSH2 0x1F2 PUSH2 0x1ED CALLDATASIZE PUSH1 0x4 PUSH2 0x2824 JUMP JUMPDEST PUSH2 0x5C1 JUMP JUMPDEST PUSH1 0x40 MLOAD SWAP1 DUP2 MSTORE PUSH1 0x20 ADD JUMPDEST PUSH1 0x40 MLOAD DUP1 SWAP2 SUB SWAP1 RETURN JUMPDEST CALLVALUE DUP1 ISZERO PUSH2 0x211 JUMPI PUSH1 0x0 DUP1 REVERT JUMPDEST POP PUSH2 0x225 PUSH2 0x220 CALLDATASIZE PUSH1 0x4 PUSH2 0x2841 JUMP JUMPDEST PUSH2 0x5E8 JUMP JUMPDEST PUSH1 0x40 MLOAD PUSH2 0x1FC SWAP2 SWAP1 PUSH2 0x28A2 JUMP JUMPDEST CALLVALUE DUP1 ISZERO PUSH2 0x23E JUMPI PUSH1 0x0 DUP1 REVERT JUMPDEST POP PUSH2 0x1F2 PUSH2 0x66C JUMP JUMPDEST CALLVALUE DUP1 ISZERO PUSH2 0x253 JUMPI PUSH1 0x0 DUP1 REVERT JUMPDEST POP PUSH2 0x267 PUSH2 0x262 CALLDATASIZE PUSH1 0x4 PUSH2 0x28B0 JUMP JUMPDEST PUSH2 0x68D JUMP JUMPDEST PUSH1 0x40 MLOAD PUSH2 0x1FC SWAP2 SWAP1 PUSH2 0x28E5 JUMP JUMPDEST CALLVALUE DUP1 ISZERO PUSH2 0x280 JUMPI PUSH1 0x0 DUP1 REVERT JUMPDEST POP PUSH2 0x1F2 PUSH2 0x847 JUMP JUMPDEST CALLVALUE DUP1 ISZERO PUSH2 0x295 JUMPI PUSH1 0x0 DUP1 REVERT JUMPDEST POP PUSH2 0x267 PUSH2 0x853 JUMP JUMPDEST CALLVALUE DUP1 ISZERO PUSH2 0x2AA JUMPI PUSH1 0x0 DUP1 REVERT JUMPDEST POP PUSH2 0x225 PUSH2 0x2B9 CALLDATASIZE PUSH1 0x4 PUSH2 0x2927 JUMP JUMPDEST PUSH2 0x8F4 JUMP JUMPDEST CALLVALUE DUP1 ISZERO PUSH2 0x2CA JUMPI PUSH1 0x0 DUP1 REVERT JUMPDEST POP PUSH2 0x2DE PUSH2 0x2D9 CALLDATASIZE PUSH1 0x4 PUSH2 0x2841 JUMP JUMPDEST PUSH2 0x9E8 JUMP JUMPDEST STOP JUMPDEST PUSH2 0x1F2 PUSH2 0x2EE CALLDATASIZE PUSH1 0x4 PUSH2 0x2961 JUMP JUMPDEST PUSH2 0xC81 JUMP JUMPDEST CALLVALUE DUP1 ISZERO PUSH2 0x2FF JUMPI PUSH1 0x0 DUP1 REVERT JUMPDEST POP PUSH2 0x2DE PUSH2 0x30E CALLDATASIZE PUSH1 0x4 PUSH2 0x2841 JUMP JUMPDEST PUSH2 0xEFA JUMP JUMPDEST CALLVALUE DUP1 ISZERO PUSH2 0x31F JUMPI PUSH1 0x0 DUP1 REVERT JUMPDEST POP PUSH2 0x2DE PUSH2 0xF07 JUMP JUMPDEST CALLVALUE DUP1 ISZERO PUSH2 0x334 JUMPI PUSH1 0x0 DUP1 REVERT JUMPDEST POP PUSH2 0x348 PUSH2 0x343 CALLDATASIZE PUSH1 0x4 PUSH2 0x29BC JUMP JUMPDEST PUSH2 0xF1B JUMP JUMPDEST PUSH1 0x40 MLOAD PUSH2 0x1FC SWAP2 SWAP1 PUSH2 0x29DE JUMP JUMPDEST CALLVALUE DUP1 ISZERO PUSH2 0x361 JUMPI PUSH1 0x0 DUP1 REVERT JUMPDEST POP PUSH2 0x375 PUSH2 0x370 CALLDATASIZE PUSH1 0x4 PUSH2 0x2841 JUMP JUMPDEST PUSH2 0x1072 JUMP JUMPDEST PUSH1 0x40 MLOAD PUSH2 0x1FC SWAP2 SWAP1 PUSH2 0x2A42 JUMP JUMPDEST CALLVALUE DUP1 ISZERO PUSH2 0x38E JUMPI PUSH1 0x0 DUP1 REVERT JUMPDEST POP PUSH1 0x0 SLOAD PUSH1 0x40 MLOAD PUSH1 0x1 PUSH1 0x1 PUSH1 0xA0 SHL SUB SWAP1 SWAP2 AND DUP2 MSTORE PUSH1 0x20 ADD PUSH2 0x1FC JUMP JUMPDEST CALLVALUE DUP1 ISZERO PUSH2 0x3B6 JUMPI PUSH1 0x0 DUP1 REVERT JUMPDEST POP PUSH2 0x375 PUSH2 0x3C5 CALLDATASIZE PUSH1 0x4 PUSH2 0x2841 JUMP JUMPDEST PUSH2 0x10E9 JUMP JUMPDEST CALLVALUE DUP1 ISZERO PUSH2 0x3D6 JUMPI PUSH1 0x0 DUP1 REVERT JUMPDEST POP PUSH2 0x2DE PUSH2 0x3E5 CALLDATASIZE PUSH1 0x4 PUSH2 0x2841 JUMP JUMPDEST PUSH2 0x1115 JUMP JUMPDEST CALLVALUE DUP1 ISZERO PUSH2 0x3F6 JUMPI PUSH1 0x0 DUP1 REVERT JUMPDEST POP PUSH2 0x348 PUSH2 0x405 CALLDATASIZE PUSH1 0x4 PUSH2 0x29BC JUMP JUMPDEST PUSH2 0x1133 JUMP JUMPDEST CALLVALUE DUP1 ISZERO PUSH2 0x416 JUMPI PUSH1 0x0 DUP1 REVERT JUMPDEST POP PUSH2 0x267 PUSH2 0x425 CALLDATASIZE PUSH1 0x4 PUSH2 0x2824 JUMP JUMPDEST PUSH2 0x127F JUMP JUMPDEST PUSH2 0x2DE PUSH2 0x438 CALLDATASIZE PUSH1 0x4 PUSH2 0x2A71 JUMP JUMPDEST PUSH2 0x13DA JUMP JUMPDEST CALLVALUE DUP1 ISZERO PUSH2 0x449 JUMPI PUSH1 0x0 DUP1 REVERT JUMPDEST POP PUSH2 0x1F2 PUSH2 0x16BA JUMP JUMPDEST CALLVALUE DUP1 ISZERO PUSH2 0x45E JUMPI PUSH1 0x0 DUP1 REVERT JUMPDEST POP PUSH2 0x1F2 PUSH2 0x46D CALLDATASIZE PUSH1 0x4 PUSH2 0x2824 JUMP JUMPDEST PUSH2 0x16C6 JUMP JUMPDEST CALLVALUE DUP1 ISZERO PUSH2 0x47E JUMPI PUSH1 0x0 DUP1 REVERT JUMPDEST POP PUSH2 0x267 PUSH2 0x48D CALLDATASIZE PUSH1 0x4 PUSH2 0x2824 JUMP JUMPDEST PUSH2 0x16E4 JUMP JUMPDEST CALLVALUE DUP1 ISZERO PUSH2 0x49E JUMPI PUSH1 0x0 DUP1 REVERT JUMPDEST POP PUSH2 0x1F2 PUSH1 0x1 SLOAD DUP2 JUMP JUMPDEST CALLVALUE DUP1 ISZERO PUSH2 0x4B4 JUMPI PUSH1 0x0 DUP1 REVERT JUMPDEST POP PUSH2 0x4F1 PUSH2 0x4C3 CALLDATASIZE PUSH1 0x4 PUSH2 0x2824 JUMP JUMPDEST PUSH1 0x9 PUSH1 0x20 MSTORE PUSH1 0x0 SWAP1 DUP2 MSTORE PUSH1 0x40 SWAP1 KECCAK256 DUP1 SLOAD PUSH1 0x1 DUP3 ADD SLOAD PUSH1 0x2 SWAP1 SWAP3 ADD SLOAD PUSH1 0x1 PUSH1 0x1 PUSH1 0xA0 SHL SUB SWAP2 DUP3 AND SWAP3 SWAP1 SWAP2 AND SWAP1 DUP4 JUMP JUMPDEST PUSH1 0x40 DUP1 MLOAD PUSH1 0x1 PUSH1 0x1 PUSH1 0xA0 SHL SUB SWAP5 DUP6 AND DUP2 MSTORE SWAP4 SWAP1 SWAP3 AND PUSH1 0x20 DUP5 ADD MSTORE SWAP1 DUP3 ADD MSTORE PUSH1 0x60 ADD PUSH2 0x1FC JUMP JUMPDEST CALLVALUE DUP1 ISZERO PUSH2 0x523 JUMPI PUSH1 0x0 DUP1 REVERT JUMPDEST POP PUSH2 0x1F2 PUSH2 0x532 CALLDATASIZE PUSH1 0x4 PUSH2 0x2824 JUMP JUMPDEST PUSH2 0x1837 JUMP JUMPDEST CALLVALUE DUP1 ISZERO PUSH2 0x543 JUMPI PUSH1 0x0 DUP1 REVERT JUMPDEST POP PUSH2 0x2DE PUSH2 0x1858 JUMP JUMPDEST CALLVALUE DUP1 ISZERO PUSH2 0x558 JUMPI PUSH1 0x0 DUP1 REVERT JUMPDEST POP PUSH2 0x1F2 PUSH2 0x567 CALLDATASIZE PUSH1 0x4 PUSH2 0x2824 JUMP JUMPDEST PUSH2 0x1885 JUMP JUMPDEST CALLVALUE DUP1 ISZERO PUSH2 0x578 JUMPI PUSH1 0x0 DUP1 REVERT JUMPDEST POP PUSH2 0x225 PUSH2 0x587 CALLDATASIZE PUSH1 0x4 PUSH2 0x2927 JUMP JUMPDEST PUSH2 0x18A6 JUMP JUMPDEST CALLVALUE DUP1 ISZERO PUSH2 0x598 JUMPI PUSH1 0x0 DUP1 REVERT JUMPDEST POP PUSH2 0x2DE PUSH2 0x5A7 CALLDATASIZE PUSH1 0x4 PUSH2 0x2824 JUMP JUMPDEST PUSH2 0x191A JUMP JUMPDEST CALLVALUE DUP1 ISZERO PUSH2 0x5B8 JUMPI PUSH1 0x0 DUP1 REVERT JUMPDEST POP PUSH1 0x2 SLOAD PUSH2 0x1F2 JUMP JUMPDEST PUSH1 0x1 PUSH1 0x1 PUSH1 0xA0 SHL SUB DUP2 AND PUSH1 0x0 SWAP1 DUP2 MSTORE PUSH1 0x3 PUSH1 0x20 MSTORE PUSH1 0x40 DUP2 KECCAK256 PUSH2 0x5E2 SWAP1 PUSH2 0x1990 JUMP JUMPDEST SWAP3 SWAP2 POP POP JUMP JUMPDEST PUSH2 0x5F0 PUSH2 0x27C7 JUMP JUMPDEST PUSH1 0x2 DUP3 DUP2 SLOAD DUP2 LT PUSH2 0x603 JUMPI PUSH2 0x603 PUSH2 0x2A9D JUMP JUMPDEST PUSH1 0x0 SWAP2 DUP3 MSTORE PUSH1 0x20 SWAP2 DUP3 SWAP1 KECCAK256 PUSH1 0x40 DUP1 MLOAD PUSH1 0xC0 DUP2 ADD DUP3 MSTORE PUSH1 0x6 SWAP1 SWAP4 MUL SWAP1 SWAP2 ADD DUP1 SLOAD DUP4 MSTORE PUSH1 0x1 DUP2 ADD SLOAD PUSH1 0x1 PUSH1 0x1 PUSH1 0xA0 SHL SUB SWAP1 DUP2 AND SWAP5 DUP5 ADD SWAP5 SWAP1 SWAP5 MSTORE PUSH1 0x2 DUP2 ADD SLOAD SWAP1 SWAP4 AND SWAP1 DUP3 ADD MSTORE PUSH1 0x3 DUP3 ADD SLOAD PUSH1 0x60 DUP3 ADD MSTORE PUSH1 0x4 DUP3 ADD SLOAD PUSH1 0x80 DUP3 ADD MSTORE PUSH1 0x5 SWAP1 SWAP2 ADD SLOAD PUSH1 0xA0 DUP3 ADD MSTORE SWAP3 SWAP2 POP POP JUMP JUMPDEST PUSH1 0x0 PUSH2 0x676 PUSH2 0x847 JUMP JUMPDEST PUSH2 0x67E PUSH2 0x16BA JUMP JUMPDEST PUSH2 0x688 SWAP2 SWAP1 PUSH2 0x2AC9 JUMP JUMPDEST SWAP1 POP SWAP1 JUMP JUMPDEST PUSH1 0x1 PUSH1 0x1 PUSH1 0xA0 SHL SUB DUP4 AND PUSH1 0x0 SWAP1 DUP2 MSTORE PUSH1 0xA PUSH1 0x20 MSTORE PUSH1 0x40 SWAP1 KECCAK256 PUSH1 0x60 SWAP1 PUSH2 0x6B1 SWAP1 PUSH2 0x1990 JUMP JUMPDEST DUP3 LT PUSH2 0x6E8 JUMPI PUSH1 0x1 PUSH1 0x1 PUSH1 0xA0 SHL SUB DUP5 AND PUSH1 0x0 SWAP1 DUP2 MSTORE PUSH1 0xA PUSH1 0x20 MSTORE PUSH1 0x40 SWAP1 KECCAK256 PUSH1 0x1 SWAP1 PUSH2 0x6DB SWAP1 PUSH2 0x1990 JUMP JUMPDEST PUSH2 0x6E5 SWAP2 SWAP1 PUSH2 0x2ADC JUMP JUMPDEST SWAP2 POP JUMPDEST PUSH1 0x0 PUSH2 0x6F4 DUP5 DUP5 PUSH2 0x2ADC JUMP JUMPDEST PUSH2 0x6FF SWAP1 PUSH1 0x1 PUSH2 0x2AC9 JUMP JUMPDEST SWAP1 POP PUSH1 0x0 DUP2 PUSH8 0xFFFFFFFFFFFFFFFF DUP2 GT ISZERO PUSH2 0x71C JUMPI PUSH2 0x71C PUSH2 0x2AEF JUMP JUMPDEST PUSH1 0x40 MLOAD SWAP1 DUP1 DUP3 MSTORE DUP1 PUSH1 0x20 MUL PUSH1 0x20 ADD DUP3 ADD PUSH1 0x40 MSTORE DUP1 ISZERO PUSH2 0x755 JUMPI DUP2 PUSH1 0x20 ADD JUMPDEST PUSH2 0x742 PUSH2 0x27C7 JUMP JUMPDEST DUP2 MSTORE PUSH1 0x20 ADD SWAP1 PUSH1 0x1 SWAP1 SUB SWAP1 DUP2 PUSH2 0x73A JUMPI SWAP1 POP JUMPDEST POP SWAP1 POP PUSH1 0x0 DUP6 JUMPDEST DUP6 DUP2 GT PUSH2 0x83B JUMPI PUSH1 0x1 PUSH1 0x1 PUSH1 0xA0 SHL SUB DUP9 AND PUSH1 0x0 SWAP1 DUP2 MSTORE PUSH1 0xA PUSH1 0x20 MSTORE PUSH1 0x40 SWAP1 KECCAK256 PUSH1 0x2 SWAP1 PUSH2 0x788 SWAP1 DUP4 PUSH2 0x199A JUMP JUMPDEST DUP2 SLOAD DUP2 LT PUSH2 0x798 JUMPI PUSH2 0x798 PUSH2 0x2A9D JUMP JUMPDEST PUSH1 0x0 SWAP2 DUP3 MSTORE PUSH1 0x20 SWAP2 DUP3 SWAP1 KECCAK256 PUSH1 0x40 DUP1 MLOAD PUSH1 0xC0 DUP2 ADD DUP3 MSTORE PUSH1 0x6 SWAP1 SWAP4 MUL SWAP1 SWAP2 ADD DUP1 SLOAD DUP4 MSTORE PUSH1 0x1 DUP2 ADD SLOAD PUSH1 0x1 PUSH1 0x1 PUSH1 0xA0 SHL SUB SWAP1 DUP2 AND SWAP5 DUP5 ADD SWAP5 SWAP1 SWAP5 MSTORE PUSH1 0x2 DUP2 ADD SLOAD SWAP1 SWAP4 AND SWAP1 DUP3 ADD MSTORE PUSH1 0x3 DUP3 ADD SLOAD PUSH1 0x60 DUP3 ADD MSTORE PUSH1 0x4 DUP3 ADD SLOAD PUSH1 0x80 DUP3 ADD MSTORE PUSH1 0x5 SWAP1 SWAP2 ADD SLOAD PUSH1 0xA0 DUP3 ADD MSTORE DUP4 MLOAD DUP5 SWAP1 DUP5 SWAP1 DUP2 LT PUSH2 0x80F JUMPI PUSH2 0x80F PUSH2 0x2A9D JUMP JUMPDEST PUSH1 0x20 MUL PUSH1 0x20 ADD ADD DUP2 SWAP1 MSTORE POP DUP2 DUP1 PUSH2 0x825 SWAP1 PUSH2 0x2B05 JUMP JUMPDEST SWAP3 POP POP DUP1 DUP1 PUSH2 0x833 SWAP1 PUSH2 0x2B05 JUMP JUMPDEST SWAP2 POP POP PUSH2 0x75C JUMP JUMPDEST POP SWAP1 SWAP7 SWAP6 POP POP POP POP POP POP JUMP JUMPDEST PUSH1 0x0 PUSH2 0x688 PUSH1 0x7 PUSH2 0x1990 JUMP JUMPDEST PUSH1 0x60 PUSH1 0x2 DUP1 SLOAD DUP1 PUSH1 0x20 MUL PUSH1 0x20 ADD PUSH1 0x40 MLOAD SWAP1 DUP2 ADD PUSH1 0x40 MSTORE DUP1 SWAP3 SWAP2 SWAP1 DUP2 DUP2 MSTORE PUSH1 0x20 ADD PUSH1 0x0 SWAP1 JUMPDEST DUP3 DUP3 LT ISZERO PUSH2 0x8EB JUMPI PUSH1 0x0 DUP5 DUP2 MSTORE PUSH1 0x20 SWAP1 DUP2 SWAP1 KECCAK256 PUSH1 0x40 DUP1 MLOAD PUSH1 0xC0 DUP2 ADD DUP3 MSTORE PUSH1 0x6 DUP7 MUL SWAP1 SWAP3 ADD DUP1 SLOAD DUP4 MSTORE PUSH1 0x1 DUP1 DUP3 ADD SLOAD PUSH1 0x1 PUSH1 0x1 PUSH1 0xA0 SHL SUB SWAP1 DUP2 AND DUP6 DUP8 ADD MSTORE PUSH1 0x2 DUP4 ADD SLOAD AND SWAP3 DUP5 ADD SWAP3 SWAP1 SWAP3 MSTORE PUSH1 0x3 DUP2 ADD SLOAD PUSH1 0x60 DUP5 ADD MSTORE PUSH1 0x4 DUP2 ADD SLOAD PUSH1 0x80 DUP5 ADD MSTORE PUSH1 0x5 ADD SLOAD PUSH1 0xA0 DUP4 ADD MSTORE SWAP1 DUP4 MSTORE SWAP1 SWAP3 ADD SWAP2 ADD PUSH2 0x877 JUMP JUMPDEST POP POP POP POP SWAP1 POP SWAP1 JUMP JUMPDEST PUSH2 0x8FC PUSH2 0x27C7 JUMP JUMPDEST DUP2 PUSH2 0x906 DUP5 PUSH2 0x1885 JUMP JUMPDEST GT PUSH2 0x948 JUMPI PUSH1 0x40 MLOAD PUSH3 0x461BCD PUSH1 0xE5 SHL DUP2 MSTORE PUSH1 0x20 PUSH1 0x4 DUP3 ADD MSTORE PUSH1 0xD PUSH1 0x24 DUP3 ADD MSTORE PUSH13 0x92DCECC2D8D2C840D2DCC8CAF PUSH1 0x9B SHL PUSH1 0x44 DUP3 ADD MSTORE PUSH1 0x64 ADD JUMPDEST PUSH1 0x40 MLOAD DUP1 SWAP2 SUB SWAP1 REVERT JUMPDEST PUSH1 0x1 PUSH1 0x1 PUSH1 0xA0 SHL SUB DUP4 AND PUSH1 0x0 SWAP1 DUP2 MSTORE PUSH1 0x4 PUSH1 0x20 MSTORE PUSH1 0x40 SWAP1 KECCAK256 PUSH1 0x2 SWAP1 PUSH2 0x96D SWAP1 DUP5 PUSH2 0x199A JUMP JUMPDEST DUP2 SLOAD DUP2 LT PUSH2 0x97D JUMPI PUSH2 0x97D PUSH2 0x2A9D JUMP JUMPDEST PUSH1 0x0 SWAP2 DUP3 MSTORE PUSH1 0x20 SWAP2 DUP3 SWAP1 KECCAK256 PUSH1 0x40 DUP1 MLOAD PUSH1 0xC0 DUP2 ADD DUP3 MSTORE PUSH1 0x6 SWAP1 SWAP4 MUL SWAP1 SWAP2 ADD DUP1 SLOAD DUP4 MSTORE PUSH1 0x1 DUP2 ADD SLOAD PUSH1 0x1 PUSH1 0x1 PUSH1 0xA0 SHL SUB SWAP1 DUP2 AND SWAP5 DUP5 ADD SWAP5 SWAP1 SWAP5 MSTORE PUSH1 0x2 DUP2 ADD SLOAD SWAP1 SWAP4 AND SWAP1 DUP3 ADD MSTORE PUSH1 0x3 DUP3 ADD SLOAD PUSH1 0x60 DUP3 ADD MSTORE PUSH1 0x4 DUP3 ADD SLOAD PUSH1 0x80 DUP3 ADD MSTORE PUSH1 0x5 SWAP1 SWAP2 ADD SLOAD PUSH1 0xA0 DUP3 ADD MSTORE SWAP1 POP SWAP3 SWAP2 POP POP JUMP JUMPDEST PUSH1 0x2 SLOAD DUP2 SWAP1 DUP2 LT PUSH2 0xA0B JUMPI PUSH1 0x40 MLOAD PUSH3 0x461BCD PUSH1 0xE5 SHL DUP2 MSTORE PUSH1 0x4 ADD PUSH2 0x93F SWAP1 PUSH2 0x2B1E JUMP JUMPDEST PUSH1 0x0 PUSH1 0x2 DUP4 DUP2 SLOAD DUP2 LT PUSH2 0xA20 JUMPI PUSH2 0xA20 PUSH2 0x2A9D JUMP JUMPDEST PUSH1 0x0 SWAP2 DUP3 MSTORE PUSH1 0x20 SWAP1 SWAP2 KECCAK256 PUSH1 0x2 PUSH1 0x6 SWAP1 SWAP3 MUL ADD SWAP1 DUP2 ADD SLOAD SWAP1 SWAP2 POP PUSH1 0x1 PUSH1 0x1 PUSH1 0xA0 SHL SUB AND CALLER EQ PUSH2 0xA60 JUMPI PUSH1 0x40 MLOAD PUSH3 0x461BCD PUSH1 0xE5 SHL DUP2 MSTORE PUSH1 0x4 ADD PUSH2 0x93F SWAP1 PUSH2 0x2B47 JUMP JUMPDEST DUP1 PUSH1 0x5 ADD SLOAD TIMESTAMP LT ISZERO PUSH2 0xAB4 JUMPI PUSH1 0x40 MLOAD PUSH3 0x461BCD PUSH1 0xE5 SHL DUP2 MSTORE PUSH1 0x20 PUSH1 0x4 DUP3 ADD MSTORE PUSH1 0x18 PUSH1 0x24 DUP3 ADD MSTORE PUSH32 0x4974206973206E6F742074696D6520746F20756E6C6F636B0000000000000000 PUSH1 0x44 DUP3 ADD MSTORE PUSH1 0x64 ADD PUSH2 0x93F JUMP JUMPDEST PUSH1 0x0 DUP2 PUSH1 0x3 ADD SLOAD GT PUSH2 0xAFC JUMPI PUSH1 0x40 MLOAD PUSH3 0x461BCD PUSH1 0xE5 SHL DUP2 MSTORE PUSH1 0x20 PUSH1 0x4 DUP3 ADD MSTORE PUSH1 0x11 PUSH1 0x24 DUP3 ADD MSTORE PUSH17 0x4E6F7468696E6720746F20756E6C6F636B PUSH1 0x78 SHL PUSH1 0x44 DUP3 ADD MSTORE PUSH1 0x64 ADD PUSH2 0x93F JUMP JUMPDEST PUSH1 0x1 DUP1 DUP3 ADD SLOAD PUSH1 0x1 PUSH1 0x1 PUSH1 0xA0 SHL SUB SWAP1 DUP2 AND PUSH1 0x0 SWAP1 DUP2 MSTORE PUSH1 0x9 PUSH1 0x20 MSTORE PUSH1 0x40 SWAP1 KECCAK256 SWAP2 DUP3 ADD SLOAD AND ISZERO DUP1 ISZERO SWAP1 PUSH2 0xB47 JUMPI CALLER PUSH1 0x0 SWAP1 DUP2 MSTORE PUSH1 0x3 PUSH1 0x20 MSTORE PUSH1 0x40 SWAP1 KECCAK256 PUSH2 0xB41 SWAP1 DUP7 PUSH2 0x19AD JUMP JUMPDEST POP PUSH2 0xB62 JUMP JUMPDEST CALLER PUSH1 0x0 SWAP1 DUP2 MSTORE PUSH1 0x4 PUSH1 0x20 MSTORE PUSH1 0x40 SWAP1 KECCAK256 PUSH2 0xB60 SWAP1 DUP7 PUSH2 0x19AD JUMP JUMPDEST POP JUMPDEST PUSH1 0x3 DUP4 ADD SLOAD PUSH1 0x2 DUP4 ADD SLOAD DUP2 LT PUSH2 0xB7E JUMPI PUSH1 0x0 PUSH1 0x2 DUP5 ADD SSTORE PUSH2 0xB94 JUMP JUMPDEST DUP1 DUP4 PUSH1 0x2 ADD SLOAD PUSH2 0xB8E SWAP2 SWAP1 PUSH2 0x2ADC JUMP JUMPDEST PUSH1 0x2 DUP5 ADD SSTORE JUMPDEST DUP3 PUSH1 0x2 ADD SLOAD PUSH1 0x0 SUB PUSH2 0xBE2 JUMPI DUP2 ISZERO PUSH2 0xBC6 JUMPI PUSH1 0x1 DUP5 ADD SLOAD PUSH2 0xBC0 SWAP1 PUSH1 0x5 SWAP1 PUSH1 0x1 PUSH1 0x1 PUSH1 0xA0 SHL SUB AND PUSH2 0x19B9 JUMP JUMPDEST POP PUSH2 0xBE2 JUMP JUMPDEST PUSH1 0x1 DUP5 ADD SLOAD PUSH2 0xBE0 SWAP1 PUSH1 0x7 SWAP1 PUSH1 0x1 PUSH1 0x1 PUSH1 0xA0 SHL SUB AND PUSH2 0x19B9 JUMP JUMPDEST POP JUMPDEST PUSH1 0x0 PUSH1 0x3 DUP6 ADD DUP2 SWAP1 SSTORE DUP5 SLOAD PUSH1 0x1 DUP7 ADD SLOAD PUSH1 0x1 PUSH1 0x1 PUSH1 0xA0 SHL SUB AND DUP3 MSTORE PUSH1 0xA PUSH1 0x20 MSTORE PUSH1 0x40 SWAP1 SWAP2 KECCAK256 PUSH2 0xC10 SWAP2 PUSH2 0x19AD JUMP JUMPDEST POP PUSH1 0x1 DUP5 ADD SLOAD PUSH2 0xC2A SWAP1 PUSH1 0x1 PUSH1 0x1 PUSH1 0xA0 SHL SUB AND CALLER DUP4 PUSH2 0x19CE JUMP JUMPDEST DUP4 SLOAD PUSH1 0x1 DUP6 ADD SLOAD PUSH1 0x40 MLOAD PUSH32 0xC6532367992B32E42A62DD89FC3574876D97D081A263AA6E030F34B79B7E6E8B SWAP2 PUSH2 0xC71 SWAP2 PUSH1 0x1 PUSH1 0x1 PUSH1 0xA0 SHL SUB SWAP1 SWAP2 AND SWAP1 CALLER SWAP1 DUP7 SWAP1 TIMESTAMP SWAP1 PUSH2 0x2B89 JUMP JUMPDEST PUSH1 0x40 MLOAD DUP1 SWAP2 SUB SWAP1 LOG2 POP POP POP POP POP POP JUMP JUMPDEST PUSH1 0x0 PUSH1 0x1 SLOAD CALLVALUE EQ PUSH2 0xCBA JUMPI PUSH1 0x40 MLOAD PUSH3 0x461BCD PUSH1 0xE5 SHL DUP2 MSTORE PUSH1 0x20 PUSH1 0x4 DUP3 ADD MSTORE PUSH1 0x3 PUSH1 0x24 DUP3 ADD MSTORE PUSH3 0x466565 PUSH1 0xE8 SHL PUSH1 0x44 DUP3 ADD MSTORE PUSH1 0x64 ADD PUSH2 0x93F JUMP JUMPDEST TIMESTAMP DUP3 GT PUSH2 0xD1A JUMPI PUSH1 0x40 MLOAD PUSH3 0x461BCD PUSH1 0xE5 SHL DUP2 MSTORE PUSH1 0x20 PUSH1 0x4 DUP3 ADD MSTORE PUSH1 0x28 PUSH1 0x24 DUP3 ADD MSTORE PUSH32 0x556E6C6F636B20646174652073686F756C642062652061667465722063757272 PUSH1 0x44 DUP3 ADD MSTORE PUSH8 0x656E742074696D65 PUSH1 0xC0 SHL PUSH1 0x64 DUP3 ADD MSTORE PUSH1 0x84 ADD PUSH2 0x93F JUMP JUMPDEST PUSH1 0x0 DUP4 GT PUSH2 0xD6A JUMPI PUSH1 0x40 MLOAD PUSH3 0x461BCD PUSH1 0xE5 SHL DUP2 MSTORE PUSH1 0x20 PUSH1 0x4 DUP3 ADD MSTORE PUSH1 0x1F PUSH1 0x24 DUP3 ADD MSTORE PUSH32 0x416D6F756E742073686F756C642062652067726561746572207468616E203000 PUSH1 0x44 DUP3 ADD MSTORE PUSH1 0x64 ADD PUSH2 0x93F JUMP JUMPDEST DUP4 ISZERO PUSH2 0xE98 JUMPI PUSH1 0x0 DUP6 PUSH1 0x1 PUSH1 0x1 PUSH1 0xA0 SHL SUB AND PUSH4 0xC45A0155 PUSH1 0x40 MLOAD DUP2 PUSH4 0xFFFFFFFF AND PUSH1 0xE0 SHL DUP2 MSTORE PUSH1 0x4 ADD PUSH1 0x20 PUSH1 0x40 MLOAD DUP1 DUP4 SUB DUP2 DUP7 GAS STATICCALL SWAP3 POP POP POP DUP1 ISZERO PUSH2 0xDCC JUMPI POP PUSH1 0x40 DUP1 MLOAD PUSH1 0x1F RETURNDATASIZE SWAP1 DUP2 ADD PUSH1 0x1F NOT AND DUP3 ADD SWAP1 SWAP3 MSTORE PUSH2 0xDC9 SWAP2 DUP2 ADD SWAP1 PUSH2 0x2BB2 JUMP JUMPDEST PUSH1 0x1 JUMPDEST PUSH2 0xE18 JUMPI PUSH1 0x40 MLOAD PUSH3 0x461BCD PUSH1 0xE5 SHL DUP2 MSTORE PUSH1 0x20 PUSH1 0x4 DUP3 ADD MSTORE PUSH1 0x1C PUSH1 0x24 DUP3 ADD MSTORE PUSH32 0x5468697320746F6B656E206973206E6F742061204C5020746F6B656E00000000 PUSH1 0x44 DUP3 ADD MSTORE PUSH1 0x64 ADD PUSH2 0x93F JUMP JUMPDEST SWAP1 POP PUSH1 0x1 PUSH1 0x1 PUSH1 0xA0 SHL SUB DUP2 AND ISZERO DUP1 ISZERO SWAP1 PUSH2 0xE37 JUMPI POP PUSH2 0xE37 DUP7 DUP3 PUSH2 0x1A36 JUMP JUMPDEST PUSH2 0xE83 JUMPI PUSH1 0x40 MLOAD PUSH3 0x461BCD PUSH1 0xE5 SHL DUP2 MSTORE PUSH1 0x20 PUSH1 0x4 DUP3 ADD MSTORE PUSH1 0x1D PUSH1 0x24 DUP3 ADD MSTORE PUSH32 0x5468697320746F6B656E206973206E6F742061204C5020746F6B656E2E000000 PUSH1 0x44 DUP3 ADD MSTORE PUSH1 0x64 ADD PUSH2 0x93F JUMP JUMPDEST PUSH2 0xE90 DUP8 DUP8 DUP4 DUP8 DUP8 PUSH2 0x1B99 JUMP JUMPDEST SWAP2 POP POP PUSH2 0xEA7 JUMP JUMPDEST PUSH2 0xEA4 DUP7 DUP7 DUP6 DUP6 PUSH2 0x1C6A JUMP JUMPDEST SWAP1 POP JUMPDEST PUSH2 0xEB3 DUP6 CALLER ADDRESS DUP7 PUSH2 0x1D34 JUMP JUMPDEST DUP1 PUSH32 0x694AF1CC8727CDD0AFBDD53D9B87B69248BD490224E9DD090E788546506E076F DUP7 DUP9 DUP7 DUP7 PUSH1 0x40 MLOAD PUSH2 0xEE9 SWAP5 SWAP4 SWAP3 SWAP2 SWAP1 PUSH2 0x2B89 JUMP JUMPDEST PUSH1 0x40 MLOAD DUP1 SWAP2 SUB SWAP1 LOG2 SWAP6 SWAP5 POP POP POP POP POP JUMP JUMPDEST PUSH2 0xF02 PUSH2 0x1E89 JUMP JUMPDEST PUSH1 0x1 SSTORE JUMP JUMPDEST PUSH2 0xF0F PUSH2 0x1E89 JUMP JUMPDEST PUSH2 0xF19 PUSH1 0x0 PUSH2 0x1EE3 JUMP JUMPDEST JUMP JUMPDEST PUSH1 0x60 PUSH2 0xF27 PUSH1 0x7 PUSH2 0x1990 JUMP JUMPDEST DUP3 LT PUSH2 0xF46 JUMPI PUSH1 0x1 PUSH2 0xF39 PUSH1 0x7 PUSH2 0x1990 JUMP JUMPDEST PUSH2 0xF43 SWAP2 SWAP1 PUSH2 0x2ADC JUMP JUMPDEST SWAP2 POP JUMPDEST PUSH1 0x0 PUSH2 0xF52 DUP5 DUP5 PUSH2 0x2ADC JUMP JUMPDEST PUSH2 0xF5D SWAP1 PUSH1 0x1 PUSH2 0x2AC9 JUMP JUMPDEST SWAP1 POP PUSH1 0x0 DUP2 PUSH8 0xFFFFFFFFFFFFFFFF DUP2 GT ISZERO PUSH2 0xF7A JUMPI PUSH2 0xF7A PUSH2 0x2AEF JUMP JUMPDEST PUSH1 0x40 MLOAD SWAP1 DUP1 DUP3 MSTORE DUP1 PUSH1 0x20 MUL PUSH1 0x20 ADD DUP3 ADD PUSH1 0x40 MSTORE DUP1 ISZERO PUSH2 0xFC5 JUMPI DUP2 PUSH1 0x20 ADD JUMPDEST PUSH1 0x40 DUP1 MLOAD PUSH1 0x60 DUP2 ADD DUP3 MSTORE PUSH1 0x0 DUP1 DUP3 MSTORE PUSH1 0x20 DUP1 DUP4 ADD DUP3 SWAP1 MSTORE SWAP3 DUP3 ADD MSTORE DUP3 MSTORE PUSH1 0x0 NOT SWAP1 SWAP3 ADD SWAP2 ADD DUP2 PUSH2 0xF98 JUMPI SWAP1 POP JUMPDEST POP SWAP1 POP PUSH1 0x0 DUP6 JUMPDEST DUP6 DUP2 GT PUSH2 0x1067 JUMPI PUSH1 0x9 PUSH1 0x0 PUSH2 0xFE2 PUSH1 0x7 DUP5 PUSH2 0x199A JUMP JUMPDEST PUSH1 0x1 PUSH1 0x1 PUSH1 0xA0 SHL SUB SWAP1 DUP2 AND DUP3 MSTORE PUSH1 0x20 DUP1 DUP4 ADD SWAP4 SWAP1 SWAP4 MSTORE PUSH1 0x40 SWAP2 DUP3 ADD PUSH1 0x0 KECCAK256 DUP3 MLOAD PUSH1 0x60 DUP2 ADD DUP5 MSTORE DUP2 SLOAD DUP4 AND DUP2 MSTORE PUSH1 0x1 DUP3 ADD SLOAD SWAP1 SWAP3 AND SWAP4 DUP3 ADD SWAP4 SWAP1 SWAP4 MSTORE PUSH1 0x2 SWAP1 SWAP3 ADD SLOAD SWAP1 DUP3 ADD MSTORE DUP4 MLOAD DUP5 SWAP1 DUP5 SWAP1 DUP2 LT PUSH2 0x103B JUMPI PUSH2 0x103B PUSH2 0x2A9D JUMP JUMPDEST PUSH1 0x20 MUL PUSH1 0x20 ADD ADD DUP2 SWAP1 MSTORE POP DUP2 DUP1 PUSH2 0x1051 SWAP1 PUSH2 0x2B05 JUMP JUMPDEST SWAP3 POP POP DUP1 DUP1 PUSH2 0x105F SWAP1 PUSH2 0x2B05 JUMP JUMPDEST SWAP2 POP POP PUSH2 0xFCC JUMP JUMPDEST POP SWAP1 SWAP6 SWAP5 POP POP POP POP POP JUMP JUMPDEST PUSH1 0x40 DUP1 MLOAD PUSH1 0x60 DUP2 ADD DUP3 MSTORE PUSH1 0x0 DUP1 DUP3 MSTORE PUSH1 0x20 DUP3 ADD DUP2 SWAP1 MSTORE SWAP2 DUP2 ADD SWAP2 SWAP1 SWAP2 MSTORE PUSH1 0x9 PUSH1 0x0 PUSH2 0x109E PUSH1 0x7 DUP6 PUSH2 0x199A JUMP JUMPDEST PUSH1 0x1 PUSH1 0x1 PUSH1 0xA0 SHL SUB SWAP1 DUP2 AND DUP3 MSTORE PUSH1 0x20 DUP1 DUP4 ADD SWAP4 SWAP1 SWAP4 MSTORE PUSH1 0x40 SWAP2 DUP3 ADD PUSH1 0x0 KECCAK256 DUP3 MLOAD PUSH1 0x60 DUP2 ADD DUP5 MSTORE DUP2 SLOAD DUP4 AND DUP2 MSTORE PUSH1 0x1 DUP3 ADD SLOAD SWAP1 SWAP3 AND SWAP4 DUP3 ADD SWAP4 SWAP1 SWAP4 MSTORE PUSH1 0x2 SWAP1 SWAP3 ADD SLOAD SWAP1 DUP3 ADD MSTORE SWAP3 SWAP2 POP POP JUMP JUMPDEST PUSH1 0x40 DUP1 MLOAD PUSH1 0x60 DUP2 ADD DUP3 MSTORE PUSH1 0x0 DUP1 DUP3 MSTORE PUSH1 0x20 DUP3 ADD DUP2 SWAP1 MSTORE SWAP2 DUP2 ADD SWAP2 SWAP1 SWAP2 MSTORE PUSH1 0x9 PUSH1 0x0 PUSH2 0x109E PUSH1 0x5 DUP6 PUSH2 0x199A JUMP JUMPDEST PUSH2 0x1130 DUP2 PUSH2 0x112B PUSH1 0x0 SLOAD PUSH1 0x1 PUSH1 0x1 PUSH1 0xA0 SHL SUB AND SWAP1 JUMP JUMPDEST PUSH2 0x1F33 JUMP JUMPDEST POP JUMP JUMPDEST PUSH1 0x60 PUSH2 0x113F PUSH1 0x5 PUSH2 0x1990 JUMP JUMPDEST DUP3 LT PUSH2 0x115E JUMPI PUSH1 0x1 PUSH2 0x1151 PUSH1 0x5 PUSH2 0x1990 JUMP JUMPDEST PUSH2 0x115B SWAP2 SWAP1 PUSH2 0x2ADC JUMP JUMPDEST SWAP2 POP JUMPDEST PUSH1 0x0 PUSH2 0x116A DUP5 DUP5 PUSH2 0x2ADC JUMP JUMPDEST PUSH2 0x1175 SWAP1 PUSH1 0x1 PUSH2 0x2AC9 JUMP JUMPDEST SWAP1 POP PUSH1 0x0 DUP2 PUSH8 0xFFFFFFFFFFFFFFFF DUP2 GT ISZERO PUSH2 0x1192 JUMPI PUSH2 0x1192 PUSH2 0x2AEF JUMP JUMPDEST PUSH1 0x40 MLOAD SWAP1 DUP1 DUP3 MSTORE DUP1 PUSH1 0x20 MUL PUSH1 0x20 ADD DUP3 ADD PUSH1 0x40 MSTORE DUP1 ISZERO PUSH2 0x11DD JUMPI DUP2 PUSH1 0x20 ADD JUMPDEST PUSH1 0x40 DUP1 MLOAD PUSH1 0x60 DUP2 ADD DUP3 MSTORE PUSH1 0x0 DUP1 DUP3 MSTORE PUSH1 0x20 DUP1 DUP4 ADD DUP3 SWAP1 MSTORE SWAP3 DUP3 ADD MSTORE DUP3 MSTORE PUSH1 0x0 NOT SWAP1 SWAP3 ADD SWAP2 ADD DUP2 PUSH2 0x11B0 JUMPI SWAP1 POP JUMPDEST POP SWAP1 POP PUSH1 0x0 DUP6 JUMPDEST DUP6 DUP2 GT PUSH2 0x1067 JUMPI PUSH1 0x9 PUSH1 0x0 PUSH2 0x11FA PUSH1 0x5 DUP5 PUSH2 0x199A JUMP JUMPDEST PUSH1 0x1 PUSH1 0x1 PUSH1 0xA0 SHL SUB SWAP1 DUP2 AND DUP3 MSTORE PUSH1 0x20 DUP1 DUP4 ADD SWAP4 SWAP1 SWAP4 MSTORE PUSH1 0x40 SWAP2 DUP3 ADD PUSH1 0x0 KECCAK256 DUP3 MLOAD PUSH1 0x60 DUP2 ADD DUP5 MSTORE DUP2 SLOAD DUP4 AND DUP2 MSTORE PUSH1 0x1 DUP3 ADD SLOAD SWAP1 SWAP3 AND SWAP4 DUP3 ADD SWAP4 SWAP1 SWAP4 MSTORE PUSH1 0x2 SWAP1 SWAP3 ADD SLOAD SWAP1 DUP3 ADD MSTORE DUP4 MLOAD DUP5 SWAP1 DUP5 SWAP1 DUP2 LT PUSH2 0x1253 JUMPI PUSH2 0x1253 PUSH2 0x2A9D JUMP JUMPDEST PUSH1 0x20 MUL PUSH1 0x20 ADD ADD DUP2 SWAP1 MSTORE POP DUP2 DUP1 PUSH2 0x1269 SWAP1 PUSH2 0x2B05 JUMP JUMPDEST SWAP3 POP POP DUP1 DUP1 PUSH2 0x1277 SWAP1 PUSH2 0x2B05 JUMP JUMPDEST SWAP2 POP POP PUSH2 0x11E4 JUMP JUMPDEST PUSH1 0x1 PUSH1 0x1 PUSH1 0xA0 SHL SUB DUP2 AND PUSH1 0x0 SWAP1 DUP2 MSTORE PUSH1 0x3 PUSH1 0x20 MSTORE PUSH1 0x40 DUP2 KECCAK256 PUSH1 0x60 SWAP2 SWAP1 PUSH2 0x12A4 SWAP1 PUSH2 0x1990 JUMP JUMPDEST SWAP1 POP PUSH1 0x0 DUP2 PUSH8 0xFFFFFFFFFFFFFFFF DUP2 GT ISZERO PUSH2 0x12C1 JUMPI PUSH2 0x12C1 PUSH2 0x2AEF JUMP JUMPDEST PUSH1 0x40 MLOAD SWAP1 DUP1 DUP3 MSTORE DUP1 PUSH1 0x20 MUL PUSH1 0x20 ADD DUP3 ADD PUSH1 0x40 MSTORE DUP1 ISZERO PUSH2 0x12FA JUMPI DUP2 PUSH1 0x20 ADD JUMPDEST PUSH2 0x12E7 PUSH2 0x27C7 JUMP JUMPDEST DUP2 MSTORE PUSH1 0x20 ADD SWAP1 PUSH1 0x1 SWAP1 SUB SWAP1 DUP2 PUSH2 0x12DF JUMPI SWAP1 POP JUMPDEST POP SWAP1 POP PUSH1 0x0 JUMPDEST DUP3 DUP2 LT ISZERO PUSH2 0x13D2 JUMPI PUSH1 0x1 PUSH1 0x1 PUSH1 0xA0 SHL SUB DUP6 AND PUSH1 0x0 SWAP1 DUP2 MSTORE PUSH1 0x3 PUSH1 0x20 MSTORE PUSH1 0x40 SWAP1 KECCAK256 PUSH1 0x2 SWAP1 PUSH2 0x132D SWAP1 DUP4 PUSH2 0x199A JUMP JUMPDEST DUP2 SLOAD DUP2 LT PUSH2 0x133D JUMPI PUSH2 0x133D PUSH2 0x2A9D JUMP JUMPDEST PUSH1 0x0 SWAP2 DUP3 MSTORE PUSH1 0x20 SWAP2 DUP3 SWAP1 KECCAK256 PUSH1 0x40 DUP1 MLOAD PUSH1 0xC0 DUP2 ADD DUP3 MSTORE PUSH1 0x6 SWAP1 SWAP4 MUL SWAP1 SWAP2 ADD DUP1 SLOAD DUP4 MSTORE PUSH1 0x1 DUP2 ADD SLOAD PUSH1 0x1 PUSH1 0x1 PUSH1 0xA0 SHL SUB SWAP1 DUP2 AND SWAP5 DUP5 ADD SWAP5 SWAP1 SWAP5 MSTORE PUSH1 0x2 DUP2 ADD SLOAD SWAP1 SWAP4 AND SWAP1 DUP3 ADD MSTORE PUSH1 0x3 DUP3 ADD SLOAD PUSH1 0x60 DUP3 ADD MSTORE PUSH1 0x4 DUP3 ADD SLOAD PUSH1 0x80 DUP3 ADD MSTORE PUSH1 0x5 SWAP1 SWAP2 ADD SLOAD PUSH1 0xA0 DUP3 ADD MSTORE DUP3 MLOAD DUP4 SWAP1 DUP4 SWAP1 DUP2 LT PUSH2 0x13B4 JUMPI PUSH2 0x13B4 PUSH2 0x2A9D JUMP JUMPDEST PUSH1 0x20 MUL PUSH1 0x20 ADD ADD DUP2 SWAP1 MSTORE POP DUP1 DUP1 PUSH2 0x13CA SWAP1 PUSH2 0x2B05 JUMP JUMPDEST SWAP2 POP POP PUSH2 0x1300 JUMP JUMPDEST POP SWAP4 SWAP3 POP POP POP JUMP JUMPDEST PUSH1 0x1 SLOAD CALLVALUE EQ PUSH2 0x1411 JUMPI PUSH1 0x40 MLOAD PUSH3 0x461BCD PUSH1 0xE5 SHL DUP2 MSTORE PUSH1 0x20 PUSH1 0x4 DUP3 ADD MSTORE PUSH1 0x3 PUSH1 0x24 DUP3 ADD MSTORE PUSH3 0x466565 PUSH1 0xE8 SHL PUSH1 0x44 DUP3 ADD MSTORE PUSH1 0x64 ADD PUSH2 0x93F JUMP JUMPDEST PUSH1 0x2 SLOAD DUP4 SWAP1 DUP2 LT PUSH2 0x1434 JUMPI PUSH1 0x40 MLOAD PUSH3 0x461BCD PUSH1 0xE5 SHL DUP2 MSTORE PUSH1 0x4 ADD PUSH2 0x93F SWAP1 PUSH2 0x2B1E JUMP JUMPDEST PUSH1 0x0 PUSH1 0x2 DUP6 DUP2 SLOAD DUP2 LT PUSH2 0x1449 JUMPI PUSH2 0x1449 PUSH2 0x2A9D JUMP JUMPDEST PUSH1 0x0 SWAP2 DUP3 MSTORE PUSH1 0x20 SWAP1 SWAP2 KECCAK256 PUSH1 0x2 PUSH1 0x6 SWAP1 SWAP3 MUL ADD SWAP1 DUP2 ADD SLOAD SWAP1 SWAP2 POP PUSH1 0x1 PUSH1 0x1 PUSH1 0xA0 SHL SUB AND CALLER EQ PUSH2 0x1489 JUMPI PUSH1 0x40 MLOAD PUSH3 0x461BCD PUSH1 0xE5 SHL DUP2 MSTORE PUSH1 0x4 ADD PUSH2 0x93F SWAP1 PUSH2 0x2B47 JUMP JUMPDEST PUSH1 0x0 DUP2 PUSH1 0x3 ADD SLOAD GT PUSH2 0x14D1 JUMPI PUSH1 0x40 MLOAD PUSH3 0x461BCD PUSH1 0xE5 SHL DUP2 MSTORE PUSH1 0x20 PUSH1 0x4 DUP3 ADD MSTORE PUSH1 0x11 PUSH1 0x24 DUP3 ADD MSTORE PUSH17 0x131BD8DAC81DD85CC81D5B9B1BD8DAD959 PUSH1 0x7A SHL PUSH1 0x44 DUP3 ADD MSTORE PUSH1 0x64 ADD PUSH2 0x93F JUMP JUMPDEST DUP3 ISZERO PUSH2 0x1572 JUMPI DUP1 PUSH1 0x5 ADD SLOAD DUP4 LT ISZERO DUP1 ISZERO PUSH2 0x14EA JUMPI POP TIMESTAMP DUP4 GT JUMPDEST PUSH2 0x156A JUMPI PUSH1 0x40 MLOAD PUSH3 0x461BCD PUSH1 0xE5 SHL DUP2 MSTORE PUSH1 0x20 PUSH1 0x4 DUP3 ADD MSTORE PUSH1 0x44 PUSH1 0x24 DUP3 ADD DUP2 SWAP1 MSTORE PUSH32 0x4E657720756E6C6F636B2074696D652073686F756C64206E6F74206265206265 SWAP1 DUP3 ADD MSTORE PUSH32 0x666F7265206F6C6420756E6C6F636B2074696D65206F722063757272656E7420 PUSH1 0x64 DUP3 ADD MSTORE PUSH4 0x74696D65 PUSH1 0xE0 SHL PUSH1 0x84 DUP3 ADD MSTORE PUSH1 0xA4 ADD PUSH2 0x93F JUMP JUMPDEST PUSH1 0x5 DUP2 ADD DUP4 SWAP1 SSTORE JUMPDEST DUP4 ISZERO PUSH2 0x1656 JUMPI DUP1 PUSH1 0x3 ADD SLOAD DUP5 LT ISZERO PUSH2 0x15E6 JUMPI PUSH1 0x40 MLOAD PUSH3 0x461BCD PUSH1 0xE5 SHL DUP2 MSTORE PUSH1 0x20 PUSH1 0x4 DUP3 ADD MSTORE PUSH1 0x31 PUSH1 0x24 DUP3 ADD MSTORE PUSH32 0x4E657720616D6F756E742073686F756C64206E6F74206265206C657373207468 PUSH1 0x44 DUP3 ADD MSTORE PUSH17 0x185B8818DD5C9C995B9D08185B5BDD5B9D PUSH1 0x7A SHL PUSH1 0x64 DUP3 ADD MSTORE PUSH1 0x84 ADD PUSH2 0x93F JUMP JUMPDEST PUSH1 0x0 DUP2 PUSH1 0x3 ADD SLOAD DUP6 PUSH2 0x15F8 SWAP2 SWAP1 PUSH2 0x2ADC JUMP JUMPDEST SWAP1 POP DUP1 ISZERO PUSH2 0x1654 JUMPI PUSH1 0x1 DUP3 ADD SLOAD PUSH2 0x161A SWAP1 PUSH1 0x1 PUSH1 0x1 PUSH1 0xA0 SHL SUB AND CALLER ADDRESS DUP5 PUSH2 0x1D34 JUMP JUMPDEST PUSH1 0x3 DUP3 ADD DUP6 SWAP1 SSTORE PUSH1 0x1 DUP3 ADD SLOAD PUSH1 0x1 PUSH1 0x1 PUSH1 0xA0 SHL SUB AND PUSH1 0x0 SWAP1 DUP2 MSTORE PUSH1 0x9 PUSH1 0x20 MSTORE PUSH1 0x40 SWAP1 KECCAK256 PUSH1 0x2 DUP2 ADD SLOAD PUSH2 0x164D SWAP1 DUP4 SWAP1 PUSH2 0x2AC9 JUMP JUMPDEST PUSH1 0x2 SWAP1 SWAP2 ADD SSTORE JUMPDEST POP JUMPDEST DUP1 SLOAD PUSH1 0x1 DUP3 ADD SLOAD PUSH1 0x2 DUP4 ADD SLOAD PUSH1 0x3 DUP5 ADD SLOAD PUSH1 0x5 DUP6 ADD SLOAD PUSH1 0x40 MLOAD PUSH32 0xA8B26360DF8D5E154FFA5A8A7E894E85F781ACFBBEF0B744FB9551D8FD0FD36C SWAP5 PUSH2 0x16AB SWAP5 PUSH1 0x1 PUSH1 0x1 PUSH1 0xA0 SHL SUB SWAP2 DUP3 AND SWAP5 SWAP2 AND SWAP3 SWAP1 SWAP2 PUSH2 0x2B89 JUMP JUMPDEST PUSH1 0x40 MLOAD DUP1 SWAP2 SUB SWAP1 LOG2 POP POP POP POP POP JUMP JUMPDEST PUSH1 0x0 PUSH2 0x688 PUSH1 0x5 PUSH2 0x1990 JUMP JUMPDEST PUSH1 0x0 PUSH2 0x16D1 DUP3 PUSH2 0x5C1 JUMP JUMPDEST PUSH2 0x16DA DUP4 PUSH2 0x1885 JUMP JUMPDEST PUSH2 0x5E2 SWAP2 SWAP1 PUSH2 0x2AC9 JUMP JUMPDEST PUSH1 0x1 PUSH1 0x1 PUSH1 0xA0 SHL SUB DUP2 AND PUSH1 0x0 SWAP1 DUP2 MSTORE PUSH1 0x4 PUSH1 0x20 MSTORE PUSH1 0x40 DUP2 KECCAK256 PUSH1 0x60 SWAP2 SWAP1 PUSH2 0x1709 SWAP1 PUSH2 0x1990 JUMP JUMPDEST SWAP1 POP PUSH1 0x0 DUP2 PUSH8 0xFFFFFFFFFFFFFFFF DUP2 GT ISZERO PUSH2 0x1726 JUMPI PUSH2 0x1726 PUSH2 0x2AEF JUMP JUMPDEST PUSH1 0x40 MLOAD SWAP1 DUP1 DUP3 MSTORE DUP1 PUSH1 0x20 MUL PUSH1 0x20 ADD DUP3 ADD PUSH1 0x40 MSTORE DUP1 ISZERO PUSH2 0x175F JUMPI DUP2 PUSH1 0x20 ADD JUMPDEST PUSH2 0x174C PUSH2 0x27C7 JUMP JUMPDEST DUP2 MSTORE PUSH1 0x20 ADD SWAP1 PUSH1 0x1 SWAP1 SUB SWAP1 DUP2 PUSH2 0x1744 JUMPI SWAP1 POP JUMPDEST POP SWAP1 POP PUSH1 0x0 JUMPDEST DUP3 DUP2 LT ISZERO PUSH2 0x13D2 JUMPI PUSH1 0x1 PUSH1 0x1 PUSH1 0xA0 SHL SUB DUP6 AND PUSH1 0x0 SWAP1 DUP2 MSTORE PUSH1 0x4 PUSH1 0x20 MSTORE PUSH1 0x40 SWAP1 KECCAK256 PUSH1 0x2 SWAP1 PUSH2 0x1792 SWAP1 DUP4 PUSH2 0x199A JUMP JUMPDEST DUP2 SLOAD DUP2 LT PUSH2 0x17A2 JUMPI PUSH2 0x17A2 PUSH2 0x2A9D JUMP JUMPDEST PUSH1 0x0 SWAP2 DUP3 MSTORE PUSH1 0x20 SWAP2 DUP3 SWAP1 KECCAK256 PUSH1 0x40 DUP1 MLOAD PUSH1 0xC0 DUP2 ADD DUP3 MSTORE PUSH1 0x6 SWAP1 SWAP4 MUL SWAP1 SWAP2 ADD DUP1 SLOAD DUP4 MSTORE PUSH1 0x1 DUP2 ADD SLOAD PUSH1 0x1 PUSH1 0x1 PUSH1 0xA0 SHL SUB SWAP1 DUP2 AND SWAP5 DUP5 ADD SWAP5 SWAP1 SWAP5 MSTORE PUSH1 0x2 DUP2 ADD SLOAD SWAP1 SWAP4 AND SWAP1 DUP3 ADD MSTORE PUSH1 0x3 DUP3 ADD SLOAD PUSH1 0x60 DUP3 ADD MSTORE PUSH1 0x4 DUP3 ADD SLOAD PUSH1 0x80 DUP3 ADD MSTORE PUSH1 0x5 SWAP1 SWAP2 ADD SLOAD PUSH1 0xA0 DUP3 ADD MSTORE DUP3 MLOAD DUP4 SWAP1 DUP4 SWAP1 DUP2 LT PUSH2 0x1819 JUMPI PUSH2 0x1819 PUSH2 0x2A9D JUMP JUMPDEST PUSH1 0x20 MUL PUSH1 0x20 ADD ADD DUP2 SWAP1 MSTORE POP DUP1 DUP1 PUSH2 0x182F SWAP1 PUSH2 0x2B05 JUMP JUMPDEST SWAP2 POP POP PUSH2 0x1765 JUMP JUMPDEST PUSH1 0x1 PUSH1 0x1 PUSH1 0xA0 SHL SUB DUP2 AND PUSH1 0x0 SWAP1 DUP2 MSTORE PUSH1 0xA PUSH1 0x20 MSTORE PUSH1 0x40 DUP2 KECCAK256 PUSH2 0x5E2 SWAP1 PUSH2 0x1990 JUMP JUMPDEST PUSH2 0x1860 PUSH2 0x1E89 JUMP JUMPDEST PUSH2 0xF19 SELFBALANCE PUSH2 0x1876 PUSH1 0x0 SLOAD PUSH1 0x1 PUSH1 0x1 PUSH1 0xA0 SHL SUB AND SWAP1 JUMP JUMPDEST PUSH1 0x1 PUSH1 0x1 PUSH1 0xA0 SHL SUB AND SWAP1 PUSH2 0x2122 JUMP JUMPDEST PUSH1 0x1 PUSH1 0x1 PUSH1 0xA0 SHL SUB DUP2 AND PUSH1 0x0 SWAP1 DUP2 MSTORE PUSH1 0x4 PUSH1 0x20 MSTORE PUSH1 0x40 DUP2 KECCAK256 PUSH2 0x5E2 SWAP1 PUSH2 0x1990 JUMP JUMPDEST PUSH2 0x18AE PUSH2 0x27C7 JUMP JUMPDEST DUP2 PUSH2 0x18B8 DUP5 PUSH2 0x5C1 JUMP JUMPDEST GT PUSH2 0x18F5 JUMPI PUSH1 0x40 MLOAD PUSH3 0x461BCD PUSH1 0xE5 SHL DUP2 MSTORE PUSH1 0x20 PUSH1 0x4 DUP3 ADD MSTORE PUSH1 0xD PUSH1 0x24 DUP3 ADD MSTORE PUSH13 0x92DCECC2D8D2C840D2DCC8CAF PUSH1 0x9B SHL PUSH1 0x44 DUP3 ADD MSTORE PUSH1 0x64 ADD PUSH2 0x93F JUMP JUMPDEST PUSH1 0x1 PUSH1 0x1 PUSH1 0xA0 SHL SUB DUP4 AND PUSH1 0x0 SWAP1 DUP2 MSTORE PUSH1 0x3 PUSH1 0x20 MSTORE PUSH1 0x40 SWAP1 KECCAK256 PUSH1 0x2 SWAP1 PUSH2 0x96D SWAP1 DUP5 PUSH2 0x199A JUMP JUMPDEST PUSH2 0x1922 PUSH2 0x1E89 JUMP JUMPDEST PUSH1 0x1 PUSH1 0x1 PUSH1 0xA0 SHL SUB DUP2 AND PUSH2 0x1987 JUMPI PUSH1 0x40 MLOAD PUSH3 0x461BCD PUSH1 0xE5 SHL DUP2 MSTORE PUSH1 0x20 PUSH1 0x4 DUP3 ADD MSTORE PUSH1 0x26 PUSH1 0x24 DUP3 ADD MSTORE PUSH32 0x4F776E61626C653A206E6577206F776E657220697320746865207A65726F2061 PUSH1 0x44 DUP3 ADD MSTORE PUSH6 0x646472657373 PUSH1 0xD0 SHL PUSH1 0x64 DUP3 ADD MSTORE PUSH1 0x84 ADD PUSH2 0x93F JUMP JUMPDEST PUSH2 0x1130 DUP2 PUSH2 0x1EE3 JUMP JUMPDEST PUSH1 0x0 PUSH2 0x5E2 DUP3 SLOAD SWAP1 JUMP JUMPDEST PUSH1 0x0 PUSH2 0x19A6 DUP4 DUP4 PUSH2 0x223B JUMP JUMPDEST SWAP4 SWAP3 POP POP POP JUMP JUMPDEST PUSH1 0x0 PUSH2 0x19A6 DUP4 DUP4 PUSH2 0x2265 JUMP JUMPDEST PUSH1 0x0 PUSH2 0x19A6 DUP4 PUSH1 0x1 PUSH1 0x1 PUSH1 0xA0 SHL SUB DUP5 AND PUSH2 0x2265 JUMP JUMPDEST PUSH1 0x40 MLOAD PUSH1 0x1 PUSH1 0x1 PUSH1 0xA0 SHL SUB DUP4 AND PUSH1 0x24 DUP3 ADD MSTORE PUSH1 0x44 DUP2 ADD DUP3 SWAP1 MSTORE PUSH2 0x1A31 SWAP1 DUP5 SWAP1 PUSH4 0xA9059CBB PUSH1 0xE0 SHL SWAP1 PUSH1 0x64 ADD JUMPDEST PUSH1 0x40 DUP1 MLOAD PUSH1 0x1F NOT DUP2 DUP5 SUB ADD DUP2 MSTORE SWAP2 SWAP1 MSTORE PUSH1 0x20 DUP2 ADD DUP1 MLOAD PUSH1 0x1 PUSH1 0x1 PUSH1 0xE0 SHL SUB AND PUSH1 0x1 PUSH1 0x1 PUSH1 0xE0 SHL SUB NOT SWAP1 SWAP4 AND SWAP3 SWAP1 SWAP3 OR SWAP1 SWAP2 MSTORE PUSH2 0x2358 JUMP JUMPDEST POP POP POP JUMP JUMPDEST PUSH1 0x0 DUP1 DUP4 SWAP1 POP PUSH1 0x0 DUP4 PUSH1 0x1 PUSH1 0x1 PUSH1 0xA0 SHL SUB AND PUSH4 0xE6A43905 DUP4 PUSH1 0x1 PUSH1 0x1 PUSH1 0xA0 SHL SUB AND PUSH4 0xDFE1681 PUSH1 0x40 MLOAD DUP2 PUSH4 0xFFFFFFFF AND PUSH1 0xE0 SHL DUP2 MSTORE PUSH1 0x4 ADD PUSH1 0x20 PUSH1 0x40 MLOAD DUP1 DUP4 SUB DUP2 DUP7 GAS STATICCALL ISZERO DUP1 ISZERO PUSH2 0x1A8B JUMPI RETURNDATASIZE PUSH1 0x0 DUP1 RETURNDATACOPY RETURNDATASIZE PUSH1 0x0 REVERT JUMPDEST POP POP POP POP PUSH1 0x40 MLOAD RETURNDATASIZE PUSH1 0x1F NOT PUSH1 0x1F DUP3 ADD AND DUP3 ADD DUP1 PUSH1 0x40 MSTORE POP DUP2 ADD SWAP1 PUSH2 0x1AAF SWAP2 SWAP1 PUSH2 0x2BB2 JUMP JUMPDEST DUP5 PUSH1 0x1 PUSH1 0x1 PUSH1 0xA0 SHL SUB AND PUSH4 0xD21220A7 PUSH1 0x40 MLOAD DUP2 PUSH4 0xFFFFFFFF AND PUSH1 0xE0 SHL DUP2 MSTORE PUSH1 0x4 ADD PUSH1 0x20 PUSH1 0x40 MLOAD DUP1 DUP4 SUB DUP2 DUP7 GAS STATICCALL ISZERO DUP1 ISZERO PUSH2 0x1AED JUMPI RETURNDATASIZE PUSH1 0x0 DUP1 RETURNDATACOPY RETURNDATASIZE PUSH1 0x0 REVERT JUMPDEST POP POP POP POP PUSH1 0x40 MLOAD RETURNDATASIZE PUSH1 0x1F NOT PUSH1 0x1F DUP3 ADD AND DUP3 ADD DUP1 PUSH1 0x40 MSTORE POP DUP2 ADD SWAP1 PUSH2 0x1B11 SWAP2 SWAP1 PUSH2 0x2BB2 JUMP JUMPDEST PUSH1 0x40 MLOAD PUSH1 0x1 PUSH1 0x1 PUSH1 0xE0 SHL SUB NOT PUSH1 0xE0 DUP6 SWAP1 SHL AND DUP2 MSTORE PUSH1 0x1 PUSH1 0x1 PUSH1 0xA0 SHL SUB SWAP3 DUP4 AND PUSH1 0x4 DUP3 ADD MSTORE SWAP2 AND PUSH1 0x24 DUP3 ADD MSTORE PUSH1 0x44 ADD PUSH1 0x20 PUSH1 0x40 MLOAD DUP1 DUP4 SUB DUP2 DUP7 GAS STATICCALL ISZERO DUP1 ISZERO PUSH2 0x1B5C JUMPI RETURNDATASIZE PUSH1 0x0 DUP1 RETURNDATACOPY RETURNDATASIZE PUSH1 0x0 REVERT JUMPDEST POP POP POP POP PUSH1 0x40 MLOAD RETURNDATASIZE PUSH1 0x1F NOT PUSH1 0x1F DUP3 ADD AND DUP3 ADD DUP1 PUSH1 0x40 MSTORE POP DUP2 ADD SWAP1 PUSH2 0x1B80 SWAP2 SWAP1 PUSH2 0x2BB2 JUMP JUMPDEST PUSH1 0x1 PUSH1 0x1 PUSH1 0xA0 SHL SUB SWAP1 DUP2 AND SWAP1 DUP7 AND EQ SWAP3 POP POP POP SWAP3 SWAP2 POP POP JUMP JUMPDEST PUSH1 0x0 PUSH2 0x1BA7 DUP7 DUP7 DUP6 DUP6 PUSH2 0x242D JUMP JUMPDEST PUSH1 0x1 PUSH1 0x1 PUSH1 0xA0 SHL SUB DUP8 AND PUSH1 0x0 SWAP1 DUP2 MSTORE PUSH1 0x3 PUSH1 0x20 MSTORE PUSH1 0x40 SWAP1 KECCAK256 SWAP1 SWAP2 POP PUSH2 0x1BCC SWAP1 DUP3 PUSH2 0x2589 JUMP JUMPDEST POP PUSH2 0x1BD8 PUSH1 0x5 DUP7 PUSH2 0x2595 JUMP JUMPDEST POP PUSH1 0x1 PUSH1 0x1 PUSH1 0xA0 SHL SUB DUP1 DUP7 AND PUSH1 0x0 SWAP1 DUP2 MSTORE PUSH1 0x9 PUSH1 0x20 MSTORE PUSH1 0x40 SWAP1 KECCAK256 DUP1 SLOAD SWAP1 SWAP2 AND PUSH2 0x1C28 JUMPI DUP1 SLOAD PUSH1 0x1 PUSH1 0x1 PUSH1 0xA0 SHL SUB DUP1 DUP9 AND PUSH1 0x1 PUSH1 0x1 PUSH1 0xA0 SHL SUB NOT SWAP3 DUP4 AND OR DUP4 SSTORE PUSH1 0x1 DUP4 ADD DUP1 SLOAD SWAP2 DUP9 AND SWAP2 SWAP1 SWAP3 AND OR SWAP1 SSTORE JUMPDEST DUP4 DUP2 PUSH1 0x2 ADD SLOAD PUSH2 0x1C38 SWAP2 SWAP1 PUSH2 0x2AC9 JUMP JUMPDEST PUSH1 0x2 DUP3 ADD SSTORE PUSH1 0x1 PUSH1 0x1 PUSH1 0xA0 SHL SUB DUP7 AND PUSH1 0x0 SWAP1 DUP2 MSTORE PUSH1 0xA PUSH1 0x20 MSTORE PUSH1 0x40 SWAP1 KECCAK256 PUSH2 0x1C5F SWAP1 DUP4 PUSH2 0x2589 JUMP JUMPDEST POP POP SWAP6 SWAP5 POP POP POP POP POP JUMP JUMPDEST PUSH1 0x0 PUSH2 0x1C78 DUP6 DUP6 DUP6 DUP6 PUSH2 0x242D JUMP JUMPDEST PUSH1 0x1 PUSH1 0x1 PUSH1 0xA0 SHL SUB DUP7 AND PUSH1 0x0 SWAP1 DUP2 MSTORE PUSH1 0x4 PUSH1 0x20 MSTORE PUSH1 0x40 SWAP1 KECCAK256 SWAP1 SWAP2 POP PUSH2 0x1C9D SWAP1 DUP3 PUSH2 0x2589 JUMP JUMPDEST POP PUSH2 0x1CA9 PUSH1 0x7 DUP6 PUSH2 0x2595 JUMP JUMPDEST POP PUSH1 0x1 PUSH1 0x1 PUSH1 0xA0 SHL SUB DUP1 DUP6 AND PUSH1 0x0 SWAP1 DUP2 MSTORE PUSH1 0x9 PUSH1 0x20 MSTORE PUSH1 0x40 SWAP1 KECCAK256 DUP1 SLOAD SWAP1 SWAP2 AND PUSH2 0x1CF3 JUMPI DUP1 SLOAD PUSH1 0x1 PUSH1 0x1 PUSH1 0xA0 SHL SUB DUP7 AND PUSH1 0x1 PUSH1 0x1 PUSH1 0xA0 SHL SUB NOT SWAP2 DUP3 AND OR DUP3 SSTORE PUSH1 0x1 DUP3 ADD DUP1 SLOAD SWAP1 SWAP2 AND SWAP1 SSTORE JUMPDEST DUP4 DUP2 PUSH1 0x2 ADD SLOAD PUSH2 0x1D03 SWAP2 SWAP1 PUSH2 0x2AC9 JUMP JUMPDEST PUSH1 0x2 DUP3 ADD SSTORE PUSH1 0x1 PUSH1 0x1 PUSH1 0xA0 SHL SUB DUP6 AND PUSH1 0x0 SWAP1 DUP2 MSTORE PUSH1 0xA PUSH1 0x20 MSTORE PUSH1 0x40 SWAP1 KECCAK256 PUSH2 0x1D2A SWAP1 DUP4 PUSH2 0x2589 JUMP JUMPDEST POP POP SWAP5 SWAP4 POP POP POP POP JUMP JUMPDEST PUSH1 0x40 MLOAD PUSH4 0x70A08231 PUSH1 0xE0 SHL DUP2 MSTORE PUSH1 0x1 PUSH1 0x1 PUSH1 0xA0 SHL SUB DUP4 DUP2 AND PUSH1 0x4 DUP4 ADD MSTORE PUSH1 0x0 SWAP2 SWAP1 DUP7 AND SWAP1 PUSH4 0x70A08231 SWAP1 PUSH1 0x24 ADD PUSH1 0x20 PUSH1 0x40 MLOAD DUP1 DUP4 SUB DUP2 DUP7 GAS STATICCALL ISZERO DUP1 ISZERO PUSH2 0x1D7E JUMPI RETURNDATASIZE PUSH1 0x0 DUP1 RETURNDATACOPY RETURNDATASIZE PUSH1 0x0 REVERT JUMPDEST POP POP POP POP PUSH1 0x40 MLOAD RETURNDATASIZE PUSH1 0x1F NOT PUSH1 0x1F DUP3 ADD AND DUP3 ADD DUP1 PUSH1 0x40 MSTORE POP DUP2 ADD SWAP1 PUSH2 0x1DA2 SWAP2 SWAP1 PUSH2 0x2BCF JUMP JUMPDEST SWAP1 POP PUSH2 0x1DB9 PUSH1 0x1 PUSH1 0x1 PUSH1 0xA0 SHL SUB DUP7 AND DUP6 DUP6 DUP6 PUSH2 0x25AA JUMP JUMPDEST PUSH1 0x40 MLOAD PUSH4 0x70A08231 PUSH1 0xE0 SHL DUP2 MSTORE PUSH1 0x1 PUSH1 0x1 PUSH1 0xA0 SHL SUB DUP5 DUP2 AND PUSH1 0x4 DUP4 ADD MSTORE PUSH1 0x0 SWAP2 SWAP1 DUP8 AND SWAP1 PUSH4 0x70A08231 SWAP1 PUSH1 0x24 ADD PUSH1 0x20 PUSH1 0x40 MLOAD DUP1 DUP4 SUB DUP2 DUP7 GAS STATICCALL ISZERO DUP1 ISZERO PUSH2 0x1E03 JUMPI RETURNDATASIZE PUSH1 0x0 DUP1 RETURNDATACOPY RETURNDATASIZE PUSH1 0x0 REVERT JUMPDEST POP POP POP POP PUSH1 0x40 MLOAD RETURNDATASIZE PUSH1 0x1F NOT PUSH1 0x1F DUP3 ADD AND DUP3 ADD DUP1 PUSH1 0x40 MSTORE POP DUP2 ADD SWAP1 PUSH2 0x1E27 SWAP2 SWAP1 PUSH2 0x2BCF JUMP JUMPDEST SWAP1 POP DUP3 PUSH2 0x1E34 DUP4 DUP4 PUSH2 0x2ADC JUMP JUMPDEST EQ PUSH2 0x1E81 JUMPI PUSH1 0x40 MLOAD PUSH3 0x461BCD PUSH1 0xE5 SHL DUP2 MSTORE PUSH1 0x20 PUSH1 0x4 DUP3 ADD MSTORE PUSH1 0x1F PUSH1 0x24 DUP3 ADD MSTORE PUSH32 0x4E6F7420656E6F75676820746F6B656E20776173207472616E73666572656400 PUSH1 0x44 DUP3 ADD MSTORE PUSH1 0x64 ADD PUSH2 0x93F JUMP JUMPDEST POP POP POP POP POP POP JUMP JUMPDEST PUSH1 0x0 SLOAD PUSH1 0x1 PUSH1 0x1 PUSH1 0xA0 SHL SUB AND CALLER EQ PUSH2 0xF19 JUMPI PUSH1 0x40 MLOAD PUSH3 0x461BCD PUSH1 0xE5 SHL DUP2 MSTORE PUSH1 0x20 PUSH1 0x4 DUP3 ADD DUP2 SWAP1 MSTORE PUSH1 0x24 DUP3 ADD MSTORE PUSH32 0x4F776E61626C653A2063616C6C6572206973206E6F7420746865206F776E6572 PUSH1 0x44 DUP3 ADD MSTORE PUSH1 0x64 ADD PUSH2 0x93F JUMP JUMPDEST PUSH1 0x0 DUP1 SLOAD PUSH1 0x1 PUSH1 0x1 PUSH1 0xA0 SHL SUB DUP4 DUP2 AND PUSH1 0x1 PUSH1 0x1 PUSH1 0xA0 SHL SUB NOT DUP4 AND DUP2 OR DUP5 SSTORE PUSH1 0x40 MLOAD SWAP2 SWAP1 SWAP3 AND SWAP3 DUP4 SWAP2 PUSH32 0x8BE0079C531659141344CD1FD0A4F28419497F9722A3DAAFE3B4186F6B6457E0 SWAP2 SWAP1 LOG3 POP POP JUMP JUMPDEST PUSH1 0x2 SLOAD DUP3 SWAP1 DUP2 LT PUSH2 0x1F56 JUMPI PUSH1 0x40 MLOAD PUSH3 0x461BCD PUSH1 0xE5 SHL DUP2 MSTORE PUSH1 0x4 ADD PUSH2 0x93F SWAP1 PUSH2 0x2B1E JUMP JUMPDEST PUSH1 0x0 PUSH1 0x2 DUP5 DUP2 SLOAD DUP2 LT PUSH2 0x1F6B JUMPI PUSH2 0x1F6B PUSH2 0x2A9D JUMP JUMPDEST PUSH1 0x0 SWAP2 DUP3 MSTORE PUSH1 0x20 SWAP1 SWAP2 KECCAK256 PUSH1 0x6 SWAP1 SWAP2 MUL ADD PUSH1 0x2 DUP2 ADD SLOAD SWAP1 SWAP2 POP PUSH1 0x1 PUSH1 0x1 PUSH1 0xA0 SHL SUB AND CALLER DUP2 EQ PUSH2 0x1FAB JUMPI PUSH1 0x40 MLOAD PUSH3 0x461BCD PUSH1 0xE5 SHL DUP2 MSTORE PUSH1 0x4 ADD PUSH2 0x93F SWAP1 PUSH2 0x2B47 JUMP JUMPDEST DUP2 PUSH1 0x3 ADD SLOAD PUSH1 0x0 SUB PUSH2 0x1FF7 JUMPI PUSH1 0x40 MLOAD PUSH3 0x461BCD PUSH1 0xE5 SHL DUP2 MSTORE PUSH1 0x20 PUSH1 0x4 DUP3 ADD MSTORE PUSH1 0x15 PUSH1 0x24 DUP3 ADD MSTORE PUSH21 0x546865206C6F636B20686173206E6F2076616C7565 PUSH1 0x58 SHL PUSH1 0x44 DUP3 ADD MSTORE PUSH1 0x64 ADD PUSH2 0x93F JUMP JUMPDEST PUSH1 0x2 DUP3 ADD DUP1 SLOAD PUSH1 0x1 PUSH1 0x1 PUSH1 0xA0 SHL SUB NOT AND PUSH1 0x1 PUSH1 0x1 PUSH1 0xA0 SHL SUB DUP7 DUP2 AND SWAP2 SWAP1 SWAP2 OR SWAP1 SWAP2 SSTORE PUSH1 0x1 DUP1 DUP5 ADD SLOAD DUP3 AND PUSH1 0x0 SWAP1 DUP2 MSTORE PUSH1 0x9 PUSH1 0x20 MSTORE PUSH1 0x40 SWAP1 KECCAK256 SWAP1 DUP2 ADD SLOAD SWAP1 SWAP2 AND ISZERO DUP1 ISZERO SWAP1 PUSH2 0x2089 JUMPI PUSH1 0x1 PUSH1 0x1 PUSH1 0xA0 SHL SUB DUP4 AND PUSH1 0x0 SWAP1 DUP2 MSTORE PUSH1 0x3 PUSH1 0x20 MSTORE PUSH1 0x40 SWAP1 KECCAK256 PUSH2 0x2060 SWAP1 DUP9 PUSH2 0x19AD JUMP JUMPDEST POP PUSH1 0x1 PUSH1 0x1 PUSH1 0xA0 SHL SUB DUP7 AND PUSH1 0x0 SWAP1 DUP2 MSTORE PUSH1 0x3 PUSH1 0x20 MSTORE PUSH1 0x40 SWAP1 KECCAK256 PUSH2 0x2083 SWAP1 DUP9 PUSH2 0x2589 JUMP JUMPDEST POP PUSH2 0x20D0 JUMP JUMPDEST PUSH1 0x1 PUSH1 0x1 PUSH1 0xA0 SHL SUB DUP4 AND PUSH1 0x0 SWAP1 DUP2 MSTORE PUSH1 0x4 PUSH1 0x20 MSTORE PUSH1 0x40 SWAP1 KECCAK256 PUSH2 0x20AB SWAP1 DUP9 PUSH2 0x19AD JUMP JUMPDEST POP PUSH1 0x1 PUSH1 0x1 PUSH1 0xA0 SHL SUB DUP7 AND PUSH1 0x0 SWAP1 DUP2 MSTORE PUSH1 0x4 PUSH1 0x20 MSTORE PUSH1 0x40 SWAP1 KECCAK256 PUSH2 0x20CE SWAP1 DUP9 PUSH2 0x2589 JUMP JUMPDEST POP JUMPDEST PUSH1 0x40 DUP1 MLOAD DUP9 DUP2 MSTORE PUSH1 0x1 PUSH1 0x1 PUSH1 0xA0 SHL SUB DUP6 DUP2 AND PUSH1 0x20 DUP4 ADD MSTORE DUP9 AND DUP2 DUP4 ADD MSTORE SWAP1 MLOAD PUSH32 0x9075AD040756C0D8743A1FED927066A92C4755071615BF61E04B17583D961CAF SWAP2 DUP2 SWAP1 SUB PUSH1 0x60 ADD SWAP1 LOG1 POP POP POP POP POP POP POP JUMP JUMPDEST DUP1 SELFBALANCE LT ISZERO PUSH2 0x2172 JUMPI PUSH1 0x40 MLOAD PUSH3 0x461BCD PUSH1 0xE5 SHL DUP2 MSTORE PUSH1 0x20 PUSH1 0x4 DUP3 ADD MSTORE PUSH1 0x1D PUSH1 0x24 DUP3 ADD MSTORE PUSH32 0x416464726573733A20696E73756666696369656E742062616C616E6365000000 PUSH1 0x44 DUP3 ADD MSTORE PUSH1 0x64 ADD PUSH2 0x93F JUMP JUMPDEST PUSH1 0x0 DUP3 PUSH1 0x1 PUSH1 0x1 PUSH1 0xA0 SHL SUB AND DUP3 PUSH1 0x40 MLOAD PUSH1 0x0 PUSH1 0x40 MLOAD DUP1 DUP4 SUB DUP2 DUP6 DUP8 GAS CALL SWAP3 POP POP POP RETURNDATASIZE DUP1 PUSH1 0x0 DUP2 EQ PUSH2 0x21BF JUMPI PUSH1 0x40 MLOAD SWAP2 POP PUSH1 0x1F NOT PUSH1 0x3F RETURNDATASIZE ADD AND DUP3 ADD PUSH1 0x40 MSTORE RETURNDATASIZE DUP3 MSTORE RETURNDATASIZE PUSH1 0x0 PUSH1 0x20 DUP5 ADD RETURNDATACOPY PUSH2 0x21C4 JUMP JUMPDEST PUSH1 0x60 SWAP2 POP JUMPDEST POP POP SWAP1 POP DUP1 PUSH2 0x1A31 JUMPI PUSH1 0x40 MLOAD PUSH3 0x461BCD PUSH1 0xE5 SHL DUP2 MSTORE PUSH1 0x20 PUSH1 0x4 DUP3 ADD MSTORE PUSH1 0x3A PUSH1 0x24 DUP3 ADD MSTORE PUSH32 0x416464726573733A20756E61626C6520746F2073656E642076616C75652C2072 PUSH1 0x44 DUP3 ADD MSTORE PUSH32 0x6563697069656E74206D61792068617665207265766572746564000000000000 PUSH1 0x64 DUP3 ADD MSTORE PUSH1 0x84 ADD PUSH2 0x93F JUMP JUMPDEST PUSH1 0x0 DUP3 PUSH1 0x0 ADD DUP3 DUP2 SLOAD DUP2 LT PUSH2 0x2252 JUMPI PUSH2 0x2252 PUSH2 0x2A9D JUMP JUMPDEST SWAP1 PUSH1 0x0 MSTORE PUSH1 0x20 PUSH1 0x0 KECCAK256 ADD SLOAD SWAP1 POP SWAP3 SWAP2 POP POP JUMP JUMPDEST PUSH1 0x0 DUP2 DUP2 MSTORE PUSH1 0x1 DUP4 ADD PUSH1 0x20 MSTORE PUSH1 0x40 DUP2 KECCAK256 SLOAD DUP1 ISZERO PUSH2 0x234E JUMPI PUSH1 0x0 PUSH2 0x2289 PUSH1 0x1 DUP4 PUSH2 0x2ADC JUMP JUMPDEST DUP6 SLOAD SWAP1 SWAP2 POP PUSH1 0x0 SWAP1 PUSH2 0x229D SWAP1 PUSH1 0x1 SWAP1 PUSH2 0x2ADC JUMP JUMPDEST SWAP1 POP DUP2 DUP2 EQ PUSH2 0x2302 JUMPI PUSH1 0x0 DUP7 PUSH1 0x0 ADD DUP3 DUP2 SLOAD DUP2 LT PUSH2 0x22BD JUMPI PUSH2 0x22BD PUSH2 0x2A9D JUMP JUMPDEST SWAP1 PUSH1 0x0 MSTORE PUSH1 0x20 PUSH1 0x0 KECCAK256 ADD SLOAD SWAP1 POP DUP1 DUP8 PUSH1 0x0 ADD DUP5 DUP2 SLOAD DUP2 LT PUSH2 0x22E0 JUMPI PUSH2 0x22E0 PUSH2 0x2A9D JUMP JUMPDEST PUSH1 0x0 SWAP2 DUP3 MSTORE PUSH1 0x20 DUP1 DUP4 KECCAK256 SWAP1 SWAP2 ADD SWAP3 SWAP1 SWAP3 SSTORE SWAP2 DUP3 MSTORE PUSH1 0x1 DUP9 ADD SWAP1 MSTORE PUSH1 0x40 SWAP1 KECCAK256 DUP4 SWAP1 SSTORE JUMPDEST DUP6 SLOAD DUP7 SWAP1 DUP1 PUSH2 0x2313 JUMPI PUSH2 0x2313 PUSH2 0x2BE8 JUMP JUMPDEST PUSH1 0x1 SWAP1 SUB DUP2 DUP2 SWAP1 PUSH1 0x0 MSTORE PUSH1 0x20 PUSH1 0x0 KECCAK256 ADD PUSH1 0x0 SWAP1 SSTORE SWAP1 SSTORE DUP6 PUSH1 0x1 ADD PUSH1 0x0 DUP7 DUP2 MSTORE PUSH1 0x20 ADD SWAP1 DUP2 MSTORE PUSH1 0x20 ADD PUSH1 0x0 KECCAK256 PUSH1 0x0 SWAP1 SSTORE PUSH1 0x1 SWAP4 POP POP POP POP PUSH2 0x5E2 JUMP JUMPDEST PUSH1 0x0 SWAP2 POP POP PUSH2 0x5E2 JUMP JUMPDEST PUSH1 0x0 PUSH2 0x23AD DUP3 PUSH1 0x40 MLOAD DUP1 PUSH1 0x40 ADD PUSH1 0x40 MSTORE DUP1 PUSH1 0x20 DUP2 MSTORE PUSH1 0x20 ADD PUSH32 0x5361666545524332303A206C6F772D6C6576656C2063616C6C206661696C6564 DUP2 MSTORE POP DUP6 PUSH1 0x1 PUSH1 0x1 PUSH1 0xA0 SHL SUB AND PUSH2 0x25E8 SWAP1 SWAP3 SWAP2 SWAP1 PUSH4 0xFFFFFFFF AND JUMP JUMPDEST SWAP1 POP DUP1 MLOAD PUSH1 0x0 EQ DUP1 PUSH2 0x23CE JUMPI POP DUP1 DUP1 PUSH1 0x20 ADD SWAP1 MLOAD DUP2 ADD SWAP1 PUSH2 0x23CE SWAP2 SWAP1 PUSH2 0x2BFE JUMP JUMPDEST PUSH2 0x1A31 JUMPI PUSH1 0x40 MLOAD PUSH3 0x461BCD PUSH1 0xE5 SHL DUP2 MSTORE PUSH1 0x20 PUSH1 0x4 DUP3 ADD MSTORE PUSH1 0x2A PUSH1 0x24 DUP3 ADD MSTORE PUSH32 0x5361666545524332303A204552433230206F7065726174696F6E20646964206E PUSH1 0x44 DUP3 ADD MSTORE PUSH10 0x1BDD081CDD58D8D95959 PUSH1 0xB2 SHL PUSH1 0x64 DUP3 ADD MSTORE PUSH1 0x84 ADD PUSH2 0x93F JUMP JUMPDEST PUSH1 0x2 DUP1 SLOAD PUSH1 0x40 DUP1 MLOAD PUSH1 0xC0 DUP2 ADD DUP3 MSTORE DUP3 DUP2 MSTORE PUSH1 0x1 PUSH1 0x1 PUSH1 0xA0 SHL SUB SWAP7 DUP8 AND PUSH1 0x20 DUP3 ADD SWAP1 DUP2 MSTORE SWAP8 DUP8 AND SWAP2 DUP2 ADD SWAP2 DUP3 MSTORE PUSH1 0x60 DUP2 ADD SWAP6 DUP7 MSTORE TIMESTAMP PUSH1 0x80 DUP3 ADD SWAP1 DUP2 MSTORE PUSH1 0xA0 DUP3 ADD SWAP6 DUP7 MSTORE PUSH1 0x1 DUP5 ADD DUP6 SSTORE PUSH1 0x0 SWAP5 SWAP1 SWAP5 MSTORE MLOAD PUSH1 0x6 DUP4 MUL PUSH32 0x405787FA12A823E0F2B7631CC41B3BA8828B3321CA811111FA75CD3AA3BB5ACE DUP2 ADD SWAP2 SWAP1 SWAP2 SSTORE SWAP7 MLOAD PUSH32 0x405787FA12A823E0F2B7631CC41B3BA8828B3321CA811111FA75CD3AA3BB5ACF DUP9 ADD DUP1 SLOAD SWAP2 DUP9 AND PUSH1 0x1 PUSH1 0x1 PUSH1 0xA0 SHL SUB NOT SWAP3 DUP4 AND OR SWAP1 SSTORE SWAP1 MLOAD PUSH32 0x405787FA12A823E0F2B7631CC41B3BA8828B3321CA811111FA75CD3AA3BB5AD0 DUP9 ADD DUP1 SLOAD SWAP2 SWAP1 SWAP8 AND SWAP2 AND OR SWAP1 SWAP5 SSTORE SWAP2 MLOAD PUSH32 0x405787FA12A823E0F2B7631CC41B3BA8828B3321CA811111FA75CD3AA3BB5AD1 DUP6 ADD SSTORE SWAP1 MLOAD PUSH32 0x405787FA12A823E0F2B7631CC41B3BA8828B3321CA811111FA75CD3AA3BB5AD2 DUP5 ADD SSTORE MLOAD PUSH32 0x405787FA12A823E0F2B7631CC41B3BA8828B3321CA811111FA75CD3AA3BB5AD3 SWAP1 SWAP3 ADD SWAP2 SWAP1 SWAP2 SSTORE SWAP1 JUMP JUMPDEST PUSH1 0x0 PUSH2 0x19A6 DUP4 DUP4 PUSH2 0x25FF JUMP JUMPDEST PUSH1 0x0 PUSH2 0x19A6 DUP4 PUSH1 0x1 PUSH1 0x1 PUSH1 0xA0 SHL SUB DUP5 AND PUSH2 0x25FF JUMP JUMPDEST PUSH1 0x40 MLOAD PUSH1 0x1 PUSH1 0x1 PUSH1 0xA0 SHL SUB DUP1 DUP6 AND PUSH1 0x24 DUP4 ADD MSTORE DUP4 AND PUSH1 0x44 DUP3 ADD MSTORE PUSH1 0x64 DUP2 ADD DUP3 SWAP1 MSTORE PUSH2 0x25E2 SWAP1 DUP6 SWAP1 PUSH4 0x23B872DD PUSH1 0xE0 SHL SWAP1 PUSH1 0x84 ADD PUSH2 0x19FA JUMP JUMPDEST POP POP POP POP JUMP JUMPDEST PUSH1 0x60 PUSH2 0x25F7 DUP5 DUP5 PUSH1 0x0 DUP6 PUSH2 0x264E JUMP JUMPDEST SWAP5 SWAP4 POP POP POP POP JUMP JUMPDEST PUSH1 0x0 DUP2 DUP2 MSTORE PUSH1 0x1 DUP4 ADD PUSH1 0x20 MSTORE PUSH1 0x40 DUP2 KECCAK256 SLOAD PUSH2 0x2646 JUMPI POP DUP2 SLOAD PUSH1 0x1 DUP2 DUP2 ADD DUP5 SSTORE PUSH1 0x0 DUP5 DUP2 MSTORE PUSH1 0x20 DUP1 DUP3 KECCAK256 SWAP1 SWAP4 ADD DUP5 SWAP1 SSTORE DUP5 SLOAD DUP5 DUP3 MSTORE DUP3 DUP7 ADD SWAP1 SWAP4 MSTORE PUSH1 0x40 SWAP1 KECCAK256 SWAP2 SWAP1 SWAP2 SSTORE PUSH2 0x5E2 JUMP JUMPDEST POP PUSH1 0x0 PUSH2 0x5E2 JUMP JUMPDEST PUSH1 0x60 DUP3 SELFBALANCE LT ISZERO PUSH2 0x26AF JUMPI PUSH1 0x40 MLOAD PUSH3 0x461BCD PUSH1 0xE5 SHL DUP2 MSTORE PUSH1 0x20 PUSH1 0x4 DUP3 ADD MSTORE PUSH1 0x26 PUSH1 0x24 DUP3 ADD MSTORE PUSH32 0x416464726573733A20696E73756666696369656E742062616C616E636520666F PUSH1 0x44 DUP3 ADD MSTORE PUSH6 0x1C8818D85B1B PUSH1 0xD2 SHL PUSH1 0x64 DUP3 ADD MSTORE PUSH1 0x84 ADD PUSH2 0x93F JUMP JUMPDEST PUSH1 0x0 DUP1 DUP7 PUSH1 0x1 PUSH1 0x1 PUSH1 0xA0 SHL SUB AND DUP6 DUP8 PUSH1 0x40 MLOAD PUSH2 0x26CB SWAP2 SWAP1 PUSH2 0x2C3F JUMP JUMPDEST PUSH1 0x0 PUSH1 0x40 MLOAD DUP1 DUP4 SUB DUP2 DUP6 DUP8 GAS CALL SWAP3 POP POP POP RETURNDATASIZE DUP1 PUSH1 0x0 DUP2 EQ PUSH2 0x2708 JUMPI PUSH1 0x40 MLOAD SWAP2 POP PUSH1 0x1F NOT PUSH1 0x3F RETURNDATASIZE ADD AND DUP3 ADD PUSH1 0x40 MSTORE RETURNDATASIZE DUP3 MSTORE RETURNDATASIZE PUSH1 0x0 PUSH1 0x20 DUP5 ADD RETURNDATACOPY PUSH2 0x270D JUMP JUMPDEST PUSH1 0x60 SWAP2 POP JUMPDEST POP SWAP2 POP SWAP2 POP PUSH2 0x271E DUP8 DUP4 DUP4 DUP8 PUSH2 0x2729 JUMP JUMPDEST SWAP8 SWAP7 POP POP POP POP POP POP POP JUMP JUMPDEST PUSH1 0x60 DUP4 ISZERO PUSH2 0x2798 JUMPI DUP3 MLOAD PUSH1 0x0 SUB PUSH2 0x2791 JUMPI PUSH1 0x1 PUSH1 0x1 PUSH1 0xA0 SHL SUB DUP6 AND EXTCODESIZE PUSH2 0x2791 JUMPI PUSH1 0x40 MLOAD PUSH3 0x461BCD PUSH1 0xE5 SHL DUP2 MSTORE PUSH1 0x20 PUSH1 0x4 DUP3 ADD MSTORE PUSH1 0x1D PUSH1 0x24 DUP3 ADD MSTORE PUSH32 0x416464726573733A2063616C6C20746F206E6F6E2D636F6E7472616374000000 PUSH1 0x44 DUP3 ADD MSTORE PUSH1 0x64 ADD PUSH2 0x93F JUMP JUMPDEST POP DUP2 PUSH2 0x25F7 JUMP JUMPDEST PUSH2 0x25F7 DUP4 DUP4 DUP2 MLOAD ISZERO PUSH2 0x27AD JUMPI DUP2 MLOAD DUP1 DUP4 PUSH1 0x20 ADD REVERT JUMPDEST DUP1 PUSH1 0x40 MLOAD PUSH3 0x461BCD PUSH1 0xE5 SHL DUP2 MSTORE PUSH1 0x4 ADD PUSH2 0x93F SWAP2 SWAP1 PUSH2 0x2C5B JUMP JUMPDEST PUSH1 0x40 MLOAD DUP1 PUSH1 0xC0 ADD PUSH1 0x40 MSTORE DUP1 PUSH1 0x0 DUP2 MSTORE PUSH1 0x20 ADD PUSH1 0x0 PUSH1 0x1 PUSH1 0x1 PUSH1 0xA0 SHL SUB AND DUP2 MSTORE PUSH1 0x20 ADD PUSH1 0x0 PUSH1 0x1 PUSH1 0x1 PUSH1 0xA0 SHL SUB AND DUP2 MSTORE PUSH1 0x20 ADD PUSH1 0x0 DUP2 MSTORE PUSH1 0x20 ADD PUSH1 0x0 DUP2 MSTORE PUSH1 0x20 ADD PUSH1 0x0 DUP2 MSTORE POP SWAP1 JUMP JUMPDEST PUSH1 0x1 PUSH1 0x1 PUSH1 0xA0 SHL SUB DUP2 AND DUP2 EQ PUSH2 0x1130 JUMPI PUSH1 0x0 DUP1 REVERT JUMPDEST PUSH1 0x0 PUSH1 0x20 DUP3 DUP5 SUB SLT ISZERO PUSH2 0x2836 JUMPI PUSH1 0x0 DUP1 REVERT JUMPDEST DUP2 CALLDATALOAD PUSH2 0x19A6 DUP2 PUSH2 0x280F JUMP JUMPDEST PUSH1 0x0 PUSH1 0x20 DUP3 DUP5 SUB SLT ISZERO PUSH2 0x2853 JUMPI PUSH1 0x0 DUP1 REVERT JUMPDEST POP CALLDATALOAD SWAP2 SWAP1 POP JUMP JUMPDEST DUP1 MLOAD DUP3 MSTORE PUSH1 0x20 DUP2 ADD MLOAD PUSH1 0x1 DUP1 PUSH1 0xA0 SHL SUB DUP1 DUP3 AND PUSH1 0x20 DUP6 ADD MSTORE DUP1 PUSH1 0x40 DUP5 ADD MLOAD AND PUSH1 0x40 DUP6 ADD MSTORE POP POP PUSH1 0x60 DUP2 ADD MLOAD PUSH1 0x60 DUP4 ADD MSTORE PUSH1 0x80 DUP2 ADD MLOAD PUSH1 0x80 DUP4 ADD MSTORE PUSH1 0xA0 DUP2 ADD MLOAD PUSH1 0xA0 DUP4 ADD MSTORE POP POP JUMP JUMPDEST PUSH1 0xC0 DUP2 ADD PUSH2 0x5E2 DUP3 DUP5 PUSH2 0x285A JUMP JUMPDEST PUSH1 0x0 DUP1 PUSH1 0x0 PUSH1 0x60 DUP5 DUP7 SUB SLT ISZERO PUSH2 0x28C5 JUMPI PUSH1 0x0 DUP1 REVERT JUMPDEST DUP4 CALLDATALOAD PUSH2 0x28D0 DUP2 PUSH2 0x280F JUMP JUMPDEST SWAP6 PUSH1 0x20 DUP6 ADD CALLDATALOAD SWAP6 POP PUSH1 0x40 SWAP1 SWAP5 ADD CALLDATALOAD SWAP4 SWAP3 POP POP POP JUMP JUMPDEST PUSH1 0x20 DUP1 DUP3 MSTORE DUP3 MLOAD DUP3 DUP3 ADD DUP2 SWAP1 MSTORE PUSH1 0x0 SWAP2 SWAP1 DUP5 DUP3 ADD SWAP1 PUSH1 0x40 DUP6 ADD SWAP1 DUP5 JUMPDEST DUP2 DUP2 LT ISZERO PUSH2 0x83B JUMPI PUSH2 0x2914 DUP4 DUP6 MLOAD PUSH2 0x285A JUMP JUMPDEST SWAP3 DUP5 ADD SWAP3 PUSH1 0xC0 SWAP3 SWAP1 SWAP3 ADD SWAP2 PUSH1 0x1 ADD PUSH2 0x2901 JUMP JUMPDEST PUSH1 0x0 DUP1 PUSH1 0x40 DUP4 DUP6 SUB SLT ISZERO PUSH2 0x293A JUMPI PUSH1 0x0 DUP1 REVERT JUMPDEST DUP3 CALLDATALOAD PUSH2 0x2945 DUP2 PUSH2 0x280F JUMP JUMPDEST SWAP5 PUSH1 0x20 SWAP4 SWAP1 SWAP4 ADD CALLDATALOAD SWAP4 POP POP POP JUMP JUMPDEST DUP1 ISZERO ISZERO DUP2 EQ PUSH2 0x1130 JUMPI PUSH1 0x0 DUP1 REVERT JUMPDEST PUSH1 0x0 DUP1 PUSH1 0x0 DUP1 PUSH1 0x0 PUSH1 0xA0 DUP7 DUP9 SUB SLT ISZERO PUSH2 0x2979 JUMPI PUSH1 0x0 DUP1 REVERT JUMPDEST DUP6 CALLDATALOAD PUSH2 0x2984 DUP2 PUSH2 0x280F JUMP JUMPDEST SWAP5 POP PUSH1 0x20 DUP7 ADD CALLDATALOAD PUSH2 0x2994 DUP2 PUSH2 0x280F JUMP JUMPDEST SWAP4 POP PUSH1 0x40 DUP7 ADD CALLDATALOAD PUSH2 0x29A4 DUP2 PUSH2 0x2953 JUMP JUMPDEST SWAP5 SWAP8 SWAP4 SWAP7 POP SWAP4 SWAP5 PUSH1 0x60 DUP2 ADD CALLDATALOAD SWAP5 POP PUSH1 0x80 ADD CALLDATALOAD SWAP3 SWAP2 POP POP JUMP JUMPDEST PUSH1 0x0 DUP1 PUSH1 0x40 DUP4 DUP6 SUB SLT ISZERO PUSH2 0x29CF JUMPI PUSH1 0x0 DUP1 REVERT JUMPDEST POP POP DUP1 CALLDATALOAD SWAP3 PUSH1 0x20 SWAP1 SWAP2 ADD CALLDATALOAD SWAP2 POP JUMP JUMPDEST PUSH1 0x20 DUP1 DUP3 MSTORE DUP3 MLOAD DUP3 DUP3 ADD DUP2 SWAP1 MSTORE PUSH1 0x0 SWAP2 SWAP1 DUP5 DUP3 ADD SWAP1 PUSH1 0x40 DUP6 ADD SWAP1 DUP5 JUMPDEST DUP2 DUP2 LT ISZERO PUSH2 0x83B JUMPI PUSH2 0x2A2F DUP4 DUP6 MLOAD DUP1 MLOAD PUSH1 0x1 PUSH1 0x1 PUSH1 0xA0 SHL SUB SWAP1 DUP2 AND DUP4 MSTORE PUSH1 0x20 DUP1 DUP4 ADD MLOAD SWAP1 SWAP2 AND SWAP1 DUP4 ADD MSTORE PUSH1 0x40 SWAP1 DUP2 ADD MLOAD SWAP2 ADD MSTORE JUMP JUMPDEST SWAP3 DUP5 ADD SWAP3 PUSH1 0x60 SWAP3 SWAP1 SWAP3 ADD SWAP2 PUSH1 0x1 ADD PUSH2 0x29FA JUMP JUMPDEST DUP2 MLOAD PUSH1 0x1 PUSH1 0x1 PUSH1 0xA0 SHL SUB SWAP1 DUP2 AND DUP3 MSTORE PUSH1 0x20 DUP1 DUP5 ADD MLOAD SWAP1 SWAP2 AND SWAP1 DUP3 ADD MSTORE PUSH1 0x40 DUP1 DUP4 ADD MLOAD SWAP1 DUP3 ADD MSTORE PUSH1 0x60 DUP2 ADD PUSH2 0x5E2 JUMP JUMPDEST PUSH1 0x0 DUP1 PUSH1 0x0 PUSH1 0x60 DUP5 DUP7 SUB SLT ISZERO PUSH2 0x2A86 JUMPI PUSH1 0x0 DUP1 REVERT JUMPDEST POP POP DUP2 CALLDATALOAD SWAP4 PUSH1 0x20 DUP4 ADD CALLDATALOAD SWAP4 POP PUSH1 0x40 SWAP1 SWAP3 ADD CALLDATALOAD SWAP2 SWAP1 POP JUMP JUMPDEST PUSH4 0x4E487B71 PUSH1 0xE0 SHL PUSH1 0x0 MSTORE PUSH1 0x32 PUSH1 0x4 MSTORE PUSH1 0x24 PUSH1 0x0 REVERT JUMPDEST PUSH4 0x4E487B71 PUSH1 0xE0 SHL PUSH1 0x0 MSTORE PUSH1 0x11 PUSH1 0x4 MSTORE PUSH1 0x24 PUSH1 0x0 REVERT JUMPDEST DUP1 DUP3 ADD DUP1 DUP3 GT ISZERO PUSH2 0x5E2 JUMPI PUSH2 0x5E2 PUSH2 0x2AB3 JUMP JUMPDEST DUP2 DUP2 SUB DUP2 DUP2 GT ISZERO PUSH2 0x5E2 JUMPI PUSH2 0x5E2 PUSH2 0x2AB3 JUMP JUMPDEST PUSH4 0x4E487B71 PUSH1 0xE0 SHL PUSH1 0x0 MSTORE PUSH1 0x41 PUSH1 0x4 MSTORE PUSH1 0x24 PUSH1 0x0 REVERT JUMPDEST PUSH1 0x0 PUSH1 0x1 DUP3 ADD PUSH2 0x2B17 JUMPI PUSH2 0x2B17 PUSH2 0x2AB3 JUMP JUMPDEST POP PUSH1 0x1 ADD SWAP1 JUMP JUMPDEST PUSH1 0x20 DUP1 DUP3 MSTORE PUSH1 0xF SWAP1 DUP3 ADD MSTORE PUSH15 0x125B9D985B1A59081B1BD8DAC81A59 PUSH1 0x8A SHL PUSH1 0x40 DUP3 ADD MSTORE PUSH1 0x60 ADD SWAP1 JUMP JUMPDEST PUSH1 0x20 DUP1 DUP3 MSTORE PUSH1 0x22 SWAP1 DUP3 ADD MSTORE PUSH32 0x596F7520617265206E6F7420746865206F776E6572206F662074686973206C6F PUSH1 0x40 DUP3 ADD MSTORE PUSH2 0x636B PUSH1 0xF0 SHL PUSH1 0x60 DUP3 ADD MSTORE PUSH1 0x80 ADD SWAP1 JUMP JUMPDEST PUSH1 0x1 PUSH1 0x1 PUSH1 0xA0 SHL SUB SWAP5 DUP6 AND DUP2 MSTORE SWAP3 SWAP1 SWAP4 AND PUSH1 0x20 DUP4 ADD MSTORE PUSH1 0x40 DUP3 ADD MSTORE PUSH1 0x60 DUP2 ADD SWAP2 SWAP1 SWAP2 MSTORE PUSH1 0x80 ADD SWAP1 JUMP JUMPDEST PUSH1 0x0 PUSH1 0x20 DUP3 DUP5 SUB SLT ISZERO PUSH2 0x2BC4 JUMPI PUSH1 0x0 DUP1 REVERT JUMPDEST DUP2 MLOAD PUSH2 0x19A6 DUP2 PUSH2 0x280F JUMP JUMPDEST PUSH1 0x0 PUSH1 0x20 DUP3 DUP5 SUB SLT ISZERO PUSH2 0x2BE1 JUMPI PUSH1 0x0 DUP1 REVERT JUMPDEST POP MLOAD SWAP2 SWAP1 POP JUMP JUMPDEST PUSH4 0x4E487B71 PUSH1 0xE0 SHL PUSH1 0x0 MSTORE PUSH1 0x31 PUSH1 0x4 MSTORE PUSH1 0x24 PUSH1 0x0 REVERT JUMPDEST PUSH1 0x0 PUSH1 0x20 DUP3 DUP5 SUB SLT ISZERO PUSH2 0x2C10 JUMPI PUSH1 0x0 DUP1 REVERT JUMPDEST DUP2 MLOAD PUSH2 0x19A6 DUP2 PUSH2 0x2953 JUMP JUMPDEST PUSH1 0x0 JUMPDEST DUP4 DUP2 LT ISZERO PUSH2 0x2C36 JUMPI DUP2 DUP2 ADD MLOAD DUP4 DUP3 ADD MSTORE PUSH1 0x20 ADD PUSH2 0x2C1E JUMP JUMPDEST POP POP PUSH1 0x0 SWAP2 ADD MSTORE JUMP JUMPDEST PUSH1 0x0 DUP3 MLOAD PUSH2 0x2C51 DUP2 DUP5 PUSH1 0x20 DUP8 ADD PUSH2 0x2C1B JUMP JUMPDEST SWAP2 SWAP1 SWAP2 ADD SWAP3 SWAP2 POP POP JUMP JUMPDEST PUSH1 0x20 DUP2 MSTORE PUSH1 0x0 DUP3 MLOAD DUP1 PUSH1 0x20 DUP5 ADD MSTORE PUSH2 0x2C7A DUP2 PUSH1 0x40 DUP6 ADD PUSH1 0x20 DUP8 ADD PUSH2 0x2C1B JUMP JUMPDEST PUSH1 0x1F ADD PUSH1 0x1F NOT AND SWAP2 SWAP1 SWAP2 ADD PUSH1 0x40 ADD SWAP3 SWAP2 POP POP JUMP INVALID LOG2 PUSH5 0x6970667358 0x22 SLT KECCAK256 DUP3 0xD6 MULMOD PUSH6 0x903068A22E87 DUP2 DUP13 0x4C 0xE3 KECCAK256 RETURNDATACOPY 0xC2 SMOD 0xB9 PUSH12 0xDB0909E8BFB734091E17E360 PUSH5 0x736F6C6343 STOP ADDMOD SLT STOP CALLER "
				},
				"gasEstimates": {
					"creation": {
						"codeDepositCost": "2292000",
						"executionCost": "infinite",
						"totalCost": "infinite"
					},
					"external": {
						"allLocks()": "infinite",
						"allLpTokenLockedCount()": "2426",
						"allNormalTokenLockedCount()": "2427",
						"cumulativeLockInfo(address)": "6909",
						"editLock(uint256,uint256,uint256)": "infinite",
						"fee()": "2329",
						"getCumulativeLpTokenLockInfo(uint256,uint256)": "infinite",
						"getCumulativeLpTokenLockInfoAt(uint256)": "11529",
						"getCumulativeNormalTokenLockInfo(uint256,uint256)": "infinite",
						"getCumulativeNormalTokenLockInfoAt(uint256)": "11485",
						"getLockAt(uint256)": "15798",
						"getLocksForToken(address,uint256,uint256)": "infinite",
						"getTotalLockCount()": "2391",
						"lock(address,address,bool,uint256,uint256)": "infinite",
						"lpLockCountForUser(address)": "infinite",
						"lpLockForUserAtIndex(address,uint256)": "infinite",
						"lpLocksForUser(address)": "infinite",
						"normalLockCountForUser(address)": "infinite",
						"normalLockForUserAtIndex(address,uint256)": "infinite",
						"normalLocksForUser(address)": "infinite",
						"owner()": "2390",
						"renounceLockOwnership(uint256)": "infinite",
						"renounceOwnership()": "infinite",
						"setFee(uint256)": "24578",
						"totalLockCountForToken(address)": "infinite",
						"totalLockCountForUser(address)": "infinite",
						"totalTokenLockedCount()": "infinite",
						"transferOwnership(address)": "infinite",
						"unlock(uint256)": "infinite",
						"withdrawFee()": "infinite"
					},
					"internal": {
						"_addLock(address,address,uint256,uint256)": "infinite",
						"_isValidLpToken(address,address)": "infinite",
						"_lockLpToken(address,address,address,uint256,uint256)": "infinite",
						"_lockNormalToken(address,address,uint256,uint256)": "infinite",
						"_safeTransferFromEnsureExactAmount(address,address,address,uint256)": "infinite",
						"_transferLockOwnership(uint256,address)": "infinite"
					}
				},
				"methodIdentifiers": {
					"allLocks()": "5fbdf739",
					"allLpTokenLockedCount()": "b982922e",
					"allNormalTokenLockedCount()": "475831c8",
					"cumulativeLockInfo(address)": "e1444fd6",
					"editLock(uint256,uint256,uint256)": "b3b9aa48",
					"fee()": "ddca3f43",
					"getCumulativeLpTokenLockInfo(uint256,uint256)": "aec640c6",
					"getCumulativeLpTokenLockInfoAt(uint256)": "a20b8c18",
					"getCumulativeNormalTokenLockInfo(uint256,uint256)": "76c12822",
					"getCumulativeNormalTokenLockInfoAt(uint256)": "7e6706d3",
					"getLockAt(uint256)": "0d4f581a",
					"getLocksForToken(address,uint256,uint256)": "332f26d7",
					"getTotalLockCount()": "fd981c66",
					"lock(address,address,bool,uint256,uint256)": "64be5b39",
					"lpLockCountForUser(address)": "07873ef1",
					"lpLockForUserAtIndex(address,uint256)": "eeacf786",
					"lpLocksForUser(address)": "aef0e540",
					"normalLockCountForUser(address)": "eb80bdae",
					"normalLockForUserAtIndex(address,uint256)": "618df7a3",
					"normalLocksForUser(address)": "da1d8cff",
					"owner()": "8da5cb5b",
					"renounceLockOwnership(uint256)": "a57e3141",
					"renounceOwnership()": "715018a6",
					"setFee(uint256)": "69fe0e2d",
					"totalLockCountForToken(address)": "e3676f88",
					"totalLockCountForUser(address)": "cd83eadc",
					"totalTokenLockedCount()": "1982242c",
					"transferOwnership(address)": "f2fde38b",
					"unlock(uint256)": "6198e339",
					"withdrawFee()": "e941fa78"
				}
			},
			"storageLayout": {
				"storage": [
					{
						"astId": 7,
						"contract": "src/FinLock.sol:FinLock",
						"label": "_owner",
						"offset": 0,
						"slot": "0",
						"type": "t_address"
					},
					{
						"astId": 1620,
						"contract": "src/FinLock.sol:FinLock",
						"label": "fee",
						"offset": 0,
						"slot": "1",
						"type": "t_uint256"
					},
					{
						"astId": 1624,
						"contract": "src/FinLock.sol:FinLock",
						"label": "_locks",
						"offset": 0,
						"slot": "2",
						"type": "t_array(t_struct(Lock)1611_storage)dyn_storage"
					},
					{
						"astId": 1629,
						"contract": "src/FinLock.sol:FinLock",
						"label": "_userLpLockIds",
						"offset": 0,
						"slot": "3",
						"type": "t_mapping(t_address,t_struct(UintSet)1437_storage)"
					},
					{
						"astId": 1634,
						"contract": "src/FinLock.sol:FinLock",
						"label": "_userNormalLockIds",
						"offset": 0,
						"slot": "4",
						"type": "t_mapping(t_address,t_struct(UintSet)1437_storage)"
					},
					{
						"astId": 1637,
						"contract": "src/FinLock.sol:FinLock",
						"label": "_lpLockedTokens",
						"offset": 0,
						"slot": "5",
						"type": "t_struct(AddressSet)1280_storage"
					},
					{
						"astId": 1640,
						"contract": "src/FinLock.sol:FinLock",
						"label": "_normalLockedTokens",
						"offset": 0,
						"slot": "7",
						"type": "t_struct(AddressSet)1280_storage"
					},
					{
						"astId": 1645,
						"contract": "src/FinLock.sol:FinLock",
						"label": "cumulativeLockInfo",
						"offset": 0,
						"slot": "9",
						"type": "t_mapping(t_address,t_struct(CumulativeLockInfo)1618_storage)"
					},
					{
						"astId": 1650,
						"contract": "src/FinLock.sol:FinLock",
						"label": "_tokenToLockIds",
						"offset": 0,
						"slot": "10",
						"type": "t_mapping(t_address,t_struct(UintSet)1437_storage)"
					}
				],
				"types": {
					"t_address": {
						"encoding": "inplace",
						"label": "address",
						"numberOfBytes": "20"
					},
					"t_array(t_bytes32)dyn_storage": {
						"base": "t_bytes32",
						"encoding": "dynamic_array",
						"label": "bytes32[]",
						"numberOfBytes": "32"
					},
					"t_array(t_struct(Lock)1611_storage)dyn_storage": {
						"base": "t_struct(Lock)1611_storage",
						"encoding": "dynamic_array",
						"label": "struct FinLock.Lock[]",
						"numberOfBytes": "32"
					},
					"t_bytes32": {
						"encoding": "inplace",
						"label": "bytes32",
						"numberOfBytes": "32"
					},
					"t_mapping(t_address,t_struct(CumulativeLockInfo)1618_storage)": {
						"encoding": "mapping",
						"key": "t_address",
						"label": "mapping(address => struct FinLock.CumulativeLockInfo)",
						"numberOfBytes": "32",
						"value": "t_struct(CumulativeLockInfo)1618_storage"
					},
					"t_mapping(t_address,t_struct(UintSet)1437_storage)": {
						"encoding": "mapping",
						"key": "t_address",
						"label": "mapping(address => struct EnumerableSet.UintSet)",
						"numberOfBytes": "32",
						"value": "t_struct(UintSet)1437_storage"
					},
					"t_mapping(t_bytes32,t_uint256)": {
						"encoding": "mapping",
						"key": "t_bytes32",
						"label": "mapping(bytes32 => uint256)",
						"numberOfBytes": "32",
						"value": "t_uint256"
					},
					"t_struct(AddressSet)1280_storage": {
						"encoding": "inplace",
						"label": "struct EnumerableSet.AddressSet",
						"members": [
							{
								"astId": 1279,
								"contract": "src/FinLock.sol:FinLock",
								"label": "_inner",
								"offset": 0,
								"slot": "0",
								"type": "t_struct(Set)965_storage"
							}
						],
						"numberOfBytes": "64"
					},
					"t_struct(CumulativeLockInfo)1618_storage": {
						"encoding": "inplace",
						"label": "struct FinLock.CumulativeLockInfo",
						"members": [
							{
								"astId": 1613,
								"contract": "src/FinLock.sol:FinLock",
								"label": "token",
								"offset": 0,
								"slot": "0",
								"type": "t_address"
							},
							{
								"astId": 1615,
								"contract": "src/FinLock.sol:FinLock",
								"label": "factory",
								"offset": 0,
								"slot": "1",
								"type": "t_address"
							},
							{
								"astId": 1617,
								"contract": "src/FinLock.sol:FinLock",
								"label": "amount",
								"offset": 0,
								"slot": "2",
								"type": "t_uint256"
							}
						],
						"numberOfBytes": "96"
					},
					"t_struct(Lock)1611_storage": {
						"encoding": "inplace",
						"label": "struct FinLock.Lock",
						"members": [
							{
								"astId": 1600,
								"contract": "src/FinLock.sol:FinLock",
								"label": "id",
								"offset": 0,
								"slot": "0",
								"type": "t_uint256"
							},
							{
								"astId": 1602,
								"contract": "src/FinLock.sol:FinLock",
								"label": "token",
								"offset": 0,
								"slot": "1",
								"type": "t_address"
							},
							{
								"astId": 1604,
								"contract": "src/FinLock.sol:FinLock",
								"label": "owner",
								"offset": 0,
								"slot": "2",
								"type": "t_address"
							},
							{
								"astId": 1606,
								"contract": "src/FinLock.sol:FinLock",
								"label": "amount",
								"offset": 0,
								"slot": "3",
								"type": "t_uint256"
							},
							{
								"astId": 1608,
								"contract": "src/FinLock.sol:FinLock",
								"label": "lockDate",
								"offset": 0,
								"slot": "4",
								"type": "t_uint256"
							},
							{
								"astId": 1610,
								"contract": "src/FinLock.sol:FinLock",
								"label": "unlockDate",
								"offset": 0,
								"slot": "5",
								"type": "t_uint256"
							}
						],
						"numberOfBytes": "192"
					},
					"t_struct(Set)965_storage": {
						"encoding": "inplace",
						"label": "struct EnumerableSet.Set",
						"members": [
							{
								"astId": 960,
								"contract": "src/FinLock.sol:FinLock",
								"label": "_values",
								"offset": 0,
								"slot": "0",
								"type": "t_array(t_bytes32)dyn_storage"
							},
							{
								"astId": 964,
								"contract": "src/FinLock.sol:FinLock",
								"label": "_indexes",
								"offset": 0,
								"slot": "1",
								"type": "t_mapping(t_bytes32,t_uint256)"
							}
						],
						"numberOfBytes": "64"
					},
					"t_struct(UintSet)1437_storage": {
						"encoding": "inplace",
						"label": "struct EnumerableSet.UintSet",
						"members": [
							{
								"astId": 1436,
								"contract": "src/FinLock.sol:FinLock",
								"label": "_inner",
								"offset": 0,
								"slot": "0",
								"type": "t_struct(Set)965_storage"
							}
						],
						"numberOfBytes": "64"
					},
					"t_uint256": {
						"encoding": "inplace",
						"label": "uint256",
						"numberOfBytes": "32"
					}
				}
			},
			"userdoc": {
				"kind": "user",
				"methods": {},
				"version": 1
			}
		}
	}
}